:020000040800F2
:10000000C08C002029030008455B0008514C000803
:10001000ED59000851100008ED86000800000000AE
:10002000000000000000000000000000690200085D
:10003000CD16000800000000C5020008197E000867
:100040004303000843030008430300084303000878
:100050004303000843030008331900084303000862
:1000600043030008391900083F190008430300083A
:100070002913000843030008430300084303000852
:100080004303000843030008430300084303000838
:1000900055100008611000084303000845190008C6
:1000A0004303000843030008430300084303000818
:1000B000D97E0008430300084303000843030008F7
:1000C00043030008430300084303000843030008F8
:1000D00043030008A986000843030008BD86000802
:1000E00043030008430300084303000843030008D8
:1000F00043030008430300084303000843030008C8
:1001000043030008430300084303000843030008B7
:1001100043030008430300084303000843030008A7
:100120004303000835130008411300084303000887
:100130004303000843030008430300084303000887
:100140006D100008791000084303000843030008FD
:1001500005160008111600081D160008D1860008B3
:100160004303000843030008430300084303000857
:100170004303000843030008430300080000000095
:10018000430300084303000800F002F800F05CF8A5
:100190000AA090E8000C82448344AAF10107DA45E2
:1001A00001D100F051F8AFF2090EBAE80F0013F0D8
:1001B000010F18BFFB1A43F001031847ACDD000024
:1001C000CCDD00000A444FF0000C10F8013B13F0A6
:1001D000070408BF10F8014B1D1108BF10F8015BA0
:1001E000641E05D010F8016B641E01F8016BF9D193
:1001F00013F0080F1EBF10F8014BAD1C0C1B09D1EA
:100200006D1E58BF01F801CBFAD505E014F8016B5B
:1002100001F8016B6D1EF9D59142D6D370470000ED
:100220000023002400250026103A28BF78C1FBD8FF
:10023000520728BF30C148BF0B6070471FB50DF093
:10024000D6FA1FBD10B510BD00F016FA1146FFF723
:10025000F5FF0AF023FF00F034FA03B4FFF7F2FFD2
:1002600003BC00F037FA00002C4B19680868B0E8AE
:10027000F04F80F30988BFF36F8F4FF0000080F3D9
:10028000118870470000000008480068006880F38B
:1002900008884FF0000080F3148862B661B6BFF39F
:1002A0004F8FBFF36F8F00DF00BF00BF08ED00E08E
:1002B000DFF80C00016841F470010160704700BF75
:1002C00088ED00E0EFF30980BFF36F8F134B1A68DE
:1002D0001EF0100F08BF20ED108A20E9F04F1060CB
:1002E00009B44FF0500080F31188BFF34F8FBFF374
:1002F0006F8F0BF033FF4FF0000080F3118809BCC3
:1003000019680868B0E8F04F1EF0100F08BFB0EC95
:10031000108A80F30988BFF36F8F70475400002064
:10032000EFF30580704700000948804709480047FF
:10033000FEE7FEE7FEE7FEE7FEE7FEE7FEE7FEE795
:10034000FEE7FEE704480549054A064B70470000F2
:10035000C97E000889010008C0860020C08C0020EA
:10036000C0880020C088002053EA020C00F0698099
:100370002DE9F04B4FF00006002B1FBFB3FA83F5B9
:1003800003FA05F424FA05F65E4012BF1643B2FAEA
:1003900082F502FA05F4C5F120051EBF22FA05FC1C
:1003A00044EA0C04203556EA044C4FEA144418BFC2
:1003B000641C4FF000084FF00009904271EB030CF1
:1003C00039D3002919BFB1FA81F701FA07F6B0FA5B
:1003D00080F700FA07F6C7F120071EBF20FA07FCD6
:1003E00046EA0C062037B6FBF4FCA7EB0507103FE6
:1003F00007F01F0BCBF120060CFA0BFB2CFA06F6CC
:1004000044BFB3460026202FA4BF5E464FF0000B2A
:100410005BEA060C08BF4FF0010B19EB0B09ABFBB5
:10042000027C48EB0608C01B06FB02CC0BFB03CC8E
:1004300071EB0C01C1E70B46024641464846BDE858
:10044000F08B13B54FF000004FF00001AFF30080C8
:10045000BDE81C407047B2F120030AD5C2F1200369
:1004600001FA02F120FA03F300FA02F041EA030173
:10047000704700FA03F14FF00000704710B5431CBD
:1004800002E010F8011B71B18107FAD14FF001327F
:1004900002C88C1A8C4314EAC211F9D0C01A0A0699
:1004A00003D0C01E10BDC01A10BD0A0401D0801EAA
:1004B00010BD0902FCD0401E10BD032A40F230805E
:1004C00010F0030C00F0158011F8013BBCF1020F95
:1004D000624498BF11F801CB00F8013B38BF11F816
:1004E000013BA2F1040298BF00F801CB38BF00F82D
:1004F000013B11F0030300F02580083AC0F00880AA
:1005000051F8043B083A51F804CBA0E80810F5E78D
:10051000121D5CBF51F8043B40F8043BAFF3008070
:10052000D20724BF11F8013B11F801CB48BF11F8E5
:10053000012B24BF00F8013B00F801CB48BF00F8B5
:10054000012B704710B5203AC0F00B80B1E818506D
:10055000203AA0E81850B1E81850A0E81850BFF4AD
:10056000F5AF5FEA027C24BFB1E81850A0E818504C
:1005700044BF18C918C0BDE810405FEA827C24BFA0
:1005800051F8043B40F8043B08BF7047D20728BF2E
:1005900031F8023B48BF11F8012B28BF20F8023B7D
:1005A00048BF00F8012B704702F0FF0343EA032223
:1005B00042EA024200F002B84FF000020429C0F003
:1005C000128010F0030C00F01B80CCF1040CBCF185
:1005D000020F18BF00F8012BA8BF20F8022BA1EBD7
:1005E0000C0100F00DB85FEAC17C24BF00F8012BBC
:1005F00000F8012B48BF00F8012B70474FF00002B4
:1006000000B5134694469646203922BFA0E80C5008
:10061000A0E80C50B1F12001BFF4F7AF090728BFE3
:10062000A0E80C5048BF0CC05DF804EB890028BF5F
:1006300040F8042B08BF704748BF20F8022B11F088
:10064000804F18BF00F8012B704770477047704704
:1006500010B500F009F8006810BD10B5044600F0B0
:1006600003F8046010BD0000004870475C8600205D
:10067000004870475C8600207546FFF7F9FFAE46DC
:1006800005006946534620F00700854618B020B59E
:10069000FFF758FEBDE820404FF000064FF000077E
:1006A0004FF000084FF0000B21F00701AC46ACE81A
:1006B000C009ACE8C009ACE8C009ACE8C0098D4687
:1006C000704710B50446AFF300802046BDE81040E7
:1006D000FFF7C3BD01491820ABBEFEE726000200AC
:1006E000704708F0CBBA08F05FBB10B510EE100AE7
:1006F0000DF00CF841EC100B08F07EFC51EC100BE7
:100700000CF0DCFA00EE100A10BDF0EE400AF5EE37
:10071000C00AF1EE10FA02DDB0EE600A7047B1EEE9
:10072000600AFBE7002803D09FED020A80ED000A73
:100730007047000000000000002803D0B3EE060A56
:1007400080ED000A7047000070B52DED0C8B84B071
:1007500006460C4615469FED990AF0EE408A9FED3D
:10076000970AB0EE409A9FED950AF0EE40BA9FEDE1
:10077000930AF0EE409A9FED910AB0EE40AA0EB1B6
:1007800004B11DB904B0BDEC0C8B70BD8C48FFF7F3
:10079000C9FF8C48FFF7D0FF8A48D0ED000A9FEDD3
:1007A0008A1A60EE810AB0EE600A00F025F9F0EED8
:1007B000408A28EEA80AF0EE408A8248D0ED000A6E
:1007C000B0EE001A60EE810A9FED7F1A60EE810A9A
:1007D000B0EE600A00F010F9B0EE409A29EE090A76
:1007E000B0EE409ADFED790AB7EE000A00EEA80AF3
:1007F000DFED770A00EEC90ADFED760A20EE200A67
:10080000754880ED000A6E4890ED000ADFED730A2E
:1008100080EE201AB7EE000A31EE000A20EE000A40
:100820006D48D0ED000A80EE801A6D4880ED001A08
:1008300094ED000AB5EEC00AF1EE10FA0DD194ED78
:10084000010AB5EEC00AF1EE10FA06D194ED020AE3
:10085000B5EEC00AF1EE10FA46D09FED580AB0EEA0
:10086000408A0020019002900390D4ED000A60EECF
:10087000A00A94ED011AD4ED011A41EE210A94ED7B
:10088000021AD4ED021A41EE210AB0EE600A00F01D
:10089000A9F8B0EE408A94ED000A20EE080A8DED2A
:1008A000010A94ED010A20EE080A8DED020A94ED8A
:1008B000020A20EE080A8DED030ADDED010AF1EED1
:1008C000600AB0EE600AFFF70CFFF0EE409A9DED73
:1008D000031AF0EE410A9DED021AB0EE410AFFF74D
:1008E00002FFB0EE40AA07E09FED340AF0EE409A16
:1008F0009FED320AB0EE40AA95ED000AB5EEC00AAF
:10090000F1EE10FA0DD195ED010AB5EEC00AF1EE47
:1009100010FA06D195ED020AB5EEC00AF1EE10FA12
:100920003CD0B0EE690A00F067F8B0EE408AB0EE55
:10093000690AFFF7DAFEB0EE40DAB0EE4A0A00F0DC
:100940005BF8F0EE40AAB0EE4A0AFFF7CEFEB0EE3A
:1009500040BA28EE2A0AD5ED010A20EE200AD5ED8C
:10096000000A0DEE200A68EE0B0A95ED021A00EE61
:10097000810AB0EE40CA95ED010A20EE0B0AD5EDD2
:10098000020A0AEEE00AF0EE40CAF0EE6C0AB0EE9F
:100990004C0AFFF7A8FEF0EE40BA03E09FED070A0D
:1009A000F0EE40BAB0EE4A1AF0EE690AB0EE6B0A09
:1009B000304609F0BDFA00BFE4E600000000000088
:1009C000380200203C02002035FA8E3CC1BFAD3B0E
:1009D0009DF8C5362F7C1C4140020020506CC24A55
:1009E0004402002010B508F0ABFCB7EE001AC1EECF
:1009F000000AB0EE600A10BD10B510EE100A0CF03F
:100A000085FE41EC100B08F037FC51EC100B0CF09C
:100A100055F900EE100A10BD2DE9F0412DED028BC5
:100A20009AB00546B0EE408A0E461746984600201A
:100A30001790189019901490159016904DB146B1DA
:100A40003FB1B8F1000F04D0B5EEC08AF1EE10FA54
:100A500005D100201AB0BDEC028BBDE8F08196ED07
:100A6000000A8DED170A96ED010A8DED180A96ED34
:100A7000020A8DED190A97ED000A8DED140A97ED23
:100A8000010A8DED150A97ED020A8DED160A17AAD7
:100A900014A9284609F09EF8402104A8FFF7AEFDEE
:100AA00000200090019002900390002417A904A850
:100AB0000BF0D0F800BF30E004A800EB041090ED7C
:100AC000000AD5ED000A20EE200A04A800EB04106D
:100AD000D0ED010A95ED011A00EE810A04A800EBA1
:100AE0000410D0ED020A95ED021A00EE810A04A866
:100AF00000EB0410D0ED030A95ED031A00EE810A15
:100B000020EE080AF0EE000A80EE201A684600EB9C
:100B1000840080ED001A601CC4B2042CCCDB0024DD
:100B200010E005EB840090ED000A684600EB8400BD
:100B3000D0ED000A30EE200A05EB840080ED000ABB
:100B4000601CC4B2042CECDB28460AF0E5FF01204F
:100B500080E7000000F016F8074C00BF00F09AF89C
:100B600000F03CF800F074F800200BF0C3F82060AF
:100B700064200AF0B6FAF1E7FC0100200048704753
:100B80005C8200200C4810B50068C16841F010017B
:100B9000C1600A4C002004F11C0184F844001422B6
:100BA000054803F0A3FF012084F881005A2104F8CE
:100BB000591F607010BD0000F8240020D88100206B
:100BC000054911F8450F5A2804D10348142208306A
:100BD000FFF773BC70470000D8810020142202493F
:100BE000024803F093BF000031820020F824002067
:100BF00038B5154803F0D4FC134800680168C943B0
:100C0000C90620D401684068104C0090142294F862
:100C1000445005EB850004EB800104F145001C31D4
:100C2000FFF74BFC85F0010084F8440000EB8000E6
:100C300004EB8001142204481C3103F057FFBDE887
:100C40003840FFF7BDBF38BDF8240020D881002010
:100C500010B505F09FFA0D4901F184008A695AB177
:100C600091ED030A80ED000A91ED040A80ED010A7E
:100C7000097D0172012107E09FED050A002180ED49
:100C8000000A80ED010A0172417210BDD881002076
:100C90000000000010B504F0FBF9064941F8010B13
:100CA0004268CA6582680A660068486640F2E730B2
:100CB000886610BDD881002028B19FED0A2A60EE19
:100CC000820A80EE820AB4EEE10AF1EE10FA01DD4A
:100CD000B0EE610AB4EEC10AF1EE10FA01D2B0EE44
:100CE000410A70470000C84201221021014802F069
:100CF000BFB800000000024000221021014802F0AD
:100D0000B7B8000000000240704700000122114601
:100D1000014802F0ADB800000004024000220121A9
:100D2000014802F0A5B800000004024030B5437845
:100D300004781B021BB2234300EE103A194CB8EEA4
:100D4000C00AD4ED000A20EE200A81ED000AC37823
:100D500085781B021BB22B4300EE103AD4ED000A3B
:100D6000B8EEC00A20EE200A81ED010A4379047929
:100D70001B021BB2234300EE103AB8EEC00A20EE6D
:100D8000200ADFED090A81ED020AD0F8060020F002
:100D90007F4000EE100AB8EE400A20EE200A82EDF5
:100DA000000A30BDEC00002000401C4270470AF0F1
:100DB00098B909F017BF000010B542780378120205
:100DC00012B21A4300EE102A124BB8EEC00AD3ED4D
:100DD000010A20EE200A81ED000AC278847812020E
:100DE00012B2224300EE102AD3ED010AB8EEC00A77
:100DF00020EE200A81ED010A42790079120212B236
:100E0000024300EE102AB8EEC00A20EE200A81ED5F
:100E1000020A10BDEC00002010B5FFF775FFFFF7C8
:100E2000C5FF09F0CFF908B1802402E009F036F9D6
:100E3000044609F095FB10B144F0400010BD09F0E4
:100E400021FB204310BD00002DE9FC410746002096
:100E500016460D4600900190FFF74EFF922000F0DD
:100E6000BDF806226946122000F09AF8FFF73CFF11
:100E70009DF801009DF80010000200B2084300EE4A
:100E8000100A464CB8EEC00AD4ED000A20EE200A43
:100E900085ED000A9DF803009DF80210000200B2E3
:100EA000084300EE100AD4ED000AB8EEC00A20EEA6
:100EB000200A85ED010A9DF805009DF80410000246
:100EC00000B2084300EE100AB8EEC00A20EE200A75
:100ED00085ED020AFFF722FF08226946002000F094
:100EE0005FF8FFF713FF9DF800000F2830D19DF841
:100EF00003009DF80210000200B2084300EE100A41
:100F0000D4ED010AB8EEC00A20EE200A87ED000AEF
:100F10009DF805009DF80410000200B2084300EEA1
:100F2000100AD4ED010AB8EEC00A20EE200A87EDBF
:100F3000010A9DF807009DF80610000200B2084360
:100F400000EE100AB8EEC00A20EE200A87ED020A71
:100F5000FFF7D2FEA22000F041F8022269462220CB
:100F600000F01EF8FFF7C0FE9DF800009DF801108C
:100F7000C00040EA5110B0F5806F01DBA0F50060C1
:100F800000EE100AB4EE001AF8EEC00AB3EE070A3B
:100F900000EE810A86ED000ABDE8FC81EC0000202D
:100FA00070B514460D4640F0800000F017F806E0DA
:100FB000552000F013F8641E05F8010BE4B2002C74
:100FC000F6D170BD10B50C4640F0800000F006F878
:100FD000552000F003F8207010BD000001B582B06C
:100FE0004FF47A700090012301AA02A9024802F08E
:100FF00057FE9DF804000EBD98230020027840782B
:10100000D20042EA5010B0F5806F01DBA0F500601D
:1010100000EE100AB4EE001AF8EEC00AB3EE070AAA
:1010200000EE810A81ED000A704710B50C46FFF70B
:10103000D5FF2046BDE81040FFF7D0BF10B509F03E
:1010400091FDBDE81040014805F0A2B940250020FF
:10105000FEE70000014801F04CB90000F422002036
:10106000014801F046B90000F4220020014801F0D7
:1010700040B900001C230020014801F03AB90000EB
:101080001C23002010B500214FEA010401EB81026E
:1010900000EB82021369642B02D25B1C136100E037
:1010A0005473491CC9B20829F0D310BDA1F2012123
:1010B000072924D8C9B24B1C01EB810120F821304B
:1010C000002300EB81000121036141731188DFEDF2
:1010D0000C0A49BA00EE101A4180B8EE400A20EE20
:1010E000200ADFED080A20EE200A80ED010A51886F
:1010F00049BA0181918849BA4181D1790173704718
:101100000000B4430000003930B587B005460091B7
:10111000002108200291CDE9031014468DF8141027
:10112000284601F0D0F80028FAD006AB22466946DE
:10113000284600F069FF07B030BD30B59288C2F391
:101140000724D5B21A788C420AD1002D08D1272A5B
:1011500006D1D9786B2903D159789A781143018047
:1011600030BD000008B54FF002094FF0010A00261B
:10117000504D514F09F05CFD044609F061FD417F7F
:1011800001290BD0207F01281FD02E7000200AF0EB
:10119000B1FD3860012009F0A4FFEBE785F800906D
:1011A0008188A1F580616980C188A1F58061A980ED
:1011B0000188A1F58061E9800188A1F5806129811C
:1011C0004088A0F580606881E0E785F800A0E089AC
:1011D000032800D12E70B4F90E00022802D0012895
:1011E00002D006E06E7004E0A07C032852D085F89F
:1011F00001904FF47A78CDF80080C8F1000BB4F973
:101200001E20B4F92010B4F902005B4604F068FC1B
:101210006880CDF80080B4F91E20B4F92010B4F92C
:1012200000005B4604F05CFCA880CDF80080B4F9B7
:101230001E20B4F92010B4F904005B4604F050FC01
:10124000E880CDF80080B4F91E20B4F92010B4F97C
:1012500004005B4604F044FC2881CDF80080B4F91A
:101260001E20B4F92010B4F906005B4604F038FCE7
:101270006881A089012810D02E73A08903280FD07F
:101280006E73208903280ED0EE73608903280DD079
:101290002E747BE785F801A0ABE785F80CA0ECE79E
:1012A00085F80DA0EDE785F80FA0EEE785F810A012
:1012B0006CE7000074730020CC01002000487047E8
:1012C0007473002000F01CF8642009F00AFF0A4C37
:1012D00000F01AF800F013F800F015F800F011F81B
:1012E00000F00CF800F00EF800200AF003FD20607A
:1012F000012009F0F6FEEBE700020020704770477E
:101300007047704770477047704700000448FFF708
:10131000B9FE0448FFF7B6FE012009F0E2FEF5E74A
:101320008873002028740020014801F0EFBA000003
:1013300090260020014801F0E9BA0000F0260020C4
:101340002DE9F05FA748A84BA84CC06CA64DA74E4E
:10135000A54F0068A449DFF89492DFF88CA2DFF86B
:101360008CB2DFF884E2A14A483B60341835183665
:10137000303F09F178090AF1300A4FF4006C0BF1A3
:10138000300BAEF1180E884223D99749543926E024
:10139000A84233D14FF020080AE0504535D1E0464D
:1013A00006E000BF4FF4001802E000BF4FF00068F5
:1013B00011EA080F7CD08C49884253D9904205D05D
:1013C000984203D0A04201D0A8422FD14FF0200C68
:1013D00045E08649A831884203D9834958390968CC
:1013E00005E08249483188428149F8D949689042EC
:1013F000D0D09842CED0A042CCD0C9E7B042CED017
:10140000B842CCD04845CAD0C7E75845CAD0704585
:10141000C8D0DFF8D88108F190084045C2D0DFF885
:10142000C88108F148084045C0D1BBE7B04216D09A
:10143000B84214D0484512D0504510D0584509D074
:10144000704507D069499031884203D066494831D8
:10145000884202D14FF4001C01E04FF0006C62485A
:101460004C382AE06149A831884229D9904205D0F8
:10147000984203D0A04201D0A84202D14FF0200CE4
:1014800019E0B04217D0B84215D0484513D05045A6
:1014900011D0584509D0704507D054499031884241
:1014A00003D051494831884203D14FF4001C02E077
:1014B00095E04FF0006C4C485038C0F800C052E046
:1014C0004A494831884227D9904205D0984203D0F2
:1014D000A04201D0A84202D14FF0200C18E0B04247
:1014E00016D0B84214D0484512D0504510D05845B7
:1014F00009D0704507D03D499031884203D03A4920
:101500004831884202D14FF4001C01E04FF0006CDA
:101510003748C0F80CC026E0904205D0984203D06E
:10152000A04201D0A84202D14FF0200C18E0B042F6
:1015300016D0B84214D0484512D0504510D0584566
:1015400009D0704507D029499031884203D02649F7
:101550004831884202D14FF4001C01E04FF0006C8A
:101560002348C0F808C0234C207880070CD5207889
:1015700020F002002070207840F00400207001224A
:1015800011461D4801F074FC60781C4D80070CD595
:10159000607820F002006070607840F004006070B5
:1015A00001221021284601F063FCA07880070CD5A9
:1015B000A07820F00200A070A07840F00400A07095
:1015C00001221021284601F053FC09F02BFC207861
:1015D000400704D50A48016841F001010160BDE8F7
:1015E000F09F0000982300205864024010600240E1
:1015F0000060024020010020000402400000024080
:10160000103C0140014801F081B90000D0250020C4
:10161000014801F07BB9000050270020014801F08B
:1016200075B900003026002001681823CAB2103AAC
:10163000B2FBF3F2054B6FF30901032A9B5CC36510
:1016400000D9091D816508467047000038DB000895
:1016500010B5014600208B698A6A4FF0C07453B1FF
:10166000B3F5005F15D072B1012A0CD0022A0AD05E
:10167000032A09D104E01AB1012A06D0022A03D1B3
:10168000C96AC90100D5012010BDC96AA142FAD0BA
:1016900010BD002AF7D0012AF2D0022AF3D0032A83
:1016A000F3D010BD30B50468256825F48025256089
:1016B000046863608368402B036803D09960006806
:1016C000C26030BD9A600068C16030BD70470000E4
:1016D00030B513484FF4FA61B0F94E30B0F9262016
:1016E000B0F93A409D182819032590FBF5F005B292
:1016F0000C488D4205DC8B4203DC8A4201DC8C42C3
:1017000009DD8188491C89B28180052905D305211D
:101710008180012030BD00218180002030BD00008B
:101720005C840020140200200C4C4FF4007500BFB4
:10173000FFF7C4FD014612220948FEF7BEFE14233E
:10174000074A2946074800F065F800200AF0D2FA57
:1017500020600A2009F0C5FCEAE70000E80000204C
:10176000387200201C2300202DE9F05F9946DDF837
:1017700028B08A4620B3BAF1000F45D0B9F1000F66
:1017800042D0816804293FD14068060AC7B2964218
:101790003AD1AFB100251D4C4FF48078012F06D10E
:1017A0006580257041461A486660FEF705FF60684F
:1017B000864229D12078401C874202D0658025705E
:1017C00022E06088082600F10801414502D9C0F5F1
:1017D00080718EB20E49324608445146FEF76DFEC6
:1017E0006088304480B260802178491C217059465D
:1017F000584509D30A4606494846FEF75EFE65800D
:1018000025700120BDE8F09F0020FBE7E0000020EC
:10181000387100202DE9F04F89B01C4615468A46E4
:101820005FEA000B35D0A5B39CB3B4F5807F30D808
:10183000E01DC0F3C706002034E0C100082201F11A
:101840000803A34201D9621AD2B200F101090027AC
:1018500049EA0A280697294406A80797FEF72DFEAD
:101860000420CDE902070820CDF8048004908DF80B
:10187000147002E0012009F034FC584600F023FD0A
:101880000028F7D008AB06AA6946584600F0BCFB12
:1018900018B1002009B0BDE8F08F012009F021FC4B
:1018A00009F0FF00B042C8D30120F3E70149887472
:1018B00070470000387200202DE9FC418046164632
:1018C000084600F051F9050011D000244FEA0D0739
:1018D00007EB44014A1C36F9140003F005FD641CB3
:1018E000042CF5DB6A4629464046FFF70DFCBDE8AF
:1018F000FC817CB5044600201346009001904A1EEE
:101900004800032A03D84FF40075801E05E0491FE4
:1019100003290DD840F2FF150A380DEB00014A1CCF
:10192000184603F0E1FC6A4629462046FFF7ECFB27
:101930007CBD012001F098B9082001F095B9102074
:1019400001F092B9202001F08FB972B6FEE70000D5
:101950002DE9F05F4B4D00262DED028BB1462F791E
:10196000A5F11804012F0BD1E078E8B1606948B106
:1019700001F084FA6169401AB0F5967F02D301261E
:10198000C4F81490E770A0780127DFF8FC809FED81
:101990003F8A4FF0030B4FF47A7A06286CD2DFE8C7
:1019A00000F0071D2A42455B01F068FA6061E9E733
:1019B000A87801280ED1687806280BD1002E09D00E
:1019C0009FED330A88ED230A88F8927001F056FAE9
:1019D0002061A770BDEC028BBDE8F09F01F04EFACC
:1019E0002169401A5045F5D30226AE7001F046FA3F
:1019F0002061A670EEE7FFF76BFE28B16F7107203C
:101A0000687084F802B0E5E701F038FA2169401AFD
:101A10005045DFD388ED238A88F8927001F02EFAC2
:101A20002061042016E0002EF4D1D3E701F026FA5D
:101A30002169401A5045CDD385F802B008209FEDAA
:101A4000150A687088ED230A88F8927001F016FA7A
:101A500020610520A070BDE701F010FA2169401A4D
:101A60005045B7D385F8029085F805900621697036
:101A70004846C4F81090EDE784F80290C4F810903E
:101A8000A8E700002C0200205C8400200000B44382
:101A9000000061450080F74510B51D4C2DED028B0F
:101AA000E07B012807D0002024F8700FA08020815F
:101AB000BDEC028B10BD9FED178AB9EE040A84EDD0
:101AC0001B0AB7EE001AF0EE480A6C3408F080FFEB
:101AD000BDEEC00AB7EE001AF0EE480A10EE100A8A
:101AE000A08094ED000A08F073FFBDEEC00AB7EEC7
:101AF000001AF0EE480A10EE100A208194ED000A58
:101B000008F066FFBDEEC00A10EE100AA081CFE714
:101B10005C8400208FC2F53C114800B590ED000AAE
:101B20000AF03CF80F4981ED060A90ED010A0AF02F
:101B300035F881ED070A90ED000A0AF02FF8084900
:101B4000C43181ED000A90ED010A0AF027F881ED19
:101B5000010A90ED020A0AF021F881ED020A00BDA7
:101B6000A472002020010020012803D0052804D001
:101B7000002070474FF40070704740F2FF1070472C
:101B800000F046F80A4C00BF00F070F900F03EF893
:101B900000F06AF900F0FAF800F00CF800F006F92D
:101BA00000200AF0A7F82060012009F09AFAEBE77C
:101BB0000402002010B5134C04F1A400D4ED110A66
:101BC00094ED120A383404F045F9BDEEC00A04F56C
:101BD000C471DFED0D1A10EE100A2083B4F9000075
:101BE00094ED081A00EE100AA1F13400F8EEC00AD4
:101BF00094ED070A04F0B6F8BDEEC00A10EE100A24
:101C0000208510BD68820020CDCCCC3D70470000FF
:101C100010B54A4900202DED068BB1EE043AF9EEDD
:101C2000042A08709FED462ADFED461A9FED469A7A
:101C3000B0EE080A01F17000B0EE491AF0EE490A60
:101C400004F0A6F99FED418AF0EE483ADFED408AB4
:101C5000B0EE683ADFED3F9A9FED3FAA3748F0EECD
:101C6000692AB0EE4A2AF0EE481A9FED3C1ADFEDE1
:101C70003C0A9FED3C0AA43004F060F92F48B2EE14
:101C8000043AFAEE042AB0EE692AF0EE4A1AB0EEEF
:101C9000491AF0EE490AB1EE040AE43004F078F98A
:101CA000B2EE043AFAEE042AB0EE482AF0EE681AD0
:101CB000B0EE491AF0EE490A9FED2B0A2B4804F0CA
:101CC00067F92A48F2EE043ABAEE043AF0EE692ACD
:101CD000B0EE4A2AF7EE001AB0EE491AF0EE490AC1
:101CE000B0EE080A343004F029F92048B2EE043A84
:101CF000FAEE042A9FED1E2ADFED1E1AB0EE491AF5
:101D0000F0EE490A9FED1C0A743004F041F9B0EE80
:101D1000483AF0EE682ABDEC068B9FED181A13487E
:101D2000BDE81040B0EE412ADFED151ADFED150ACF
:101D30009FED150AA83004F02BB90000688200203E
:101D400000401C4600401CC60000000000007A4411
:101D500000007AC400008046000080C600803B4737
:101D6000CDCC4C3D00806D45000048438083002071
:101D70000000FA440000FAC4CDCC8C3F0080BB4484
:101D80000080BBC40AD7233C0000164406480178F3
:101D900009B100F0B9B890ED120A80ED110A90ED8A
:101DA000160A80ED150A70476882002070B52DED87
:101DB000028B01F063F8284C2849227852B10020A8
:101DC000087034F9502F05212548FFF792FDB4F92A
:101DD000102039E00A7812B9012248600A70496877
:101DE000401A64282AD2B4F924009FED1E8A00EE1E
:101DF000100A1948F0EE480AB8EEC00A703003F035
:101E00002BFFBDEEC00AF0EE480A10EE100A05B234
:101E1000B4F9380000EE100A0F48B8EEC00A70306E
:101E200003F01AFFBDEEC00A2A46052110EE100A83
:101E300004B20B48FFF75DFD224605E000220521B4
:101E40000748FFF756FD0022BDEC028B0121BDE8DB
:101E500070400348FFF74DBD688200200802002053
:101E60001C230020000000007047000070B5FFF741
:101E700025FA014612222148FEF71FFB03F008F95C
:101E80001E4C606190ED000A03F048FE84ED120ADA
:101E9000606990ED020A03F041FEB1EE400A84ED64
:101EA000160A00209FED161AFBEE010A03F0B6FD9C
:101EB00084ED160A134803F09BFD054600F150011E
:101EC000A0610D2204F11C00FEF73CFB95F85D00BB
:101ED00084F82900286EE0620D22294604F13000C2
:101EE000FEF730FB687B84F83D0028692064FEF72C
:101EF00045FE07C86066A166E26670BD6882002084
:101F000000002C421C23002010B52E4CB5EE002AF8
:101F10002DED048BFDEE001AB4F90800DFED2A8ADE
:101F200000EE100A9FED299AB0EE681AB8EEC00ACA
:101F3000F0EE490A03F0BAFDB0EE408AD4ED190A7A
:101F400094F86D00F5EE001ABDEE001AFEF7B4FE2F
:101F5000207C012831D094ED110A30EE480A00BFF0
:101F600084ED110A01209FED1A1ADFED1A0A03F021
:101F700055FD84ED110AB4F90A009FED172A00EE11
:101F8000100ADFED161AB0EE681AB8EEC00AF0EECD
:101F9000490A03F08BFDD4ED150A00209FED101ABD
:101FA00030EEC00AFBEE010A84ED150A03F036FD9F
:101FB00084ED150ABDEC048B10BDD4ED110A30EE92
:101FC000C00ACDE76882002000007A4400007AC48D
:101FD00000003443000034C3CDCCCC3DCDCCCCBDCF
:101FE00000002C4290F82020012A07D0022A05D0B8
:101FF000416A41F4802141620120704700684269D2
:102000000A43426100207047F0B590F82050046800
:10201000A468012D05D0022D03D0416A41F480212E
:102020004DE014F0406F01D1E50045D5C4F30164E3
:102030000125A5401D608D684FF4C0739DB1CE6829
:1020400035434E6845EAC605066803EB0417F551AB
:102050004FF4C275076805EB04150E697E51097DC2
:10206000012905D009E00E88CD6845EA4655EBE721
:1020700001684E5946F480764E511179D2F80550D8
:102080004FF4C67641EA0521056806EB0416A9510E
:102090001178D2F801204FF4C47541EA0221026898
:1020A00005EB04155151006803EB0411425842F04E
:1020B000010242500020F0BD416A41F4001141622A
:1020C0000120F0BD10B590F82020012A07D0022A87
:1020D00005D0416A41F480214162012010BD3B4896
:1020E000D0F8002242F00102C0F80022D0F800220D
:1020F00022F47C52C0F80022D0F800224B6A42EA57
:102100000322C0F800220A7D02F01F0301229A4038
:10211000D0F81C329343C0F81C32CB69B3B9D0F865
:102120000C329343C0F80C328C894B6864F31F4324
:102130004C6900EBC404C4F840320C890B6864F3AA
:102140001F434C6900EBC404C4F84432CB69012B33
:1021500016D1D0F80C321343C0F80C320C884B68FF
:1021600064F31F434C6900EBC404C4F840320C898B
:10217000CB6864F31F434C6900EBC404C4F84432D9
:102180008B69002BD0F804320ED01343C0F8043210
:102190000B69002BD0F8143208D01343C0F8143266
:1021A000096A012904D008E09343EFE79343F5E778
:1021B000D0F81C121143C0F81C12D0F8001221F004
:1021C0000101C0F80012002010BD000000640040B2
:1021D000704770B590F82040012C05D0022C03D038
:1021E000416A41F4802128E0046809B32469A40706
:1021F00020D04FF4D874056804EB01142D5915F064
:102200000405956005682D591AD0ED0855600568DC
:102210002C5904F00204D4604FF4DA74056804EB1E
:1022200001142E5906F00F06082E0CD308250DE0D8
:10223000E468DCE7416A41F400114162012070BDAD
:102240006D0D1560E3E72D5905F00F051561056863
:102250002D59C5F30725956105682C59240C546147
:102260004FF4DC72046802EB0112A4581C7004687D
:10227000A458240A5C700468A458240C9C70046858
:10228000A258120EDA704FF4DE72046802EB0112EB
:10229000A4581C710468A458240A5C710468A458EA
:1022A000240C9C710468A258120EDA71006829B1DE
:1022B000016941F020010161002070BDC16841F059
:1022C0002001C160F8E70246002092F820100129A1
:1022D00001D002290CD111688A68520100D5012071
:1022E0008A68120100D5401C8968C90000D5401CCD
:1022F00070472DE9F05F0546006800244669D0F874
:1023000004908768D0F80CB0D0F810A0D0F81880EE
:10231000F10748D0F90714D001218160B80703D52F
:10232000284600F090FA0CE0780702D54FF40064DC
:1023300007E0380702D54FF4805402E0284600F049
:1023400081FAF80516D529684FF480708860B805C1
:1023500003D5284600F079FA0CE0780502D544F45C
:10236000005407E0380502D544F4804402E02846D2
:1023700000F06AFAF80316D529684FF480308860B7
:10238000B80303D5284600F062FA0CE0780302D5C2
:1023900044F4004407E0380302D544F4803402E0FA
:1023A000284600F053FA300707D55FEACB6004D522
:1023B0002968102044F40074C86070074FF00807C3
:1023C00007D55FEA0B7004D52868C760284600F07F
:1023D000A9F9B00706D52868C068800702D028464A
:1023E00000F0A2F9700607D55FEACA6004D5296833
:1023F000102044F480640861B00607D55FEA0A70D3
:1024000004D528680761284600F0ECF9F00606D5E7
:1024100028680069800702D0284600F0E4F9B0037C
:1024200008D55FEAC96005D52968102048602846AC
:1024300000F0DAF9F00307D55FEA097004D52868DF
:102440004760284600F004FA300446D55FEA497038
:1024500040D5F00504D55FEAC87001D044F001040E
:10246000B00504D55FEA887001D544F00204700518
:1024700004D55FEA487001D544F00404300529D53D
:1024800018F0700F26D008F07000402815D006DC38
:10249000102809D020280AD0302816D10AE0502868
:1024A0000ED0602811D10EE044F008040DE044F095
:1024B00010040AE044F0200407E044F0400404E083
:1024C00044F0800401E044F480742868816921F0BC
:1024D00070018161296804204860002C05D0686A79
:1024E000204368622846FFF773FEBDE8F09F70B591
:1024F000040003D094F8200010B104E0012070BD66
:10250000204600F081F82068016841F00101016077
:1025100000F0B4FC0546052604E000F0AFFC401BCB
:102520000A2811D820684068C007F6D020680168E2
:1025300021F00201016000F0A1FC05460BE000F073
:102540009DFC401B0A2806D9606A40F40030606296
:1025500084F82060D2E7206840688007EFD4207EAE
:102560000128206801683DD021F080010160607E73
:1025700001282068016838D021F040010160A07E68
:1025800001282068016833D021F020010160E07E3D
:102590000128206801682ED041F010010160207FE1
:1025A00001282068016829D021F008010160607FBE
:1025B00001282068016824D021F004010160D4E9D9
:1025C00002010843D4E90412114308436168491E1B
:1025D00008432168C86100206062012084F820005F
:1025E000002070BD41F08001C0E741F04001C5E727
:1025F00041F02001CAE721F01001CFE741F00801C6
:10260000D4E741F00401D9E7F0B587B004461421BE
:102610006846FDF7F3FF3E4B3E48DFF8F0E01968EF
:10262000D4F800C03B4A03250226092710300024B5
:10263000491CF4452AD11960012907D1016841F0EC
:1026400000710160006800F000700590106840F0B3
:10265000080010601068CDE9005600F00800CDE9D0
:10266000047069462C48CDE9024500F009FB0022C0
:102670000621142000F042FF142000F031FF002258
:102680000621152000F03AFF15203AE0DFF88CE033
:10269000F44538D1D0F800C04CF0806CC0F800C0D0
:1026A000D0F800C001290CF0806CCDF814C019607E
:1026B00007D1016841F000710160006800F000700E
:1026C0000590106840F002001060106802AB00F046
:1026D000020005906020CDE9000683E8B00069465D
:1026E0000F4800F0CDFA00220621402000F006FF3E
:1026F000402000F0F5FE00220621412000F0FEFE01
:10270000412000F0EDFE07B0F0BD00000064004085
:102710004000002030380240000C024000680040B9
:102720000004024070470000F0B5064627490068E3
:102730008F150124264D8BB0884215D01CE00398DC
:1027400010B1042810D105E008AA22480199FEF72B
:10275000ADFC09E01E4B3A465B1C08A901A8009499
:10276000FFF702F800B12C7008AB01AA0021304637
:10277000FFF72FFD0028E2D01749306888421CD0AF
:102780000BB0F0BD039810B1042816D105E008AADB
:1027900012480199FEF78AFC0FE00D4B3A465B1C8C
:1027A00008A901A80094FEF7DFFF00B12C7008AB68
:1027B00001AA01210A48FEF7C0FC08AB01AA0021CA
:1027C0003046FFF706FD0028DCD0D9E70064004062
:1027D000D401002088730020006800402874002085
:1027E00014810020704770477047000070B50446A0
:1027F00090F82000012804D0606A40F40020606254
:1028000018E0022084F820002068016821F001010E
:10281000016000F033FB05460EE000BF00F02EFB28
:10282000401B0A2808D9606A40F400306062052025
:1028300084F82000012070BD20684068C007EDD1F9
:10284000606270BD7047704770477047704770474F
:1028500070472DE9F0410446876D00F00FFB0646F6
:1028600094F835000025022806D08020606584F8A1
:1028700034500120BDE8F0812068016821F0160184
:1028800001602068416921F080014161206C08B934
:10289000A06C20B12068016821F008010160206867
:1028A000016821F0010101600CE000F0E7FA801BF3
:1028B000052807D920206065032084F8350084F8B6
:1028C0003450D7E720680068C007EED194F85C1058
:1028D0003F208840B860012084F8350084F83450E7
:1028E0000020C7E790F83510022903D08021416508
:1028F00001207047052180F835100068016821F03B
:102900000101016000207047406D70472DE9F843D8
:1029100004464FF00009CDF8009063484FF416517B
:10292000A56D0068B0FBF1F72E6894F85C100820E4
:1029300000FA01F131420FD021680A6852070BD525
:102940000A6822F004020A6094F85C108840A860CB
:10295000606D40F00100606594F85C104FF0010874
:1029600008FA01F0304208D021684969090604D507
:10297000A860606D40F00200606594F85C1004206F
:102980008840304208D021680968890704D5A860CA
:10299000606D40F00400606594F85C101020884081
:1029A000304218D021680968090714D5A86020684A
:1029B0000168490304D50068000308D5A16C07E04D
:1029C0000168C90503D4016821F008010160216C88
:1029D00009B12046884794F85C1020208840304296
:1029E00031D021680968C9062DD5A86094F8350052
:1029F00005282068016806D0490347D50068000310
:102A00001DD4616C1CE021F0160101602068416951
:102A100021F080014161206C08B9A06C20B12068D0
:102A2000016821F00801016094F85C103F208840A3
:102A3000A86084F8358084F83490216D1FE0E16B44
:102A400009B120468847606D00282BD0606DC00713
:102A500014D0052084F835002068016821F00101B8
:102A600001600098401C0090B84203D820680068BC
:102A7000C007F6D184F8358084F83490E16C0029E1
:102A800010D001B02046BDE8F04308470168C905F1
:102A9000D5D4016821F01001016084F8358084F8F4
:102AA0003490CCE7BDE8F883500000202DE9F041D8
:102AB000044600F0E3F906465CB1022084F83500D4
:102AC000002584F834502068016821F0010101607C
:102AD0000DE00120BDE8F08100F0D0F9801B052851
:102AE00005D920206065032084F83500F2E72068CE
:102AF0000068C007F0D12268116820480140D4E97D
:102B000001031843D4E90336334318436369184378
:102B1000A3691843E3691843236A18430843616AA9
:102B2000042903D1D4E90B1319430843106020682A
:102B30004069666A20F0070130460E4301270428E9
:102B40000CD1A06A0643E06A40B12046FEF780FD42
:102B500020B14020606584F83570BAE7206846618E
:102B60002046FEF761FD94F85C203F219140816092
:102B7000656584F835700020ACE700003F8010F0F8
:102B80002DE9F0410446866D90F8340000250128B7
:102B90000DD0012084F8340094F835700020012F06
:102BA00007D084F8340002252846BDE8F0810220D1
:102BB000FBE7022784F8357060652046FEF772FD5A
:102BC00094F85C103F208840B0602068016841F0B4
:102BD00016010160206C20B12068016841F00801F5
:102BE00001602068016841F001010160DCE700003C
:102BF00010B51B4C10281AD0202821D008282AD024
:102C0000012813D109F098FE01280FD004F10C011E
:102C1000206909F0CBF9E068002807D011494FF08E
:102C200080500860BFF34F8FBFF36F8F10BD607887
:102C300040F001006070A07840F00100A07003E057
:102C4000207840F00100207020790028EED0BDE807
:102C5000104008F0E7B8E07840F00100E07010BDE7
:102C60002001002004ED00E0044910B50A6802428A
:102C700002D00860FFF7BCFF10BD0000143C01400B
:102C80002DE9F84FDFF8BCA10022012503264FF003
:102C90000F090AF1040BAAF1040E00BF0B6805FA34
:102CA00002F42340A34270D10F7907F00307012FEC
:102CB00001D0022F16D187684FEA420806FA08FCB5
:102CC00027EA0C07D1F80CC00CFA08FC4CEA070CF8
:102CD000C0F808C04768A7430C79C4F300149440B7
:102CE0003C4344600C79E443A4070AD0C4684FEA2B
:102CF000420C06FA0CF7BC438F6807FA0CF727431F
:102D0000C7600C7904F00304022C12D1D40800EB44
:102D1000840CDCF820405707FF0E09FA07F824EA74
:102D20000804D1F8108008FA07F848EA0408CCF83B
:102D3000208004684FEA420C06FA0CF7BC430F7976
:102D400007F0030707FA0CF7274307604C6814F4F1
:102D5000403F70D03C4C276847F480472760246888
:102D600022F0030704F480440094384C07EB040C71
:102D7000DCF8084897074FEA177809FA08F7BC43C8
:102D8000334FB84202D1002724E054E0314FB8421B
:102D900001D101271EE0304FB84201D1022719E0CE
:102DA0002E4FB84201D1032714E02D4FB84201D174
:102DB00004270FE02B4FB84201D105270AE02A4F24
:102DC000B84201D1062705E0284FB84201D10727B4
:102DD00000E0082707FA08F72743CCF80878DAF864
:102DE00000405746D1F804C09C435FEACC2C00D584
:102DF0001C433C60DBF800405F46D1F804C09C43B4
:102E00005FEA8C2C00D51C433C60DEF8004077461E
:102E1000D1F804C09C435FEA8C3C00D51C433C6065
:102E2000084F083F3C68D1F804C09C435FEACC3CA3
:102E300000D51C433C60521C102AFFF42FAFBDE8A4
:102E4000F88F0000083C0140443802400030014047
:102E5000000002400004024000080240000C024052
:102E6000001002400014024000180240001C024002
:102E70000AB1816170470904FBE7000001488068DE
:102E8000704700004400002070B5040025D094F87D
:102E90003D00002520B984F83C50204600F052FA4D
:102EA000242084F83D002068016821F001010160C0
:102EB0002068016841F4004101602068016821F444
:102EC0000041016000F006FC4D4A6168914201D862
:102ED0004C4900E04C49884201D2012070BD4B4969
:102EE0002368B0FBF1F15E6826F03F060E435E609A
:102EF0006368934206D94FF4967359434FF47A733B
:102F0000B1FBF3F12368491C1E6A26F03F063143EA
:102F100019626168914210D84900401EB0FBF1F27D
:102F2000521CC2F30B02042A01D2042022E0B0FB9F
:102F3000F1F0401CC0F30B001CE0A268F2B301EBFF
:102F4000C10303EB0116431EB3FBF6F35B1C43F412
:102F500080431B0549D092B301EBC10202EB011182
:102F6000401EB0FBF1F0401CC0F30B0040F4804069
:102F700040F400402168CA694CF6FF739A4310433D
:102F8000C861D4E9071001432068026822F0C0023A
:102F900011430160D4E9030101432068826848F2CB
:102FA000FF339A4311438160D4E905010843216846
:102FB000CA6822F0FF021043C86001E00EE016E08C
:102FC0002068016841F0010101602564202084F837
:102FD0003D00256384F83E50002070BD01EB4106A2
:102FE000431EB3FBF6F35B1CB3E70120C2E701EB22
:102FF0004101401EB0FBF1F0401CC0F30B00B7E7ED
:10300000A086010080841E0000093D0040420F00A0
:103010002DE9FF4F83B09A46DDE9118793460446B8
:10302000DDF84090FFF72AFF054694F83D00202880
:1030300070D11923012274492046009501F01EFF2A
:103040000028F5D194F83C00012863D0012084F8D1
:103050003C0020680168C90703D1016841F0010103
:1030600001602068016821F400610160222084F879
:103070003D00402084F83E0000262664C4F82490D9
:10308000A4F82A80608D20856048E062CDE9007553
:1030900053465A462046049901F0F2FD002879D1A2
:1030A000208DD0B1012821D00228206824D0416988
:1030B00080690090208D032866D801282BD05449C0
:1030C00002283B464FF00002009557D08846204624
:1030D00001F0D4FE00285DD13AE0206841698169A1
:1030E0000091016841F4007101607DE02068016891
:1030F00021F480610160F0E7016821F480610160E2
:103100002068016841F400610160206841698069BC
:10311000009069E075E02A463946204601F054FFE8
:1031200088BB54E02068016841F4007101602068A8
:103130000069616A0870606A401C6062218D491EE6
:103140002185618D491E618521680969017042E010
:103150002068016821F48061016020680069616A6B
:103160000870606A401C6062208D401E2085608D62
:10317000401E60853B46002241460095204601F0F6
:103180007DFE00B9CEE705E02A463946204601F02B
:103190001BFF18B1012007B0BDE8F08F206800695F
:1031A000616A0870606A401C6062208D401E81B2B6
:1031B0002185608D401E608520684269D243520798
:1031C00012D4032903D1016821F4806101602068D1
:1031D0000069616A0870606A401C6062208D401E50
:1031E0002085608D401E6085208D00287FF462AFB1
:1031F000202084F83D0084F83E6084F83C60002084
:10320000C9E70220C7E70000020010000000FFFF2E
:10321000040001002DE9FF4F83B09A46DDE91197C4
:1032200093460446DDF84080FFF728FE054694F8F3
:103230003D0020287FD119230122404920460095D6
:1032400001F01CFE002876D194F83C00012872D0D1
:10325000012084F83C0020680168C90703D1016897
:1032600041F0010101602068016821F40061016002
:10327000212084F83D00402084F83E00002626648A
:10328000C4F82480A4F82A90608D20852C48E06240
:10329000CDE9007553465A462046049901F06EFD6B
:1032A00070B930E02A463946204601F0C5FE58B1D3
:1032B000206C042804D12068016841F40071016089
:1032C000012007B0BDE8F08F606A216800780861CE
:1032D000606A401C6062218D491E89B22185628D21
:1032E000521E628522685369DB435B070BD469B1C8
:1032F00000781061606A401C6062208D401E20854D
:10330000608D401E6085208D0028CBD12A4639462D
:10331000204601F087FD0028CAD154F83D0B016812
:1033200041F400710160202004F81E09E6776677F9
:103330000020C6E7FFE70220C3E7000002001000FC
:103340000000FFFFF0B587B0044614216846FDF782
:1033500055F91A49206888422DD11948016841F071
:1033600004010160016801F004010591016841F068
:10337000010101600068122400F0010005904FF483
:1033800000700125032604278DE8F10069460D48E9
:10339000FFF776FC28028DE8F10069460A48FFF73E
:1033A0006FFC07481030016841F4000101600068BB
:1033B00000F40000059007B0F0BD0000005C004084
:1033C0003038024000080240000002400248816894
:1033D0000278114481607047440000200B4810B50A
:1033E000016841F400710160016841F4806101608D
:1033F000016841F480710160032000F09FF80F2004
:1034000000F006F800F050F8002010BD003C02402B
:1034100030B50546204887B00024016841F001011D
:103420000160006806A900F00100009001A800F00A
:1034300031F90498B0B100F04DF9400017494FF050
:103440008042B0FBF1F11648491E026040F2E732BB
:10345000C0E90324C0E90114846100F063FD0400A5
:1034600003D015E000F036F9E8E70D4800F0D8FD8C
:1034700004000DD11C2000F033F8102D07D20022DB
:1034800029461C2000F03AF80648056000E00124B7
:1034900007B0204630BD00004038024040420F00D7
:1034A000B0270020480000200C4882B0016841F499
:1034B00080410160006800F4804000900748001FD0
:1034C000016841F0805101600068002200F08050E6
:1034D00000900F21901E02B000F010B84438024056
:1034E000002809DB00F01F02012191404009800003
:1034F00000F1E020C0F8001170470000F0B40E4B5E
:103500001B680C46C3F30223C3F10705042D00D941
:103510000425191D072901D2002300E0DB1E012626
:1035200006FA05F1491E214099409E40761E16403C
:103530003143F0BC05F091BB0CED00E0064900F012
:10354000070208684FF6FF03184040EA0220034ACA
:1035500010430860704700000CED00E00000FA0521
:103560002DE9F0470E46050065D0DFF81481D8F844
:103570000000F7B200F00700B04207D288F80070F0
:10358000D8F8000000F00700B04254D128683D4C44
:10359000810712D5400703D5206840F4E050206031
:1035A0002878000703D5206840F460402060206838
:1035B000A96820F0F000084320602878C0072DD0CB
:1035C000304968680839012812D0022813D003282E
:1035D00011D00968890700292DDA216821F003013B
:1035E00001432160FFF74AFC814641F2883A0EE030
:1035F00009688903EFE709688901ECE7FFF73EFCFA
:10360000A0EB0901514502D90320BDE8F0872068ED
:10361000696800F00C00B0EB810FEFD1D8F8001012
:10362000404601F00701B14207D90770006800F079
:103630000700B04201D00120E7E72878400705D510
:103640002068E96820F4E0500843206028780007EB
:1036500006D52068296920F4604040EAC100206056
:1036600000F058F82168084AC1F30311515CC840C2
:103670000649086006480068FFF7CAFE0020C4E754
:10368000003C02400838024040DB000850000020A7
:10369000480000200F2202600C4A136803F0030365
:1036A0004360136803F0F0038360136803F4E0538E
:1036B000C36012684FF4E05303EAD2020261044887
:1036C000006800F0070008607047000008380240FA
:1036D000003C02400448054900680968044AC1F3F7
:1036E0008221515CC84070475000002008380240D9
:1036F00050DB00080448054900680968044AC1F322
:103700004231515CC84070475000002008380240E8
:1037100050DB0008154810B5006810F00C02144882
:1037200013D01449042A0FD0082A0ED10F4C241F9D
:103730002268236802F03F025B0207D52068C0F3CD
:103740008810A0FB010106E0084610BD2168C1F306
:103750008811A1FB00010023FCF706FE2168C1F3DC
:103760000141491C4900B0FBF1F010BD083802408E
:103770000024F40040787D012DE9F84F04006ED05C
:103780002078DFF84C93C007A9F104054AD009F16D
:1037900004000168C1F38101012908D00068C0F369
:1037A000810002280AD1D9F80000400206D5286815
:1037B000800337D560680028E1D033E06068B0F559
:1037C000803F10D0B0F5A02F286810D020F48030B2
:1037D0002860286820F4802028606068A8B1FFF77E
:1037E0004DFB06460DE0286840F48030F4E740F4D5
:1037F00080202860F7E700BFFFF740FB801B6428AC
:1038000073D828688003F7D50CE0FFF737FB06462E
:1038100005E000BFFFF732FB801B6428F0D8286862
:103820008003F7D42078DFF8AC8280074FF0000ADD
:103830003ED5A748001D016811F00C0F08D00068A4
:10384000C0F3810002280BD1D9F80000400207D450
:103850002868800716D5E068012800D112E033E11E
:10386000E068B8B10120C8F80000FFF707FB064682
:1038700005E000BFFFF702FB801B0228C0D82868C4
:103880008007F7D52868216920F0F80040EAC100D8
:1038900028600DE0C8F800A0FFF7F0FA064604E043
:1038A000FFF7ECFA801B02281FD828688007F7D49E
:1038B0002078000722D5864F87486169703771B13B
:1038C00001210160FFF7DAFA064604E0FFF7D6FAB5
:1038D000801B022809D838688007F7D50EE0C0F8A9
:1038E00000A0FFF7CBFA064605E082E0FFF7C6FA34
:1038F000801B02287DD838688007F7D420784007DD
:1039000068D5DFF8CCB100270BF13C0BDBF80000E9
:10391000C0000BD4DBF8001041F08051CBF8001050
:10392000DBF80000012700F0805000906B4E3068FB
:10393000C00510D4306840F480703060FFF79EFA04
:10394000009005E0FFF79AFA0099401A022850D833
:103950003068C005F6D55E4EA0686C3601280FD0E1
:103960000528306810D020F001003060306820F069
:1039700004003060A068B8B1FFF780FA00900FE053
:10398000306840F00100F4E740F004003060F7E7F1
:10399000FFF774FA0099411A41F28830814266D8E3
:1039A00030688007F4D50EE0FFF768FA009007E072
:1039B000FFF764FA0099411A41F28830814256D8E3
:1039C00030688007F4D42FB1DBF8001021F080516B
:1039D000CBF80010A069C8B33D49091D0968C1F3BF
:1039E000810102294AD00228504607D0C8F8600059
:1039F00000E03CE0FFF742FA04463BE04746C8F8E7
:103A00006000FFF73BFA064605E000BFFFF736FA15
:103A1000801B02282BD828688001F7D4D4E907013D
:103A20000843A16A2E4A490802EB0141626A41EA51
:103A30008211084394F82C1040EA0161C9F8001083
:103A400001203866FFF71AFA044606E03EE000BFA0
:103A5000FFF714FA001B022809D828688001F7D55F
:103A600034E000BFFFF70AFA001B022802D9032046
:103A7000BDE8F88F28688001F4D427E00128F7D04A
:103A8000D9F80000E26900F4800191421CD1226A59
:103A900000F03F01914217D147F6C071626A0140C0
:103AA000B1EB821F10D1A26A4FF0FF3300F4403116
:103AB00003EB5202B1EB024F06D194F82C1000F048
:103AC0007060B0EB016F01D00120D1E70020CFE79B
:103AD0000438024000004742800E47420070004018
:103AE0000000FFFF70B5040009D0606A002540B1F6
:103AF00025616561A56294F8510040B10CE0012098
:103B000070BD6068B0F5827FF4D0E561F2E784F8BB
:103B10005050204600F044F8022084F851002068FC
:103B2000016821F040010160A088218900F48270C1
:103B300001F404410843A18901F400610843217C98
:103B400001F002010843217D01F001010843218BAE
:103B500001F400710843217F01F03801084394F813
:103B6000201001F080010843218D01F40051084329
:103B700021680860A069042101EA104094F824102B
:103B800001F010010843216848602068C16921F4F0
:103B90000061C1616565012084F85100002070BD9D
:103BA0002DE9F04186B0064614216846FCF726FD53
:103BB00035493068884264D134480024016841F4B2
:103BC00080510160006800F4805005902F4814383F
:103BD000016841F002010160016801F002010591F4
:103BE000016841F0010101600068022500F0010058
:103BF00005901820CDE9000502AA03274FF005081B
:103C000082E8900169462248FFF73AF88020CDE922
:103C1000000502AA694682E890011E48FFF730F8C5
:103C20001E4D1D487F062860C5E901744FF4806869
:103C3000C5E903486C617812AC61C5E907402846C4
:103C40006C62FEF733FF08B1FDF77FFEF564AE63EB
:103C5000124D114860351830E5E802074020A5E80C
:103C60001101C00245F81449AC61C5E907400B4891
:103C70006C626030FEF71AFF08B1FDF766FEB564AE
:103C8000AE6306B0BDE8F081003001404438024028
:103C9000000402400000024040640240F023002083
:103CA0002DE9FF4F81B01D46934604464FF00109B0
:103CB0000E9EFFF7E3F8074694F85100616801286B
:103CC00006D0B1F5827F3CD1A168C9BB042838D1A8
:103CD0000298002871D0BBF1000FFBD0002DF9D065
:103CE00094F8500001282CD04FF0010A84F850A01D
:103CF00094F85100042802D0052084F851004FF0B8
:103D00000008C4F85480C4F838B0E587A587029944
:103D10002163E586A586C4F84080C4F84480206805
:103D20000168490603D4016841F040010160E06880
:103D3000B0F5006F606808D0F0B3012D49D081E084
:103D4000FFE7022005B0BDE8F08F08B1012D39D1A1
:103D5000206B21680088C860206B801C2063E08E87
:103D6000401EE0862EE02068816889070FD5E18E2D
:103D700069B1B9F1010F0AD1216B0988C160206BCB
:103D8000801C2063E08E401EE0864FF00009206812
:103D90008168C9070CD0E18F51B1C068A16B088060
:103DA000A06B801CA063E08F401EE0874FF00109EC
:103DB000FFF764F8C01B01E00BE067E0B04201D3FD
:103DC000701C50D1E08E0028CDD1E08F0028CAD1E0
:103DD0003EE0206B216800780873206B401C206354
:103DE000E08E401EE0862DE02068816889070FD5AF
:103DF000E18E69B1B9F1010F0AD1216B0978017324
:103E0000206B401C2063E08E401EE0864FF00009CE
:103E100020688168C9070CD0E18F51B1C068A16BDF
:103E20000870A06B401CA063E08F401EE0874FF03D
:103E30000109FFF723F8C01BB04202D3701C01D068
:103E400011E086B1E08E0028CED1E08F0028CBD1E2
:103E50003A463146204603F003FD50B1202060650C
:103E600084F8508012E084F851A084F85080032038
:103E700068E7A06818B92068C1688068009084F875
:103E800051A084F85080606D0028F1D0012059E7DE
:103E90007047704770B590F83C20012A32D0012459
:103EA00080F83C40022280F83D2003685A689D68F3
:103EB00022F070060A6832435A60134B02689A4235
:103EC00014D0B2F1804F11D0104B9A420ED0104B4B
:103ED0009A420BD00F4B9A4208D00F4B9A4205D012
:103EE0000E4B9A4202D00E4B9A4204D1496825F0FB
:103EF00080031943916080F83D40002180F83C1018
:103F0000084670BD022070BD000001400004004062
:103F100000080040000C0040000401400040014047
:103F20000018004010B5040003D094F83D0010B113
:103F300007E0012010BD002084F83C00204600F07E
:103F40001FF8022084F83D00211D206803F0FAFFCD
:103F5000012084F8460084F83E0084F83F0084F88D
:103F6000400084F8410084F8420084F8430084F85B
:103F7000440084F8450084F83D00002010BD000096
:103F800008B500680649884208D10648016841F42E
:103F900000310160006800F40030009008BD0000AE
:103FA000004401404438024090F83D10012901D0FE
:103FB00001207047022180F83D10006811498842B5
:103FC00014D0B0F1804F11D00F4988420ED00F4964
:103FD00088420BD00E49884208D00E49884205D04D
:103FE0000D49884202D00D49884204D1816801F010
:103FF0000701062903D0016841F00101016000209A
:10400000704700000000014000040040000800402C
:10401000000C004000040140004001400018004036
:1040200090F83D10012901D001207047022180F84D
:104030003D100168CA6842F00102CA600068114977
:10404000884214D0B0F1804F11D00F4988420ED071
:104050000E4988420BD00E49884208D00D4988424B
:1040600005D00D49884202D00C49884204D18168AC
:1040700001F00701062903D0016841F00101016048
:10408000002070470000014000040040000800408C
:10409000000C0040000401400040014000180040B6
:1040A00070B5044690F83C000025012817D0012681
:1040B00084F83C60022084F83D002068826822F089
:1040C000770222F47F4282600868502838D00DDCE5
:1040D00020284FD005DC90B3102811D14AE00220EF
:1040E00070BD302846D040280AD13BE060282FD050
:1040F00070280DD0B0F5805F03D0B0F5005F12D00E
:10410000012584F83D60002084F83C00284670BDFD
:10411000CB68D1E90121206803F089FF206881681C
:1041200041F0770109E0CB68D1E90121206803F073
:104130007EFF2068816841F480418160E1E719E0F9
:10414000CA684968206804F07BF85021206806E0BE
:10415000CA684968206804F084F86021206803F088
:1041600070FFCEE7CA684968206804F069F840210A
:104170002068F4E7226801461046F0E770472DE911
:10418000F04104460068C66805694FF00007A907BA
:1041900013D5B10711D5F91E0161012020772068E0
:1041A00080698007204602D0FFF7E8FF04E000F0B6
:1041B000A9F8204600F03BF92777680716D5700765
:1041C00014D521686FF00400086102202077206870
:1041D000806910F4407F204602D0FFF7CFFF04E053
:1041E00000F090F8204600F022F92777280715D52F
:1041F000300713D521686FF008000861042020778C
:104200002068C0698007204602D0FFF7B7FF04E0AE
:1042100000F078F8204600F00AF92777E80616D56E
:10422000F00614D521686FF010000861082020778F
:104230002068C06910F4407F204602D0FFF79EFF3F
:1042400004E000F05FF8204600F0F1F82777E80777
:1042500008D0F00706D021686FF001000861204601
:1042600000F04AF9280608D5300606D521686FF017
:10427000800008612046FFF70BFE680608D570062F
:1042800006D521686FF040000861204600F03BF938
:10429000A8060AD5B00608D521686FF0200008618D
:1042A0002046BDE8F041FFF7F4BDBDE8F081000015
:1042B00010B586B0044614216846FCF79FF90E49F4
:1042C0002068884215D10D480021026842F0200282
:1042D0000260006800F0200005904020009002205D
:1042E000CDE901010320CDE9031069460448FEF73A
:1042F000C7FC06B010BD0000004401403038024049
:1043000000140240704770B5044690F83C00002647
:104310000D4601280FD0012084F83C006AB1042A20
:104320001DD0082A2FD00C2A3FD00126002084F867
:104330003C00304670BD022070BD206803F0BEFE18
:104340002068816941F0080181612068816921F05C
:1043500004018161206881692A69114311E02068A4
:1043600003F0DCFE2068816941F40061816120680E
:10437000816921F480618161206881692A6941EA4B
:1043800002218161D2E7206803F0FEFE2068C16946
:1043900041F00801C1612068C16921F00401C161D7
:1043A0002068C1692A69114311E0206803F020FFE9
:1043B0002068C16941F40061C1612068C16921F4CC
:1043C0008061C1612068C1692A6941EA0221C16135
:1043D000ACE710B5040003D094F83D0010B107E03D
:1043E000012010BD002084F83C00204600F01EF89B
:1043F000022084F83D00211D206803F0A3FD012068
:1044000084F8460084F83E0084F83F0084F84000B9
:1044100084F8410084F8420084F8430084F84400A2
:1044200084F8450084F83D00002010BD70477047B7
:1044300010B50446022249B104290ED0082913D030
:1044400094F84100012816D0012010BD94F83E00D8
:104450000128F9D184F83E200FE094F83F000128AC
:10446000F2D184F83F2008E094F840000128EBD115
:1044700084F8402001E084F841200122206803F004
:10448000C9FD16492068164A884201D0904203D1DE
:10449000436C43F4004343642068884213D0B0F176
:1044A000804F10D00F4988420DD00F4988420AD062
:1044B0000E49884207D0904205D00D49884202D06B
:1044C0000C49884204D1816801F00701062903D014
:1044D000016841F001010160002010BD00000140B1
:1044E000000401400004004000080040000C0040AF
:1044F00000400140001800400068B0F1804F01D139
:10450000FEF764BF70477047704770B50446206877
:104510000C3050E8001F21F4907140E80012002A8E
:10452000F5D12068143050E8001F21F0010140E867
:104530000012002AF5D1206B012809D120680C3027
:1045400050E8001F21F0100140E80012002AF5D1C8
:10455000206840694FF00005400615D520681430EA
:1045600050E8001F21F0400140E80012002AF5D178
:10457000E06B48B10565E06BFEF76BF920B1E06BCD
:10458000FEF7C2F9202806D0E585202084F84200F5
:104590002563002070BD10206064032070BD70474B
:1045A000F8B5016804460868CA684B6910F00F0F37
:1045B0004FF0000559D003F0010602F4907737431D
:1045C00065D0C10705D0D10503D5616C41F001016B
:1045D0006164410705D5D90703D0616C41F0020140
:1045E0006164810705D5D90703D0616C41F00401EE
:1045F0006164010707D502F02001314303D0616CEB
:1046000041F008016164616C00293AD0800604D54C
:10461000900602D5204603F00FFF20684069616CC8
:10462000C0F38010090700D460B3204603F0CFFE2A
:1046300020684069400621D52068143050E8001FEA
:1046400021F0400140E80012002AF5D1E06BA8B14A
:1046500072490165E06BFEF745F9002811D0E06B67
:10466000016D01B0BDE8F040084783060FD5930601
:104670000DD52046BDE8F84003F0DEBE2046FFF72A
:104680008EFFF8BD2046FFF78AFF6564F8BD266BF4
:104690002023012E7ED1C6067CD5D6067AD50868A1
:1046A0004868009048694FF0020640064DD5E26B1D
:1046B000106840684FF480770004000C3AD0A18D58
:1046C000814237D9E085D069B8422DD020680C30BE
:1046D00050E8001F21F4807140E80012002AF5D153
:1046E0002068143050E8001F21F0010140E800125A
:1046F000002AF5D12068143050E8001F21F0400155
:1047000040E80012002AF5D184F842302563206881
:104710000C3050E8001F21F0100140E80012002A80
:10472000F5D1E06BFEF795F86663A08DE18D401A38
:1047300081B206E0A18D8142A8D1D069B842A5D14D
:1047400066632046FFF7E0FEF8BDA08DE18D401ABC
:1047500081B2E08D0028F7D00029F5D020680C3018
:1047600050E8002F22F4907240E80027002FF5D186
:104770002068143050E8002F22F0010240E80027A2
:10478000002FF5D184F84230256320680C3050E8C2
:10479000002F00E006E022F0100240E80023002B8A
:1047A000F3D1CDE705062BD5150629D594F84100A0
:1047B0002128C9D1A068B0F5805F01D12069B0B1CE
:1047C000206A411C2162216800784860E08C401E0C
:1047D0000004000CE084B7D12068C16821F080019A
:1047E000C1602068C16841F04001C160F8BD206A25
:1047F0000088C0F308004860206A801C2062E5E75A
:104800004006F3D55006F1D5CA68204622F0400292
:10481000CA6084F8413000F0BBF9F8BD8782000817
:1048200070B5040004D094F84100002510B106E0F2
:10483000012070BD84F84050204600F023F8242069
:1048400084F841002068C16821F40051C16020460D
:1048500003F054FE2068016921F490410161206851
:10486000416921F02A0141612068C16841F4005189
:10487000C1606564202084F8410084F842006563CB
:10488000002070BD2DE9F04F87B004461421684622
:10489000FBF7B4FE8A48DFF824821438D4F800C04D
:1048A000874A022603210723002507154FF0006AD7
:1048B000C44565D1D2F800C04CF0100CC2F800C05D
:1048C000126802F010020592026842F002020260D1
:1048D000026802F002020592026842F001020260E0
:1048E0000068884600F0010005908020CDE90006B0
:1048F0000DF1080B99468BE8200369467148FEF7D5
:10490000BFF93002CDE900068BE8200369466E4806
:10491000FEF7B6F96E4E6D48B9463060C6E901A59E
:10492000C6E903577561BF01B561C6E90757D046AF
:1049300030467562FEF7BAF808B1FDF706F8E6638F
:10494000B463634E614860363030E6E802084020C8
:10495000A6E821025E4846F814596030B561C6E900
:1049600007577562FEF7A2F808B1FCF7EEFFA663E1
:10497000002205212520B463FEF7C0FD252041E07B
:10498000DFF850814FF4807BC44540D14C4A121F60
:10499000D2F800C04CF4802CC2F800C0126802F4B7
:1049A00080220592026842F00402026000680295CB
:1049B00000F004000590CDE903134FF44060CDE909
:1049C000000669464448FEF75BF9414E4348C0364D
:1049D0003060C6E901A5C6E903577561C6E9065B03
:1049E0004FF48030C6E908053046FEF75FF808B19D
:1049F000FCF7ABFFE66300220F212720B463FEF72C
:104A00007DFD2720FEF76CFD07B0BDE8F08F344B2D
:104A10009C45F9D1136843F020031360126802F03B
:104A200020020592026842F040020260006802958E
:104A300000F0400005904FF48440CDE900060820C6
:104A4000CDE9031069462748FEF71AF91F48264E9C
:104A500060384FF020693060C6E90195C6E9035718
:104A60007561C6E9065B4FF40038C6E90885304633
:104A7000FEF71CF808B1FCF768FFE663B4631A4E52
:104A8000124860361830E6E802094020A1C61648F0
:104A900046F814596030B561C6E907587562FEF7EB
:104AA00005F808B1FCF751FFA66300220521472055
:104AB000B463FEF723FD4720A4E700000010014087
:104AC0004438024000040240000002408864024072
:104AD000D025002000480040000802402860024025
:104AE0000014014000180240F026002090F84230E7
:104AF000202B01D00220704721B11AB1002303639B
:104B000003F082BD012070477047704770B50446BE
:104B100090F84100202801D0022070BD01B3FAB105
:104B20002162A284E28400206064212384F8413061
:104B3000A56B144BEB63A56B134B2B64A56B134B4D
:104B4000EB64A36B186520681346A56B021D28460D
:104B5000FEF716F830B110206064202084F8410080
:104B6000012070BD21686FF040000860206814309B
:104B700050E8001F41F0800140E80012002AF5D102
:104B8000002070BD83830008C5830008958200085B
:104B9000704770472DE9F04106F04EF80446C08892
:104BA0002A4DA0F578704FF4E0662880A0884FF475
:104BB0007877A0F57870688020883346A0F5787003
:104BC000A88060883A46A0F57870E8806089C021A6
:104BD00003F000F92881A08933463A46C02103F04A
:104BE000F9F86881208933463A46C02103F0F2F88B
:104BF000A881E08933463A46C021A41D03F0EAF8B3
:104C0000E88160892882A089A882608933463A4673
:104C1000C02100F06DFBA874A08933463A46C0213C
:104C200000F066FBA875A07E2876E07E6876607F3F
:104C3000E876207FA876E07F28774FF44870E883F5
:104C40004FF6E0402884BDE8F0810000C8740020E1
:104C5000FEE701684A69D24352050FD46FF48062BF
:104C60004A61002140F8301F20224273817302699B
:104C700042F0040202610173012070470020704776
:104C80002DE9F84F0446006889460B9D0168984657
:104C9000174641F4806101602068016841F4807129
:104CA000016000954FF0011B0022594620460A9BE7
:104CB00000F0E4F84FF4007A40B120680068C005C5
:104CC00001D5C4F840A00320BDE8F88F216809F0A1
:104CD000FE0008612B46284920460A9A00F016F982
:104CE000F0BB20684169806900902A4620460A99F5
:104CF00000F0A2F940B1206C04283AD12068016884
:104D000041F40071016034E0FEB2B8F1010F09D046
:104D10002168380A08612A4620460A9900F08CF971
:104D20000028E8D1206806612A4620460A9900F04A
:104D300083F90028DFD12068016841F480710160A7
:104D400000950022594620460A9B00F097F800285B
:104D5000B3D1216809F0FF0040F00100086100E0D4
:104D600007E02B46044920460A9A00F0CFF80028B5
:104D7000AAD00120A8E70000020001002DE9F843B5
:104D8000044600680D46DDE9089701689846164616
:104D900041F4807101604B4600224FF00111204622
:104DA000009700F06BF848B120680068C00502D594
:104DB0004FF4007020640320BDE8F883216805F0FB
:104DC000FE0008613B464A461549204600F09EF821
:104DD00088B920684169806900903A464946204672
:104DE00000F02AF948B1206C042804D12068016839
:104DF00041F4007101600120DEE7F5B2B8F1010F66
:104E000009D02168300A08613A464946204600F038
:104E100013F90028E7D1206805610020CCE70000E5
:104E20000200010070B516460D4604461EE02046FD
:104E3000FFF70FFF08B1012070BD681C16D0FEF708
:104E40001DF8801BA84200D885B920684069C0437E
:104E500040070BD5002044F8300F20216173A07368
:104E6000216941F0200121612073E4E72068406955
:104E7000C0434007DBD4002070BD00002DE9F0479F
:104E8000984617460D460446C1F30746DDF82090C4
:104E90002AE000BFB8F1FF3F26D0FDF7EFFFA0EBFF
:104EA0000901414502D8B8F1000F1DD12068012E3B
:104EB00016D0806925EA00000004000C12D0002002
:104EC000B84211D1002044F8300F20216173A07343
:104ED000216941F02001216120730120BDE8F087A4
:104EE0004069E7E70120EBE72068012E0AD08069DE
:104EF00025EA00000004000C06D00020B842C9D00A
:104F00000020EBE74069F3E70120F7E72DE9F047E0
:104F1000984616460D4604464FF000094FF0200A09
:104F2000C1F3074723E020684069C043400515D41A
:104F30002068016841F40071016021686FF48060AD
:104F40004861C4F8309084F83DA084F83E90216C0C
:104F500041F00401216484F83C9021E0701C06D0EB
:104F6000FDF78CFFA0EB0800B04203D816B1012F6B
:104F70001FD021E02068012F15D0806925EA0000AC
:104F80000004000C18D000BF44F8309F84F80DA036
:104F900084F80E90216941F02001216184F80C9081
:104FA0000120BDE8F087406925EA00000004000CFC
:104FB000EAD12068406901E02068806925EA0000A4
:104FC0000004000CAFD1ECE72DE9F041002590463C
:104FD0000E460446202728E04069C043C0060CD492
:104FE00054F8301B6FF01000486144F8105967778F
:104FF000A577206A2062257714E0FDF73FFFA0EB3C
:105000000800B04200D886B920684069C043400615
:105010000BD544F8305F6773A573206940F020001A
:10502000206125730120BDE8F08120684169C943F2
:105030004906D1D40020F6E770B516460D46044661
:105040001EE02046FFF705FE08B1012070BD681C78
:1050500016D0FDF713FF801BA84200D885B9206841
:105060004069C04300060BD5002044F8300F2021D2
:105070006173A073216941F0200121612073E4E78D
:1050800020684069C0430006DBD4002070BD0000EA
:1050900000487047A47200200EB5072000E064208D
:1050A00006F01FF8FBF7B8FE0028F8D102E06420F4
:1050B00006F017F805F0B2FF0028F8D1804A101D5D
:1050C000CDE90102A2F1100808F10401FBF7BCFED2
:1050D0004346A3F1340208F1480AA2F10C01A1F100
:1050E0000C00CDF800A005F027FEDFED760A9FED5D
:1050F000760A764A002108F1640000F0F3FFA8F177
:105100003402A2F10C0101F11800FBF71DFBA8F11C
:105110004007A7F1180597ED000AA5F10C0685EDEB
:10512000000AA5F1180986ED000A89ED000A97ED3D
:10513000010A002085ED010A86ED010A89ED010AC8
:1051400097ED020A85ED020A86ED020A89ED020A50
:1051500006F048F807F0ACFB5D4C5E49206110207A
:10516000C8610846FEF7BEFC08B1FCF7EEFB5849E3
:1051700008222831A1F1080002F0FAFA012020717A
:105180004FF0FF3B5946012006F030FD0128F9D1D0
:105190002078400708D5207820F0040020704C4883
:1051A00001992930FBF708FE607840070BD560783D
:1051B00020F004006070424A08F104011032A2F1AC
:1051C0002A00FBF7B3FDA07840070CD5A07820F0AB
:1051D0000400A0703E4802991630FBF70FFF98EDCF
:1051E000040A05F0A3FE364BCDF800A0103BA3F156
:1051F0003402A2F10C01A1F10C0005F09DFDD6EDE9
:10520000000A9FED350AC9ED000A95ED001A2C4BF6
:1052100086ED001A61EE001A9FED301A97ED002A14
:10522000443B40EE811ADFED2E0AA3F1240202F185
:105230000C0101F1240042EE201AC5ED001A96ED92
:10524000012A89ED012AD5ED011AC6ED011A61EE98
:10525000801A42EE011A97ED012A42EE201AC5ED9E
:10526000011A96ED022A89ED022AD5ED021AC6ED41
:10527000021A21EE800A02EE010A97ED021A01EEEF
:10528000200A85ED020A9FED170AFBF7C5FB0C4BC0
:10529000203B1A1F111FA1F1100005F0D5FCE0788A
:1052A00010F00100E07007D0E07820F00100E0701D
:1052B000E07840F00200E070FCF72EFC62E70000AE
:1052C000CC7200200080894500A08C456CDB000872
:1052D00020010020982300205AF8F63F5D896EBF18
:1052E000D5A9183B6F12833A030A0B7010707047F0
:1052F00010B5884218D3984216D8C839A2F1C8040C
:10530000884203DDA04201DA012010BDC832A0426C
:1053100003DD904201D2022010BD9042FCD9C83377
:105320009842F9D2032010BD002010BD02F0B4FB5A
:105330000A4C00BF00F04CF800F013F800F047F8FA
:1053400000F010F800F00CF800F040F8002006F033
:10535000D1FC2060012005F0C4FEEBE73402002000
:10536000704770477047000070B5144CA07810B9B2
:105370000120FCF79BFA1248007801281DD100207B
:10538000FCF794FA10489FED0F0A0C4D012680EDB2
:10539000230A183D80F89260E86810B9FDF76EFDA9
:1053A000E860FDF76BFDE968401AB0F5FA7F04D8B4
:1053B000A670062060700020E86070BD2C020020FE
:1053C000D50100200000E1455C8400207047704753
:1053D0007047000010B58EB000240794089409941B
:1053E0000A940B941C2168460C94FBF707F91748A4
:1053F00015490160A721C0E901144FF6FF71C0E90A
:105400000314846102F06EFD4FF48050079007A9E9
:105410000E48FEF745FE0D48FEF7DBFF0B940BA987
:105420000A480C94FEF736FD6020CDE90004029492
:105430000822694605480494FEF765FF034802F018
:1054400009FE0EB010BD000000080040EC74002002
:105450000F4810B50D4901600321416000214FF450
:1054600020228160C0E903124FF48012426101766C
:1054700041768176C17601774177FDF738F80028CB
:1054800003D0BDE81040FCF760BA10BD00640040D6
:10549000F42200200F4810B50D490160032141603E
:1054A00000214FF420228160C0E903124FF48012E2
:1054B0004261017641768176C17601774177FDF7C9
:1054C00016F8002803D0BDE81040FCF73EBA10BD26
:1054D000006800401C230020254808B5016841F4FD
:1054E00080010160016801F480010091016841F4CC
:1054F000001101600068002200F4001000900F21EC
:105500000C20FDF7FBFF0C20FDF7EAFF0022052130
:105510003920FDF7F3FF3920FDF7E2FF00220521D6
:105520003A20FDF7EBFF3A20FDF7DAFF00220521D4
:105530003B20FDF7E3FF3B20FDF7D2FF00220521D2
:105540004420FDF7DBFF4420FDF7CAFF00220521C0
:105550004520FDF7D3FF4520FDF7C2FF00220521BE
:105560004620FDF7CBFFBDE808404620FDF7B8BF59
:105570003038024010B5384A0021384805F0ECFDBB
:10558000374C354A002120602432364805F0E4FDCE
:10559000314A606048320021334805F0DDFD2E4A73
:1055A000A0606C320021314805F0D6FD2A4AE06047
:1055B000903200212E4805F0CFFD274A2061B432F9
:1055C00000212C4805F0C8FD234A6061D832002133
:1055D000294805F0C1FD204AA061FC32002127487E
:1055E00005F0BAFDE061264A0021264805F0B4FD29
:1055F000234A206224320021234805F0ADFD204AD1
:10560000606248320021214805F0A6FD1C4AA062D4
:105610006C3200211E4805F09FFD194AE06290326D
:1056200000211C4805F098FD154A2063B432002182
:10563000194805F091FD124A6063D83200211748DD
:1056400005F08AFD0E4AA063FC320021144805F0E3
:1056500083FDE06310BD0000F8D80008CD7D000890
:1056600000000020995000084DA6000829170008E6
:10567000C5120008811B000899790008651100080F
:1056800018DA0008CD610008416100080D13000818
:105690009179000889790008550B00088D61000890
:1056A000358800082DE9F04387B014216846FAF7E1
:1056B000A5FF60480025016841F002010160016812
:1056C00001F002010591016841F0400101600168AB
:1056D00001F040010591016841F00101016001689C
:1056E00001F001010591016841F0080101600168C4
:1056F00001F008010591016841F0040101600168B1
:1057000001F004010591016841F020010160016888
:1057100001F020010591016841F0800101600068FD
:10572000DFF8148100F080000590012240214046FE
:10573000FDF79EFB414F00224FF4E0513846FDF744
:1057400097FB3F4E012210213046FDF791FBDFF819
:10575000F490012211464846FDF78AFB01244020BF
:10576000CDE900040294694640460394FDF788FAA7
:105770004FF4C0508DE83100694638460395FDF777
:105780007FFA082000904FF48810CDE901046946A3
:105790004046FDF775FAA002CDE900046946384697
:1057A000CDE90245FDF76CFA1020CDE90004022591
:1057B00069463046CDE90245FDF762FA30204FF4E4
:1057C0000416CDE90006694602941F48FDF758FA11
:1057D000CDE90046694640460294FDF751FA00942F
:1057E000694648460194CDE90245FDF749FA002291
:1057F00005210620FDF782FE0620FDF771FE00223E
:1058000005210920FDF77AFE0920FDF769FE002237
:1058100005210A20FDF772FE0A20FDF761FE002235
:1058200005211720FDF76AFE1720FDF759FE07B086
:10583000BDE8F0833038024000180240001C0240EE
:105840000000024000040240000802400D4810B56C
:105850000B4901600C49416000214FF48042816096
:10586000C0E9031241618161C1610162FDF70CFB76
:10587000002803D0BDE81040FCF767B810BD000059
:10588000005C004044230020801A0600104810B538
:105890000E4901604FF48271416000210222816053
:1058A000C0E9031201224261520282613822C0E93A
:1058B0000721416281620A21C162FEF713F90028C3
:1058C00003D0BDE81040FCF740B810BD00300140E7
:1058D0009823002010B588B01C216846FAF78EFE88
:1058E000144813490024C0E9001441F28731C0E98B
:1058F000024104618461FEF715FB08B1FCF725F84D
:105900000C48FEF766FD08B1FCF71FF86020CDE9F2
:10591000000402940022694606480494FEF7F3FC52
:1059200008B1FCF712F80348FEF7C2FC08B010BD3E
:1059300000440140B02400200C4810B50A49016021
:105940004FF4E1314160002181600C22C160C0E967
:1059500004128161C161FEF763FF002803D0BDE836
:105960001040FBF7F2BF10BD00100140F8240020EA
:105970000E4810B50C4901600D4941604FF480514B
:1059800081604900C160C91001610C2141610021A1
:105990008161C161FEF744FF002803D0BDE81040DB
:1059A000FBF7D3BF10BD0000004800404025002099
:1059B000A08601000C4810B50A4901604FF461212E
:1059C0004160002181600C22C160C0E90412816144
:1059D000C161FEF725FF002803D0BDE81040FBF7AA
:1059E000B4BF10BD0014014088250020FEE7000070
:1059F000002804D000680649884201D10548704754
:105A00000549884202D10348A03070470020704702
:105A100000640040887300200068004010B52DED40
:105A2000068BB0EE608AB0EE409A71EE488AF5EED1
:105A3000C08AF1EE10FA2BD928B318EE900A07F0BD
:105A400065FE39EE480A41EC1A0B10EE100A07F019
:105A50005DFE41EC100BB0EE4A1AF0EE6A1A03F04C
:105A60002FFB51EC100B07F029F900EE100AB5EEF0
:105A7000C00AF1EE10FA01D230EE280A30EE080A20
:105A8000BDEC068B10BDB4EEC89AF1EE10FA02D24E
:105A9000B0EE480AF4E7B4EEC19AF1EE10FA02DD76
:105AA000B0EE410AECE7B0EE490AE9E7F4EE410A4C
:105AB000F1EE10FA06D131EE820AF6EE000A20EE7F
:105AC000200A704730EE600A31EE601AC0EE010A1B
:105AD00032EE611AB0EE610A00EE810A70470000F2
