:020000040800F2
:10000000D8AA002029030008996100086951000856
:10001000FD5F000891100008458E000800000000F8
:10002000000000000000000000000000690200085D
:10003000951A000800000000C50200086D85000840
:100040004303000843030008430300084303000878
:1000500043030008430300080D1D00084303000884
:1000600043030008131D0008191D0008430300087E
:10007000091700084303000843030008430300086E
:100080004303000843030008430300084303000838
:1000900095100008A1100008430300081F1D000868
:1000A0004303000843030008430300084303000818
:1000B0002D8600084303000843030008430300089B
:1000C00043030008430300084303000843030008F8
:1000D00043030008018E000843030008158E000842
:1000E00043030008430300084303000843030008D8
:1000F00043030008430300084303000843030008C8
:1001000043030008430300084303000843030008B7
:1001100043030008430300084303000843030008A7
:1001200043030008151700082117000843030008BF
:100130004303000843030008430300084303000887
:10014000AD100008B910000843030008430300087D
:10015000CD190008D9190008E5190008298E0008F2
:100160004303000843030008430300084303000857
:100170004303000843030008430300080000000095
:10018000430300084303000800F002F800F05CF8A5
:100190000AA090E8000C82448344AAF10107DA45E2
:1001A00001D100F051F8AFF2090EBAE80F0013F0D8
:1001B000010F18BFFB1A43F0010318474CEA000077
:1001C0006CEA00000A444FF0000C10F8013B13F0F9
:1001D000070408BF10F8014B1D1108BF10F8015BA0
:1001E000641E05D010F8016B641E01F8016BF9D193
:1001F00013F0080F1EBF10F8014BAD1C0C1B09D1EA
:100200006D1E58BF01F801CBFAD505E014F8016B5B
:1002100001F8016B6D1EF9D59142D6D370470000ED
:100220000023002400250026103A28BF78C1FBD8FF
:10023000520728BF30C148BF0B6070471FB50EF092
:10024000F8F81FBD10B510BD00F016FA1146FFF703
:10025000F5FF0BF0EDFB00F034FA03B4FFF7F2FF0B
:1002600003BC00F039FA00002C4B19680868B0E8AC
:10027000F04F80F30988BFF36F8F4FF0000080F3D9
:10028000118870470000000008480068006880F38B
:1002900008884FF0000080F3148862B661B6BFF39F
:1002A0004F8FBFF36F8F00DF00BF00BF08ED00E08E
:1002B000DFF80C00016841F470010160704700BF75
:1002C00088ED00E0EFF30980BFF36F8F134B1A68DE
:1002D0001EF0100F08BF20ED108A20E9F04F1060CB
:1002E00009B44FF0500080F31188BFF34F8FBFF374
:1002F0006F8F0CF02DFD4FF0000080F3118809BCCA
:1003000019680868B0E8F04F1EF0100F08BFB0EC95
:10031000108A80F30988BFF36F8F70475C0000205C
:10032000EFF30580704700000948804709480047FF
:10033000FEE7FEE7FEE7FEE7FEE7FEE7FEE7FEE795
:10034000FEE7FEE704480549054A064B70470000F2
:100350001D86000889010008D8A40020D8AA002022
:10036000D8A60020D8A6002053EA020C00F069802D
:100370002DE9F04B4FF00006002B1FBFB3FA83F5B9
:1003800003FA05F424FA05F65E4012BF1643B2FAEA
:1003900082F502FA05F4C5F120051EBF22FA05FC1C
:1003A00044EA0C04203556EA044C4FEA144418BFC2
:1003B000641C4FF000084FF00009904271EB030CF1
:1003C00039D3002919BFB1FA81F701FA07F6B0FA5B
:1003D00080F700FA07F6C7F120071EBF20FA07FCD6
:1003E00046EA0C062037B6FBF4FCA7EB0507103FE6
:1003F00007F01F0BCBF120060CFA0BFB2CFA06F6CC
:1004000044BFB3460026202FA4BF5E464FF0000B2A
:100410005BEA060C08BF4FF0010B19EB0B09ABFBB5
:10042000027C48EB0608C01B06FB02CC0BFB03CC8E
:1004300071EB0C01C1E70B46024641464846BDE858
:10044000F08B13B54FF000004FF00001AFF30080C8
:10045000BDE81C407047B2F120030AD5C2F1200369
:1004600001FA02F120FA03F300FA02F041EA030173
:10047000704700FA03F14FF00000704710B5431CBD
:1004800002E010F8011B71B18107FAD14FF001327F
:1004900002C88C1A8C4314EAC211F9D0C01A0A0699
:1004A00003D0C01E10BDC01A10BD0A0401D0801EAA
:1004B00010BD0902FCD0401E10BD032A40F230805E
:1004C00010F0030C00F0158011F8013BBCF1020F95
:1004D000624498BF11F801CB00F8013B38BF11F816
:1004E000013BA2F1040298BF00F801CB38BF00F82D
:1004F000013B11F0030300F02580083AC0F00880AA
:1005000051F8043B083A51F804CBA0E80810F5E78D
:10051000121D5CBF51F8043B40F8043BAFF3008070
:10052000D20724BF11F8013B11F801CB48BF11F8E5
:10053000012B24BF00F8013B00F801CB48BF00F8B5
:10054000012B704710B5203AC0F00B80B1E818506D
:10055000203AA0E81850B1E81850A0E81850BFF4AD
:10056000F5AF5FEA027C24BFB1E81850A0E818504C
:1005700044BF18C918C0BDE810405FEA827C24BFA0
:1005800051F8043B40F8043B08BF7047D20728BF2E
:1005900031F8023B48BF11F8012B28BF20F8023B7D
:1005A00048BF00F8012B704702F0FF0343EA032223
:1005B00042EA024200F002B84FF000020429C0F003
:1005C000128010F0030C00F01B80CCF1040CBCF185
:1005D000020F18BF00F8012BA8BF20F8022BA1EBD7
:1005E0000C0100F00DB85FEAC17C24BF00F8012BBC
:1005F00000F8012B48BF00F8012B70474FF00002B4
:1006000000B5134694469646203922BFA0E80C5008
:10061000A0E80C50B1F12001BFF4F7AF090728BFE3
:10062000A0E80C5048BF0CC05DF804EB890028BF5F
:1006300040F8042B08BF704748BF20F8022B11F088
:10064000804F18BF00F8012B704770477047704704
:1006500010B500F009F8006810BD10B5044600F0B0
:1006600003F8046010BD00000048704778A4002023
:100670000048704778A400207546FFF7F9FFAE46A2
:1006800005006946534620F00700854618B020B59E
:10069000FFF758FEBDE820404FF000064FF000077E
:1006A0004FF000084FF0000B21F00701AC46ACE81A
:1006B000C009ACE8C009ACE8C009ACE8C0098D4687
:1006C000704710B50446AFF300802046BDE81040E7
:1006D000FFF7C3BD7047000001491820ABBEFEE71D
:1006E0002600020008F076BE08F00ABF10B510EE32
:1006F000100A0DF02DFE41EC100B09F029F851EC19
:10070000100B0DF0FDF800EE100A10BDF0EE400ADF
:10071000F5EEC00AF1EE10FA02DDB0EE600A7047A5
:10072000B1EE600AFBE70000002803D09FED020A4B
:1007300080ED000A7047000000000000002803D090
:10074000B3EE060A80ED000A7047000070B52DED8B
:100750000C8B84B006460C4615469FED990AF0EEC8
:10076000408A9FED970AB0EE409A9FED950AF0EE11
:1007700040BA9FED930AF0EE409A9FED910AB0EED9
:1007800040AA0EB104B11DB904B0BDEC0C8B70BD14
:100790008C48FFF7C9FF8C48FFF7D0FF8A48D0ED9F
:1007A000000A9FED8A1A60EE810AB0EE600A00F03E
:1007B00025F9F0EE408A28EEA80AF0EE408A824839
:1007C000D0ED000AB0EE001A60EE810A9FED7F1AAC
:1007D00060EE810AB0EE600A00F010F9B0EE409AC7
:1007E00029EE090AB0EE409ADFED790AB7EE000A69
:1007F00000EEA80ADFED770A00EEC90ADFED760AFF
:1008000020EE200A754880ED000A6E4890ED000A3F
:10081000DFED730A80EE201AB7EE000A31EE000A0F
:1008200020EE000A6D48D0ED000A80EE801A6D4877
:1008300080ED001A94ED000AB5EEC00AF1EE10FA50
:100840000DD194ED010AB5EEC00AF1EE10FA06D111
:1008500094ED020AB5EEC00AF1EE10FA46D09FED13
:10086000580AB0EE408A0020019002900390D4ED27
:10087000000A60EEA00A94ED011AD4ED011A41EECF
:10088000210A94ED021AD4ED021A41EE210AB0EECB
:10089000600A00F0A9F8B0EE408A94ED000A20EE5C
:1008A000080A8DED010A94ED010A20EE080A8DED8B
:1008B000020A94ED020A20EE080A8DED030ADDED2E
:1008C000010AF1EE600AB0EE600AFFF70BFFF0EEEE
:1008D000409A9DED031AF0EE410A9DED021AB0EE2A
:1008E000410AFFF701FFB0EE40AA07E09FED340A8E
:1008F000F0EE409A9FED320AB0EE40AA95ED000A64
:10090000B5EEC00AF1EE10FA0DD195ED010AB5EE83
:10091000C00AF1EE10FA06D195ED020AB5EEC00A52
:10092000F1EE10FA3CD0B0EE690A00F067F8B0EED4
:10093000408AB0EE690AFFF7D9FEB0EE40DAB0EEB9
:100940004A0A00F05BF8F0EE40AAB0EE4A0AFFF760
:10095000CDFEB0EE40BA28EE2A0AD5ED010A20EE0F
:10096000200AD5ED000A0DEE200A68EE0B0A95ED7F
:10097000021A00EE810AB0EE40CA95ED010A20EE9F
:100980000B0AD5ED020A0AEEE00AF0EE40CAF0EEDC
:100990006C0AB0EE4C0AFFF7A7FEF0EE40BA03E097
:1009A0009FED070AF0EE40BAB0EE4A1AF0EE690A7F
:1009B000B0EE6B0A304609F067FE00BFE4E60000C7
:1009C00000000000700200207402002035FA8E3C06
:1009D000C1BFAD3B9DF8C5362F7C1C41780200207D
:1009E000506CC24A7C02002010B509F055F8B7EEF1
:1009F000001AC1EE000AB0EE600A10BD10B510EE8C
:100A0000100A0DF0A5FC41EC100B08F0E1FF51ECD1
:100A1000100B0CF075FF00EE100A10BD2DE9F0412F
:100A20002DED028B9AB00546B0EE408A0E46174671
:100A300098460020179018901990149015901690D1
:100A40004DB146B13FB1B8F1000F04D0B5EEC08A48
:100A5000F1EE10FA05D100201AB0BDEC028BBDE812
:100A6000F08196ED000A8DED170A96ED010A8DEDE5
:100A7000180A96ED020A8DED190A97ED000A8DED20
:100A8000140A97ED010A8DED150A97ED020A8DED16
:100A9000160A17AA14A9284609F048FC402104A800
:100AA000FFF7ACFD0020009001900290039000241D
:100AB00017A904A80BF0CCFE00BF30E004A800EB9F
:100AC000041090ED000AD5ED000A20EE200A04A8DB
:100AD00000EB0410D0ED010A95ED011A00EE810A39
:100AE00004A800EB0410D0ED020A95ED021A00EE06
:100AF000810A04A800EB0410D0ED030A95ED031A57
:100B000000EE810A20EE080AF0EE000A80EE201ABC
:100B1000684600EB840080ED001A601CC4B2042C0F
:100B2000CCDB002410E005EB840090ED000A684661
:100B300000EB8400D0ED000A30EE200A05EB8400C3
:100B400080ED000A601CC4B2042CECDB28460BF0DC
:100B5000ADFC012080E7000000F016F8074C00F023
:100B6000B3F800F049F800F081F800200BF0C0FE67
:100B7000206064200AF07FFFF1E7000020020020DF
:100B80000048704770A000200C4810B50068C1688C
:100B900041F01001C1600A4C002004F11C0184F8EE
:100BA00044001422054804F0D5F9012084F8890096
:100BB0005A2104F8611F607010BD0000E837002062
:100BC000E49F00200B4910B511F8450F094C5A2835
:100BD00003D0002084F8600010BD064814220830BD
:100BE000FFF76BFC012084F8600002F06FFBE0650A
:100BF00010BD0000E49F002014220249024804F0C6
:100C0000B9B9000045A00020E837002038B51548E4
:100C100003F0E6FE134800680168C943C90620D402
:100C200001684068104D0090142295F8444004EB90
:100C3000840005EB800105F145001C31FFF73DFC08
:100C400084F0010085F8440000EB800005EB800192
:100C5000142204481C3104F07DF9BDE83840FFF748
:100C6000B1BF38BDE8370020E49F002010B502F086
:100C70002DFB134940F2DC54CA6D831A002201F1A6
:100C80008C00A34202D981F860200FE091F8603017
:100C900063B191ED030A80ED000A91ED040A80ED45
:100CA000010A097D01720121417210BD9FED050A03
:100CB00080ED000A80ED010A0272427210BD000050
:100CC000E49F00200000000010B504F069FC054915
:100CD00041F8010B42684A6682688A660068C86605
:100CE00010BD0000E49F00209FED0D2A60EE820AF7
:100CF000B3EE042A40EE020A9FED0A2A80EE820A31
:100D0000B4EEE10AF1EE10FA01DDB0EE610AB4EEE4
:100D1000C10AF1EE10FA01D2B0EE410A70470000AC
:100D20000000A0420000C84201221021014802F048
:100D3000C7BA00000000024000221021014802F062
:100D4000BFBA0000000002407047000001221146B7
:100D5000014802F0B5BA000000040240002201215F
:100D6000014802F0ADBA00000004024030B54378FB
:100D700004781B021BB2234300EE103A194CB8EE64
:100D8000C00AD4ED000A20EE200A81ED000AC378E3
:100D900085781B021BB22B4300EE103AF8EEC00A16
:100DA00094ED000A60EE800AC1ED010A43790479EE
:100DB0001B021BB2234300EE903AF8EEE00A20EE4D
:100DC000800ADFED090A81ED020AD0F8060020F062
:100DD0007F4000EE100AB8EE400A20EE200A82EDB5
:100DE000000A30BDF400002000401C4270470AF0A9
:100DF00042BE0AF0FFBA000010B542780378120232
:100E000012B21A4300EE102A124BB8EEC00AD3ED0C
:100E1000010A20EE200A81ED000AC27884781202CD
:100E200012B2224300EE102AF8EEC00A93ED010A36
:100E300060EE800AC1ED010A42790079120212B215
:100E4000024300EE902AF8EEE00A20EE800A81EDDF
:100E5000020A10BDF400002010B5FFF775FFFFF780
:100E6000C5FF09F05BFD08B1802402E009F0C2FC77
:100E7000044609F01FFF10B144F0400010BD09F016
:100E8000ABFE204310BD00002DE9FC4105460020CB
:100E900016460C4600900190FFF74EFF922000F09E
:100EA000BDF806226946122000F09AF8FFF73CFFD1
:100EB0009DF801009DF80010000200B2084300EE0A
:100EC000100A464FB8EEC00AD7ED000A20EE200AFD
:100ED00084ED000A9DF803009DF80210000200B2A4
:100EE000084300EE100AF8EEC00A97ED000A60EE23
:100EF000800AC4ED010A9DF805009DF80410000267
:100F000000B2084300EE900AF8EEE00A20EE800AF4
:100F100084ED020AFFF722FF08226946002000F054
:100F20005FF8FFF713FF9DF800000F2830D19DF800
:100F300003009DF80210000200B2084300EE100A00
:100F4000D7ED010AB8EEC00A20EE200A85ED000AAE
:100F50009DF805009DF80410000200B2084300EE61
:100F6000100AF8EEC00A97ED010A60EE800AC5ED9E
:100F7000010A9DF807009DF80610000200B2084320
:100F800000EE900AF8EEE00A20EE800A85ED020AF3
:100F9000FFF7D2FEA22000F041F80222694622208B
:100FA00000F01EF8FFF7C0FE9DF800009DF801104C
:100FB000C00040EA5110B0F5806F01DBA0F5006081
:100FC00000EE100AB4EE001AF8EEC00AB3EE070AFB
:100FD00000EE810A86ED000ABDE8FC81F4000020E5
:100FE00070B514460D4640F0800000F017F806E09A
:100FF000552000F013F8641E05F8010BE4B2002C34
:10100000F6D170BD10B50C4640F0800000F006F837
:10101000552000F003F8207010BD000001B582B02B
:101020004FF47A700090012301AA02A9024803F04C
:1010300057F89DF804000EBD8836002002784078ED
:10104000D20042EA5010B0F5806F01DBA0F50060DD
:1010500000EE100AB4EE001AF8EEC00AB3EE070A6A
:1010600000EE810A81ED000A704710B50C46FFF7CB
:10107000D5FF2046BDE81040FFF7D0BF10B50AF0FD
:1010800049F9BDE81040014805F006BD30380020A0
:10109000FEE70000014801F060BB0000E4350020DD
:1010A000014801F05ABB0000E4350020014801F07E
:1010B00054BB00000C360020014801F04EBB00007C
:1010C0000C36002010B500210C4601EB810200EB2C
:1010D00082021369642B02D25B1C136100E054731B
:1010E000491CC9B20829F0D310BD0000A1F20121AA
:1010F000072924D8C9B24B1C01EB810120F821300B
:10110000002300EB81000121036141731188DFEDB1
:101110000C0A49BA00EE101A4180B8EE400A20EEDF
:10112000200ADFED080A20EE200A80ED010A51882E
:1011300049BA0181918849BA4181D17901737047D7
:101140000000B4430000003930B587B005460020E8
:10115000009102900821CDE9030114468DF8140096
:10116000284601F0E4FA0028FAD006AB2246694688
:10117000284601F07DF907B030BD30B59288C2F342
:101180000724D5B21A788C420AD1002D08D1272A1B
:1011900006D1D9786B2903D159789A781143018007
:1011A00030BD00002DED028B84B000F04FFA0AF044
:1011B0008FFA4FF47A7BDFF86CA40026DFF868948E
:1011C0000AF006FA04460AF00BFA0546407F0128A9
:1011D0000DD0207F012814D08AF80060BAF90200EF
:1011E00051460930122870D889F8006069E1022060
:1011F0008AF80000688B5446C10772D0A4F802B088
:1012000075E001278AF80070E0895546032800D16F
:101210002E70B4F90E00022802D0012802D006E098
:101220006E7004E0A07C032851D002206870CDF8D5
:1012300000B0D846B4F91E20B4F92010B4F9020069
:10124000FA4B04F055FF6880CDF80080B4F91E20F9
:10125000B4F92010B4F90000F44B04F049FFA88061
:10126000CDF80080B4F91E20B4F92010B4F90400C0
:10127000EE4B04F03DFFE880CDF80080B4F91E206D
:10128000B4F92010B4F90400E84B04F031FF2881D0
:10129000CDF80080B4F91E20B4F92010B4F906008E
:1012A000E24B04F025FF6881A089012811D02E733C
:1012B000A08903280FD06E73208903280DD0EE7308
:1012C000608903280BD02E7488E7F6E009E06F7080
:1012D000ADE72F73ECE76F73EEE7EF73F0E72F7472
:1012E0007CE7810702D5D149618000E06680410733
:1012F00002D5A4F804B005E0000702D5CB48A080D1
:1013000000E0A680B5F9100047F6FF72D1439FEDCB
:10131000C88AB0EE480A04F01DFF029047F6FF723B
:10132000B5F91200D143B0EE480A04F013FFCDE93D
:1013300000B0DFF8F88247F6FF725F464346D143BC
:10134000029804F0D5FE208147F6FF724346D14350
:101350000097019804F0CCFEDFF8C882608108F1A4
:10136000280808F1140798F808000290387A0190CC
:10137000A87EC0F38011404604F097FA0090A87E42
:10138000C0F3C011384604F090FA0099B9B148B1E1
:10139000029848B1019858B13E72FE717E800120DA
:1013A00088F8080001200CE03E72FE717E80F9E7AB
:1013B00088F8086088F80760A8F8026000E010B1BB
:1013C0000220607000E066709648A97D643004F0E9
:1013D00015FA20739348E97DC8230122503004F0A8
:1013E0002BFA032866D02674688BC0F300318D4831
:1013F000783004F003FAA074688B00287FF464AF9F
:10140000288A00283FF460AF688A0028FAD0A88AAA
:101410000028F7D0287B0028F4D0687B0028F1D082
:10142000287E0028EED0CDF800B0A888DFF8FC8137
:10143000A0F580604FF425725F4600B243465142EA
:1014400004F056FE60800097E8884FF42572A0F5FE
:10145000806000B24346514204F04AFEA0800097EB
:1014600028884FF42572A0F5806000B243465142AF
:1014700004F03EFEE080009728884FF42572A0F526
:10148000806000B24346514204F032FE2081009752
:1014900068884FF42572A0F5806000B2434651423F
:1014A00004F026FE60815F48A97B143004F0A6F9A1
:1014B000207393E60120207496E799F80000FA283B
:1014C00004D299F80020521C89F8002099F80000F5
:1014D0004C46052800D84E80B1F904000930122886
:1014E00001D8667002E06078FA2802D26078401C69
:1014F0006070C0B2052800D88E80B1F906000930AE
:10150000122801D8A67002E0A078FA2802D2A078AA
:10151000401CA070C0B2052800D8CE80B1F90800E8
:101520000930122801D8E67002E0E078FA2802D2E9
:10153000E078401CE070C0B2052800D80E81B1F9F7
:101540000A000930122801D8267102E02079FA2811
:1015500002D22079401C2071C0B2052800D84E81EB
:101560004878E27912B1A071E6710DE0A27990425B
:1015700009D063795B1CDBB26371032B01D3A071CB
:1015800002E04A7000E06671087BA27A12B16072D4
:10159000A6720DE0627A904209D0237A5B1CDBB21E
:1015A0002372032B01D3607202E00A7300E02672FB
:1015B000487B627B12B1207366730DE0227B904200
:1015C00009D0E37A5B1CDBB2E372032B01D32073F7
:1015D00002E04A7300E0E672C87B227C12B1E0733D
:1015E00026740DE0E27B904209D0A37B5B1CDBB24A
:1015F000A373032B01D3E07302E0CA7300E0A67368
:10160000087CE27C12B1A074E67417E0A27C9042E0
:1016100013D0637C5B1CDBB26374032B0AD3A0740E
:101620000CE0000068860020D001002018FCFFFFBD
:1016300000007A448AF8102000E0667400200BF065
:1016400057F9606101200AF016FAB9E510B50122D8
:101650000521114804F0E4F80F4801220521143057
:1016600004F0DEF80C4801220521283004F0D8F8F7
:101670000948012205213C3004F0D2F80648012235
:101680000521503004F0CCF8034801220521BDE8C3
:101690001040643004F0C4B87C86002000487047D5
:1016A0006886002000F01CF864200AF0E4F90A4C77
:1016B00000F01AF800F013F800F015F800F011F837
:1016C00000F00CF800F00EF800200BF011F920608B
:1016D00001200AF0D0F9EBE72402002070477047A0
:1016E0007047704770477047704700000448FFF725
:1016F000E9FC0448FFF7E6FC01200AF0BCF9F5E735
:10170000F486002094870020014801F037BB0000D8
:1017100080390020014801F031BB0000E039002091
:101720002DE9F05FA148A24AA14DC06CA14EA04F87
:101730000068DFF880C2DFF87882DFF87892DFF89F
:1017400070A2DFF870B2DFF868E29A4C483D60366C
:101750001837D1140CF1180CA8F1300809F17809E8
:101760000AF1300A0BF1300BAEF1180E90421ED97F
:101770008F4A543A21E0B8422ED1202208E0504549
:1017800031D10A4604E04FF4001201E04FF000624C
:10179000134276D0864A90424ED9A04205D0A84244
:1017A00003D0B04201D0B8422AD1202141E0814A81
:1017B000A832904203D97E4A583A136805E07D4A20
:1017C000483290427C4AF8D95368A042D5D0A8420A
:1017D000D3D0B042D1D0CEE76045D2D04045D0D0B2
:1017E0004845CED0CBE75845CDD07045CBD0714AD7
:1017F00090329042C7D06E4A48329042C6D1C2E77A
:10180000604516D0404514D0484512D0504510D000
:10181000584509D0704507D066499031884203D0B9
:1018200063494831884202D14FF4001101E04FF082
:1018300000615F484C3829E05E4AA832904227D9BF
:10184000A04205D0A84203D0B04201D0B84201D195
:10185000202119E0604517D0404515D0484513D0E8
:10186000504511D0584509D0704507D051499031A5
:10187000884203D04E494831884203D14FF40011C9
:1018800002E090E04FF000614948503801604EE0BE
:10189000484A4832904225D9A04205D0A84203D0F8
:1018A000B04201D0B84201D1202118E0604516D0E5
:1018B000404514D0484512D0504510D0584509D065
:1018C000704507D03B499031884203D038494831B0
:1018D000884202D14FF4001101E04FF00061364818
:1018E000C16024E0A04205D0A84203D0B04201D09C
:1018F000B84201D1202118E0604516D0404514D0EF
:10190000484512D0504510D0584509D0704507D0F1
:1019100028499031884203D025494831884202D174
:101920004FF4001101E04FF0006123488160234C27
:10193000207880070CD5207820F0020020702078D5
:1019400040F004002070012211461D4801F0B8FC4F
:1019500060781C4D80070CD5607820F00200607024
:10196000607840F00400607001221021284601F0E8
:10197000A7FCA07880070CD5A07820F00200A0700A
:10198000A07840F00400A07001221021284601F048
:1019900097FC09F017FF2078400704D50A48016832
:1019A00041F001010160BDE8F09F00008836002091
:1019B000586402401060024000600240280100208C
:1019C0000004024000000240103C0140014801F0C8
:1019D000D5B90000C0380020014801F0CFB900009F
:1019E000403A0020014801F0C9B900002039002028
:1019F00001681823CAB2103AB2FBF3F2054B6FF339
:101A00000901032A9B5CC36500D9091D816508464D
:101A100070470000C4E7000810B5014600208B693C
:101A20008A6A4FF0C07453B1B3F5005F15D072B13C
:101A3000012A0CD0022A0AD0032A09D104E01AB1E3
:101A4000012A06D0022A03D1C96AC90100D50120A2
:101A500010BDC96AA142FAD010BD002AF7D0012AF0
:101A6000F2D0022AF3D0032AF3D010BD30B50468B7
:101A7000256825F480252560046863608368402B11
:101A8000036803D099600068C26030BD9A60006846
:101A9000C16030BD70470000194910B5B1F94E0062
:101AA000B1F93A20B1F926104FF47A73002800DA20
:101AB0004042002900DA49420844002A00DA524232
:101AC00081180320B1FBF0F00E4A80B2D160D080C3
:101AD0001469A14200D911611189884200D910818D
:101AE000984209D95089401C80B25081052805D3FD
:101AF00005205081012010BD00205081002010BD24
:101B000078A20020400200204FF400750A4CFFF735
:101B1000C5FD014614220948FEF7CFFC1623074AEB
:101B20002946074800F064F800200AF0E1FE206032
:101B30000A2009F0A0FFEAE7F00000202885002035
:101B40000C3600202DE9F05F9946DDF828B08A4672
:101B500020B3BAF1000F45D0B9F1000F42D081682F
:101B600004293FD14068040AC5B294423AD1ADB1CC
:101B700000271D4E4FF48078012D06D177803770F5
:101B800041461A487460FEF717FD7068844229D1F7
:101B90003078401C854202D07780377022E0708810
:101BA000082400F10801414502D9C0F580718CB2CA
:101BB0000E49224608445146FEF77FFC70882044B7
:101BC00080B270803178491C31705946584509D32C
:101BD0000A4606494846FEF770FC778037700120B8
:101BE000BDE8F09F0020FBE7E800002028840020EB
:101BF0002DE9F04F89B01D4690468A465FEA000BFA
:101C000036D0B8F1000F33D095B3B5F5807F2FD81B
:101C1000E81DC0F3C709002432E0E000082200F10B
:101C20000801A94201D9291ACAB20026641C08EB8E
:101C3000000144EA0A27069606A80796FEF73DFC2F
:101C40000420CDE902060820019704908DF8146065
:101C500002E0012009F00FFF584600F068FD00285F
:101C6000F7D008AB06AA6946584600F001FC18B147
:101C7000002009B0BDE8F08F012009F0FCFEE4B2BD
:101C80004C45CAD30120F4E70149087570470000AC
:101C9000288500202DE9FC4180461646084600F0C4
:101CA00053F9050010D000246F4607EB44014A1C8D
:101CB00036F9140003F09EFD641C042CF5DB6A4623
:101CC00029464046FFF740FABDE8FC817CB5044652
:101CD00000201346009001904A1E4800032A03D8B2
:101CE0004FF40075801E05E0491F03290DD840F20E
:101CF000FF150A380DEB00014A1C184603F07AFD67
:101D00006A4629462046FFF71FFA7CBD012001F0F4
:101D1000E3B9082001F0E0B9102001F0DDB920207E
:101D200001F0DAB972B6FEE72DE9F05F4D4E0025FD
:101D30002DED028BA9463779A6F12404012F0BD192
:101D40002079E8B1206A48B101F0C0FA216A401A4E
:101D5000B0F5967F02D30125C4F820902771E07872
:101D6000DFF8048101274FF0040B4FF0030A9FEDC9
:101D70003F8A062871D2DFE800F0071D2A44475D3C
:101D800001F0A4FA2062E9E7B07801280ED170785A
:101D900006280BD1002D09D09FED350A88ED230AC6
:101DA00088F8927001F092FAE061E770BDEC028B66
:101DB000BDE8F09F01F08AFAE169401A6428F5D382
:101DC0000225B57001F082FAE061E570EEE7FFF7F9
:101DD00063FE28B177710720707084F803A0E5E7EF
:101DE00001F074FAE169401AB0F5967FDED388ED10
:101DF000238A88F8927001F069FAE06184F803B0F0
:101E0000D4E7002DF3D1D1E701F060FAE169401A7F
:101E1000B0F57A7FCAD386F802A008209FED150A94
:101E2000707088ED230A88F8927001F04FFAE06133
:101E300005200FE001F04AFAE169401AB0F5FA6FA7
:101E4000B4D386F8029086F8059006217170484652
:101E5000C4F81C90E070A9E7FFE784F80390C4F889
:101E60001C90A3E76402002078A200200000B44385
:101E7000000061450080F74510B51D4C2DED028B2B
:101E8000E07B012807D0002024F8700FA08020817B
:101E9000BDEC028B10BD9FED178AB9EE040A84EDEC
:101EA0001B0AB7EE001AF0EE480A6C3409F04AF942
:101EB000BDEEC00AB7EE001AF0EE480A10EE100AA6
:101EC000A08094ED000A09F03DF9BDEEC00AB7EE1E
:101ED000001AF0EE480A10EE100A208194ED000A74
:101EE00009F030F9BDEEC00A10EE100AA081CFE76C
:101EF00078A200208FC2F53C114800B590ED000A91
:101F00000AF016FB0F4981ED060A90ED010A0AF06E
:101F10000FFB81ED070A90ED000A0AF009FB084962
:101F2000C43181ED000A90ED010A0AF001FB81ED58
:101F3000010A90ED020A0AF0FBFA81ED020A00BDE7
:101F40009885002028010020012803D0052804D00E
:101F5000002070474FF40070704740F2FF10704748
:101F600000F046F80A4C00F083F900F03FF800F06A
:101F70007DF900F0FFF800F00DF800F00BF90020FB
:101F80000AF0B6FC2060012009F075FDEBE70000C7
:101F90002802002010B5134C04F1A400D4ED110A5E
:101FA00094ED120A383404F0AFFABDEEC00A04F51D
:101FB000C871DFED0D1A10EE100A2083B4F900008D
:101FC00094ED081A00EE100AA1F13400F8EEC00AF0
:101FD00094ED070A04F0F0F9BDEEC00A10EE100A05
:101FE000208510BD7CA00020CDCCCC3D70470000EA
:101FF00010B54B4900202DED068BB1EE043AF9EEF9
:10200000042A08709FED472ADFED471A9FED479A93
:10201000B0EE080A01F17000B0EE491AF0EE490A7C
:1020200004F00CFB9FED428AF0EE483ADFED418A66
:10203000B0EE683ADFED409AF0EE692A9FED3FAAD4
:10204000DFED3FAA3648B0EE4A2AF0EE6A1A9FED5D
:102050003D1ADFED3D0A9FED3D0AA43004F0C2FABF
:102060002F48B2EE043AFAEE042AB0EE692AF0EEF6
:102070004A1AB0EE491AF0EE490AB1EE040AE83005
:1020800004F0DCFAB2EE043AFAEE042AB0EE482A82
:10209000F0EE681AB0EE491AF0EE490A9FED2C0AEC
:1020A0002C4804F0CBFA2B48F2EE043ABAEE043A8C
:1020B000F0EE692AB0EE4A2AF7EE001AB0EE491A9D
:1020C000F0EE490AB0EE080A343004F08BFA2148E9
:1020D000B2EE043AFAEE042A9FED1F2ADFED1F1A32
:1020E000B0EE491AF0EE490A9FED1D0A783004F06F
:1020F000A5FAB0EE483AF0EE682AB0EE6A1ABDECE6
:10210000068B1448BDE810409FED162ADFED161A25
:10211000DFED160A9FED160AAC3004F08FBA00000E
:102120007CA0002000401C4600401CC600000000AF
:1021300000007A4400007AC400008046000080C697
:102140000080BB4400409C48CDCC4C3D00806D4598
:102150000000484398A1002000802245008022C54D
:10216000CDCC8C3F00001645000016C50AD7233C95
:10217000000048440648017809B100F0C7B890ED66
:10218000120A80ED110A90ED160A80ED150A7047CB
:102190007CA0002070B5314D314C00262DED028B16
:1021A000287878B16078401CC0B260700A2801D3EA
:1021B0000A20607001F08AF861780A2944D22178F7
:1021C00011B104E06670F5E701216060217061687B
:1021D000401A64282AD2B5F924009FED228A00EE25
:1021E000100A1E48F0EE480AB8EEC00A703004F03B
:1021F0005DF8BDEEC00AF0EE480A10EE100A04B217
:10220000B5F9380000EE100A1448B8EEC00A703074
:1022100004F04CF8BDEEC00A2246052110EE100A6B
:1022200005B21148FFF752FD2A4605E000220521BC
:102230000D48FFF74BFD0022BDEC028B0121BDE8EC
:1022400070400948FFF742BD267035F9502F05212F
:102250000548FFF73BFDB5F91020EDE77CA0002015
:102260002C020020000000000C3600207047000007
:1022700070B5FFF713FA014614222148FEF71DF945
:1022800003F08EF91E4D686190ED000A03F04EFFD9
:1022900085ED120A686990ED020A03F047FFB1EE7E
:1022A000400A85ED160A00209FED161AFBEE010A82
:1022B00003F0BCFE85ED160A134803F0A1FE0446A8
:1022C00000F15001A8610D2205F11C00FEF73AF95A
:1022D00094F85D0085F82900206EE8620D22214601
:1022E00005F13000FEF72EF9607B85F83D0020698E
:1022F0002864FEF745FC07C86866A966EA6670BDF3
:102300007CA00020000028420C36002010B5444C70
:102310002DED088BB4F9080000EE100AB8EEC00AE3
:102320009FED40AAB0EE4A2ADFED3FAA9FED3F9A0B
:10233000DFED3F9AF0EE6A1AB0EE491AF0EE690A44
:1023400003F0BCFEB4F90A00F0EE408A00EE100A79
:102350009FED38BADFED38BA94ED198AB8EEC00AAD
:10236000B0EE4B2AF0EE6B1AB0EE491AF0EE690AA5
:1023700003F0A4FEB0EE409AD4ED1A9A94F86D00E2
:10238000F0EE4A1AB0EE6A1AF0EE480AB0EE680AA9
:10239000FEF7AAFCB0EE408A94F86D00F0EE4B1AFE
:1023A000B0EE6B1AF0EE690AB0EE490AFEF79CFC3B
:1023B0002248C0ED028A80ED038A207C012824D0C7
:1023C00094ED110A30EE680A84ED110A94ED150AB5
:1023D00030EE490A01209FED1A1A84ED150A94ED9A
:1023E000110ADFED180A03F021FE84ED110A94EDC5
:1023F000150A00209FED141AFBEE010A03F016FEE9
:1024000084ED150ABDEC088B10BDD4ED110A70EEF9
:10241000C80AC4ED110AD4ED150A30EEC00AD9E796
:102420007CA000209A99993E9A9999BE00007A441E
:1024300000007AC48FC2F53C8FC2F5BC2C0200208C
:1024400000003443000034C30000284290F82020EC
:10245000012A07D0022A05D0416A41F48021416255
:1024600001207047006842690A43426100207047BA
:10247000F0B590F820500468A468012D05D0022D15
:1024800003D0416A41F480214DE014F0406F01D146
:10249000E50045D5C4F301640125A5401D608B68A6
:1024A0004FF4C0759BB1CE6833434E6843EAC60310
:1024B000066805EB0417F3514FF4C273076803EB8A
:1024C00004130E69FE50097D012905D009E00E882C
:1024D000CB6843EA4653EBE70168CE5846F4807672
:1024E000CE501179D2F805304FF4C67641EA032177
:1024F000036806EB041699511178D2F801204FF4C5
:10250000C47341EA0221026803EB0413D15000684E
:1025100005EB0411425842F0010242500020F0BD88
:10252000416A41F4001141620120F0BD10B590F8FC
:102530002020012A07D0022A05D0416A41F48021D7
:102540004162012010BD3B48D0F8002242F0010258
:10255000C0F80022D0F8002222F47C52C0F80022F9
:10256000D0F800224B6A42EA0322C0F800220A7D1A
:1025700002F01F0301229A40D0F81C329343C0F8A6
:102580001C32CB69B3B9D0F80C329343C0F80C328B
:102590008C894B6864F31F434C6900EBC404C4F896
:1025A00040320C890B6864F31F434C6900EBC40490
:1025B000C4F84432CB69012B16D1D0F80C32134346
:1025C000C0F80C320C884B6864F31F434C6900EB75
:1025D000C404C4F840320C89CB6864F31F434C69CF
:1025E00000EBC404C4F844328B69002BD0F80432E9
:1025F0000ED01343C0F804320B69002BD0F814320C
:1026000008D01343C0F81432096A012904D008E045
:102610009343EFE79343F5E7D0F81C121143C0F85A
:102620001C12D0F8001221F00101C0F800120020A5
:1026300010BD000000640040704770B590F8204065
:10264000012C05D0022C03D0416A41F4802128E0FE
:10265000046809B32469A40720D04FF4D87405682E
:1026600004EB01142D5915F00405956005682D59EA
:102670001AD0ED08556005682C5904F00204D460A6
:102680004FF4DA74056804EB01142E5906F00F06B6
:10269000082E0CD308250DE0E468DCE7416A41F41C
:1026A00000114162012070BD6D0D1560E3E72D59E9
:1026B00005F00F05156105682D59C5F307259561CE
:1026C00005682C59240C54614FF4DC72046802EB49
:1026D0000112A4581C700468A458240A5C70046891
:1026E000A458240C9C700468A258120EDA704FF49F
:1026F000DE72046802EB0112A4581C710468A4582D
:10270000240A5C710468A458240C9C710468A258C3
:10271000120EDA71006829B1016941F020010161EE
:10272000002070BDC16841F02001C160F8E7024699
:10273000002092F82010012901D002290CD1116843
:102740008A68520100D501208A68120100D5401C18
:102750008968C90000D5401C70472DE9F05F054627
:10276000006800244669D0F804908768D0F80CB05F
:10277000D0F810A0D0F81880F10748D0F90714D08D
:1027800001218160B80703D5284600F094FA0CE0D7
:10279000780702D54FF4006407E0380702D54FF4FC
:1027A000805402E0284600F085FAF80516D529681D
:1027B0004FF480708860B80503D5284600F07DFA94
:1027C0000CE0780502D544F4005407E0380502D542
:1027D00044F4804402E0284600F06EFAF80316D56F
:1027E00029684FF480308860B80303D5284600F08C
:1027F00066FA0CE0780302D544F4004407E038039D
:1028000002D544F4803402E0284600F057FA30073D
:1028100007D55FEACB6004D52968102044F4007422
:10282000C86070074FF0080707D55FEA0B7004D542
:102830002868C760284600F0A7F9B00706D52868C1
:10284000C068800702D0284600F0A0F9700607D5BE
:102850005FEACA6004D52968102044F480640861E6
:10286000B00607D55FEA0A7004D5286807612846D4
:1028700000F0F2F9F00606D528680069800702D05A
:10288000284600F0EAF9B00308D55FEAC96005D52B
:10289000296810204860284600F0E0F9F00307D5C9
:1028A0005FEA097004D528684760284600F008FAF6
:1028B000300446D55FEA497040D5F00504D55FEA9B
:1028C000C87001D044F00104B00504D55FEA8870F7
:1028D00001D544F00204700504D55FEA487001D5C3
:1028E00044F00404300529D518F0700F26D008F004
:1028F0007000402815D006DC102809D020280AD006
:10290000302816D10AE050280ED0602811D10EE0F0
:1029100044F008040DE044F010040AE044F0200400
:1029200007E044F0400404E044F0800401E044F493
:1029300080742868816921F0700181612968042010
:102940004860002C05D0686A204368622846FFF77B
:1029500073FEBDE8F09F70B5040003D094F820002A
:1029600010B104E0012070BD204600F081F820681D
:10297000016841F00101016000F0A8FC0546052650
:1029800004E000F0A3FC401B0A2811D8206840682E
:10299000C007F6D02068016821F00201016000F054
:1029A00095FC05460BE000F091FC401B0A2806D977
:1029B000606A40F40030606284F82060D2E72068EA
:1029C00040688007EFD4207E0128206801683DD050
:1029D00021F080010160607E01282068016838D004
:1029E00021F040010160A07E01282068016833D0F9
:1029F00021F020010160E07E0128206801682ED0CE
:102A000041F010010160207F01282068016829D071
:102A100021F008010160607F01282068016824D04E
:102A200021F004010160D4E902010843D4E9041251
:102A3000114308436168491E08432168C8610020AA
:102A40006062012084F82000002070BD41F0800108
:102A5000C0E741F04001C5E741F02001CAE721F09D
:102A60001001CFE741F00801D4E741F00401D9E7B4
:102A7000F0B587B0044614216846FDF7BFFD3D4917
:102A80003D4ADFF8ECE00868D4F800C03A4B032474
:102A90000225092610320027401CF44529D1086080
:102AA000012807D1106840F000701060106800F035
:102AB00000700590186840F00800186018688DE8EC
:102AC000B00000F00800CDE90460694603942B488B
:102AD00000F00EFB00220621142000F039FF142024
:102AE00000F028FF00220621152000F031FF1520FC
:102AF00039E0DFF88CE0F44537D1D2F800C04CF073
:102B0000806CC2F800C0D2F800C001280CF0806CC4
:102B1000CDF814C0086007D1106840F00070106054
:102B2000106800F000700590186840F0020018600E
:102B30001868694600F00200059060208DE8A10049
:102B4000CDE903460F4800F0D3FA002206214020C9
:102B500000F0FEFE402000F0EDFE002206214120A4
:102B600000F0F6FE412000F0E5FE07B0F0BD0000E9
:102B7000006400404800002030380240000C024051
:102B8000006800400004024070470000F0B50546B0
:102B900000682B4C8BB0A04201D108F015FB2046F9
:102BA00029680124274E4FF48077814215D01CE01C
:102BB000039810B1042810D105E008AA2248019911
:102BC000FEF794FA09E01F4B3A465B1C08A901A8DE
:102BD0000094FEF7B7FF00B1347008AB01AA0021E2
:102BE0002846FFF72AFD0028E2D0184928688842C5
:102BF0001CD00BB0F0BD039810B1042816D105E02D
:102C000008AA13480199FEF771FA0FE00D4B3A46F6
:102C10005B1C08A901A80094FEF794FF00B1347072
:102C200008AB01AA01210B48FEF7A7FA08AB01AADD
:102C300000212846FFF701FD0028DCD0D9E700007D
:102C400000640040F0010020F4860020006800408D
:102C5000948700208094002070477047704770B5BB
:102C6000044690F82000012804D0606A40F4002057
:102C7000606217E0022084F820002068016821F0DB
:102C80000101016000F022FB05460DE000F01EFB93
:102C9000401B0A2808D9606A40F4003060620520B1
:102CA00084F82000012070BD20684068C007EDD185
:102CB000606270BD704770477047704770477047DB
:102CC00070472DE9F0410446876D00F0FFFA054694
:102CD00094F835000026022806D08020606584F82C
:102CE00034600120BDE8F0812068016821F0160100
:102CF00001602068416921F080014161206C08B9C0
:102D0000A06C20B12068016821F0080101602068F2
:102D1000016821F0010101600CE000F0D7FA401BCE
:102D2000052807D920206065032084F8350084F841
:102D30003460D7E720680068C007EED194F85C10D3
:102D40003F208840B860012084F8350084F8346062
:102D50000020C7E790F83510022903D08021416593
:102D600001207047052180F835100068016821F0C6
:102D70000101016000207047406D70472DE9F84364
:102D800004464FF00009CDF8009063484FF4165107
:102D9000A56D0068B0FBF1F72E6894F85C2008215F
:102DA00001FA02F030420FD02068026852070BD5BA
:102DB000026822F00402026094F85C008140A9607D
:102DC000606D40F00100606594F85C104FF0010800
:102DD00008FA01F0304208D021684969090604D593
:102DE000A860606D40F00200606594F85C100420FB
:102DF0008840304208D021680968890704D5A86056
:102E0000606D40F00400606594F85C10102088400C
:102E1000304218D021680968090714D5A8602068D5
:102E20000168490304D50068000308D5A16C07E0D8
:102E30000168C90503D4016821F008010160216C13
:102E400009B12046884794F85C1020208840304221
:102E500031D021680968C9062DD5A86094F83500DD
:102E600005282068016806D0490347D5006800039B
:102E70001DD4616C1CE021F01601016020684169DD
:102E800021F080014161206C08B9A06C20B120685C
:102E9000016821F00801016094F85C103F2088402F
:102EA000A86084F8358084F83490216D1FE0E16BD0
:102EB00009B120468847606D00282BD0606DC0079F
:102EC00014D0052084F835002068016821F0010144
:102ED00001600098401C0090B84203D82068006848
:102EE000C007F6D184F8358084F83490E16C00296D
:102EF00010D001B02046BDE8F04308470168C9057D
:102F0000D5D4016821F01001016084F8358084F87F
:102F10003490CCE7BDE8F883580000202DE9F0415B
:102F2000044600F0D3F905465CB1022084F8350070
:102F3000002684F834602068016821F001010160F6
:102F40000DE00120BDE8F08100F0C0F9401B05282C
:102F500005D920206065032084F83500F2E7206859
:102F60000068C007F0D121680A6820480240D4E90F
:102F700001031843D4E903352B431843636918430D
:102F8000A3691843E3691843236A18431043626A2C
:102F9000042A03D1D4E90B231A43104308602068A4
:102FA0004069656A20F0070128460D43012704287F
:102FB0000CD1A06A0543E06A40B12046FEF72CFD23
:102FC00020B14020606584F83570BAE7206845611B
:102FD0002046FEF70DFD94F85C203F219140816072
:102FE000666584F835700020ACE700003F8010F083
:102FF0002DE9F0410446866D90F834000025012843
:103000000DD0012084F8340094F835700020012F91
:1030100007D084F8340002252846BDE8F08102205C
:10302000FBE7022784F8357060652046FEF71EFD39
:1030300094F85C103F208840B0602068016841F03F
:1030400016010160206C20B12068016841F0080180
:1030500001602068016841F001010160DCE70000C7
:1030600010B51B4C10281AD0202821D008282AD0AF
:10307000012813D10AF088FA01280FD004F10C01BD
:10308000206909F08FFDE068002807D011494FF052
:1030900080500860BFF34F8FBFF36F8F10BD607813
:1030A00040F001006070A07840F00100A07003E0E3
:1030B000207840F00100207020790028EED0BDE893
:1030C000104008F07FBBE07840F00100E07010BDD8
:1030D0002801002004ED00E0044910B50A6802420E
:1030E00002D00860FFF7BCFF10BD0000143C014097
:1030F0002DE9F84FDFF89C910022A9F1040B03277A
:103100004FF00F0C09F1040AABF1040E01250B6816
:1031100095402B40AB426ED10C7904F00304012C96
:1031200001D0022C15D18668540007FA04F826EA6B
:103130000806D1F80C8008FA04F848EA0608C0F836
:1031400008804468AC430D79C5F3001595402543CC
:1031500045600C79E443A40708D0C568540007FA19
:1031600004F6B5438E68A6402E43C6600C7904F081
:103170000304022C11D1D40800EB8406356A5407ED
:10318000E40E0CFA04F825EA0805D1F8108008FAD4
:1031900004F848EA0508C6F820800568540007FAD4
:1031A00004F6B5430E7906F00306A6402E430660EA
:1031B0004C6814F4403F66D0374C256845F4804590
:1031C0002560246822F0030504F480440094334C05
:1031D00005EB0408D8F808589407260F0CFA06F4F3
:1031E000A5432F4CA04201D1002424E02D4CA04245
:1031F00002D101241FE046E02B4CA04201D1022461
:1032000019E02A4CA04201D1032414E0284CA0422A
:1032100001D104240FE0274CA04201D105240AE08B
:10322000254CA04201D1062405E0244CA04201D146
:10323000072400E00824B4402C43C8F80848D9F813
:1032400000404D464E689C43F60200D51C432C605E
:10325000DAF8004055464E689C43B60200D51C4340
:103260002C60DBF800405D464E689C43B60300D5F9
:103270001C432C60DEF8004075464E689C43F60304
:1032800000D51C432C60521C102AFFF43FAFBDE850
:10329000F88F0000083C01404438024000300140F3
:1032A000000002400004024000080240000C0240FE
:1032B000001002400014024000180240001C0240AE
:1032C0000AB1816170470904FBE70000014880688A
:1032D000704700004C00002070B5040025D094F821
:1032E0003D00002520B984F83C50204600F052FAF9
:1032F000242084F83D002068016821F0010101606C
:103300002068016841F4004101602068016821F4EF
:103310000041016000F008FC4D4B6168994201D802
:103320004C4900E04C49884201D2012070BD4B4914
:103330002268B0FBF1F1566826F03F060E43566056
:1033400062689A4206D94FF4967251434FF47A72EA
:10335000B1FBF2F12268491C166A26F03F063143A0
:1033600011626168994210D84900401EB0FBF1F229
:10337000521CC2F30B02042A01D2042022E0B0FB4B
:10338000F1F0401CC0F30B001CE0A268F2B301EBAB
:10339000C10303EB0116431EB3FBF6F35B1C43F4BE
:1033A00080431B0549D092B301EBC10202EB01112E
:1033B000401EB0FBF1F0401CC0F30B0040F4804015
:1033C00040F400402168CA694CF6FF739A431043E9
:1033D000C861D4E9071001432068026822F0C002E6
:1033E00011430160D4E9030101432068826848F277
:1033F000FF339A4311438160D4E9051001432068EB
:10340000C26822F0FF021143C16001E00EE016E045
:103410002068016841F0010101602564202084F8E2
:103420003D00256384F83E50002070BD01EB41064D
:10343000431EB3FBF6F35B1CB3E70120C2E701EBCD
:103440004101401EB0FBF1F0401CC0F30B00B7E798
:10345000A086010080841E0000093D0040420F004C
:103460002DE9FF4F83B09A46DDE911879346044664
:10347000DDF84090FFF72AFF054694F83D0020282C
:1034800070D11923012274492046009501F081FF73
:103490000028F5D194F83C00012863D0012084F87D
:1034A0003C0020680168C90703D1016841F00101AF
:1034B00001602068016821F400610160222084F825
:1034C0003D00402084F83E0000262664C4F8249085
:1034D000A4F82A80608D20856048E062CDE90075FF
:1034E00053465A462046049901F056FE002879D1E9
:1034F000208DD0B1012821D00228206824D0416934
:1035000080690090208D032866D801282BD054496B
:1035100002283B464FF00002009557D088462046CF
:1035200001F037FF00285DD13AE0206841698169E8
:103530000091016841F4007101607DE0206801683C
:1035400021F480610160F0E7016821F4806101608D
:103550002068016841F40061016020684169806968
:10356000009069E075E02A463946204601F0B2FF36
:1035700088BB54E02068016841F400710160206854
:103580000069616A0870606A401C6062218D491E92
:103590002185618D491E618521680969017042E0BC
:1035A0002068016821F48061016020680069616A17
:1035B0000870606A401C6062208D401E2085608D0E
:1035C000401E60853B46002241460095204601F0A2
:1035D000E0FE00B9CEE705E02A463946204601F074
:1035E00079FF18B1012007B0BDE8F08F20680069AD
:1035F000616A0870606A401C6062208D401E81B262
:103600002185608D401E608520684269D243520743
:1036100012D4032903D1016821F48061016020687C
:103620000069616A0870606A401C6062208D401EFB
:103630002085608D401E6085208D00287FF462AF5C
:10364000202084F83D0084F83E6084F83C6000202F
:10365000C9E70220C7E70000020010000000FFFFDA
:10366000040001002DE9FF4F83B09A46DDE9119770
:1036700093460446DDF84080FFF728FE054694F89F
:103680003D0020287FD11923012240492046009582
:1036900001F07FFE002876D194F83C00012872D01A
:1036A000012084F83C0020680168C90703D1016843
:1036B00041F0010101602068016821F400610160AE
:1036C000212084F83D00402084F83E000026266436
:1036D000C4F82480A4F82A90608D20852C48E062EC
:1036E000CDE9007553465A462046049901F0D2FDB3
:1036F00070B930E02A463946204601F025FF58B11E
:10370000206C042804D12068016841F40071016034
:10371000012007B0BDE8F08F606A21680078086179
:10372000626A521C6262208D401E80B22085618DCB
:10373000491E618521684B69DB435B070BD468B187
:1037400010780861606A401C6062208D401E2085F0
:10375000608D401E6085208D0028CBD12A463946D9
:10376000204601F0EBFD0028CAD154F83D0B01685A
:1037700041F400710160202004F81E09E6776677A5
:103780000020C6E7FFE70220C3E7000002001000A8
:103790000000FFFFF0B587B0044614216846FCF72F
:1037A0002DFF1B49206888422FD11A48016841F03B
:1037B00004010160016801F004010591016841F014
:1037C000010101600068042400F0010005904FF43D
:1037D000007012250126032704948DE8E100694654
:1037E0000D48FFF785FCA00104948DE8E1006946CF
:1037F0000A48FFF77DFC07481030016841F40001DA
:103800000160006800F40000059007B0F0BD000002
:10381000005C0040303802400008024000000240D6
:103820000248816802781144816070474C00002092
:103830000B4810B5016841F400710160016841F462
:1038400080610160016841F480710160032000F033
:103850009FF80F2000F006F800F050F8002010BD8F
:10386000003C024030B50546204887B0002401687E
:1038700041F001010160006806A900F00100059017
:10388000684600F031F90398B0B100F04DF94000FE
:1038900017494FF08042B0FBF1F11648491E026013
:1038A00040F2E732C0E90324C0E90114846100F06A
:1038B00055FD040003D015E000F036F9E8E70D48A7
:1038C00000F0CAFD04000DD11C2000F033F8102DCB
:1038D00007D2002229461C2000F03AF8064805606D
:1038E00000E0012407B0204630BD0000403802400F
:1038F00040420F00A03A0020500000200C4882B047
:10390000016841F480410160006800F4804000904B
:103910000748001F016841F08051016000680022E3
:1039200000F0805000900F21901E02B000F010B8FF
:1039300044380240002809DB00F01F0201219140B9
:103940004009800000F1E020C0F80011704700003D
:10395000F0B40E4B1B68C3F30223C3F10704042C1D
:1039600000D904241D1D072D01D2002300E0DB1E19
:10397000012606FA04F56D1E0D409D409E40761E00
:10398000164045EA0601F0BC05F013BD0CED00E061
:10399000064A00F0070110684FF6FF03184040EA9E
:1039A0000120034908431060704700000CED00E05F
:1039B0000000FA052DE9F0470D46040065D0DFF858
:1039C0001491D9F80000EFB200F00700A84207D226
:1039D00089F80070D9F8000000F00700A84254D11F
:1039E00020683D4E810712D5400703D5306840F46A
:1039F000E05030602078000703D5306840F4604024
:103A000030603068A16820F0F00008433060207812
:103A1000C0072DD0304960680839012812D002282B
:103A200013D0032811D00968890700292DDA3168DD
:103A300021F0030101433160FFF748FC804641F269
:103A4000883A0EE009688903EFE709688901ECE725
:103A5000FFF73CFCA0EB0801514502D90320BDE86B
:103A6000F0873068616800F00C00B0EB810FEFD197
:103A7000D9F80010484601F00701A94207D907709C
:103A8000006800F00700A84201D00120E7E7207895
:103A9000400705D53068E16820F4E0500843306005
:103AA0002078000706D53068216920F4604040EA9C
:103AB000C100306000F058F83168084AC1F30311C2
:103AC000515CC8400649086006480068FFF7CAFE16
:103AD0000020C4E7003C024008380240CCE7000860
:103AE00058000020500000200F2202600C4A13688A
:103AF00003F003034360136803F0F003836013686B
:103B000003F4E053C36012684FF4E05303EAD202B7
:103B100002610448006800F0070008607047000078
:103B200008380240003C0240044805490068096822
:103B3000044AC1F38221515CC840704758000020FC
:103B400008380240DCE700080448054900680968B5
:103B5000044AC1F34231515CC8407047580000200C
:103B600008380240DCE70008154810B5006810F07E
:103B70000C01144813D0144B04290FD008290ED17E
:103B80000F4C241F216801F03F022168490207D52C
:103B90002068C0F38810A0FB030106E0184610BDA2
:103BA0002168C1F38811A1FB00010023FCF7DCFBB5
:103BB0002168C1F30141491C4900B0FBF1F010BD7F
:103BC000083802400024F40040787D012DE9F84FC8
:103BD000040075D02078DFF838A3C007AAF10405E7
:103BE00048D00AF104000168C1F38101012908D01D
:103BF0000068C0F3810002280AD1DAF80000400210
:103C000006D52868800335D560680028E1D031E00A
:103C10006068B0F5803F10D0B0F5A02F286810D0B4
:103C200020F480302860286820F4802028606068B4
:103C3000A0B1FFF74BFB06460CE0286840F480304B
:103C4000F4E740F480202860F7E7FFF73FFB801B94
:103C5000642871D828688003F7D50BE0FFF736FB9E
:103C6000064604E0FFF732FB801B6428F1D8286881
:103C70008003F7D42078DFF89C9280074FF0000B88
:103C80003DD5A348001D016811F00C0F08D0006855
:103C9000C0F3810002280AD1DAF80000400206D4FD
:103CA0002868800715D5E068012809D111E0E0688F
:103CB000B8B10120C9F80000FFF708FB064605E08F
:103CC00022E1FFF703FB801B0228C2D82868800787
:103CD000F7D52868216920F0F80040EAC100286083
:103CE0000DE0C9F800B0FFF7F1FA064604E0FFF76F
:103CF000EDFA801B02281FD828688007F7D42078A7
:103D0000000722D5824F84486169703771B1012163
:103D10000160FFF7DBFA064604E0FFF7D7FA801BE5
:103D2000022809D838688007F7D50EE0C0F800B03F
:103D3000FFF7CCFA064605E082E0FFF7C7FA801BE2
:103D400002287DD838688007F7D42078400765D5E9
:103D50006F484FF000083C300068C0000BD46C483E
:103D60003C30016841F08051016000684FF001086B
:103D700000F080500090694F3868C0050FD4386853
:103D800040F480703860FFF7A1FA064604E0FFF7C0
:103D90009DFA801B022853D83868C005F7D55C4FC0
:103DA000A0686C3701280FD00528386810D020F0A3
:103DB00001003860386820F004003860A068B0B1B5
:103DC000FFF784FA06460EE0386840F00100F4E799
:103DD00040F004003860F7E7FFF778FA811B41F202
:103DE0008830814263D838688007F5D50DE0FFF749
:103DF0006DFA064606E0FFF769FA811B41F288304A
:103E0000814254D838688007F5D4B8F1000F05D046
:103E10003F483C30016821F080510160A069B8B38F
:103E20003B49091D0968C1F38101022946D00228D6
:103E3000584606D0C9F86000FFF748FA044639E052
:103E400035E04F46C9F86000FFF740FA064604E047
:103E5000FFF73CFA801B022829D828688001F7D494
:103E6000D4E907010843A16A2D4A490802EB014140
:103E7000626A41EA8211084394F82C1040EA016119
:103E8000CAF8001001203866FFF720FA044605E062
:103E90003CE0FFF71BFA001B022808D828688001C5
:103EA000F7D533E0FFF712FA001B022802D90320EE
:103EB000BDE8F88F28688001F4D427E00128F7D006
:103EC000DAF80000E26900F4800191421CD1226A14
:103ED00000F03F01914217D147F6C071626A01407C
:103EE000B1EB821F10D1A26A4FF0FF3300F44031D2
:103EF00003EB5202B1EB024F06D194F82C1000F004
:103F00007060B0EB016F01D00120D1E70020CFE756
:103F10000438024000004742800E474200700040D3
:103F20000000FFFF70B5040009D0606A002540B1B1
:103F300025616561A56294F8510040B10CE0012053
:103F400070BD6068B0F5827FF4D0E561F2E784F877
:103F50005050204600F044F8022084F851002068B8
:103F6000016821F040010160A088218900F482707D
:103F700001F404410843A18901F400610843217C54
:103F800001F002010843217D01F001010843218B6A
:103F900001F400710843217F01F03801084394F8CF
:103FA000201001F080010843218D01F400510843E5
:103FB00021680860A069042101EA104094F82410E7
:103FC00001F010010843216848602068C16921F4AC
:103FD0000061C1616565012084F85100002070BD59
:103FE0002DE9F04186B0044614216846FCF706FB33
:103FF00035492068884264D134480025016841F47D
:1040000080510160006800F4805005902F481438FA
:10401000016841F002010160016801F002010591AF
:10402000016841F0010101600068022600F0010012
:1040300005901820CDE9000602AA03274FF00508D5
:1040400082E8A00169462248FFF752F88020CDE9B6
:10405000000602AA694682E8A0011E48FFF748F858
:104060001E4E1D487F063060C6E901754FF480681A
:10407000C6E9035875617812B561C6E90750304644
:104080007562FEF74BFF08B1FDF74CFEE664B463C2
:10409000124E114860361830E6E802074020A6E8C4
:1040A0002101C00246F81459B561C6E907500B4812
:1040B00075626030FEF732FF08B1FDF733FEA6648B
:1040C000B46306B0BDE8F0810030014044380240DE
:1040D000000402400000024040640240E03600203C
:1040E0002DE9FF4F81B01F469346044601250E9EE1
:1040F000FFF7ECF8804694F851006168012806D07B
:10410000B1F5827F3CD1A168C9BB042838D102989F
:10411000002870D0BBF1000FFBD0002FF9D094F82D
:10412000500001282CD04FF0010A84F850A094F8D8
:104130005100042802D0052084F851004FF00009F6
:10414000C4F85490C4F838B0E787A7870299216370
:10415000E786A786C4F84090C4F8449020680168B8
:10416000490603D4016841F040010160E068B0F500
:10417000006F606808D0E8B3012F47D07DE0FFE70B
:10418000022005B0BDE8F08F08B1012F37D1206BB8
:1041900021680088C860206B801C2063E08E401E70
:1041A000E0862CE02068816889070DD5E18E59B141
:1041B000012D09D1216B0988C160206B801C20630F
:1041C000E08E401EE086002520688168C9070BD07C
:1041D000E18F49B1C068A16B0880A06B801CA0630F
:1041E000E08F401EE0870125FFF770F8A0EB080084
:1041F000B04201E00AE064E001D3701C4ED1E08ED1
:104200000028CFD1E08F0028CCD13CE0206B216882
:1042100000780873206B401C2063E08E401EE0860F
:104220002BE02068816889070DD5E18E59B1012DF9
:1042300009D1216B09780173206B401C2063E08E4B
:10424000401EE086002520688168C9070BD0E18FF9
:1042500049B1C068A16B0870A06B401CA063E08FDF
:10426000401EE0870125FFF731F8A0EB0800B042BF
:1042700002D3701C01D011E086B1E08E0028D0D1AD
:10428000E08F0028CDD142463146204603F074FE2F
:1042900050B12020606584F8509012E084F851A05D
:1042A00084F8509003206CE7A06818B92068C168B2
:1042B0008068009084F851A084F85090606D0028C8
:1042C000F1D001205DE770477047000070B590F8AD
:1042D0003C20012A32D0012580F83C50022280F88F
:1042E0003D2002685368946823F070060B683343DE
:1042F0005360134B02689A4214D0B2F1804F11D030
:10430000104B9A420ED0104B9A420BD00F4B9A4250
:1043100008D00F4B9A4205D00E4B9A4202D00E4B5A
:104320009A4204D1496824F080031943916080F8CF
:104330003D50002180F83C10084670BD022070BD41
:10434000000001400004004000080040000C004054
:1043500000040140004001400018004010B5040076
:1043600003D094F83D0010B107E0012010BD0020FB
:1043700084F83C00204600F01FF8022084F83D003D
:10438000211D206804F088F9012084F8460084F893
:104390003E0084F83F0084F8400084F8410084F82F
:1043A000420084F8430084F8440084F8450084F80F
:1043B0003D00002010BD000008B500680649884295
:1043C00008D10648016841F400310160006800F43A
:1043D0000030009008BD0000004401404438024015
:1043E00090F83D10012901D001207047022180F88A
:1043F0003D1000681149884214D0B0F1804F11D0AF
:104400000F4988420ED00F4988420BD00E4988428E
:1044100008D00E49884205D00D49884202D00D4986
:10442000884204D1816801F00701062903D00168A0
:1044300041F00101016000207047000000000140D0
:104440000004004000080040000C0040000401404F
:10445000004001400018004090F83D10012901D0B3
:1044600001207047022180F83D100168CA6842F0BF
:104470000102CA6000681149884214D0B0F1804F2F
:1044800011D00F4988420ED00E4988420BD00E49F8
:10449000884208D00D49884205D00D49884202D093
:1044A0000C49884204D1816801F00701062903D034
:1044B000016841F0010101600020704700000140E7
:1044C0000004004000080040000C004000040140CF
:1044D000004001400018004070B5044690F83C00D0
:1044E0000025012817D0012684F83C60022084F8BA
:1044F0003D002068826822F0770222F47F428260C9
:104500000868502838D00DDC20284FD005DC90B347
:10451000102811D14AE0022070BD302846D0402832
:104520000AD13BE060282FD070280DD0B0F5805F15
:1045300003D0B0F5005F12D0012584F83D60002063
:1045400084F83C00284670BDCB68D1E90121206881
:1045500004F017F92068816841F0770109E0CB6821
:10456000D1E90121206804F00CF92068816841F448
:1045700080418160E1E719E0CA684968206804F079
:1045800009FA5021206806E0CA684968206804F0EA
:1045900012FA6021206804F0FEF8CEE7CA68496884
:1045A000206804F0F7F940212068F4E7226801460A
:1045B0001046F0E770472DE9F04104460068C668F0
:1045C00005694FF00007A90713D5B10711D5F91EEA
:1045D000016101202077206880698007204602D091
:1045E000FFF7E8FF04E000F0A9F8204600F03BF9EF
:1045F0002777680716D5700714D521686FF0040077
:104600000861022020772068806910F4407F2046EE
:1046100002D0FFF7CFFF04E000F090F8204600F052
:1046200022F92777280715D5300713D521686FF0B1
:1046300008000861042020772068C06980072046B0
:1046400002D0FFF7B7FF04E000F078F8204600F052
:104650000AF92777E80616D5F00614D521686FF019
:1046600010000861082020772068C06910F4407F9E
:10467000204602D0FFF79EFF04E000F05FF82046DE
:1046800000F0F1F82777E80708D0F00706D0216896
:104690006FF001000861204600F04EF9280608D5A9
:1046A000300606D521686FF0800008612046FFF7CC
:1046B0000AFE680608D5700606D521686FF040002E
:1046C0000861204600F03FF9A8060AD5B00608D5D3
:1046D00021686FF0200008612046BDE8F041FFF737
:1046E000F3BDBDE8F081000010B586B0044614218A
:1046F0006846FBF783FF0E482168814215D10D48BB
:104700000021026842F020020260006800F02000F0
:104710000590402000900220CDE901010320CDE961
:10472000031069460448FEF7E3FC06B010BD000024
:10473000004401403038024000140240704770B518
:10474000044690F83C0000260D4601280FD00120B9
:1047500084F83C006AB1042A1DD0082A2FD00C2A04
:104760003FD00126002084F83C00304670BD022076
:1047700070BD206804F04CF82068816941F00801A0
:1047800081612068816921F004018161206881696B
:104790002A69114311E0206804F06AF820688169F1
:1047A00041F4006181612068816921F48061816147
:1047B000206881692A6941EA02218161D2E7206883
:1047C00004F08CF82068C16941F00801C1612068DB
:1047D000C16921F00401C1612068C1692A691143DE
:1047E00011E0206804F0AEF82068C16941F400616E
:1047F000C1612068C16921F48061C1612068C1691B
:104800002A6941EA0221C161ACE710B5040003D076
:1048100094F83D0010B107E0012010BD002084F89D
:104820003C00204600F01EF8022084F83D00211DC7
:10483000206803F031FF012084F8460084F83E0030
:1048400084F83F0084F8400084F8410084F8420076
:1048500084F8430084F8440084F8450084F83D005F
:10486000002010BD7047704710B5044649B10429B7
:104870000AD008290BD094F8410001280AD0012061
:1048800010BD94F83E00F8E794F83F00F5E794F87F
:104890004000F2E70220B1B3042938D0082939D00A
:1048A00084F841000122206803F05EFF1B49206864
:1048B0001B4A884201D0904203D1436C43F4004329
:1048C00043642068884213D0B0F1804F10D015495E
:1048D00088420DD0144988420AD01449884207D032
:1048E000904205D01249884202D01249884204D130
:1048F000816801F00701062903D0016841F0010138
:104900000160002010BDFFE784F83E00CAE784F88C
:104910003F00C7E784F84000C4E700000000014002
:10492000000401400004004000080040000C00406A
:1049300000400140001800400068B0F1804F01D1F4
:10494000FEF76EBF70477047704770B50446206829
:104950000C3050E8001F21F4907140E80012002A4A
:10496000F5D12068143050E8001F21F0010140E823
:104970000012002AF5D1206B012809D120680C30E3
:1049800050E8001F21F0100140E80012002AF5D184
:10499000206840694FF00005400615D520681430A6
:1049A00050E8001F21F0400140E80012002AF5D134
:1049B000E06B48B10565E06BFEF783F920B1E06B71
:1049C000FEF7DAF9202806D0E585202084F8420099
:1049D0002563002070BD10206064032070BD704707
:1049E000F8B5016804460868CA684B6910F00F0FF3
:1049F0004FF0000559D003F0010602F490773743D9
:104A000065D0C10705D0D10503D5616C41F0010126
:104A10006164410705D5D90703D0616C41F00201FB
:104A20006164810705D5D90703D0616C41F00401A9
:104A30006164010707D502F02001314303D0616CA6
:104A400041F008016164616C00293AD0800604D508
:104A5000900602D5204604F099F820684069616C00
:104A6000C0F38010090700D460B3204604F059F861
:104A700020684069400621D52068143050E8001FA6
:104A800021F0400140E80012002AF5D1E06BA8B106
:104A900072490165E06BFEF75DF9002811D0E06B0B
:104AA000016D01B0BDE8F040084783060FD59306BD
:104AB0000DD52046BDE8F84004F068B82046FFF761
:104AC0008EFFF8BD2046FFF78AFF6564F8BD266BB0
:104AD0002023012E7ED1C6067CD5D6067AD508685D
:104AE0004868009048694FF0020640064DD5E26BD9
:104AF000106840684FF480770004000C3AD0A18D14
:104B0000814237D9E085D069B8422DD020680C3079
:104B100050E8001F21F4807140E80012002AF5D10E
:104B20002068143050E8001F21F0010140E8001215
:104B3000002AF5D12068143050E8001F21F0400110
:104B400040E80012002AF5D184F84230256320683D
:104B50000C3050E8001F21F0100140E80012002A3C
:104B6000F5D1E06BFEF7ADF86663A08DE18D401ADC
:104B700081B206E0A18D8142A8D1D069B842A5D109
:104B800066632046FFF7E0FEF8BDA08DE18D401A78
:104B900081B2E08D0028F7D00029F5D020680C30D4
:104BA00050E8002F22F4907240E80027002FF5D142
:104BB0002068143050E8002F22F0010240E800275E
:104BC000002FF5D184F84230256320680C3050E87E
:104BD000002F00E006E022F0100240E80023002B46
:104BE000F3D1CDE705062BD5150629D594F841005C
:104BF0002128C9D1A068B0F5805F01D12069B0B18A
:104C0000206A411C2162216800784860E08C401EC7
:104C10000004000CE084B7D12068C16821F0800155
:104C2000C1602068C16841F04001C160F8BD206AE0
:104C30000088C0F308004860206A801C2062E5E715
:104C40004006F3D55006F1D5CA68204622F040024E
:104C5000CA6084F8413000F0D1F9F8BDDB89000862
:104C600070B5040004D094F84100002510B106E0AE
:104C7000012070BD84F84050204600F023F8242025
:104C800084F841002068C16821F40051C1602046C9
:104C900003F0DEFF2068016921F490410161206882
:104CA000416921F02A0141612068C16841F4005145
:104CB000C1606564202084F8410084F84200656387
:104CC000002070BD2DE9F04F87B0044614216846DE
:104CD000FBF794FC9448DFF84C821438D4F800C0F9
:104CE000914B022103228715002506154FF0070A74
:104CF0004FF0006BC4456BD1D3F800C04CF0100CE2
:104D0000C3F800C01B6803F010030593036843F069
:104D100002030360036803F002030593036843F092
:104D2000010303600068894600F0010005908020BF
:104D3000CDE900090DF1080C90468CE82005694684
:104D40007A48FEF7D5F97010CDE900090DF1080990
:104D5000694689E820057648FEF7CAF9DFF8D88168
:104D6000744940464FF4803902C0DA46E0E802B5A3
:104D7000E0E8035640F8045C80E8A0024046C8F82A
:104D80002450FEF7CBF808B1FCF7CCFF6A4F694816
:104D9000C4F83C8060373030C8F83840E7E8020A91
:104DA000402061C7644847F814596030BD61C7E9C5
:104DB00007597D62FEF7B2F808B1FCF7B3FFA763AD
:104DC000002205212520BC63FEF7C2FD252046E018
:104DD000DFF86881C44547D1534B1B1FD3F800C08F
:104DE0004CF4802CC3F800C01B6803F480230593A7
:104DF000036843F004030360006800F004000590BA
:104E00004FF440608DE82300CDE9032A69464C4801
:104E1000FEF76EF9DFF820814A4908F1C0084046E4
:104E2000C8F80010C0E901B5C0E90356C8F814502D
:104E30004FF48031C8F81850C8E90771C8F82450F9
:104E4000FEF76CF808B1FCF76DFFC4F83C80002257
:104E50000F212720C8F83840FEF77AFD2720FEF7FB
:104E600069FD07B0BDE8F08FDFF8DC80C445F8D1FC
:104E7000D3F800C04CF0200CC3F800C01B6803F04E
:104E800020030593036843F040030360006800F0CB
:104E9000400005904FF484408DE823000820CDE9C0
:104EA000032069462948FEF723F9DFF8A480214949
:104EB0004046603902C04FF02069E0E802954FF4A7
:104EC000003AE0E8035640F8045C80E8A00440465D
:104ED000C8F82450FEF722F808B1FCF723FF1C4F56
:104EE0001448C4F83C8060371830C8F83840E7E808
:104EF0000209402061C7164847F814596030BD6167
:104F0000C7E9075A7D62FEF709F808B1FCF70AFF06
:104F1000A763002205214720BC63FEF719FD472047
:104F20009DE70000001001404438024000040240A8
:104F30000000024088640240C03800200048004061
:104F4000000802402860024000140140001802409E
:104F5000E039002090F84230202B01D00220704729
:104F600021B11AB10023036303F0F8BE012070479A
:104F70007047704737B5044690F84100202801D0AB
:104F800002203EBD019901B3FAB12162A284E284FC
:104F900000206064212384F84130A56B144BEB633F
:104FA000A56B144B2B64A56B134BEB64A36B1865BB
:104FB00020681346A56B021D2846FEF719F830B18C
:104FC00010206064202084F8410001203EBD21684B
:104FD0006FF0400008602068143050E8001F41F076
:104FE000800140E80012002AF5D100203EBD0000FB
:104FF000D78A0008198B0008E9890008044900686D
:105000000968884202D103490020087070470000F7
:10501000E837002010020020704700002DE9F04121
:1050200006F0DAFAC2880446A2F5777300204C49EC
:10503000082B01D8087002E00B78FA2B02D20B780B
:105040005B1C0B70DBB2474D052B03D9A2F57872C0
:105050002A8000E02880A288A2F57773082B01D867
:10506000487002E04B78FA2B02D24B785B1C4B70F5
:10507000DBB2052B03D9A2F578726A8000E0688064
:105080002288A2F57773082B01D8887002E08B780C
:10509000FA2B02D28B785B1C8B70DBB2052B03D909
:1050A000A2F57872AA8000E0A8806288A2F57773E2
:1050B000082B01D8C87002E0CB78FA2B02D2CB784B
:1050C0005B1CCB70D9B2052903D9A2F57872EA80AE
:1050D00000E0E88060894FF4E0664FF4787733466B
:1050E0003A46C021083403F01FFA2881A0883346CD
:1050F0003A46C02103F018FA6881208833463A46C0
:10510000C02103F011FAA881E08833463A46C02155
:1051100003F00AFAE881208928826089A882208920
:1051200033463A46C02100F0D9FBA8746089334663
:105130003A46C02100F0D2FBA875207E2876607E1A
:105140006876E07EE876A07EA876607F28774FF4C8
:105150004870E8834FF6E0402884BDE8F081000005
:10516000E801002034880020FEE701684A69D24344
:1051700052050FD46FF480624A61002140F8301F5D
:10518000202242738173026942F0040202610173BA
:1051900001207047002070472DE9F84F0446006851
:1051A00089460B9E01689846174641F4806101606C
:1051B0002068016841F48071016000964FF0011B86
:1051C0000022594620460A9B00F0E3F84FF4007A8B
:1051D00040B120680068C00501D5C4F840A0032094
:1051E000BDE8F88F216809F0FE00086133462849C0
:1051F00020460A9A00F011F9F0BB206841698069E5
:105200000090324620460A9900F09EF940B1206C89
:1052100004283AD12068016841F40071016034E04B
:10522000FDB2B8F1010F09D02168380A0861324691
:1052300020460A9900F088F90028E8D12068056125
:10524000324620460A9900F07FF90028DFD1206815
:10525000016841F4807101600096002259462046A1
:105260000A9B00F096F80028B3D1216809F0FF00EE
:1052700040F00100086100E007E0334604492046A1
:105280000A9A00F0CAF80028AAD00120A8E7000076
:10529000020001002DE9F843044600680D46DDE9EF
:1052A000089701689846164641F4807101604B46A4
:1052B00000224FF001112046009700F06AF848B133
:1052C00020680068C00502D54FF4007020640320F8
:1052D000BDE8F883216805F0FE0008613B464A46B8
:1052E0001549204600F099F888B92068416980691D
:1052F00000903A464946204600F026F948B1206C15
:10530000042804D12068016841F400710160012083
:10531000DEE7F5B2B8F1010F09D02168300A086163
:105320003A464946204600F00FF90028E7D12068A8
:1053300005610020CCE700000200010070B51646B0
:105340000D4604461EE02046FFF70FFF08B101207E
:1053500070BD681C16D0FDF7B9FF801BA84200D8AD
:1053600085B920684069C04340070BD5002044F848
:10537000300F20216173A073216941F02001216168
:105380002073E4E720684069C0434007DBD4002075
:1053900070BD2DE9F0471E4690460D460446C1F308
:1053A0000747DDF8209026E0701C24D0FDF78EFF23
:1053B000A0EB0900B04200D8EEB92068012F16D04A
:1053C000806925EA00000004000C12D0002040454E
:1053D00011D1002044F8300F20216173A07321699E
:1053E00041F02001216120730120BDE8F087406970
:1053F000E7E70120EBE72068012F0AD0806925EA62
:1054000000000004000C06D000204045CCD0002055
:10541000EBE74069F3E70120F7E72DE9F04798460D
:1054200016460D4604464FF000094FF0200AC1F31E
:10543000074723E020684069C043400515D4206831
:10544000016841F40071016021686FF48060486177
:10545000C4F8309084F83DA084F83E90216C41F06F
:105460000401216484F83C9020E0701C06D0FDF714
:105470002DFFA0EB0800B04203D816B1012F1ED0BB
:1054800020E02068012F14D0806925EA0000000484
:10549000000C17D044F8309F84F80DA084F80E90CB
:1054A000216941F02001216184F80C900120BDE8C0
:1054B000F087406925EA00000004000CEAD120686A
:1054C000406901E02068806925EA00000004000CC2
:1054D000B0D1ECE72DE9F04116460D460446002711
:1054E0004FF0200829E04069C043C0060DD454F8AD
:1054F000301B6FF01000486144F80D7B04F81D89E3
:10550000A777206A2062277714E0FDF7DFFE801B73
:10551000A84200D88DB920684069C04340060CD528
:1055200044F8307F84F80D80A773206940F0200094
:10553000206127730120BDE8F08120684169C943DB
:105540004906D0D40020F6E770B516460D4604464D
:105550001EE02046FFF709FE08B1012070BD681C5F
:1055600016D0FDF7B3FE801BA84200D885B920688D
:105570004069C04300060BD5002044F8300F2021BD
:105580006173A073216941F0200121612073E4E778
:1055900020684069C0430006DBD4002070BD0000D5
:1055A00000487047988500200EB5072000E0642071
:1055B00006F061FAFBF750FC0028F8D102E0642005
:1055C00006F059FA06F0F6F90028F8D17F4A101DC6
:1055D000CDE90102A2F11005291DFBF755FC2B4670
:1055E000A3F1340205F1480AA2F10C01A1F10C006B
:1055F000CDF800A006F070F8DFED750A9FED750A92
:10560000754A002105F1640001F0C2F8A5F13402E9
:10561000A2F10C0101F11800FBF798F8A5F1400880
:10562000A5F1580698ED000AA5F1640786ED000A79
:10563000A5F1700987ED000A89ED000A98ED010ACD
:10564000002086ED010A87ED010A89ED010A98ED37
:10565000020A86ED020A87ED020A89ED020A06F0C7
:1056600089FA07F04DFF5D4C5D4920611020C8614B
:105670000846FEF757FC08B1FCF754FB57490822CF
:105680002831A1F1080002F0F7FB012020714FF052
:10569000FF3B5946012007F0A7F80128F9D12078EF
:1056A000400708D5207820F0040020704B4801996D
:1056B0002930FBF7A1FB607840070AD5607820F01D
:1056C00004006070414A291D1032A2F12A00FBF744
:1056D0004DFBA07840070CD5A07820F00400A07006
:1056E0003E4802991630FBF7A9FC95ED040A06F036
:1056F000EBF8364BCDF800A0103BA3F13402A2F139
:105700000C01A1F10C0005F0E7FF97ED000A9FEDF9
:10571000351A89ED000AD6ED000ADFED331AC7ED20
:10572000000A60EE810A9FED312A284B40EE210AE3
:1057300098ED000A443BA3F1240202F10C0101F1AF
:10574000240040EE020AC6ED000A97ED010A89ED39
:10575000010AD6ED010AC7ED010A60EE810A40EEAA
:10576000210A98ED010A40EE020AC6ED010A97ED02
:10577000020A89ED020AD6ED020AC7ED020A60EEBE
:10578000810A40EE210A98ED020A40EE020A9FEDDE
:10579000180AC6ED020AFBF741F90C4B203B1A1F11
:1057A000111FA1F1100005F01FFFE07810F00100BB
:1057B000E07007D0E07820F00100E070E07840F081
:1057C0000200E070FCF798FB63E70000C085002052
:1057D0000080894500A08C45F8E7000828010020DA
:1057E000883600205AF8F63F5D896EBFD5A9183B70
:1057F0006F12833A030A0B701070704710B50028BF
:105800000DD0027800238A4207D04288521C92B2FF
:1058100042808488A24201D301704380007810BD89
:10582000002808D000230370438081808271C371F7
:105830000372C360037470472DE9F0411F46904620
:10584000040019D0A0790D46002660B12078884266
:1058500007D06088401C80B26080A288904201D34B
:10586000257066802578FDF731FD01460020E2684D
:10587000454512D11AB104E00020BDE8F081E16095
:105880002674E268891AB942F7D3207C08B1032054
:10589000F3E7022001212174EFE71AB1891AB94216
:1058A00000D20120E6602674E7E710B5040005D0B9
:1058B000A07928B12046FFF7A1FF02E0002010BD2B
:1058C0000846012805D1E17919B9217A21B10021D1
:1058D0002172E071207A10BD0121F9E710B58842EC
:1058E00018D3984216D8C839A2F1C804884203DDFB
:1058F000A04201DA012010BDC832A04203DD90426F
:1059000001D2022010BD9042FCD9C8339842F9D28E
:10591000032010BD002010BD02F04AFC0A4C00F02C
:105920004DF800F014F800F048F800F011F800F01D
:105930000DF800F041F8002006F0DAFF20600120A9
:1059400006F099F8EBE700006C0200207047704702
:105950007047000070B5144DA87810B90120FCF70D
:1059600093F91248007801281DD10020FCF78CF92A
:1059700010489FED0F0A0C4C012680ED230A243CB1
:1059800080F89260A06910B9FDF7A0FCA061FDF756
:105990009DFCA169401AB0F5FA7F04D8AE700620CC
:1059A00068700020A06170BD64020020F101002039
:1059B00000C0D54578A200207047704770470000AE
:1059C00010B58EB000240794089409940A940B949F
:1059D0001C2168460C94FAF711FE1748154901601E
:1059E000A721C0E901144FF6FF71C0E903148461D7
:1059F00002F022FE4FF48050079007A90E48FEF7F0
:105A00006BFD0D48FEF701FF0B940BA90A480C949F
:105A1000FEF75CFC6020CDE9000402940822694690
:105A200005480494FEF78BFE034802F0BDFE0EB05D
:105A300010BD000000080040588800200F4810B535
:105A40000D4901600321416000214FF42022816053
:105A5000C0E903124FF480124261017641768176EB
:105A6000C17601774177FCF776FF002803D0BDE8C7
:105A70001040FCF757B910BD00640040E435002029
:105A80000F4810B50D4901600321416000214FF41A
:105A900020228160C0E903124FF480124261017636
:105AA00041768176C17601774177FCF754FF002873
:105AB00003D0BDE81040FCF735B910BD00680040C8
:105AC0000C360020254808B5016841F480010160CA
:105AD000016801F480010091016841F40011016046
