:020000040800F2
:10000000A8A0002029030008A9650008E154000801
:100010007563000815130008E9910008000000004E
:10002000000000000000000000000000690200085D
:10003000351D000800000000C50200085D890008A9
:100040004303000843030008430300084303000878
:100050004303000843030008CD1F000843030008C2
:1000600043030008D31F0008D91F000843030008FA
:10007000A9190008430300084303000843030008CC
:100080004303000843030008430300084303000838
:10009000191300082513000843030008DF1F000898
:1000A0004303000843030008430300084303000818
:1000B0001D8A0008430300084303000843030008A7
:1000C00043030008430300084303000843030008F8
:1000D00043030008A591000843030008B9910008F4
:1000E00043030008430300084303000843030008D8
:1000F00043030008430300084303000843030008C8
:1001000043030008430300084303000843030008B7
:1001100043030008430300084303000843030008A7
:1001200043030008B5190008C1190008430300087B
:100130004303000843030008430300084303000887
:10014000311300083D13000843030008430300086F
:100150006D1C0008791C0008851C0008CD91000862
:100160004303000843030008430300084303000857
:100170004303000843030008430300080000000095
:10018000430300084303000800F002F800F05CF8A5
:100190000AA090E8000C82448344AAF10107DA45E2
:1001A00001D100F051F8AFF2090EBAE80F0013F0D8
:1001B000010F18BFFB1A43F0010318470CED0000B4
:1001C0002CED00000A444FF0000C10F8013B13F036
:1001D000070408BF10F8014B1D1108BF10F8015BA0
:1001E000641E05D010F8016B641E01F8016BF9D193
:1001F00013F0080F1EBF10F8014BAD1C0C1B09D1EA
:100200006D1E58BF01F801CBFAD505E014F8016B5B
:1002100001F8016B6D1EF9D59142D6D370470000ED
:100220000023002400250026103A28BF78C1FBD8FF
:10023000520728BF30C148BF0B6070471FB50EF092
:10024000DAF81FBD10B510BD00F094FA1146FFF7A3
:10025000F5FF0BF0AFFC00F0B2FA03B4FFF7F2FFCA
:1002600003BC00F0B7FA00002C4B19680868B0E82E
:10027000F04F80F30988BFF36F8F4FF0000080F3D9
:10028000118870470000000008480068006880F38B
:1002900008884FF0000080F3148862B661B6BFF39F
:1002A0004F8FBFF36F8F00DF00BF00BF08ED00E08E
:1002B000DFF80C00016841F470010160704700BF75
:1002C00088ED00E0EFF30980BFF36F8F134B1A68DE
:1002D0001EF0100F08BF20ED108A20E9F04F1060CB
:1002E00009B44FF0500080F31188BFF34F8FBFF374
:1002F0006F8F0CF0BBFC4FF0000080F3118809BC3D
:1003000019680868B0E8F04F1EF0100F08BFB0EC95
:10031000108A80F30988BFF36F8F70475C0000205C
:10032000EFF30580704700000948804709480047FF
:10033000FEE7FEE7FEE7FEE7FEE7FEE7FEE7FEE795
:10034000FEE7FEE704480549054A064B70470000F2
:100350000D8A000889010008A89A0020A8A00020A2
:10036000A89C0020A89C002053EA020C00F06980A1
:100370002DE9F04B4FF00006002B1FBFB3FA83F5B9
:1003800003FA05F424FA05F65E4012BF1643B2FAEA
:1003900082F502FA05F4C5F120051EBF22FA05FC1C
:1003A00044EA0C04203556EA044C4FEA144418BFC2
:1003B000641C4FF000084FF00009904271EB030CF1
:1003C00039D3002919BFB1FA81F701FA07F6B0FA5B
:1003D00080F700FA07F6C7F120071EBF20FA07FCD6
:1003E00046EA0C062037B6FBF4FCA7EB0507103FE6
:1003F00007F01F0BCBF120060CFA0BFB2CFA06F6CC
:1004000044BFB3460026202FA4BF5E464FF0000B2A
:100410005BEA060C08BF4FF0010B19EB0B09ABFBB5
:10042000027C48EB0608C01B06FB02CC0BFB03CC8E
:1004300071EB0C01C1E70B46024641464846BDE858
:10044000F08B13B54FF000004FF00001AFF30080C8
:10045000BDE81C407047B2F120030AD5C2F1200369
:1004600001FA02F120FA03F300FA02F041EA030173
:10047000704700FA03F14FF00000704710B5431CBD
:1004800002E010F8011B71B18107FAD14FF001327F
:1004900002C88C1A8C4314EAC211F9D0C01A0A0699
:1004A00003D0C01E10BDC01A10BD0A0401D0801EAA
:1004B00010BD0902FCD0401E10BD032A40F230805E
:1004C00010F0030C00F0158011F8013BBCF1020F95
:1004D000624498BF11F801CB00F8013B38BF11F816
:1004E000013BA2F1040298BF00F801CB38BF00F82D
:1004F000013B11F0030300F06780083AC0F0088068
:1005000051F8043B083A51F804CBA0E80810F5E78D
:10051000121D5CBF51F8043B40F8043BAFF3008070
:10052000D20724BF11F8013B11F801CB48BF11F8E5
:10053000012B24BF00F8013B00F801CB48BF00F8B5
:10054000012B7047431A28BF9A427FF6B6AF032AA1
:100550001044114440F2268010F0030F1EBF11F822
:10056000013D521E00F8013D10F0030F7FF4F6AF7D
:1005700011F0030300F0CC80083AC0F00B8051F872
:10058000043D083A51F804CD40F8043D40F804CD4C
:10059000FFF7F3BF121D5CBF51F8043D40F8043D66
:1005A000AFF30080D20724BF11F8013D11F801CD4F
:1005B00048BF11F8012C24BF00F8013D00F801CD1F
:1005C00048BF00F8012C704710B5203AC0F00B80EE
:1005D000B1E81850203AA0E81850B1E81850A0E847
:1005E0001850BFF4F5AF5FEA027C24BFB1E81850A1
:1005F000A0E8185044BF18C918C0BDE810405FEA11
:10060000827C24BF51F8043B40F8043B08BF70478C
:10061000D20728BF31F8023B48BF11F8012B28BF91
:1006200020F8023B48BF00F8012B704702F0FF039F
:1006300043EA032242EA024200F002B84FF000020D
:100640000429C0F0128010F0030C00F01B80CCF1E4
:10065000040CBCF1020F18BF00F8012BA8BF20F852
:10066000022BA1EB0C0100F00DB85FEAC17C24BFA6
:1006700000F8012B00F8012B48BF00F8012B704750
:100680004FF0000200B5134694469646203922BF2B
:10069000A0E80C50A0E80C50B1F12001BFF4F7AF76
:1006A000090728BFA0E80C5048BF0CC05DF804EB58
:1006B000890028BF40F8042B08BF704748BF20F8C6
:1006C000022B11F0804F18BF00F8012B70477047C4
:1006D0007047704710B500F045F8006810BD10B5C0
:1006E000044600F03FF8046010BD431A28BF9A4248
:1006F0007FF66AAF104410F0030F11441EBF11F8CB
:10070000013D521E00F8013D10F0030F7FF4F6AFDB
:10071000103AC0F00A8010B531E91850103A20E9BB
:100720001850BFF4F9AFBDE81040530724BF31E9BA
:10073000081020E9081044BF51F8043D40F8043D7A
:1007400012F0030F08BF7047D20728BF31F8023DEF
:1007500048BF11F8012C28BF20F8023D48BF00F81F
:10076000012C704700487047449A002000487047A9
:10077000449A00207546FFF7F9FFAE46050069462A
:10078000534620F00700854618B020B5FFF7DAFD84
:10079000BDE820404FF000064FF000074FF0000882
:1007A0004FF0000B21F00701AC46ACE8C009ACE803
:1007B000C009ACE8C009ACE8C0098D46704710B567
:1007C0000446AFF300802046BDE81040FFF745BD6A
:1007D0007047000001491820ABBEFEE7260002006A
:1007E00008F09EBF09F032B810B510EE100A0DF0F7
:1007F00091FD41EC100B09F07FF951EC100B0CF05E
:10080000E3FF00EE100A10BDF0EE400AF5EEC00A5C
:10081000F1EE10FA02DDB0EE600A7047B1EE600A48
:10082000FBE70000002803D09FED020A80ED000ADC
:100830007047000000000000002803D0B3EE060A55
:1008400080ED000A7047000070B52DED0C8B84B070
:1008500006460C4615469FED990AF0EE408A9FED3C
:10086000970AB0EE409A9FED950AF0EE40BA9FEDE0
:10087000930AF0EE409A9FED910AB0EE40AA0EB1B5
:1008800004B11DB904B0BDEC0C8B70BD8C48FFF7F2
:10089000C9FF8C48FFF7D0FF8A48D0ED000A9FEDD2
:1008A0008A1A60EE810AB0EE600A00F025F9F0EED7
:1008B000408A28EEA80AF0EE408A8248D0ED000A6D
:1008C000B0EE001A60EE810A9FED7F1A60EE810A99
:1008D000B0EE600A00F010F9B0EE409A29EE090A75
:1008E000B0EE409ADFED790AB7EE000A00EEA80AF2
:1008F000DFED770A00EEC90ADFED760A20EE200A66
:10090000754880ED000A6E4890ED000ADFED730A2D
:1009100080EE201AB7EE000A31EE000A20EE000A3F
:100920006D48D0ED000A80EE801A6D4880ED001A07
:1009300094ED000AB5EEC00AF1EE10FA0DD194ED77
:10094000010AB5EEC00AF1EE10FA06D194ED020AE2
:10095000B5EEC00AF1EE10FA46D09FED580AB0EE9F
:10096000408A0020019002900390D4ED000A60EECE
:10097000A00A94ED011AD4ED011A41EE210A94ED7A
:10098000021AD4ED021A41EE210AB0EE600A00F01C
:10099000A9F8B0EE408A94ED000A20EE080A8DED29
:1009A000010A94ED010A20EE080A8DED020A94ED89
:1009B000020A20EE080A8DED030ADDED010AF1EED0
:1009C000600AB0EE600AFFF70BFFF0EE409A9DED73
:1009D000031AF0EE410A9DED021AB0EE410AFFF74C
:1009E00001FFB0EE40AA07E09FED340AF0EE409A16
:1009F0009FED320AB0EE40AA95ED000AB5EEC00AAE
:100A0000F1EE10FA0DD195ED010AB5EEC00AF1EE46
:100A100010FA06D195ED020AB5EEC00AF1EE10FA11
:100A20003CD0B0EE690A00F067F8B0EE408AB0EE54
:100A3000690AFFF7D9FEB0EE40DAB0EE4A0A00F0DC
:100A40005BF8F0EE40AAB0EE4A0AFFF7CDFEB0EE3A
:100A500040BA28EE2A0AD5ED010A20EE200AD5ED8B
:100A6000000A0DEE200A68EE0B0A95ED021A00EE60
:100A7000810AB0EE40CA95ED010A20EE0B0AD5EDD1
:100A8000020A0AEEE00AF0EE40CAF0EE6C0AB0EE9E
:100A90004C0AFFF7A7FEF0EE40BA03E09FED070A0D
:100AA000F0EE40BAB0EE4A1AF0EE690AB0EE6B0A08
:100AB000304609F0BDFF00BFE4E600000000000082
:100AC000640200206802002035FA8E3CC1BFAD3BB5
:100AD0009DF8C5362F7C1C416C020020506CC24A28
:100AE0007002002010B509F0ABF9B7EE001AC1EEA4
:100AF000000AB0EE600A10BD10B510EE100A0DF03D
:100B000009FC41EC100B09F037F951EC100B0CF01B
:100B10005BFE00EE100A10BD2DE9F0412DED028BB9
:100B20009AB00546B0EE408A0E4617469846002019
:100B30001790189019901490159016904DB146B1D9
:100B40003FB1B8F1000F04D0B5EEC08AF1EE10FA53
:100B500005D100201AB0BDEC028BBDE8F08196ED06
:100B6000000A8DED170A96ED010A8DED180A96ED33
:100B7000020A8DED190A97ED000A8DED140A97ED22
:100B8000010A8DED150A97ED020A8DED160A17AAD6
:100B900014A9284609F09EFD402104A8FFF770FD26
:100BA00000200090019002900390002417A904A84F
:100BB0000BF0DCFD00BF30E004A800EB041090ED6A
:100BC000000AD5ED000A20EE200A04A800EB04106C
:100BD000D0ED010A95ED011A00EE810A04A800EBA0
:100BE0000410D0ED020A95ED021A00EE810A04A865
:100BF00000EB0410D0ED030A95ED031A00EE810A14
:100C000020EE080AF0EE000A80EE201A684600EB9B
:100C1000840080ED001A601CC4B2042CCCDB0024DC
:100C200010E005EB840090ED000A684600EB8400BC
:100C3000D0ED000A30EE200A05EB840080ED000ABA
:100C4000601CC4B2042CECDB28460BF0F1FC012044
:100C500080E7000000F050F8054C00F0EFF80020AD
:100C60000BF0D4FD206005200AF0C7FFF5E7000077
:100C70001C02002000487047D49500201378D3B19F
:100C8000D0ED000A70EE600AF5EEC00AF1EE10FA3F
:100C900001D2F1EE600A10EE902A9FED141AB2F123
:100CA000804F0FDAF6EE001A60EEA10ADFED101A9F
:100CB00000EEA11A08E080ED000A81ED000A012093
:100CC000107070479FED0B1AF7EE000AD1ED001A75
:100CD00070EEC10A80ED000A60EEA10A41EE000A42
:100CE000C1ED000AB0EE600A70470000CDCCCC3DEB
:100CF0003333333FCDCC4C3F10B519482DED028B2B
:100D00000068C16841F01001C160164C002004F178
:100D1000170184F835000F22114804F01DFB012053
:100D200084F88C005A2184F8701084F8710004F162
:100D3000500014216434FFF7A3FC9FED0B8A84ED6F
:100D4000008A84ED018A02F0C3FCA06004F12C004B
:100D500080ED048A80ED058ABDEC028B10BD000099
:100D6000DC370020449500200000000070B50E4DD7
:100D700000260D4C15F8360F5A2811D10F212846A0
:100D800008F0FEFB60B10F22294604F10800FFF7CE
:100D900094FB012084F84C0002F09AFCA06470BD22
:100DA00084F84C6070BD000044950020F8B52148DF
:100DB00004F018F81F4800680168C943C90637D411
:100DC000016840681C4D00900F2295F83540C4EB37
:100DD0000410411905F1360006461731FFF76DFB87
:100DE00084F0010185F83510C1EB011041190F2283
:100DF0001048173104F0B0FA95F836005A2807D099
:100E000035460124285D5A2806D0641C0F2CF9D3DE
:100E1000BDE8F840FFF7AABFC4F10F021646291932
:100E20002846FFF78FFB70192146FFF707FCEFE715
:100E3000F8BD0000DC370020449500202DE9F0418A
:100E40002DED028B02F044FC504E0027B16C401A8D
:100E5000192801D986F84C704C4C96F84C00503447
:100E60009FED4B8A04F1400500287DD0D6F809009B
:100E700004F1100200EE100A9046214604F1080029
:100E8000FFF7FCFE84ED000AD6F80D00424600EEA6
:100E9000100A211D04F10C00FFF7F0FE84ED010A99
:100EA00096F84C00E8B396ED141ADFED3A0A21EEFD
:100EB000201A20EE200A85ED001A85ED010A707CCB
:100EC000287201206872B06CE86002F001FCF16EDB
:100ED000411A3FD000EE101ADFED2F0A96ED191AD5
:100EE000B8EE400AD6ED1A1A95ED042A20EE200A33
:100EF000D5ED000A70EEC10A80EE801AD5ED010A28
:100F000070EEE11AC1EE800ADFED241A21EE210A0B
:100F10009FED231A02EE010A85ED040A60EEA10A94
:100F200000E027E0D5ED051AB0EEC00A10EE101A69
:100F300041EE810A4FF07E529142C5ED050A01DA79
:100F400085ED048AB0EEE00A10EE101A914201DA43
:100F500085ED058A95ED000A86ED190A95ED010AE1
:100F600086ED1A0AF06600E003E0BDEC028BBDE8F6
:100F7000F081277485ED008A85ED018A2F726F72EA
:100F800085ED048A85ED058AEDE700004495002093
:100F900000000000CDCCCC3D6F12833A9A99993E67
:100FA0003333333F01221021014802F08BBB000094
:100FB0000000024000221021014802F083BB000023
:100FC000000002407047000001221146014802F073
:100FD00079BB00000004024000220121014802F018
:100FE00071BB00000004024030B5437804781B0256
:100FF0001BB2234300EE103A1B4CB8EEC00AD4EDEE
:10100000000A20EE200A81ED000AC37885781B02D1
:101010001BB22B4300EE103AF8EEC00A94ED000A22
:1010200060EE800AC1ED010A437904791B021BB20C
:10103000234300EE903AF8EEE00A20EE800ADFED5E
:101040000B0A81ED020A017AC3790904807941EA29
:101050000321014300EE101AB8EE400A20EE200AE8
:1010600082ED000A30BD0000F400002000401C4268
:1010700070470AF0C2BD0AF047BB000010B54278C5
:101080000378120212B21A4300EE102A124BB8EE85
:10109000C00AD3ED010A20EE200A81ED000AC278D1
:1010A0008478120212B2224300EE102AF8EEC00A2F
:1010B00093ED010A60EE800AC1ED010A42790079E0
:1010C000120212B2024300EE902AF8EEE00A20EE7D
:1010D000800A81ED020A10BDF400002010B5FFF770
:1010E00071FFFFF7C5FF09F0EDFD08B1802402E0B4
:1010F00009F054FD044609F0B1FF10B144F040007E
:1011000010BD09F03DFF204310BD00002DE9FC415A
:101110000546002016460C4600900190FFF74AFF56
:10112000922000F0BDF806226946122000F09AF8DD
:10113000FFF738FF9DF801009DF80010000200B293
:10114000084300EE100A464FB8EEC00AD7ED000A79
:1011500020EE200A84ED000A9DF803009DF802109D
:10116000000200B2084300EE100AF8EEC00A97ED44
:10117000000A60EE800AC4ED010A9DF805009DF8A2
:101180000410000200B2084300EE900AF8EEE00AF4
:1011900020EE800A84ED020AFFF71EFF082269464E
:1011A000002000F05FF8FFF70FFF9DF800000F2808
:1011B00030D19DF803009DF80210000200B20843F0
:1011C00000EE100AD7ED010AB8EEC00A20EE200AA0
:1011D00085ED000A9DF805009DF80410000200B29C
:1011E000084300EE100AF8EEC00A97ED010A60EE1F
:1011F000800AC5ED010A9DF807009DF8061000025F
:1012000000B2084300EE900AF8EEE00A20EE800AF1
:1012100085ED020AFFF7CEFEA22000F041F802227F
:101220006946222000F01EF8FFF7BCFE9DF8000082
:101230009DF80110C00040EA5110B0F5806F01DB4D
:10124000A0F5006000EE100AB4EE001AF8EEC00A35
:10125000B3EE070A00EE810A86ED000ABDE8FC81C4
:10126000F400002070B514460D4640F0800000F0F8
:1012700017F806E0552000F013F8641E05F8010B7E
:10128000E4B2002CF6D170BD10B50C4640F08000E1
:1012900000F006F8552000F003F8207010BD0000A3
:1012A00001B582B04FF47A700090012301AA02A91F
:1012B000024803F017F99DF804000EBD7C360020AB
:1012C00002784078D20042EA5010B0F5806F01DB1E
:1012D000A0F5006000EE100AB4EE001AF8EEC00AA5
:1012E000B3EE070A00EE810A81ED000A704710B5DF
:1012F0000C46FFF7D5FF2046BDE81040FFF7D0BFF2
:1013000010B50AF0C1F9BDE81040014805F0B0BDC4
:1013100024380020FEE70000014801F028BC00004E
:10132000D8350020014801F022BC0000D83500204B
:10133000014801F01CBC000000360020014801F00B
:1013400016BC00000036002010B500210C4601EB51
:10135000810200EB82021369642B02D25B1C1361D1
:1013600000E05473491CC9B20829F0D310BD000035
:10137000A1F20121072924D8C9B24B1C01EB81013C
:1013800020F82130002300EB81000121036141732B
:101390001188DFED0C0A49BA00EE101A4180B8EE50
:1013A000400A20EE200ADFED080A20EE200A80ED38
:1013B000010A518849BA0181918849BA4181D1799C
:1013C000017370470000B4430000003930B587B0A6
:1013D00005460020009102900821CDE90301144642
:1013E0008DF81400284601F0ACFB0028FAD006ABBB
:1013F00022466946284601F03BFA07B030BD30B5B9
:101400009288C2F30724D5B21A788C420AD1002DF3
:1014100008D1272A06D1D9786B2903D159789A782F
:101420001143018030BD00000EB500F05FFA0AF0F4
:1014300011FADFF8A4B44FF001090026DFF89CA4EC
:101440000AF088F904460AF08DF90546407F012824
:101450000DD0207F012814D08BF80060BBF902006A
:1014600059460930122876D88AF8016070E10220C6
:101470008BF80000688B5C46C10778D04FF47A7116
:1014800078E08BF80090E0894F465D46032800D154
:101490002E70B4F90E00022802D0012802D006E016
:1014A0006E7004E0A07C032857D0022068704FF4CF
:1014B0007A78CDF80080B4F91E20B4F92010B4F980
:1014C0000200C8F1000304F0CFFF6880CDF800806F
:1014D000B4F91E20B4F92010B4F90000C8F10003DB
:1014E00004F0C2FFA880CDF80080B4F91E20B4F942
:1014F0002010B4F90400C8F1000304F0B5FFE8803F
:10150000CDF80080B4F91E20B4F92010B4F904001D
:10151000C8F1000304F0A8FF2881CDF80080B4F9D9
:101520001E20B4F92010B4F90600C8F1000304F03D
:101530009BFF6881A089012811D02E73A089032800
:101540000FD06E73208903280DD0EE7360890328B5
:101550000BD02E7482E7F7E009E06F70A7E72F73D6
:10156000ECE76F73EEE7EF73F0E72F7476E7810730
:1015700002D5DB49618000E06680410701D5D8488B
:1015800003E0000703D54FF47A70A08000E0A68046
:1015900047F6FF72B5F91000D1439FEDD20A04F06F
:1015A00095FF029047F6FF72B5F91200D1439FED07
:1015B000CE0A04F08BFF4FF47A77CDE90070DFF8A4
:1015C000208347F6FF724346D143029804F04CFF54
:1015D000208147F6FF724346D1430097019804F0FB
:1015E00043FFDFF8F482404208F12808608198F850
:1015F000080008F114070290387A0190A87EC0F321
:10160000C011404604F00DFB0090A87EC0F380118D
:10161000384604F006FB0099B9B140B1029848B1D0
:10162000019858B13E72FE717E8088F8089084F867
:1016300001900FE03E72FE717E80F8E788F8086046
:1016400088F80760A8F8026000E010B1022060701E
:1016500000E06670A048A97D643004F08BFA207326
:101660009D4884F80F904F46E97DC82301225030F1
:1016700004F09EFA032865D02674688BC0F300310D
:101680009548783004F076FAA074688B00287FF4CF
:1016900061AF288A0028FAD1688A0028F7D1A88A81
:1016A0000028F4D1A87D0028F1D1E87D0028EED1F2
:1016B000287E0028EBD14FF47A770097A888DFF8CE
:1016C0002082A0F580604FF4257200B2434651425B
:1016D00004F0CAFE60800097E8884FF42572A0F5F8
:1016E000806000B24346514204F0BEFEA0800097E5
:1016F00028884FF42572A0F5806000B2434651421D
:1017000004F0B2FEE080009728884FF42572A0F51F
:10171000806000B24346514204F0A6FE208100974B
:1017200068884FF42572A0F5806000B243465142AC
:1017300004F09AFE60816848A97B143004F01AFA1C
:1017400020738BE6277498E79AF80100FA2804D2F0
:101750009AF80120521C8AF801209AF80100544698
:10176000052800D84E80B1F904000930122801D8AC
:10177000A67002E0A078FA2802D2A078401CA070DF
:10178000C0B2052800D88E80B1F9060009301228B1
:1017900001D8E67002E0E078FA2802D2E078401C36
:1017A000E070C0B2052800D8CE80B1F90800093039
:1017B000122801D8267102E02079FA2802D2207975
:1017C000401C2071C0B2052800D80E81B1F90A0072
:1017D0000930122801D8667102E06079FA2802D235
:1017E0006079401C6071C0B2052800D84E814878ED
:1017F000227A12B1E07126720DE0E279904209D0AE
:10180000A3795B1CDBB2A371032B01D3E07102E06F
:101810004A7000E0A671087BE27A12B1A072E6720B
:101820000DE0A37A984209D0627A521CD2B2627259
:10183000032A01D3A07202E00B7300E06672487BBA
:10184000A27B12B16073A6730DE0627B904209D057
:10185000237B5B1CDBB22373032B01D3607302E099
:101860004A7300E02673C87B627C12B120746674F0
:101870000DE0227C904209D0E37B5B1CDBB2E3737A
:10188000032B01D3207402E0CA7300E0E673087CE6
:10189000227D12B1E07426750DE0E27C904209D001
:1018A000A37C5B1CDBB2A374032B01D3E07402E0C6
:1018B0000A7400E0A6749BF80C00012808D026707A
:1018C00000200AF0A3FFA06101200AF096F9B7E515
:1018D00084F80090F4E7000068860020D001002022
:1018E00018FCFFFF0000FA430000FA4410B5012283
:1018F0000521114804F050F90F4801220521143048
:1019000004F04AF90C4801220521283004F044F97A
:101910000948012205213C3004F03EF90648012225
:101920000521503004F038F9034801220521BDE8B3
:101930001040643004F030B97C86002000487047C5
:101940006886002000F01CF864200AF056F90A4C62
:1019500000F01AF800F013F800F015F800F011F894
:1019600000F00CF800F00EF800200AF04FFF2060A5
:1019700001200AF042F9EBE720020020704770478F
:101980007047704770477047704700000448FFF782
:10199000DBFC0448FFF7D8FC01200AF02EF9F5E73C
:1019A000F486002094870020014801F0E9BB000084
:1019B00074390020014801F0E3BB0000D439002055
:1019C0002DE9F05FA148A24AA14DC06CA14EA04FE5
:1019D0000068DFF880C2DFF87882DFF87892DFF8FD
:1019E00070A2DFF870B2DFF868E29A4C483D6036CA
:1019F0001837D1140CF1180CA8F1300809F1780946
:101A00000AF1300A0BF1300BAEF1180E90421ED9DC
:101A10008F4A543A21E0B8422ED1202208E05045A6
:101A200031D10A4604E04FF4001201E04FF00062A9
:101A3000134276D0864A90424ED9A04205D0A842A1
:101A400003D0B04201D0B8422AD1202141E0814ADE
:101A5000A832904203D97E4A583A136805E07D4A7D
:101A6000483290427C4AF8D95368A042D5D0A84267
:101A7000D3D0B042D1D0CEE76045D2D04045D0D00F
:101A80004845CED0CBE75845CDD07045CBD0714A34
:101A900090329042C7D06E4A48329042C6D1C2E7D7
:101AA000604516D0404514D0484512D0504510D05E
:101AB000584509D0704507D066499031884203D017
:101AC00063494831884202D14FF4001101E04FF0E0
:101AD00000615F484C3829E05E4AA832904227D91D
:101AE000A04205D0A84203D0B04201D0B84201D1F3
:101AF000202119E0604517D0404515D0484513D046
:101B0000504511D0584509D0704507D05149903102
:101B1000884203D04E494831884203D14FF4001126
:101B200002E090E04FF000614948503801604EE01B
:101B3000484A4832904225D9A04205D0A84203D055
:101B4000B04201D0B84201D1202118E0604516D042
:101B5000404514D0484512D0504510D0584509D0C2
:101B6000704507D03B499031884203D0384948310D
:101B7000884202D14FF4001101E04FF00061364875
:101B8000C16024E0A04205D0A84203D0B04201D0F9
:101B9000B84201D1202118E0604516D0404514D04C
:101BA000484512D0504510D0584509D0704507D04F
:101BB00028499031884203D025494831884202D1D2
:101BC0004FF4001101E04FF0006123488160234C85
:101BD000207880070CD5207820F002002070207833
:101BE00040F004002070012211461D4801F06AFDFA
:101BF00060781C4D80070CD5607820F00200607082
:101C0000607840F00400607001221021284601F045
:101C100059FDA07880070CD5A07820F00200A070B4
:101C2000A07840F00400A07001221021284601F0A5
:101C300049FD09F089FE2078400704D50A4801686B
:101C400041F001010160BDE8F09F00007C360020FA
:101C500058640240106002400060024028010020E9
:101C60000004024000000240103C0140014801F025
:101C700087BA0000B4380020014801F081BA0000A2
:101C8000343A0020014801F07BBA000014390020EA
:101C900001681823CAB2103AB2FBF3F2054B6FF396
:101CA0000901032A9B5CC36500D9091D81650846AB
:101CB0007047000088E7000810B5014600208B69D6
:101CC0008A6A4FF0C07453B1B3F5005F15D072B19A
:101CD000012A0CD0022A0AD0032A09D104E01AB141
:101CE000012A06D0022A03D1C96AC90100D5012000
:101CF00010BDC96AA142FAD010BD002AF7D0012A4E
:101D0000F2D0022AF3D0032AF3D010BD30B5046814
:101D1000256825F480252560046863608368402B6E
:101D2000036803D099600068C26030BD9A600068A3
:101D3000C16030BD70470000194910B5B1F94E00BF
:101D4000B1F93A20B1F926104FF47A73002800DA7D
:101D50004042002900DA49420844002A00DA52428F
:101D600081180320B1FBF0F00E4A80B2D160D08020
:101D70001469A14200D911611189884200D91081EA
:101D8000984209D95089401C80B25081052805D35A
:101D900005205081012010BD00205081002010BD81
:101DA0001498002034020020134C4FF40076134D99
:101DB000FFF7C4FD014614220F48FEF77EFB03F037
:101DC000ABFD90ED000A242384ED050A90ED010A95
:101DD000094A84ED060A90ED020A314684ED070AAD
:101DE000074800F065F800200AF010FD28600A207E
:101DF00009F003FFDCE700001C850020F000002054
:101E0000003600202DE9F05F9946DDF828B08A46BB
:101E100020B3BAF1000F45D0B9F1000F42D081686C
:101E200004293FD14068040AC5B294423AD1ADB109
:101E300000271D4E4FF48078012D06D17780377032
:101E400041461A487460FEF7F9FB7068844229D154
:101E50003078401C854202D07780377022E070884D
:101E6000082400F10801414502D9C0F580718CB207
:101E70000E49224608445146FEF71FFB7088204455
:101E800080B270803178491C31705946584509D369
:101E90000A4606494846FEF710FB77803770012056
:101EA000BDE8F09F0020FBE7E80000201C84002034
:101EB0002DE9F04F89B01D4690468A465FEA000B37
:101EC00036D0B8F1000F33D095B3B5F5807F2FD859
:101ED000E81DC0F3C709002432E0E000082200F149
:101EE0000801A94201D9291ACAB20026641C08EBCC
:101EF000000144EA0A27069606A80796FEF7DDFACF
:101F00000420CDE902060820019704908DF81460A2
:101F100002E0012009F071FE584600F012FE002890
:101F2000F7D008AB06AA6946584600F0A1FC18B1E4
:101F3000002009B0BDE8F08F012009F05EFEE4B298
:101F40004C45CAD30120F4E7014981F820007047CD
:101F50001C8500202DE9FC4180461646084600F00D
:101F600053F9050010D000246F4607EB44014A1CCA
:101F700036F9140003F0FAFD641C042CF5DB6A4604
:101F800029464046FFF722FABDE8FC817CB50446AD
:101F900000201346009001904A1E4800032A03D8EF
:101FA0004FF40075801E05E0491F03290DD840F24B
:101FB000FF150A380DEB00014A1C184603F0D6FD48
:101FC0006A4629462046FFF701FA7CBD012001F050
:101FD00085BA082001F082BA102001F07FBA2020D3
:101FE00001F07CBA72B6FEE72DE9F05F4D4E002598
:101FF0002DED028BA9463779A6F12404012F0BD1D0
:102000006079E8B1206A48B101F062FB216A401AA8
:10201000B0F5967F02D30125C4F82090677120792E
:10202000DFF8048101274FF0040B4FF0030A9FED06
:102030003F8A062871D2DFE800F0071D2A44475D79
:1020400001F046FB2062E9E7B07801280ED17078F4
:1020500006280BD1002D09D09FED350A88ED230A03
:1020600088F8927001F034FBE0612771BDEC028BBF
:10207000BDE8F09F01F02CFBE169401A6428F5D31C
:102080000225B57001F024FBE0612571EEE7FFF752
:1020900053FE28B177710720707084F804A0E5E73B
:1020A00001F016FBE169401AB0F5967FDED388EDAA
:1020B000238A88F8927001F00BFBE06184F804B089
:1020C000D4E7002DF3D1D1E701F002FBE169401A1A
:1020D000B0F57A7FCAD386F802A008209FED150AD2
:1020E000707088ED230A88F8927001F0F1FAE061CF
:1020F00005200FE001F0ECFAE169401AB0F5966FA7
:10210000B4D386F8029086F805900621717048468F
:10211000C4F81C902071A9E7FFE784F80490C4F884
:102120001C90A3E758020020149800200000B4433C
:10213000000061450080F74510B51D4C2DED028B68
:10214000E07B012807D0002024F8700FA0802081B8
:10215000BDEC028B10BD9FED178ABAEE050A84ED27
:102160001B0AB7EE001AF0EE480A6C3409F0BEF90B
:10217000BDEEC00AB7EE001AF0EE480A10EE100AE3
:10218000A08094ED000A09F0B1F9BDEEC00AB7EEE7
:10219000001AF0EE480A10EE100A208194ED000AB1
:1021A00009F0A4F9BDEEC00A10EE100AA081CFE735
:1021B000149800208FC2F53C114800B590ED000A3C
:1021C0000AF078FA0F4981ED060A90ED010A0AF04B
:1021D00071FA81ED070A90ED000A0AF06BFA0849DE
:1021E000C43181ED000A90ED010A0AF063FA81ED35
:1021F000010A90ED020A0AF05DFA81ED020A00BDC3
:102200009885002028010020012803D0052804D04B
:10221000002070474FF40070704740F2FF10704785
:1022200010B558B1084C491E0BD310F8013B534070
:10223000DBB234F8133083EA1222F4E74FF6FF7072
:1022400010BD104610BD0000E4EA000800F020F8C0
:102250000A4C00F0B3F900F01AF800F0ADF900F004
:102260002FF900F00DF800F03BF900200AF0CEFA4B
:1022700020600A2009F0C1FCEBE7000024020020E6
:1022800010B500F079FABDE8104000F0C1B8704711
:1022900010B54A4900202DED068BB1EE043AF9EE57
:1022A000042A08709FED462ADFED461A9FED468A04
:1022B000B0EE080A01F17C00B0EE481AF0EE480AD0
:1022C00004F0D6FB9FED419AF0EE493ADFED409ADB
:1022D000B0EE693A9FED3FAADFED3FAA3748F0EE36
:1022E0004A2AB0EE6A2ADFED3D1A9FED3D1AF6EE5E
:1022F000000A9FED3C0AB03004F08EFBDFED3A8A15
:102300002E480121B0EE687AF2EE046ABAEE046A51
:10231000F0EE495AB0EE695AF2EE044ABAEE044AB7
:10232000F0EE4A3AB0EE6A3AF0EE482AB0EE482AA9
:10233000DFED2E1AB0EE481AF0EE480AB1EE040AAC
:10234000F43004F04DFAF2EE043ABAEE043AF0EE4C
:102350004A2AB0EE6A2AF7EE001AB0EE481AF0EEFA
:10236000480AB0EE080A224804F056FBB0EE687A3C
:10237000F0EE496AB0EE696AB0EE682AB0EE481A2B
:10238000F0EE480ABDEC068B0121F2EE044ABAEEEB
:10239000044A1748BDE81040DFED165A9FED165A63
:1023A000DFED163A9FED163ADFED162ADFED161A2D
:1023B0009FED160A443004F013BA0000EC9500209B
:1023C00000401C4600401CC60000000000007A448B
:1023D00000007AC400008046000080C60000FA4376
:1023E00000A08C4600408345CDCCCC3D0000484346
:1023F0005897002000001645000016C500802245B1
:10240000008022C5005043470000C844CDCC8C3F1B
:1024100010B5264CB4F9380094ED161A00EE100AE7
:1024200004F5D870F8EEC00A94ED150A04F09AF994
:10243000BDEEC00A10EE100A00B2A4F8600094F8D5
:102440006D10002930D0D4ED1E0AF5EEC00AF1EE71
:1024500010FA29D094ED150A94ED161A144A30EEAC
:10246000410AB0EE081AB0EEC00A70EE011A80EE12
:10247000211AB2EE000A20EE800A20EE010A10EEC8
:10248000101A914201DD9FED0B0A0B4A10EE101A53
:10249000914201D99FED090ABDEEC00A10EE101A53
:1024A00000FA81F0A4F8600010BD0000EC95002057
:1024B0000000964300009643000096C3000096C3B8
:1024C0000648017809B100F0CBB890ED120A80ED12
:1024D000110A90ED160A80ED150A7047EC95002060
:1024E00070B5314D314C00262DED028B287878B136
:1024F0006078401CC0B26070142801D31420607052
:1025000001F0E6F86178142944D2217811B104E091
:102510006670F5E70121606021706168401A6428E7
:102520002AD2B5F924009FED228A00EE100A1E4837
:10253000F0EE480AB8EEC00A7C3004F0BFF8BDEEF9
:10254000C00AF0EE480A10EE100A04B2B5F93800DD
:1025500000EE100A1448B8EEC00A7C3004F0AEF861
:10256000BDEEC00A2246052110EE100A05B2114840
:10257000FFF70CFD2A4605E0002205210D48FFF774
:1025800005FD0022BDEC028B0121BDE87040094829
:10259000FFF7FCBC267035F9502F05210548FFF7E1
:1025A000F5FCB5F91020EDE7EC950020280200209D
:1025B00000000000003600207047000070B5FFF7F3
:1025C000BDF9014614222348FDF777FF03F0A4F973
:1025D000204D686190ED000A03F064FF85ED120A5A
:1025E000686990ED020A03F05DFFB1EE400A85EDE7
:1025F000160A00209FED181AFBEE010A03F0D2FE26
:1026000085ED160A154803F0B7FE044600F15001A7
:10261000A8610D2205F11C00FDF7D6FF94F85D00BE
:1026200085F82900206EE8620D22214605F1300070
:10263000FDF7CAFF607B85F83D0020692864FEF73E
:1026400019FB014605F16400BDE870401822FDF752
:10265000BBBF0000EC95002000002842003600209F
:1026600010B53C4CB0EE082A2DED068BF8EE081A9A
:10267000B4F908009FED38AA00EE100ADFED37AA82
:10268000B0EE4A1AB8EEC00AF0EE6A0A03F0D2FEC3
:10269000B4F90A00B0EE408A00EE100A9FED309ABD
:1026A000DFED309AD4ED198AB8EEC00AB0EE492AAF
:1026B000F0EE691AB0EE4A1AF0EE6A0A03F0BAFEBA
:1026C000207CD4ED1A2A01281ED194F86D00D8B1CF
:1026D0009FED253A0020B0EE081A02EE830A08EEBC
:1026E000838AF8EE080AF0EE408AB0EE480A03F05A
:1026F00059FEB0EE408A0020B0EE491AF0EE690AA9
:10270000B0EE680A03F04EFED4ED110A01209FEDF1
:10271000171A70EEC80AC4ED110AD4ED150A30EE8E
:10272000C00ADFED130A84ED150A94ED110A03F0D7
:1027300039FE84ED110A94ED150A00209FED0D1A63
:10274000FBEE010A03F02EFE84ED150ABDEC068BAC
:1027500010BD0000EC95002000007A4400007AC40F
:102760009A99993E9A9999BECDCC4C3F000034433A
:10277000000034C30000284210B52E4C2DED028B12
:1027800004F1B000D4ED110A94ED120A04F0D6F869
:10279000BDEEC00A10EE100AA4F8500094F86D00C7
:1027A000002843D094ED1D0AB5EEC00AF1EE10FAF0
:1027B0003CD0A06C0BF0AEFD41EC180B606C0BF044
:1027C000A9FD41EC100BB0EE481AF0EE681A03F0C8
:1027D0009FFE51EC100B0AF0F7FF00EE100AF0EE2E
:1027E000080A1649B0EEC00A30EE201AC0EE010AFF
:1027F00094ED1D0A9FED101A20EE010A20EE200A2A
:1028000010EE100A884201DD9FED0D0A0D4910EE11
:10281000100A884201D99FED0C0A34F9501FBDEE11
:10282000C00A10EE100A01FA80F02080BDEC028B85
:1028300010BD0000EC950020000048420000484414
:1028400000004844000048C4000048C490F820201C
:10285000012A07D0022A05D0416A41F48021416251
:1028600001207047006842690A43426100207047B6
:10287000F0B590F820500468A468012D05D0022D11
:1028800003D0416A41F4802157E014F0406F01D138
:10289000E5004FD5C4F301640125A5401D608B6898
:1028A0004FF4C0759BB1CE6833434E6843EAC6030C
:1028B000066805EB0417F3514FF4C273076803EB86
:1028C00004130E69FE50097D012905D009E00E8828
:1028D000CB6843EA4653EBE70168CE5846F480766E
:1028E000CE501179D379567941EA036193791B046B
:1028F00043EA062319434FF4C676036806EB041631
:1029000099511178D37841EA0361937852781B0486
:1029100043EA022211434FF4C473026803EB041329
:10292000D150006805EB0411425842F001024250B8
:102930000020F0BD416A41F4001141620120F0BD68
:1029400010B590F82020012A07D0022A05D0416A4C
:1029500041F480214162012010BD3B48D0F80022A3
:1029600042F00102C0F80022D0F8002222F47C528A
:10297000C0F80022D0F800224B6A42EA0322C0F8D5
:1029800000220A7D02F01F0301229A40D0F81C3277
:102990009343C0F81C32CB69B3B9D0F80C329343DF
:1029A000C0F80C328C894B6864F31F434C6900EB10
:1029B000C404C4F840320C890B6864F31F434C69AB
:1029C00000EBC404C4F84432CB69012B16D1D0F813
:1029D0000C321343C0F80C320C884B6864F31F436D
:1029E0004C6900EBC404C4F840320C89CB6864F332
:1029F0001F434C6900EBC404C4F844328B69002BBC
:102A0000D0F804320ED01343C0F804320B69002B07
:102A1000D0F8143208D01343C0F81432096A0129DF
:102A200004D008E09343EFE79343F5E7D0F81C1296
:102A30001143C0F81C12D0F8001221F00101C0F8B7
:102A40000012002010BD000000640040704770B507
:102A500090F82040012C05D0022C03D0416A41F4AB
:102A6000802128E0046809B32469A40720D04FF42A
:102A7000D874056804EB01142D5915F00405956010
:102A800005682D591AD0ED08556005682C5904F0D9
:102A90000204D4604FF4DA74056804EB01142E5973
:102AA00006F00F06082E0CD308250DE0E468DCE7DD
:102AB000416A41F400114162012070BD6D0D156045
:102AC000E3E72D5905F00F05156105682D59C5F38C
:102AD0000725956105682C59240C54614FF4DC726C
:102AE000046802EB0112A4581C700468A458240A5C
:102AF0005C700468A458240C9C700468A258120EE0
:102B0000DA704FF4DE72046802EB0112A4581C71F3
:102B10000468A458240A5C710468A458240C9C71AD
:102B20000468A258120EDA71006829B1016941F0F7
:102B300020010161002070BDC16841F02001C16029
:102B4000F8E70246002092F82010012901D002295E
:102B50000CD111688A68520100D501208A681201DF
:102B600000D5401C8968C90000D5401C70472DE97C
:102B7000F05F0546006800244669D0F80490876835
:102B8000D0F80CB0D0F810A0D0F81880F10748D0D9
:102B9000F90714D001218160B80703D5284600F059
:102BA0008CFA0CE0780702D54FF4006407E0380790
:102BB00002D54FF4805402E0284600F07DFAF80573
:102BC00016D529684FF480708860B80503D528466B
:102BD00000F075FA0CE0780502D544F4005407E0E3
:102BE000380502D544F4804402E0284600F066FA35
:102BF000F80316D529684FF480308860B80303D5F0
:102C0000284600F05EFA0CE0780302D544F4004454
:102C100007E0380302D544F4803402E0284600F08F
:102C20004FFA300707D55FEACB6004D5296810203A
:102C300044F40074C86070074FF0080707D55FEAD6
:102C40000B7004D52868C760284600F0A7F9B007C4
:102C500006D52868C068800702D0284600F0A0F991
:102C6000700607D55FEACA6004D52968102044F4CD
:102C700080640861B00607D55FEA0A7004D5286849
:102C80000761284600F0EAF9F00606D528680069D1
:102C9000800702D0284600F0E2F9B00308D55FEAC9
:102CA000C96005D5296810204860284600F0D8F989
:102CB000F00307D55FEA097004D528684760284605
:102CC00000F000FA300446D55FEA497040D5F005BF
:102CD00004D55FEAC87001D044F00104B00504D502
:102CE0005FEA887001D544F00204700504D55FEAFC
:102CF000487001D544F00404300529D518F0700F50
:102D000026D008F07000402815D006DC102809D025
:102D100020280AD0302816D10AE050280ED060288A
:102D200011D10EE044F008040DE044F010040AE074
:102D300044F0200407E044F0400404E044F0800440
:102D400001E044F480742868816921F07001816198
:102D5000296804204860002C05D0686A2043686216
:102D60002846FFF773FEBDE8F09F70B5040003D05E
:102D700094F8200010B104E0012070BD204600F05E
:102D800081F82068016841F00101016000F0A0FCB9
:102D90000546052604E000F09BFC401B0A2811D8DC
:102DA00020684068C007F6D02068016821F0020161
:102DB000016000F08DFC05460BE000F089FC401B33
:102DC0000A2806D9606A40F40030606284F8206006
:102DD000D2E7206840688007EFD4207E0128206871
:102DE00001683DD021F080010160607E01282068EB
:102DF000016838D021F040010160A07E01282068E0
:102E0000016833D021F020010160E07E01282068B4
:102E100001682ED041F010010160207F0128206858
:102E2000016829D021F008010160607F0128206835
:102E3000016824D021F004010160D4E902010843B3
:102E4000D4E90412114308436168491E084321680C
:102E5000C86100206062012084F82000002070BD5D
:102E600041F08001C0E741F04001C5E741F0200199
:102E7000CAE721F01001CFE741F00801D4E741F0A3
:102E80000401D9E7F0B587B0044614216846FDF780
:102E9000F7FB3D493D4ADFF8ECE00868D4F800C094
:102EA0003A4B03240225092610320027401CF44522
:102EB00029D10860012807D1106840F00070106027
:102EC000106800F000700590186840F00800186065
:102ED00018688DE8B00000F00800CDE9046069468C
:102EE00003942B4800F006FB00220621142000F07A
:102EF00031FF142000F020FF00220621152000F0F1
:102F000029FF152039E0DFF88CE0F44537D1D2F8FD
:102F100000C04CF0806CC2F800C0D2F800C001289C
:102F20000CF0806CCDF814C0086007D1106840F038
:102F300000701060106800F000700590186840F094
:102F4000020018601868694600F0020005906020D1
:102F50008DE8A100CDE903460F4800F0CBFA00222E
:102F60000621402000F0F6FE402000F0E5FE0022A1
:102F70000621412000F0EEFE412000F0DDFE07B00A
:102F8000F0BD0000006400404800002030380240DE
:102F9000000C02400068004000040240704700003E
:102FA000F0B50546274900688F150124264E8BB0E1
:102FB000884215D01CE0039810B1042810D105E018
:102FC00008AA22480199FEF7D3F909E01E4B3A46B8
:102FD0005B1C08A901A80094FEF714FF00B134702F
:102FE00008AB01AA00212846FFF731FD0028E2D0F6
:102FF0001749286888421CD00BB0F0BD039810B167
:10300000042816D105E008AA12480199FEF7B0F984
:103010000FE00D4B3A465B1C08A901A80094FEF78F
:10302000F1FE00B1347008AB01AA01210A48FEF795
:10303000E6F908AB01AA00212846FFF708FD0028A1
:10304000DCD0D9E700640040F4010020F4860020C1
:1030500000680040948700208094002070477047EB
:10306000704770B5044690F82000012804D0606ACB
:1030700040F40020606217E0022084F820002068FD
:10308000016821F00101016000F022FB05460DE01E
:1030900000F01EFB401B0A2808D9606A40F400308B
:1030A0006062052084F82000012070BD206840681F
:1030B000C007EDD1606270BD7047704770477047C0
:1030C0007047704770472DE9F0410446876D00F066
:1030D000FFFA054694F835000026022806D0802025
:1030E000606584F834600120BDE8F08120680168E3
:1030F00021F0160101602068416921F080014161E1
:10310000206C08B9A06C20B12068016821F008018A
:1031100001602068016821F0010101600CE000F00D
:10312000D7FA401B052807D920206065032084F8C2
:10313000350084F83460D7E720680068C007EED116
:1031400094F85C103F208840B860012084F8350076
:1031500084F834600020C7E790F83510022903D0C6
:103160008021416501207047052180F835100068F5
:10317000016821F00101016000207047406D704737
:103180002DE9F84304464FF00009CDF8009063485C
:103190004FF41651A56D0068B0FBF1F72E6894F856
:1031A0005C20082101FA02F030420FD0206802684A
:1031B00052070BD5026822F00402026094F85C000A
:1031C0008140A960606D40F00100606594F85C107A
:1031D0004FF0010808FA01F0304208D0216849692F
:1031E000090604D5A860606D40F00200606594F89F
:1031F0005C1004208840304208D0216809688907A3
:1032000004D5A860606D40F00400606594F85C101F
:1032100010208840304218D021680968090714D569
:10322000A86020680168490304D50068000308D538
:10323000A16C07E00168C90503D4016821F0080109
:103240000160216C09B12046884794F85C10202069
:103250008840304231D021680968C9062DD5A86060
:1032600094F8350005282068016806D0490347D541
:10327000006800031DD4616C1CE021F016010160A0
:103280002068416921F080014161206C08B9A06C7F
:1032900020B12068016821F00801016094F85C10F9
:1032A0003F208840A86084F8358084F83490216DF0
:1032B0001FE0E16B09B120468847606D00282BD0E4
:1032C000606DC00714D0052084F8350020680168BF
:1032D00021F0010101600098401C0090B84203D821
:1032E00020680068C007F6D184F8358084F83490EF
:1032F000E16C002910D001B02046BDE8F04308473A
:103300000168C905D5D4016821F01001016084F875
:10331000358084F83490CCE7BDE8F883580000206D
:103320002DE9F041044600F0D3F905465CB10220D6
:1033300084F83500002684F834602068016821F0A4
:10334000010101600DE00120BDE8F08100F0C0F94D
:10335000401B052805D920206065032084F835002E
:10336000F2E720680068C007F0D121680A682048A9
:103370000240D4E901031843D4E903352B43184331
:1033800063691843A3691843E3691843236A184320
:103390001043626A042A03D1D4E90B231A43104371
:1033A000086020684069656A20F0070128460D43DF
:1033B000012704280CD1A06A0543E06A40B12046E9
:1033C000FEF77AFC20B14020606584F83570BAE7DA
:1033D000206845612046FEF75BFC94F85C203F21A5
:1033E00091408160666584F835700020ACE700008C
:1033F0003F8010F02DE9F0410446866D90F83400CE
:10340000002501280DD0012084F8340094F835708F
:103410000020012F07D084F8340002252846BDE89B
:10342000F0810220FBE7022784F8357060652046B2
:10343000FEF76CFC94F85C103F208840B060206878
:10344000016841F016010160206C20B1206801681C
:1034500041F0080101602068016841F0010101604C
:10346000DCE7000010B51B4C10281AD0202821D012
:1034700008282AD0012813D109F0EAFF01280FD02B
:1034800004F10C01206909F01BFBE068002807D05B
:1034900011494FF080500860BFF34F8FBFF36F8F1B
:1034A00010BD607840F001006070A07840F001002D
:1034B000A07003E0207840F00100207020790028FF
:1034C000EED0BDE8104008F03FBAE07840F00100CF
:1034D000E07010BD2801002004ED00E0044910B5A3
:1034E0000A68024202D00860FFF7BCFF10BD00006E
:1034F000143C01402DE9F84FDFF89C910022A9F11E
:10350000040B03274FF00F0C09F1040AABF1040E72
:1035100001250B6895402B40AB426ED10C7904F02D
:103520000304012C01D0022C15D18668540007FA3F
:1035300004F826EA0806D1F80C8008FA04F848EAEC
:103540000608C0F808804468AC430D79C5F300153F
:103550009540254345600C79E443A40708D0C5682D
:10356000540007FA04F6B5438E68A6402E43C660A1
:103570000C7904F00304022C11D1D40800EB84066A
:10358000356A5407E40E0CFA04F825EA0805D1F868
:10359000108008FA04F848EA0508C6F82080056893
:1035A000540007FA04F6B5430E7906F00306A64068
:1035B0002E4306604C6814F4403F66D0374C2568B3
:1035C00045F480452560246822F0030504F4804416
:1035D0000094334C05EB0408D8F808589407260FDC
:1035E0000CFA06F4A5432F4CA04201D1002424E09C
:1035F0002D4CA04202D101241FE046E02B4CA042FA
:1036000001D1022419E02A4CA04201D1032414E084
:10361000284CA04201D104240FE0274CA04201D144
:1036200005240AE0254CA04201D1062405E0244CE3
:10363000A04201D1072400E00824B4402C43C8F87C
:103640000848D9F800404D464E689C43F60200D524
:103650001C432C60DAF8004055464E689C43B60285
:1036600000D51C432C60DBF800405D464E689C434F
:10367000B60300D51C432C60DEF8004075464E684A
:103680009C43F60300D51C432C60521C102AFFF407
:103690003FAFBDE8F88F0000083C014044380240CD
:1036A00000300140000002400004024000080240D7
:1036B000000C0240001002400014024000180240BA
:1036C000001C02400AB1816170470904FBE7000059
:1036D00001488068704700004C00002070B504006D
:1036E00025D094F83D00002520B984F83C502046B0
:1036F00000F052FA242084F83D002068016821F08F
:10370000010101602068016841F400410160206806
:10371000016821F40041016000F008FC4D4B616834
:10372000994201D84C4900E04C49884201D201201D
:1037300070BD4B492268B0FBF1F1566826F03F0698
:103740000E43566062689A4206D94FF4967251430E
:103750004FF47A72B1FBF2F12268491C166A26F026
:103760003F06314311626168994210D84900401EFA
:10377000B0FBF1F2521CC2F30B02042A01D2042066
:1037800022E0B0FBF1F0401CC0F30B001CE0A2688B
:10379000F2B301EBC10303EB0116431EB3FBF6F3D7
:1037A0005B1C43F480431B0549D092B301EBC1027B
:1037B00002EB0111401EB0FBF1F0401CC0F30B0006
:1037C00040F4804040F400402168CA694CF6FF7321
:1037D0009A431043C861D4E9071001432068026886
:1037E00022F0C00211430160D4E9030101432068C3
:1037F000826848F2FF339A4311438160D4E905108F
:1038000001432068C26822F0FF021143C16001E059
:103810000EE016E02068016841F0010101602564B6
:10382000202084F83D00256384F83E50002070BDC0
:1038300001EB4106431EB3FBF6F35B1CB3E701202B
:10384000C2E701EB4101401EB0FBF1F0401CC0F3A8
:103850000B00B7E7A086010080841E0000093D0030
:1038600040420F002DE9FF4F83B09A46DDE91187F2
:1038700093460446DDF84090FFF72AFF054694F88A
:103880003D00202870D1192301227449204600955B
:1038900001F03BFF0028F5D194F83C00012863D0EB
:1038A000012084F83C0020680168C90703D1016841
:1038B00041F0010101602068016821F400610160AC
:1038C000222084F83D00402084F83E000026266433
:1038D000C4F82490A4F82A80608D20856048E062B6
:1038E000CDE9007553465A462046049901F010FE72
:1038F000002879D1208DD0B1012821D0022820685C
:1039000024D0416980690090208D032866D8012861
:103910002BD0544902283B464FF00002009557D067
:103920008846204601F0F1FE00285DD13AE020688B
:10393000416981690091016841F4007101607DE095
:103940002068016821F480610160F0E7016821F4DA
:10395000806101602068016841F4006101602068B5
:1039600041698069009069E075E02A463946204641
:1039700001F06CFF88BB54E02068016841F40071DD
:10398000016020680069616A0870606A401C6062BA
:10399000218D491E2185618D491E61852168096936
:1039A000017042E02068016821F4806101602068B4
:1039B0000069616A0870606A401C6062208D401E68
:1039C0002085608D401E60853B4600224146009563
:1039D000204601F09AFE00B9CEE705E02A463946B6
:1039E000204601F033FF18B1012007B0BDE8F08F89
:1039F00020680069616A0870606A401C6062208DFE
:103A0000401E81B22185608D401E6085206842691C
:103A1000D243520712D4032903D1016821F48061F3
:103A2000016020680069616A0870606A401C606219
:103A3000208D401E2085608D401E6085208D0028D1
:103A40007FF462AF202084F83D0084F83E6084F863
:103A50003C600020C9E70220C7E700000200100018
:103A60000000FFFF040001002DE9FF4F83B09A46DC
:103A7000DDE9119793460446DDF84080FFF728FE04
:103A8000054694F83D0020287FD1192301224049A2
:103A90002046009501F039FE002876D194F83C00CC
:103AA000012872D0012084F83C0020680168C90711
:103AB00003D1016841F0010101602068016821F42F
:103AC00000610160212084F83D00402084F83E0020
:103AD00000262664C4F82480A4F82A90608D2085EE
:103AE0002C48E062CDE9007553465A4620460499B9
:103AF00001F08CFD70B930E02A463946204601F0CD
:103B0000DFFE58B1206C042804D12068016841F41C
:103B100000710160012007B0BDE8F08F606A216884
:103B200000780861626A521C6262208D401E80B279
:103B30002085618D491E618521684B69DB435B07E8
:103B40000BD468B110780861606A401C6062208DF7
:103B5000401E2085608D401E6085208D0028CBD1C1
:103B60002A463946204601F0A5FD0028CAD154F85E
:103B70003D0B016841F400710160202004F81E092A
:103B8000E67766770020C6E7FFE70220C3E700007C
:103B9000020010000000FFFFF0B587B004461421BA
:103BA0006846FCF76DFD1B49206888422FD11A48F2
:103BB000016841F004010160016801F00401059110
:103BC000016841F0010101600068042400F0010077
:103BD00005904FF4007012250126032704948DE808
:103BE000E10069460D48FFF785FCA00104948DE8CB
:103BF000E10069460A48FFF77DFC0748103001687C
:103C000041F400010160006800F40000059007B075
:103C1000F0BD0000005C0040303802400008024067
:103C200000000240024881680278114481607047B8
:103C30004C0000200B4810B5016841F40071016090
:103C4000016841F480610160016841F480710160A4
:103C5000032000F09FF80F2000F006F800F050F865
:103C6000002010BD003C024030B50546204887B01A
:103C70000024016841F001010160006806A900F01C
:103C800001000590684600F031F90398B0B100F0EA
:103C90004DF9400017494FF08042B0FBF1F1164852
:103CA000491E026040F2E732C0E90324C0E9011472
:103CB000846100F055FD040003D015E000F036F9F2
:103CC000E8E70D4800F0CAFD04000DD11C2000F00B
:103CD00033F8102D07D2002229461C2000F03AF8B4
:103CE0000648056000E0012407B0204630BD000012
:103CF0004038024040420F00943A0020500000201B
:103D00000C4882B0016841F480410160006800F411
:103D1000804000900748001F016841F08051016019
:103D20000068002200F0805000900F21901E02B029
:103D300000F010B844380240002809DB00F01F02F0
:103D4000012191404009800000F1E020C0F80011FD
:103D500070470000F0B40E4B1B68C3F30223C3F19D
:103D60000704042C00D904241D1D072D01D20023B3
:103D700000E0DB1E012606FA04F56D1E0D409D4095
:103D80009E40761E164045EA0601F0BC05F0B7BC21
:103D90000CED00E0064A00F0070110684FF6FF0343
:103DA000184040EA012003490843106070470000B2
:103DB0000CED00E00000FA052DE9F0470D46040087
:103DC00065D0DFF81491D9F80000EFB200F00700D9
:103DD000A84207D289F80070D9F8000000F0070067
:103DE000A84254D120683D4E810712D5400703D523
:103DF000306840F4E05030602078000703D5306828
:103E000040F4604030603068A16820F0F000084362
:103E100030602078C0072DD030496068083901280B
:103E200012D0022813D0032811D00968890700296D
:103E30002DDA316821F0030101433160FFF748FCBE
:103E4000804641F2883A0EE009688903EFE7096885
:103E50008901ECE7FFF73CFCA0EB0801514502D9D2
:103E60000320BDE8F0873068616800F00C00B0EB1B
:103E7000810FEFD1D9F80010484601F00701A9429F
:103E800007D90770006800F00700A84201D00120A0
:103E9000E7E72078400705D53068E16820F4E05076
:103EA000084330602078000706D53068216920F487
:103EB000604040EAC100306000F058F83168084ABC
:103EC000C1F30311515CC840064908600648006808
:103ED000FFF7CAFE0020C4E7003C02400838024059
:103EE00090E7000858000020500000200F220260D8
:103EF0000C4A136803F003034360136803F0F003F4
:103F00008360136803F4E053C36012684FF4E05316
:103F100003EAD20202610448006800F0070008606A
:103F20007047000008380240003C02400448054940
:103F300000680968044AC1F38221515CC840704797
:103F40005800002008380240A0E70008044805494E
:103F500000680968044AC1F34231515CC8407047A7
:103F60005800002008380240A0E70008154810B5A6
:103F7000006810F00C01144813D0144B04290FD022
:103F800008290ED10F4C241F216801F03F0221683F
:103F9000490207D52068C0F38810A0FB030106E0A2
:103FA000184610BD2168C1F38811A1FB0001002350
:103FB000FCF7DAF92168C1F30141491C4900B0FB63
:103FC000F1F010BD083802400024F40040787D0173
:103FD0002DE9F84F040075D02078DFF838A3C0072A
:103FE000AAF1040548D00AF104000168C1F3810177
:103FF000012908D00068C0F3810002280AD1DAF84C
:104000000000400206D52868800335D56068002886
:10401000E1D031E06068B0F5803F10D0B0F5A02F5E
:10402000286810D020F480302860286820F4802090
:1040300028606068A0B1FFF74BFB06460CE02868DB
:1040400040F48030F4E740F480202860F7E7FFF781
:104050003FFB801B642871D828688003F7D50BE0EC
:10406000FFF736FB064604E0FFF732FB801B6428AF
:10407000F1D828688003F7D42078DFF89C92800775
:104080004FF0000B3DD5A348001D016811F00C0F47
:1040900008D00068C0F3810002280AD1DAF80000D5
:1040A000400206D42868800715D5E068012809D1A8
:1040B00011E0E068B8B10120C9F80000FFF708FB83
:1040C000064605E022E1FFF703FB801B0228C2D869
:1040D00028688007F7D52868216920F0F80040EAB1
:1040E000C10028600DE0C9F800B0FFF7F1FA0646FC
:1040F00004E0FFF7EDFA801B02281FD8286880072C
:10410000F7D42078000722D5824F84486169703740
:1041100071B101210160FFF7DBFA064604E0FFF709
:10412000D7FA801B022809D838688007F7D50EE037
:10413000C0F800B0FFF7CCFA064605E082E0FFF7D2
:10414000C7FA801B02287DD838688007F7D420780A
:10415000400765D56F484FF000083C300068C0004C
:104160000BD46C483C30016841F08051016000681C
:104170004FF0010800F080500090694F3868C0058A
:104180000FD4386840F480703860FFF7A1FA064613
:1041900004E0FFF79DFA801B022853D83868C00559
:1041A000F7D55C4FA0686C3701280FD00528386818
:1041B00010D020F001003860386820F0040038602A
:1041C000A068B0B1FFF784FA06460EE0386840F008
:1041D0000100F4E740F004003860F7E7FFF778FAF1
:1041E000811B41F28830814263D838688007F5D559
:1041F0000DE0FFF76DFA064606E0FFF769FA811B4E
:1042000041F28830814254D838688007F5D4B8F13B
:10421000000F05D03F483C30016821F0805101601B
:10422000A069B8B33B49091D0968C1F3810102299E
:1042300046D00228584606D0C9F86000FFF748FA71
:10424000044639E035E04F46C9F86000FFF740FA10
:10425000064604E0FFF73CFA801B022829D82868AC
:104260008001F7D4D4E907010843A16A2D4A49081F
:1042700002EB0141626A41EA8211084394F82C1072
:1042800040EA0161CAF8001001203866FFF720FA01
:10429000044605E03CE0FFF71BFA001B022808D8A3
:1042A00028688001F7D533E0FFF712FA001B0228D7
:1042B00002D90320BDE8F88F28688001F4D427E0F4
:1042C0000128F7D0DAF80000E26900F48001914299
:1042D0001CD1226A00F03F01914217D147F6C0710C
:1042E000626A0140B1EB821F10D1A26A4FF0FF3326
:1042F00000F4403103EB5202B1EB024F06D194F8C7
:104300002C1000F07060B0EB016F01D00120D1E7FC
:104310000020CFE70438024000004742800E4742A9
:10432000007000400000FFFF70B5040009D0606A13
:10433000002540B125616561A56294F8510040B146
:104340000CE0012070BD6068B0F5827FF4D0E561BB
:10435000F2E784F85050204600F044F8022084F838
:1043600051002068016821F040010160A088218986
:1043700000F4827001F404410843A18901F4006152
:104380000843217C01F002010843217D01F0010175
:104390000843218B01F400710843217F01F03801AB
:1043A000084394F8201001F080010843218D01F4A6
:1043B0000051084321680860A069042101EA104007
:1043C00094F8241001F01001084321684860206827
:1043D000C16921F40061C1616565012084F8510063
:1043E000002070BD2DE9F04186B0044614216846D6
:1043F000FCF746F935492068884264D134480025E5
:10440000016841F480510160006800F4805005901B
:104410002F481438016841F002010160016801F081
:1044200002010591016841F0010101600068022666
:1044300000F0010005901820CDE9000602AA03272C
:104440004FF0050882E8A00169462248FFF752F8BC
:104450008020CDE9000602AA694682E8A0011E4834
:10446000FFF748F81E4E1D487F063060C6E901750B
:104470004FF48068C6E9035875617812B561C6E9E2
:10448000075030467562FEF74BFF08B1FDF7AAFDF5
:10449000E664B463124E114860361830E6E802074D
:1044A0004020A6E82101C00246F81459B561C6E9CA
:1044B00007500B4875626030FEF732FF08B1FDF718
:1044C00091FDA664B46306B0BDE8F0810030014000
:1044D00044380240000402400000024040640240B0
:1044E000D43600202DE9FF4F81B01F469346044685
:1044F00001250E9EFFF7ECF8804694F851006168A4
:10450000012806D0B1F5827F3CD1A168C9BB04283F
:1045100038D10298002870D0BBF1000FFBD0002FDB
:10452000F9D094F8500001282CD04FF0010A84F8FB
:1045300050A094F85100042802D0052084F85100BE
:104540004FF00009C4F85490C4F838B0E787A78743
:1045500002992163E786A786C4F84090C4F8449086
:1045600020680168490603D4016841F040010160F8
:10457000E068B0F5006F606808D0E8B3012F47D05D
:104580007DE0FFE7022005B0BDE8F08F08B1012F04
:1045900037D1206B21680088C860206B801C2063A5
:1045A000E08E401EE0862CE02068816889070DD5EA
:1045B000E18E59B1012D09D1216B0988C160206BB1
:1045C000801C2063E08E401EE08600252068816804
:1045D000C9070BD0E18F49B1C068A16B0880A06BFF
:1045E000801CA063E08F401EE0870125FFF770F874
:1045F000A0EB0800B04201E00AE064E001D3701CC7
:104600004ED1E08E0028CFD1E08F0028CCD13CE005
:10461000206B216800780873206B401C2063E08EBB
:10462000401EE0862BE02068816889070DD5E18E69
:1046300059B1012D09D1216B09780173206B401C00
:104640002063E08E401EE086002520688168C9074F
:104650000BD0E18F49B1C068A16B0870A06B401C02
:10466000A063E08F401EE0870125FFF731F8A0EB43
:104670000800B04202D3701C01D011E086B1E08E78
:104680000028D0D1E08F0028CDD1424631462046C7
:1046900003F05EFE50B12020606584F8509012E077
:1046A00084F851A084F8509003206CE7A06818B9F2
:1046B0002068C1688068009084F851A084F8509008
:1046C000606D0028F1D001205DE770477047000061
:1046D00070B590F83C20012A32D0012580F83C507A
:1046E000022280F83D2002685368946823F0700627
:1046F0000B6833435360134B02689A4214D0B2F1F3
:10470000804F11D0104B9A420ED0104B9A420BD0D2
:104710000F4B9A4208D00F4B9A4205D00E4B9A424B
:1047200002D00E4B9A4204D1496824F08003194309
:10473000916080F83D50002180F83C10084670BD23
:10474000022070BD0000014000040040000800404D
:10475000000C0040000401400040014000180040EF
:1047600010B5040003D094F83D0010B107E001201B
:1047700010BD002084F83C00204600F01FF8022005
:1047800084F83D00211D206804F07EF9012084F8A2
:10479000460084F83E0084F83F0084F8400084F826
:1047A000410084F8420084F8430084F8440084F80F
:1047B000450084F83D00002010BD000008B50068E9
:1047C0000649884208D10648016841F40031016079
:1047D000006800F40030009008BD00000044014073
:1047E0004438024090F83D10012901D00120704763
:1047F000022180F83D1000681149884214D0B0F1C0
:10480000804F11D00F4988420ED00F4988420BD0FB
:104810000E49884208D00E49884205D00D49884289
:1048200002D00D49884204D1816801F007010629B0
:1048300003D0016841F001010160002070470000D1
:10484000000001400004004000080040000C00404F
:1048500000040140004001400018004090F83D1065
:10486000012901D001207047022180F83D10016824
:10487000CA6842F00102CA6000681149884214D037
:10488000B0F1804F11D00F4988420ED00E498842B6
:104890000BD00E49884208D00D49884205D00D49F9
:1048A000884202D00C49884204D1816801F0070196
:1048B000062903D0016841F0010101600020704722
:1048C000000001400004004000080040000C0040CF
:1048D00000040140004001400018004070B504464B
:1048E00090F83C000025012817D0012684F83C6090
:1048F000022084F83D002068826822F0770222F4CA
:104900007F4282600868502838D00DDC20284FD0C4
:1049100005DC90B3102811D14AE0022070BD302888
:1049200046D040280AD13BE060282FD070280DD017
:10493000B0F5805F03D0B0F5005F12D0012584F898
:104940003D60002084F83C00284670BDCB68D1E96A
:104950000121206804F00DF92068816841F0770199
:1049600009E0CB68D1E90121206804F002F9206850
:10497000816841F480418160E1E719E0CA684968D3
:10498000206804F0FFF95021206806E0CA684968F1
:10499000206804F008FA6021206804F0F4F8CEE7FB
:1049A000CA684968206804F0EDF940212068F4E7FE
:1049B000226801461046F0E770472DE9F0410446B1
:1049C0000068C66805694FF00007A90713D5B1074D
:1049D00011D5F91E016101202077206880698007C8
:1049E000204602D0FFF7E8FF04E000F0A9F82046D7
:1049F00000F03BF92777680716D5700714D52168B2
:104A00006FF004000861022020772068806910F4AC
:104A1000407F204602D0FFF7CFFF04E000F090F87F
:104A2000204600F022F92777280715D5300713D53F
:104A300021686FF008000861042020772068C069B1
:104A40008007204602D0FFF7B7FF04E000F078F8B7
:104A5000204600F00AF92777E80616D5F00614D5A7
:104A600021686FF010000861082020772068C06975
:104A700010F4407F204602D0FFF79EFF04E000F0D4
:104A80005FF8204600F0F1F82777E80708D0F00734
:104A900006D021686FF001000861204600F04EF951
:104AA000280608D5300606D521686FF08000086119
:104AB0002046FFF70AFE680608D5700606D521686D
:104AC0006FF040000861204600F03FF9A8060AD5C3
:104AD000B00608D521686FF0200008612046BDE8C7
:104AE000F041FFF7F3BDBDE8F081000010B586B0DE
:104AF000044614216846FBF7C3FD0E482168814235
:104B000015D10D480021026842F0200202600068C1
:104B100000F020000590402000900220CDE9010126
:104B20000320CDE9031069460448FEF7E3FC06B014
:104B300010BD000000440140303802400014024023
:104B4000704770B5044690F83C0000260D460128D9
:104B50000FD0012084F83C006AB1042A1DD0082A35
:104B60002FD00C2A3FD00126002084F83C0030468C
:104B700070BD022070BD206804F042F82068816991
:104B800041F0080181612068816921F0040181619F
:104B9000206881692A69114311E0206804F060F8F7
:104BA0002068816941F4006181612068816921F494
:104BB00080618161206881692A6941EA02218161FD
:104BC000D2E7206804F082F82068C16941F008014A
:104BD000C1612068C16921F00401C1612068C16917
:104BE0002A69114311E0206804F0A4F82068C16923
:104BF00041F40061C1612068C16921F48061C16133
:104C00002068C1692A6941EA0221C161ACE710B597
:104C1000040003D094F83D0010B107E0012010BD5E
:104C2000002084F83C00204600F01EF8022084F8A2
:104C30003D00211D206803F027FF012084F8460075
:104C400084F83E0084F83F0084F8400084F8410076
:104C500084F8420084F8430084F8440084F8450056
:104C600084F83D00002010BD7047704710B5044621
:104C700049B104290AD008290BD094F84100012831
:104C80000AD0012010BD94F83E00F8E794F83F00E8
:104C9000F5E794F84000F2E70220B1B3042938D0D8
:104CA000082939D084F841000122206803F054FF1C
:104CB0001B4920681B4A884201D0904203D1436CB3
:104CC00043F4004343642068884213D0B0F1804F1E
:104CD00010D0154988420DD0144988420AD0144991
:104CE000884207D0904205D01249884202D012492A
:104CF000884204D1816801F00701062903D00168C8
:104D000041F001010160002010BDFFE784F83E0082
:104D1000CAE784F83F00C7E784F84000C4E7000012
:104D20000000014000040140000400400008004071
:104D3000000C004000400140001800400068B0F145
:104D4000804F01D1FEF76EBF70477047704770B556
:104D5000044620680C3050E8001F21F4907140E8B0
:104D60000012002AF5D12068143050E8001F21F00D
:104D7000010140E80012002AF5D1206B012809D179
:104D800020680C3050E8001F21F0100140E80012AC
:104D9000002AF5D1206840694FF00005400615D57E
:104DA0002068143050E8001F21F0400140E8001254
:104DB000002AF5D1E06B48B10565E06BFEF783F999
:104DC00020B1E06BFEF7DAF9202806D0E585202037
:104DD00084F842002563002070BD10206064032029
:104DE00070BD7047F8B5016804460868CA684B6929
:104DF00010F00F0F4FF0000559D003F0010602F438
:104E00009077374365D0C10705D0D10503D5616CD4
:104E100041F001016164410705D5D90703D0616CF8
:104E200041F002016164810705D5D90703D0616CA7
:104E300041F004016164010707D502F0200131430C
:104E400003D0616C41F008016164616C00293AD0C3
:104E5000800604D5900602D5204604F069F8206843
:104E60004069616CC0F38010090700D460B320462C
:104E700004F029F820684069400621D520681430E4
:104E800050E8001F21F0400140E80012002AF5D14F
:104E9000E06BA8B172490165E06BFEF75DF900288F
:104EA00011D0E06B016D01B0BDE8F040084783060A
:104EB0000FD593060DD52046BDE8F84004F038B86C
:104EC0002046FFF78EFFF8BD2046FFF78AFF656496
:104ED000F8BD266B2023012E7ED1C6067CD5D606D2
:104EE0007AD508684868009048694FF00206400685
:104EF0004DD5E26B106840684FF480770004000CD9
:104F00003AD0A18D814237D9E085D069B8422DD001
:104F100020680C3050E8001F21F4807140E8001236
:104F2000002AF5D12068143050E8001F21F001015B
:104F300040E80012002AF5D12068143050E8001F24
:104F400021F0400140E80012002AF5D184F84230F7
:104F5000256320680C3050E8001F21F0100140E864
:104F60000012002AF5D1E06BFEF7ADF86663A08D64
:104F7000E18D401A81B206E0A18D8142A8D1D069AD
:104F8000B842A5D166632046FFF7E0FEF8BDA08DCC
:104F9000E18D401A81B2E08D0028F7D00029F5D0CC
:104FA00020680C3050E8002F22F4907240E800276F
:104FB000002FF5D12068143050E8002F22F00102B4
:104FC00040E80027002FF5D184F84230256320689F
:104FD0000C3050E8002F00E006E022F0100240E81C
:104FE0000023002BF3D1CDE705062BD5150629D5D7
:104FF00094F841002128C9D1A068B0F5805F01D1A3
:105000002069B0B1206A411C2162216800784860A3
:10501000E08C401E0004000CE084B7D12068C16819
:1050200021F08001C1602068C16841F04001C16089
:10503000F8BD206A0088C0F308004860206A801C20
:105040002062E5E74006F3D55006F1D5CA68204650
:1050500022F04002CA6084F8413000F08DF9F8BDBA
:10506000CB8D000870B5040004D094F841000025F1
:1050700010B106E0012070BD84F84050204600F0D9
:1050800023F8242084F841002068C16821F40051ED
:10509000C160204603F0AEFF2068016921F4904111
:1050A00001612068416921F02A0141612068C168DD
:1050B00041F40051C1606564202084F8410084F807
:1050C00042006563002070BD2DE9F04F87B00446B3
:1050D00014216846FBF7D4FA9448DFF84C82143860
:1050E000D4F800C0914B0221032287150025061534
:1050F0004FF0070A4FF0006BC4456BD1D3F800C0E6
:105100004CF0100CC3F800C01B6803F010030593AB
:10511000036843F002030360036803F0020305938E
:10512000036843F0010303600068894600F0010052
:1051300005908020CDE900090DF1080C90468CE81F
:10514000200569467A48FEF7D5F97010CDE90009C7
:105150000DF10809694689E820057648FEF7CAF985
:10516000DFF8D881744940464FF4803902C0DA46EE
:10517000E0E802B5E0E8035640F8045C80E8A002ED
:105180004046C8F82450FEF7CBF808B1FCF72AFFD8
:105190006A4F6948C4F83C8060373030C8F83840FE
:1051A000E7E8020A402061C7644847F814596030B4
:1051B000BD61C7E907597D62FEF7B2F808B1FCF797
:1051C00011FFA763002205212520BC63FEF7C2FD65
:1051D000252046E0DFF86881C44547D1534B1B1FAB
:1051E000D3F800C04CF4802CC3F800C01B6803F453
:1051F00080230593036843F004030360006800F014
:10520000040005904FF440608DE82300CDE9032AA7
:1052100069464C48FEF76EF9DFF820814A4908F1EB
:10522000C0084046C8F80010C0E901B5C0E90356FF
:10523000C8F814504FF48031C8F81850C8E9077105
:10524000C8F82450FEF76CF808B1FCF7CBFEC4F8A0
:105250003C8000220F212720C8F83840FEF77AFD55
:105260002720FEF769FD07B0BDE8F08FDFF8DC808E
:10527000C445F8D1D3F800C04CF0200CC3F800C0EE
:105280001B6803F020030593036843F040030360A9
:10529000006800F0400005904FF484408DE8230042
:1052A0000820CDE9032069462948FEF723F9DFF8F5
:1052B000A48021494046603902C04FF02069E0E8EF
:1052C00002954FF4003AE0E8035640F8045C80E8A9
:1052D000A0044046C8F82450FEF722F808B1FCF7B5
:1052E00081FE1C4F1448C4F83C8060371830C8F861
:1052F0003840E7E80209402061C7164847F81459CA
:105300006030BD61C7E9075A7D62FEF709F808B150
:10531000FCF768FEA763002205214720BC63FEF767
:1053200019FD47209DE7000000100140443802406D
:10533000000402400000024088640240B4380020AB
:10534000004800400008024028600240001401406C
:1053500000180240D439002090F84230202B01D0B0
:105360000220704721B11AB10023036303F0C8BEC5
:1053700001207047704770470449006809688842F7
:1053800002D103490020087070470000DC3700207C
:10539000140200202DE9F04106F0E0F9C28804462D
:1053A000A2F5777300204C49082B01D8087002E061
:1053B0000B78FA2B02D20B785B1C0B70DBB2474DDB
:1053C000052B03D9A2F578722A8000E02880A288F4
:1053D000A2F57773082B01D8487002E04B78FA2BBE
:1053E00002D24B785B1C4B70DBB2052B03D9A2F5C4
:1053F00078726A8000E068802288A2F57773082BB3
:1054000001D8887002E08B78FA2B02D28B785B1C73
:105410008B70DBB2052B03D9A2F57872AA8000E06D
:10542000A8806288A2F57773082B01D8C87002E0C3
:10543000CB78FA2B02D2CB785B1CCB70D9B2052982
:1054400003D9A2F57872EA8000E0E88060894FF421
:10545000E0664FF4787733463A46C021083403F0CB
:105460005BFA2881A08833463A46C02103F054FAFB
:105470006881208833463A46C02103F04DFAA8815E
:10548000E08833463A46C02103F046FAE881208995
:1054900028826089A882208933463A46C02100F0DC
:1054A000D9FBA874608933463A46C02100F0D2FB8C
:1054B000A875207E2876607E6876E07EE876A07EFD
:1054C000A876607F28774FF44870E8834FF6E04075
:1054D0002884BDE8F0810000EC0100203488002021
:1054E000FEE701684A69D24352050FD46FF4806227
:1054F0004A61002140F8301F202242738173026903
:1055000042F00402026101730120704700207047DD
:105510002DE9F84F0446006889460B9E01689846BD
:10552000174641F4806101602068016841F4807190
:10553000016000964FF0011B0022594620460A9B4D
:1055400000F0E3F84FF4007A40B120680068C0052D
:1055500001D5C4F840A00320BDE8F88F216809F008
:10556000FE0008613346284920460A9A00F011F9E6
:10557000F0BB2068416980690090324620460A9954
:1055800000F09EF940B1206C04283AD120680168EF
:1055900041F40071016034E0FDB2B8F1010F09D0AF
:1055A0002168380A0861324620460A9900F088F9D5
:1055B0000028E8D120680561324620460A9900F0AB
:1055C0007FF90028DFD12068016841F48071016013
:1055D00000960022594620460A9B00F096F80028C3
:1055E000B3D1216809F0FF0040F00100086100E03C
:1055F00007E03346044920460A9A00F0CAF800281A
:10560000AAD00120A8E70000020001002DE9F8431C
:10561000044600680D46DDE908970168984616467D
:1056200041F4807101604B4600224FF00111204689
:10563000009700F06AF848B120680068C00502D5FC
:105640004FF4007020640320BDE8F883216805F062
:10565000FE0008613B464A461549204600F099F88D
:1056600088B920684169806900903A4649462046D9
:1056700000F026F948B1206C042804D120680168A4
:1056800041F4007101600120DEE7F5B2B8F1010FCD
:1056900009D02168300A08613A464946204600F0A0
:1056A0000FF90028E7D1206805610020CCE7000051
:1056B0000200010070B516460D4604461EE0204665
:1056C000FFF70FFF08B1012070BD681C16D0FDF771
:1056D000FFFF801BA84200D885B920684069C043FD
:1056E00040070BD5002044F8300F20216173A073D0
:1056F000216941F0200121612073E4E720684069BD
:10570000C0434007DBD4002070BD2DE9F0471E46A2
:1057100090460D460446C1F30747DDF8209026E089
:10572000701C24D0FDF7D4FFA0EB0900B04200D8D4
:10573000EEB92068012F16D0806925EA0000000428
:10574000000C12D00020404511D1002044F8300F49
:1057500020216173A073216941F020012161207330
:105760000120BDE8F0874069E7E70120EBE720680A
:10577000012F0AD0806925EA00000004000C06D041
:1057800000204045CCD00020EBE74069F3E7012042
:10579000F7E72DE9F047984616460D4604464FF0C8
:1057A00000094FF0200AC1F3074723E02068406951
:1057B000C043400515D42068016841F400710160C0
:1057C00021686FF480604861C4F8309084F83DA08F
:1057D00084F83E90216C41F00401216484F83C90EF
:1057E00020E0701C06D0FDF773FFA0EB0800B0426C
:1057F00003D816B1012F1ED020E02068012F14D04D
:10580000806925EA00000004000C17D044F8309F9E
:1058100084F80DA084F80E90216941F020012161E7
:1058200084F80C900120BDE8F087406925EA00006B
:105830000004000CEAD12068406901E0206880691A
:1058400025EA00000004000CB0D1ECE72DE9F0419E
:1058500016460D46044600274FF0200829E040690F
:10586000C043C0060DD454F8301B6FF010004861DF
:1058700044F80D7B04F81D89A777206A20622777FA
:1058800014E0FDF725FF801BA84200D88DB92068E1
:105890004069C04340060CD544F8307F84F80D8041
:1058A000A773206940F02000206127730120BDE824
:1058B000F08120684169C9434906D0D40020F6E749
:1058C00070B516460D4604461EE02046FFF709FE59
:1058D00008B1012070BD681C16D0FDF7F9FE801BD1
:1058E000A84200D885B920684069C04300060BD59E
:1058F000002044F8300F20216173A073216941F02A
:10590000200121612073E4E720684069C04300065C
:10591000DBD4002070BD000000487047988500204F
:105920000EB5072000E0642006F067F9FBF7D6FB10
:105930000028F8D102E0642006F05FF906F0FCF8D8
:105940000028F8D17F4A101DCDE90102A2F110050F
:10595000291DFBF7DBFB2B46A3F1340205F1480AB6
:10596000A2F10C01A1F10C00CDF800A005F076FF2A
:10597000DFED750A9FED750A754A002105F1640097
:1059800001F020F9A5F13402A2F10C0101F1180097
:10599000FAF75AFFA5F14008A5F1580698ED000A5C
:1059A000A5F1640786ED000AA5F1700987ED000AEC
:1059B00089ED000A98ED010A002086ED010A87EDC5
:1059C000010A89ED010A98ED020A86ED020A87EDC7
:1059D000020A89ED020A06F08FF907F0F5FC5D4C2A
:1059E0005D4920611020C8610846FEF79DFC08B1A2
:1059F000FCF7F8FA574908222831A1F1080002F013
:105A000027FC012020714FF0FF3B5946012006F092
:105A100079FE0128F9D12078400708D5207820F0B8
:105A2000040020704B4801992930FBF727FB607870
:105A300040070AD5607820F004006070414A291DB3
:105A40001032A2F12A00FBF7CFFAA07840070CD55C
:105A5000A07820F00400A0703E4802991630FBF7B1
:105A60002FFC95ED040A05F0F1FF364BCDF800A0B0
:105A7000103BA3F13402A2F10C01A1F10C0005F0DE
:105A8000EDFE97ED000A9FED351A89ED000AD6ED7F
:105A9000000ADFED331AC7ED000A60EE810A9FEDC0
:105AA000312A284B40EE210A98ED000A443BA3F12D
:105AB000240202F10C0101F1240040EE020AC6EDBD
:105AC000000A97ED010A89ED010AD6ED010AC7ED3A
:105AD000010A60EE810A40EE210A98ED010A40EECB
