:020000040800F2
:10000000E09E0020D5030008E17A0008416B00085B
:100010008D780008152900086DAA0008000000006E
:1000200000000000000000000000000015030008B0
:10003000653700080000000071030008A5A1000852
:10004000EF030008EF030008EF030008EF030008C8
:10005000EF030008EF0300086D3B0008EF03000802
:10006000EF030008733B0008793B0008EF0300082A
:10007000D9330008EF030008EF030008EF0300087E
:10008000EF030008EF030008EF030008EF03000888
:100090001929000825290008EF0300087F3B000804
:1000A000EF030008EF030008EF030008EF03000868
:1000B00065A20008EF030008EF030008EF03000843
:1000C000EF030008EF030008EF030008EF03000848
:1000D000EF03000839AA0008EF03000845AA00084A
:1000E000EF030008EF030008EF030008EF03000828
:1000F000EF030008EF030008EF030008EF03000818
:10010000EF030008EF030008EF030008EF03000807
:10011000EF030008EF030008EF030008EF030008F7
:10012000EF030008E5330008F1330008EF0300088F
:10013000EF030008EF030008EF030008EF030008D7
:10014000312900083D290008EF030008EF030008EB
:100150009D360008A9360008B536000859AA0008DF
:10016000EF030008EF030008EF030008EF030008A7
:10017000EF030008EF030008EF0300080000000091
:10018000EF030008EF03000800F002F800F0B2F8F7
:100190000AA090E8000C82448344AAF10107DA45E2
:1001A00001D100F0A7F8AFF2090EBAE80F0013F082
:1001B000010F18BFFB1A43F0010318473013010069
:1001C000501301000A444FF0000C10F8013B13F0EB
:1001D000070408BF10F8014B1D1108BF10F8015BA0
:1001E000641E05D010F8016B641E01F8016BF9D193
:1001F00013F0080F1EBF10F8014BAD1C0C1B09D1EA
:100200006D1E58BF01F801CBFAD505E014F8016B5B
:1002100001F8016B6D1EF9D59142D6D370470000ED
:100220000023002400250026103A28BF78C1FBD8FF
:10023000520728BF30C148BF0B6070476E2900F0DD
:10024000C784702900F0DF81662910F05E8365297C
:1002500010F05B83672910F05883612910F05783F1
:1002600003681B0A28BF41F08001692900F07484EB
:10027000642900F07184752900F06E846F2900F004
:100280009E85782900F0AB81E92900F03985E429C1
:1002900000F03685F52900F03385EF2900F09B85C5
:1002A000F82900F0AA810368DB0928BF41F080012A
:1002B000632901F07B81732901F08081E32901F03A
:1002C0008B81F32901F09081002070471FB510F059
:1002D00098FA01F0DFF90400002000210FF058FC2B
:1002E000401C6060002000210FF03CFCE0601FBD5E
:1002F00010B510BD01F0A0F91146FFF7E7FF0DF0B2
:1003000075FA01F07DFA03B4FFF7F2FF03BC01F0C8
:10031000C1FA00002C4B19680868B0E8F04F80F370
:100320000988BFF36F8F4FF0000080F3118870478A
:100330000000000008480068006880F308884FF05B
:10034000000080F3148862B661B6BFF34F8FBFF32D
:100350006F8F00DF00BF00BF08ED00E0DFF80C008A
:10036000016841F470010160704700BF88ED00E052
:10037000EFF30980BFF36F8F134B1A681EF0100F55
:1003800008BF20ED108A20E9F04F106009B44FF04B
:10039000500080F31188BFF34F8FBFF36F8F0EF0C3
:1003A00067FE4FF0000080F3118809BC19680868E7
:1003B000B0E8F04F1EF0100F08BFB0EC108A80F3C9
:1003C0000988BFF36F8F70475C000020EFF3058052
:1003D000704700000948804709480047FEE7FEE7EC
:1003E000FEE7FEE7FEE7FEE7FEE7FEE7FEE7FEE7E5
:1003F00004480549054A064B7047000055A200080D
:1004000089010008E0980020E09E0020E09A00208A
:10041000E09A002053EA020C00F069802DE9F04BCD
:100420004FF00006002B1FBFB3FA83F503FA05F463
:1004300024FA05F65E4012BF1643B2FA82F502FABC
:1004400005F4C5F120051EBF22FA05FC44EA0C04A0
:10045000203556EA044C4FEA144418BF641C4FF090
:1004600000084FF00009904271EB030C39D30029CA
:1004700019BFB1FA81F701FA07F6B0FA80F700FA6E
:1004800007F6C7F120071EBF20FA07FC46EA0C0654
:100490002037B6FBF4FCA7EB0507103F07F01F0B56
:1004A000CBF120060CFA0BFB2CFA06F644BFB34640
:1004B0000026202FA4BF5E464FF0000B5BEA060C1F
:1004C00008BF4FF0010B19EB0B09ABFB027C48EBAB
:1004D0000608C01B06FB02CC0BFB03CC71EB0C0126
:1004E000C1E70B46024641464846BDE8F08B13B5CE
:1004F0004FF000004FF00001AFF30080BDE81C405A
:10050000704700007CB51D4616460C00009001D0D7
:100510002044401E074B7B442A46694601903046E2
:1005200000F06FFB05461CB10020694600F07CFB23
:1005300028467CBD1907000070B50446856900682F
:10054000C10601D5302600E02026C00707D070BDC7
:10055000D4E9012130469047206A401C20626D1E7C
:10056000F6D570BD70B5044685690078C00707D11F
:1005700070BDD4E9012120209047206A401C2062F0
:100580006D1EF6D570BD0000F0B40D46018809055A
:1005900002D5214C7C4402E01F4C7C440E340021E7
:1005A00000F1240608E002F00F071209E75D42EAB5
:1005B00003721B097754491C52EA0307F3D10278EE
:1005C0000023120704D5702D06D009B1022311347F
:1005D0002246F0BC00F066BA01231034F8E770B58B
:1005E00004460D462146106800F02AFA02462946C4
:1005F0002046BDE870400023C6E7D21D22F0070365
:10060000D3E90023C0E70368126843F020030360C6
:100610000823C3610023B7E75C0C01002DE9F05FFC
:10062000894604464FF0000ADFF874B1FB44C0F875
:1006300020A02046E1688847002874D0252806D0ED
:10064000D4E901219047206A401C2062F1E700268E
:100650005F462046E16888472028054607DB312DA4
:1006600005D2781910F8200C08B10643F1E7B0075D
:1006700001D526F00406C4F81CA00027C4F818A071
:100680002A2D09D028460BF067FB38B304EB870806
:10069000303DC8F8185019E059F8041B204604EB07
:1006A00087029161E1688847012F054618D1E0690A
:1006B000002820DA26F020061DE0D8F8180000EB0C
:1006C000800005EB40003038C8F818002046E1688B
:1006D000884705460BF040FB0028EED1012F0AD0D9
:1006E0002E2D08D12046E16888477F1C0546022F41
:1006F00046F02006C4DBA069002803DA404246F039
:100700000106A061F00701D026F010066C2D0BD079
:10071000682D09D04C2D39D06A2D35D0742D35D0A7
:100720007A2D33D016E038E0E1682F46204688471E
:10073000B842054609D16C2F26D04FF48060E1689D
:10074000064320468847054604E06C2F1AD04FF434
:10075000807006430DB3A5F14100192802D8203559
:1007600046F400664A462946204626604E46FFF774
:1007700065FD80B101280BD0F61D26F0070000F1C1
:10078000080956E74020E4E78020D8E70020D6E7B4
:1007900006F104094DE7284652E7206ABDE8F09FBC
:1007A000EC0B010040EA010310B59B070FD1042AAE
:1007B0000DD310C808C9121F9C42F8D020BA19BA2C
:1007C000884201D9012010BD4FF0FF3010BD1AB191
:1007D000D30703D0521C07E0002010BD10F8013BE6
:1007E00011F8014B1B1B07D110F8013B11F8014B0D
:1007F0001B1B01D1921EF1D1184610BD40EA010326
:10080000024630B59B0710D14FF0013400E008C21A
:1008100008C91D1B9D4315EAC41FF8D013F0FF0142
:1008200002F8011B0DD01B0AF8E711F8013B002B61
:1008300002F8013B05D011F8013B002B02F8013B07
:10084000F3D130BD10B5431C02E010F8011B71B1AB
:100850008107FAD14FF0013202C88C1A8C4314EA96
:10086000C211F9D0C01A0A0603D0C01E10BDC01AAA
:1008700010BD0A0401D0801E10BD0902FCD0401E2C
:1008800010BD032A40F2308010F0030C00F01580F8
:1008900011F8013BBCF1020F624498BF11F801CB83
:1008A00000F8013B38BF11F8013BA2F1040298BFE8
:1008B00000F801CB38BF00F8013B11F0030300F052
:1008C0002580083AC0F0088051F8043B083A51F8F6
:1008D00004CBA0E80810F5E7121D5CBF51F8043BFB
:1008E00040F8043BAFF30080D20724BF11F8013B6E
:1008F00011F801CB48BF11F8012B24BF00F8013BD0
:1009000000F801CB48BF00F8012B704710B5203A22
:10091000C0F00B80B1E81850203AA0E81850B1E8B8
:100920001850A0E81850BFF4F5AF5FEA027C24BF6E
:10093000B1E81850A0E8185044BF18C918C0BDE865
:1009400010405FEA827C24BF51F8043B40F8043B2E
:1009500008BF7047D20728BF31F8023B48BF11F8E3
:10096000012B28BF20F8023B48BF00F8012B70473D
:1009700002F0FF0343EA032242EA024200F002B817
:100980004FF000020429C0F0128010F0030C00F0B8
:100990001B80CCF1040CBCF1020F18BF00F8012B36
:1009A000A8BF20F8022BA1EB0C0100F00DB85FEA04
:1009B000C17C24BF00F8012B00F8012B48BF00F8D0
:1009C000012B70474FF0000200B51346944696463F
:1009D000203922BFA0E80C50A0E80C50B1F1200152
:1009E000BFF4F7AF090728BFA0E80C5048BF0CC000
:1009F0005DF804EB890028BF40F8042B08BF70475E
:100A000048BF20F8022B11F0804F18BF00F8012BCF
:100A1000704770477047704710B500F0E7F90068FD
:100A200010BD10B5044600F0E1F9046010BD09687E
:100A30004A0501D540B27047C905FCD500B27047E0
:100A400009684A0501D5C0B27047C905FCD580B216
:100A5000704770B50C460546012A05D028788006F7
:100A600000D5EA69002302E0012305E05B1C934204
:100A700002D2E05C0028F9D1A869E618C01AA86182
:100A8000286A184428622846FFF756FD04E0D5E995
:100A9000012114F8010B9047B442F8D32846FFF720
:100AA00061FD70BD2DE9F0470D469946924604461A
:100AB00000F124080168880604D5E06921F01001DE
:100AC000216000E00120A84201DD471B00E0002773
:100AD000A1697A1902EB0900081AA0612078C00602
:100AE00002D42046FFF728FD002608E0D4E90121C2
:100AF0001AF806009047206A401C761C20624E457A
:100B0000F4DB2078C0060AD52046FFF715FD06E085
:100B1000D4E9012130209047206A401C2062381E11
:100B2000A7F10107F4DC07E0D4E9012118F805007A
:100B30009047206A401C2062281EA5F10105F3DCC5
:100B40002046FFF70FFD2078000602D50220BDE801
:100B5000F0870120FBE700002DE9F0410646002464
:100B600010687529314616A510D0FFF760FF0028E0
:100B700002DA404213A507E031688A0701D512A5C1
:100B800002E0490704D511A5012401E0FFF758FF51
:100B900000210A2206F1240709E0B0FBF2FCB0FBB9
:100BA000F2F302FB1C00303078541846491C002830
:100BB000F3D123462A463046BDE8F041FFF772BF25
:100BC000000000002D0000002B00000020000000AD
:100BD00011680268006A530501D508700AE0D30560
:100BE00001D5088006E0130603D5C217C1E900024B
:100BF00000E008600120704701694A1C0261087822
:100C0000704700B58FB0CDE901310021059105494C
:100C10007944CDE9031011466846FFF7FFFC0FB099
:100C200000BD0000E5FFFFFF0A6802F8010B0A6043
:100C30007047D1E900239A4202D2531C0B60107016
:100C4000704700002DE9FF5F15468A460446DFF82D
:100C5000AC80F8440027D8E900103E46CDE90010EA
:100C600010E03AF816106A4602A800F0C1FC411CD8
:100C700007D02178890603D5E269391891420DD849
:100C80000744761C2078800602D5E069B84205DD6D
:100C9000AE42E6DB3AF816000028E2D1A069C01B9C
:100CA000A0612046FFF748FCD8E90010CDE900100C
:100CB000002017E03AF818106A4602A800F098FCE5
:100CC000B0F1FF3F81460BD000250DF1080B05E088
:100CD000D4E901211BF8050090476D1C4D45F7D361
:100CE00008F10100B0428046E4DB206A384420620B
:100CF0002046FFF737FCBDE8FF9F0000DA05010042
:100D00002DE9F0418046D21D22F007020025D2E9EC
:100D10000002F52915A614D0011E72F1000106DAB1
:100D20000023D0EB030063EB020211A608E0D8F821
:100D300000108B0701D50FA602E0490701D50EA6CA
:100D400001251146002408F1240704E000F052F8C0
:100D500030323A55641C50EA0102F7D12B46324634
:100D600021464046BDE8F041FFF79CBE0000000070
:100D70002D0000002B0000002000000030B40021F6
:100D800000F1240408E002F00705D208303542EAF9
:100D90004372DB086554491C52EA0305F3D1046829
:100DA000002310A2250707D5A40600D421B1C469E9
:100DB00001230DA2641EC46130BCFFF773BE10B5E1
:100DC000044621461068FFF73BFE02462046BDE878
:100DD00010400023D2E7D21D22F00701D1E9002301
:100DE000CCE7000000000000300000000048704721
:100DF0007C98002030B5B0F10A024FEA900E71F1F4
:100E000000034EEA817EB0EB0E0061EB91014FEAE8
:100E1000101E4EEA017E10EB0E0041EB11114FEA5D
:100E2000102E4EEA016E10EB0E0041EB11214FEA3D
:100E3000104E4EEA014E10EB0E0041EB11414018EE
:100E400041F100014FEAD00040EA41704FEAD10180
:100E500010EB80054FEA810444EA907444EB0104EE
:100E60006D1944EB0404521BA3414FF0000348BF2B
:100E70000A3200D530BD401C41F1000130BD704741
:100E80002DE9FF4F0C461E464FF0FF378BB0D2E9DD
:100E90000001DDF860800A908A46C1F30A5505B961
:100EA0003D46002108464FF00000BAF1000F00F463
:100EB000400005DA00EB80004FF4400101EA5000E9
:100EC0004FEA9059B9F1010F00DDB9460A9850EA8E
:100ED0004A000ED044F61050A5F2FF3545432F14BA
:100EE000B8F1000F1ED07542291E1EDDC9F10002A7
:100EF0001CE0B8F1010F4FF0000001D0302103E0F9
:100F0000F24305E02154401CB042FBDB3046002296
:100F1000002121540B99C1F80880C1E900200FB0CD
:100F2000BDE8F08FBD1B6D1CDEE74A4600DA694262
:100F300006A800F0F3FB06AB93E8070003AB83E8D9
:100F4000070050460A9900F0ABFC8DE80700A0F5B9
:100F500000501F3800900398002D0ADD42F21F0157
:100F60004A460844002303A90390684600F014FF92
:100F700009E0A0F500504A461F38002303A903905A
:100F8000684600F01EFF8DE807000004000C03D047
:100F90004FF0FF30410800E01046B8F1000F03D0D9
:100FA0000022009215461EE0751E05D4FFF722FFB1
:100FB000303262556D1EF9D5B3460122084302D086
:100FC00000227F1C04E02078302801D100227F1EFF
:100FD000002A099784D01DE0112D07DAFFF70AFFD8
:100FE000303262556D1C50EA0102F5D1084302D03F
:100FF0000098C8B10EE00021681E05E0235C625C29
:1010000063542254401E491C8142F7DBAB46A81BA7
:10101000401E0990002004F80B000B98099AC0F8B4
:101020000880C0E9002B7AE711264FF0000857E747
:101030002DE9F04F88460446D21D22F0070191B0F9
:10104000D1E90001CDE90A0109F042FD02460B9801
:10105000C00F01D02D2007E02068810701D52B208B
:1010600002E0202101EAC000032A099001D0072AEA
:1010700005DB03464146204600F010FB0BE12078DB
:10108000800601D5E06900E00620B8F1650F8146D1
:1010900006D0B8F1660F18D0B8F1670F70D131E003
:1010A0000020B9F1110F009001DB112301E009F1DB
:1010B00001030AAA01A90CA8FFF7E2FEDDE90C7002
:1010C000002609F10105834647E001204B460090C8
:1010D0004FF000470AAA01A90CA8FFF7D1FEDDE9ED
:1010E0000DB00C995D46002610B909F101000D18EC
:1010F000B9EB050003D4C0F1FF3609F10105A5EBFA
:1011000009002BE0B9F1010F01DA4FF001090020CD
:10111000B9F1110F0090484601DD112300E00346AC
:101120000AAA01A90CA8FFF7ABFEDDE90C704D4639
:1011300000268346207800070AD4AB4500DA5D46D6
:1011400001A8012D04DD411911F8011C302907D037
:101150004F4502DA17F1040F04DA012082460FE04E
:101160006D1EEEE7002F02DCED1B3E4403E0781C11
:10117000A84200DD7D1CB81B00F1010A4FF00047BA
:101180002078000703D4AA4501DB4FF0FF3A002185
:10119000B7F1004F0DF143088DF8431024D0022021
:1011A0002B23002F01DA7F422D230A21021EA0F1FA
:1011B000010000DC5FB197FBF1FC97FBF1F201FB52
:1011C0001C7C17460CF1300C08F801CDEEE7A8F1B5
:1011D000010003702188090501D5452100E0652142
:1011E000A0F1010800F8011C09980FA9A1EB08075C
:1011F000FF1D00B10120411901EBEA70A1693844DB
:10120000081A401EA0612078C00602D42046FFF7CD
:1012100093F9099828B1D4E901219047206A401C2C
:1012200020622078C00622D52046FFF785F91EE00F
:10123000002E04DBB34502DD01A8805D00E0302014
:10124000D4E901219047206A401C2062761CAAF153
:1012500001005FEA000A0AD100F01CFAC0680168C8
:10126000405CD4E901219047206A401C2062281E7E
:10127000A5F10105DCDC07E0D4E9012118F8010B38
:101280009047206A401C2062381EA7F10107F3DC5A
:101290002046FFF767F9032011B041E62DE9F04F32
:1012A00004460D46D21D22F0070089B0D0E9009710
:1012B0004846394609F00CFC0246F80F01D02D23B0
:1012C00007E02068810701D52B2302E0202101EAF5
:1012D000C0038DF820300BB1012000E00020032A6C
:1012E000824601D0072A04DB2946204600F0D6F9C1
:1012F0003FE12078800601D40D2500E0E569C7F3C1
:101300000A560D2D49DA00214FEA175B08464FF0C7
:101310000000002F00F4400007DA00EB80004FF4DB
:10132000400100EBD07001EA60008115012901DD68
:101330004FF0FF3100224FEA850CBCF1180F06D3A5
:101340001346ACF118004FF08052C24003E04FF456
:10135000801323FA0CF30CF10C0CBCF1200F04D316
:10136000ACF1200C09FA0CF001E007FA0CF00029AE
:101370004FF0004801DD18B90FE00ED140450CD305
:1013800019EB02095F4121B9404502D19F4329EA87
:101390000209BBEB175F00D0761C2088000502D540
:1013A0007B48784402E07A487844193808AA302308
:1013B00002F80A30037C0AF10101002E0AF1020A48
:1013C00053546A4602DC4FF0300101E04FF0310126
:1013D0004FF001088DF8001002D0A6F2FF3603E0AE
:1013E00059EA470100D06B4E002D02DC2178090735
:1013F00004D54FF002082E218DF80110C4460021BB
:101400000BE0C7F303433F01C35C491C6D1E02F8A8
:101410000830052908F1010801DA002DF1DC00216E
:101420000CE000EB1973491C1B786D1E082902F8AB
:1014300008304FEA091908F1010801DA002DF0DC43
:1014400021688B0602D516E0A8F10108E04505DD0C
:1014500002EB080313F8013C302BF5D0B8F1000F74
:1014600009DD02EB080313F8013C2E2B03D1090719
:1014700001D4A8F10108002D05DD3E2102F8081075
:101480006D1E08F10108407C002E02F8080008F1EA
:10149000010804DA2D20764202F8080002E02B2031
:1014A00002F808000A214FF47A70864208F1010818
:1014B0000BDB96FBF0F3303302F8083096FBF0F3C9
:1014C00008F1010800FB136601E0642E0CDB6420C8
:1014D00096FBF0F3303302F8083096FBF0F308F196
:1014E000010800FB136601E00A2E06DB96FBF1F013
:1014F000303002F8080008F1010896FBF1F001FB1A
:101500001060303002F80800A16908F1010808EB0A
:10151000050202EB0A00081AA0612078C00602D476
:101520002046FFF709F8216A08AE01EB0A002062A5
:1015300004E0D4E9012116F8010B9047BAF1010A41
:10154000F7D22078C00602D52046FEF7F5FF6E469A
:1015500009E016F8010B3E280FD0D4E9012190478D
:10156000206A401C2062B8F10108F2D22046FEF742
:10157000F9FF09B00320BDE8F08F206A28442062FB
:1015800003E0D4E90121302090476D1EEBD3F8E74A
:10159000E5FF000002FCFFFF10B5436913B1AFF394
:1015A000008001E0FFF755FA012010BD127800F12C
:1015B00024010A7000224A700122EDE711684FF001
:1015C000FF32E9E710B5436913B1AFF3008001E0E2
:1015D000FFF738FB012010BD128800F1240182843E
:1015E0000022C2840122EDE711684FF0FF32E9E7E3
:1015F00070B516460C46054600F044F8036893F8AB
:101600000101012806D0FF2C0FD8185D68B1012018
:101610002C7070BDD3F807013246214603F2071340
:1016200003442846BDE8704018474FF0FF3070BDB6
:10163000004870477C9800207546FFF7F9FFAE46DA
:1016400005006946534620F00700854618B020B5CE
:10165000FEF7CEFEBDE820404FF000064FF0000739
:101660004FF000084FF0000B21F00701AC46ACE84A
:10167000C009ACE8C009ACE8C009ACE8C0098D46B7
:101680007047000010B500F005F8001D10BD00BF48
:1016900001E50000004870479C9800202DE9F041CA
:1016A0001F46044603260168072A01F4006004DB94
:1016B00008B116A505E016A503E008B115A500E0E0
:1016C00015A521F010002060A069C01EA0610FB117
:1016D000401EA0612046FEF72FFF4FB1D4E9012143
:1016E00038469047206A401C2062C01C206206E0F9
:1016F000206AFAE7D4E9012115F8010B9047761E1C
:10170000F8D22046FEF72EFFBDE8F0814E414E0094
:101710006E616E00494E4600696E66002DE9F04725
:10172000814616468AB0354878440DC88DE80D00CC
:1017300032487844801C03AC0DC884E80D0041F6A3
:101740009B300844372190FBF1F290FBF1F5A5F1B5
:10175000800501FB12041B3C02D56442012000E01D
:101760000020DFF898A080460027FA44AAF1BE0ABC
:101770000EE0E0070AD03246684607EB4701012336
:101780000AEB810100F01DFB8DE8070064107F1C4F
:10179000002CEED1194F7F44AE3F19E0E80715D079
:1017A00007EB04100DF1180A90E80E008AE80E000D
:1017B000C068F04201D1981908903246012306A969
:1017C00003A800F0FEFA03AB83E807006D10641C69
:1017D000002DE3D14FF0010332466946B8F1000F06
:1017E00003A802D000F0D8FA01E000F0EAFAC9E953
:1017F0000001C9F808200AB0BDE8F087F0FC00003D
:1018000010B50446AFF300802046BDE81040FEF757
:101810007ABD70474FF0013C50F8042B51F8043B5F
:101820009A4221D1A2EB0C03934313EACC1317D1B4
:1018300050F8042B51F8043B9A4215D1A2EB0C034B
:10184000934313EACC130BD150F8042B51F8043B0B
:101850009A4209D1A2EB0C03934313EACC13DBD0D9
:101860004FF00000704700BFD01A01BAB1FA81F101
:1018700001F0180122FA01F0CB40C1F12001DBB2E6
:10188000C0B2C01A2CFA01F3D11A914311EAC31164
:10189000E6D1704701491820ABBEFEE726000200E2
:1018A0005FEA400C08BF91F0000F4FEA8C234FEA2B
:1018B000C12243EA51514FEA1C5018BF00F5F040D5
:1018C0004FEA300018BF41F000415FEA6C5C00F065
:1018D0002980BCF1FF3F08BF40F080407047130CE7
:1018E00006BF12044FF0100C4FF0000C130E04BF93
:1018F00012020CF1080C130F04BF12010CF1040CBE
:10190000930F04BF92000CF1020CD30F04BF5200DE
:101910000CF1010C11464FF00002A0F11F00A0EBEA
:101920000C00704711F0004F08BF704731F00041C4
:101930003FF4D5AF0B0C06BF09044FF0100C4FF06D
:10194000000C0B0E04BF09020CF1080C0B0F04BFB6
:1019500009010CF1040C8B0F04BF89000CF1020C7F
:10196000CB0F04BF49000CF1010CCCF12003A0EB1C
:101970000C0022FA03F302FA0CF241EA030100F12F
:101980000100704720F07F4C80EA030023F07F477E
:10199000ACEB070303F57C5300F0004003F1FF03B9
:1019A0002DE980494FEA154B09B44FEA144325EA63
:1019B0000B4E24EA03480FF2042606EB13274908CE
:1019C0003E785FEA320203FB0667C7F5000707FBB4
:1019D00006F64FEA54374FEAD64606F1020607FBF1
:1019E000066CCCF1005C4FEA1C472CEA074C07FB65
:1019F00006F40CFB06F504EB15464FEA961634BFC9
:101A000000204FF000404FEAD13706FB07FC4FEAB9
:101A10001C4C0CFB0BF7D21B03FB0CF761EB070113
:101A20000CFB0EF7B0EB074072EB17420CFB08F70C
:101A300034BFA2EB0742B2EB074261EB17414FEA1A
:101A40000C444FEA910706FB07FC4FEA1C4C0CFBC9
:101A50000BF7B0EBC74072EB573203FB0CF734BF08
:101A6000A2EBC742B2EBC74261EB57310CFB0EF75A
:101A7000B0EBC70072EB57720CFB08F734BFA2EB58
:101A8000C702B2EBC70261EB5771039F4FEA816156
:101A900041EA921104EBCC044FEAD1374FEA82625B
:101AA00006FB07FC42EA90124FEA80604FEA1C4CAA
:101AB0000CFB0BF7D21B03FB0CF761EB07010CFBD4
:101AC0000EF7B0EB074072EB17420CFB08F734BF80
:101AD000A2EB0742B2EB074261EB17414FEA8C558C
:101AE0004FEA910704EB9C2406FB07FC4FEA1C4CD1
:101AF0000CFB0BF7B0EBC74072EB573203FB0CF754
:101B000034BFA2EBC742B2EBC74261EB57310CFBCB
:101B10000EF7B0EBC70072EB57720CFB08F734BF3F
:101B2000A2EBC702B2EBC70261EB577115EB4C2574
:101B30004FEA816141EA92114FEA82624FEAD1375E
:101B400042EA901206FB07FC44F100044FEA806071
:101B50004FEA1C4C0CFB0BF7D21B03FB0CF761EBA1
:101B600007010CFB0EF7B0EB074072EB17420CFBC2
:101B700008F734BFA2EB0742B2EB074261EB174113
:101B800015EB1C154FEA813141EA92414FEA82324E
:101B900042EA90424FEA80304FEA0C7644F100046A
:101BA00048EA03434EEA0B484FF0000EB2EB080C34
:101BB00071EB030724BF624639464EEB0E0E4FF021
:101BC000000B0018524149414BEB0B0BB2EB080CD8
:101BD00071EB03077BF1000B24BF624639464EEBE5
:101BE0000E0E4FF0000B0018524149414BEB0B0B0E
:101BF000B2EB080C71EB03077BF1000B24BF6246CC
:101C000039464EEB0E0E51EA020718BF46F00106A8
:101C100016EB0E7655F1000254F1000103D5BDE834
:101C20008901BDE80088BDE88901BDE80048B61912
:101C3000524141EB0101A3F10103704780807F7E97
:101C40007D7C7B7A79787776767574737271717032
:101C50006F6E6E6D6C6C6B6A6A69686867666665E4
:101C60006464636362616160605F5F5E5E5D5D5C72
:101C70005C5B5B5A5A5959585857575656555555E3
:101C80005454535352525251515050504F4F4F4E43
:101C90004E4D4D4D4C4C4C4B4B4B4A4A4A49494991
:101CA00048484847474747464646454545444444D3
:101CB000444343434342424242414141002B9C46FC
:101CC00030D477002BD01CB54FEA370703B44FF060
:101CD00010004FF01001BAF1000F06D0BCF1000F58
:101CE000DCBF40F0080040F008014FF000000FBCDE
:101CF000BDE810400BF1010BBBF1010F08BF5FEA1B
:101D0000170722BF12F1010211F101014FF000414A
:101D100043F1000300F0004043EA00007047F9D3AC
:101D20005708D0E746EA064613F1400F4FEA164639
:101D30001FDD13F1200FDFBF16430A4600212033B9
:101D40005B42BED0C3F1200746EA064602FA07F717
:101D50004FEA164646EA0706C3F1200722FA03F2C5
:101D600001FA07F721FA03F14FF0000342EA0702F4
:101D7000A7E746EA020646EA06464FEA164646EA5C
:101D80000106BCBF46EA0646360C4FF000034FF092
:101D900000024FF0000194E72DE9804C9A469346EB
:101DA00070B491E8380007C831EA400C48BF34EA03
:101DB000430C03D5FFF7E6FDFFF780FFF0BCBDE85D
:101DC000008C2DE9804C9A46934670B491E8380017
:101DD00007C810F0804F08BF13F0804F03D100F008
:101DE00005F8FFF76BFFF0BCBDE8008C20F07F47E3
:101DF00080EA030023F07F4C07EB0C03A3F57C5330
:101E000000F00040A3F1FE0392F0000F00F0B38059
:101E100095F0000F00F077802DE901494FEA11405D
:101E20004FEA144621EA004800FB06FC24EA064774
:101E300008FB06F607FB08F800FB07F718EB064857
:101E40004CEB164C4FEA124B18EB07484FEA15467D
:101E50004CEB174022EA0B4E0BFB06FC25EA06472B
:101E60000EFB06F607FB0EFE0BFB07F71EEB064EFE
:101E70004CEB164C4FF000061EEB074E4CEB174B8D
:101E800018EB0B0840F1000018EB0E0B58EB0008A4
:101E900040F100008F1A4FF000013CBFC943661BA0
:101EA00014BFB5EB040C00213CBFC943F61B4FEA3D
:101EB00017444EEA8E0E27EA04454FEA1C4704FBFE
:101EC00007622CEA074C05FB07F70CFB05F604FB41
:101ED0000CFC16EB074642EB174216EB0C4642EBA6
:101EE0001C421BEB060658EB0202414146EA9E06E5
:101EF00001D5BDE80189B619524141EB0101A3F1B9
:101F00000103BDE801894FEA14454FEA114724EA6D
:101F1000054621EA074C05FB07F406FB07F70CFB17
:101F200006F105FB0CFC11EB074144EB17444FEAAB
:101F3000124711EB0C4144EB1C4422EA074C05FB11
:101F400007F206FB07F70CFB06F605FB0CFC16EB8D
:101F5000074642EB174216EB0C4642EB1C456A184B
:101F600054F1000148BF7047B619524141EB0101DD
:101F7000A3F10103704795F0000F37D04FEA1142EB
:101F80004FEA144721EA024624EA074C02FB07F114
:101F900006FB07F70CFB06F402FB0CFC14EB0744F2
:101FA00041EB17414FEA154714EB0C4441EB1C4140
:101FB00025EA074C02FB07F506FB07F70CFB06F6C4
:101FC00002FB0CFC16EB074645EB174516EB0C46DF
:101FD00045EB1C42121951F1000148BF7047B61978
:101FE000524141EB0101A3F1010370474FEA14454F
:101FF0004FEA114724EA054621EA074C05FB07F1A1
:1020000006FB07F70CFB06F24FF0000605FB0CFC85
:1020100012EB074241EB174112EB0C4251EB1C4112
:1020200048BF7047921841EB0101A3F101037047CB
:1020300008F08ABD08F01EBE10B510EE100A0EF0B2
:102040006FFB41EC100B08F03FFF51EC100B0DF053
:10205000C1FD00EE100A10BDF0EE400AF5EEC00A18
:10206000F1EE10FA02DDB0EE600A7047B1EE600AE0
:10207000FBE70000002803D09FED020A80ED000A74
:102080007047000000000000002803D0B3EE060AED
:1020900080ED000A7047000070B52DED0C8B84B008
:1020A00006460C4615469FED990AF0EE408A9FEDD4
:1020B000970AB0EE409A9FED950AF0EE40BA9FED78
:1020C000930AF0EE409A9FED910AB0EE40AA0EB14D
:1020D00004B11DB904B0BDEC0C8B70BD8C48FFF78A
:1020E000C9FF8C48FFF7D0FF8A48D0ED000A9FED6A
:1020F0008A1A60EE810AB0EE600A00F025F9F0EE6F
:10210000408A28EEA80AF0EE408A8248D0ED000A04
:10211000B0EE001A60EE810A9FED7F1A60EE810A30
:10212000B0EE600A00F010F9B0EE409A29EE090A0C
:10213000B0EE409ADFED790AB7EE000A00EEA80A89
:10214000DFED770A00EEC90ADFED760A20EE200AFD
:10215000754880ED000A6E4890ED000ADFED730AC5
:1021600080EE201AB7EE000A31EE000A20EE000AD7
:102170006D48D0ED000A80EE801A6D4880ED001A9F
:1021800094ED000AB5EEC00AF1EE10FA0DD194ED0F
:10219000010AB5EEC00AF1EE10FA06D194ED020A7A
:1021A000B5EEC00AF1EE10FA46D09FED580AB0EE37
:1021B000408A0020019002900390D4ED000A60EE66
:1021C000A00A94ED011AD4ED011A41EE210A94ED12
:1021D000021AD4ED021A41EE210AB0EE600A00F0B4
:1021E000A9F8B0EE408A94ED000A20EE080A8DEDC1
:1021F000010A94ED010A20EE080A8DED020A94ED21
:10220000020A20EE080A8DED030ADDED010AF1EE67
:10221000600AB0EE600AFFF70BFFF0EE409A9DED0A
:10222000031AF0EE410A9DED021AB0EE410AFFF7E3
:1022300001FFB0EE40AA07E09FED340AF0EE409AAD
:102240009FED320AB0EE40AA95ED000AB5EEC00A45
:10225000F1EE10FA0DD195ED010AB5EEC00AF1EEDE
:1022600010FA06D195ED020AB5EEC00AF1EE10FAA9
:102270003CD0B0EE690A00F067F8B0EE408AB0EEEC
:10228000690AFFF7D9FEB0EE40DAB0EE4A0A00F074
:102290005BF8F0EE40AAB0EE4A0AFFF7CDFEB0EED2
:1022A00040BA28EE2A0AD5ED010A20EE200AD5ED23
:1022B000000A0DEE200A68EE0B0A95ED021A00EEF8
:1022C000810AB0EE40CA95ED010A20EE0B0AD5ED69
:1022D000020A0AEEE00AF0EE40CAF0EE6C0AB0EE36
:1022E0004C0AFFF7A7FEF0EE40BA03E09FED070AA5
:1022F000F0EE40BAB0EE4A1AF0EE690AB0EE6B0AA0
:1023000030460AF027FA00BFE4E6000000000000B3
:10231000A4020020A802002035FA8E3CC1BFAD3BCC
:102320009DF8C5362F7C1C41AC020020506CC24A7F
:10233000B002002010B509F01BF8B7EE001AC1EE8C
:10234000000AB0EE600A10BD10B510EE100A0EF0D3
:10235000E7F941EC100B08F0A7FF51EC100B0DF062
:1023600039FC00EE100A10BD2DE9F0412DED028B75
:102370009AB00546B0EE408A0E46174698460020B1
:102380001790189019901490159016904DB146B171
:102390003FB1B8F1000F04D0B5EEC08AF1EE10FAEB
:1023A00005D100201AB0BDEC028BBDE8F08196ED9E
:1023B000000A8DED170A96ED010A8DED180A96EDCB
:1023C000020A8DED190A97ED000A8DED140A97EDBA
:1023D000010A8DED150A97ED020A8DED160A17AA6E
:1023E00014A928460AF008F8402104A8FEF7EAFAE2
:1023F00000200090019002900390002417A904A8E7
:102400000CF0B6FB00BF30E004A800EB041090ED28
:10241000000AD5ED000A20EE200A04A800EB041003
:10242000D0ED010A95ED011A00EE810A04A800EB37
:102430000410D0ED020A95ED021A00EE810A04A8FC
:1024400000EB0410D0ED030A95ED031A00EE810AAB
:1024500020EE080AF0EE000A80EE201A684600EB33
:10246000840080ED001A601CC4B2042CCCDB002474
:1024700010E005EB840090ED000A684600EB840054
:10248000D0ED000A30EE200A05EB840080ED000A52
:10249000601CC4B2042CECDB28460BF0E5FE0120E6
:1024A00080E7000000F012F8074C00F012F800F08E
:1024B0000EF800F00DF800200CF0AAFB206064205C
:1024C0000BF0B7F9F1E70000640200207047704795
:1024D000704770472DE9F0412F4C30480025627855
:1024E000A270017D20466170C0784FF4FA78012710
:1024F00004F1140619B112B93178022909D078B162
:1025000002F018FCE168401A404509D33570E570C7
:102510000DE00028F4D102F00DFCE060E770EFE779
:10252000307820B1012822D1207910B325E01C4851
:10253000B0F962000DF0BBFD41EC100B08F0D0FDCE
:102540009FED181B51EC100B53EC112B0DF0BCFF41
:102550000CD2E088401C80B2E080142807D3E580CC
:102560003770BDE8F041012001F0BEBAE580BDE85A
:10257000F08102F0DFFB2061277102F0DBFB2169B3
:10258000401A4045F3D3002001F0AEFA022030702B
:102590002571E570EBE7000084020020988600209A
:1025A0004C970020000000000064B9400122102177
:1025B000014802F0B9BB00000000024000221021D7
:1025C000014802F0B1BB000000000240704700006B
:1025D00001221146014802F0A7BB0000000402409E
:1025E00000220121014802F09FBB000000040240CC
:1025F00030B5437804781B021BB2234300EE103A37
:10260000194CB8EEC00AD4ED000A20EE200A81ED84
:10261000000AC37885781B021BB22B4300EE103AE8
:10262000F8EEC00A94ED000A60EE800AC1ED010ADE
:10263000437904791B021BB2234300EE903AF8EE73
:10264000E00A20EE800ADFED090A81ED020AD0F8E7
:10265000060020F07F4000EE100AB8EE400A20EE9F
:10266000200A82ED000A30BDF800002000401C4224
:1026700070470BF0DEB80AF06FBE000010B542786C
:102680000378120212B21A4300EE102A124BB8EE6F
:10269000C00AD3ED010A20EE200A81ED000AC278BB
:1026A0008478120212B2224300EE102AF8EEC00A19
:1026B00093ED010A60EE800AC1ED010A42790079CA
:1026C000120212B2024300EE902AF8EEE00A20EE67
:1026D000800A81ED020A10BDF800002010B5FFF756
:1026E00075FFFFF7C5FF0AF07FF908B1802402E00B
:1026F0000AF0E6F804460AF043FB10B144F040004B
:1027000010BD0AF0CFFA204310BD00002DE9FC41B6
:102710000546002016460C4600900190FFF74EFF3C
:10272000922000F0BDF806226946122000F09AF8C7
:10273000FFF73CFF9DF801009DF80010000200B279
:10274000084300EE100A464FB8EEC00AD7ED000A63
:1027500020EE200A84ED000A9DF803009DF8021087
:10276000000200B2084300EE100AF8EEC00A97ED2E
:10277000000A60EE800AC4ED010A9DF805009DF88C
:102780000410000200B2084300EE900AF8EEE00ADE
:1027900020EE800A84ED020AFFF722FF0822694634
:1027A000002000F05FF8FFF713FF9DF800000F28EE
:1027B00030D19DF803009DF80210000200B20843DA
:1027C00000EE100AD7ED010AB8EEC00A20EE200A8A
:1027D00085ED000A9DF805009DF80410000200B286
:1027E000084300EE100AF8EEC00A97ED010A60EE09
:1027F000800AC5ED010A9DF807009DF80610000249
:1028000000B2084300EE900AF8EEE00A20EE800ADB
:1028100085ED020AFFF7D2FEA22000F041F8022265
:102820006946222000F01EF8FFF7C0FE9DF8000068
:102830009DF80110C00040EA5110B0F5806F01DB37
:10284000A0F5006000EE100AB4EE001AF8EEC00A1F
:10285000B3EE070A00EE810A86ED000ABDE8FC81AE
:10286000F800002070B514460D4640F0800000F0DE
:1028700017F806E0552000F013F8641E05F8010B68
:10288000E4B2002CF6D170BD10B50C4640F08000CB
:1028900000F006F8552000F003F8207010BD00008D
:1028A00001B582B04FF47A700090012301AA02A909
:1028B000024803F049F99DF804000EBDBC36002023
:1028C00002784078D20042EA5010B0F5806F01DB08
:1028D000A0F5006000EE100AB4EE001AF8EEC00A8F
:1028E000B3EE070A00EE810A81ED000A704710B5C9
:1028F0000C46FFF7D5FF2046BDE81040FFF7D0BFDC
:1029000010B50AF0E9FCBDE81040014805F0EABF47
:1029100064380020FEE70000014801F05EBC0000C2
:1029200018360020014801F058BC0000183600207D
:10293000014801F052BC000040360020014801F07F
:102940004CBC00004036002010B500210C4601EBC5
:10295000810200EB82021369642B02D25B1C1361BB
:1029600000E05473491CC9B20829F0D310BD00001F
:10297000A1F20121072924D8C9B24B1C01EB810126
:1029800020F82130002300EB810001210361417315
:102990001188DFED0C0A49BA00EE101A4180B8EE3A
:1029A000400A20EE200ADFED080A20EE200A80ED22
:1029B000010A518849BA0181918849BA4181D17986
:1029C000017370470000B4430000003930B587B090
:1029D00005460020009102900821CDE9030114462C
:1029E0008DF81400284601F0E2FB0028FAD006AB6F
:1029F00022466946284601F07BFA07B030BD000048
:102A000064200AF016FF074C07491422A1F11400B4
:102A1000FDF737FF00200CF0FBF8206001200AF0E2
:102A200008FFF1E7D4010020988600200048704795
:102A30008486002000F0A4F864200AF0FAFE0A4C14
:102A400000F08EFA00F09AF800F088FA00F0F0F941
:102A500000F00CF800F0F8F900200CF0D9F8206034
:102A600001200AF0E6FEEBE77402002010B5404CAE
:102A70004049F7EE001A34F9240F00EE100AB4F9B9
:102A80000200B8EEC01A00EE100AB4F97800F8EEB1
:102A9000C00A00EE100AA1F13400B8EEC00A05F039
:102AA000E3F8BDEEC00A3349F7EE001A10EE100A43
:102AB0006831A4F87A00B4F9140000EE100AB4F9F1
:102AC0001600B8EEC01A00EE100AB4F98000F8EE55
:102AD000C00A00EE100AA1F13400B8EEC00A05F0F9
:102AE000C3F8BDEEC00A2349F7EE001A10EE100A33
:102AF000D031A4F88200B4F9280000EE100AB4F92D
:102B00002A00B8EEC01A00EE100AB4F98800F8EEF8
:102B1000C00A00EE100AA1F13400B8EEC00A05F0B8
:102B2000A3F8BDEEC00A1449F7EE001A10EE100A21
:102B3000A4F88A00B4F93C0000EE100AB4F93E0093
:102B4000B8EEC01A00EE100AB4F99000F8EEC00A10
:102B500000EE100AA1F13400B8EEC00A05F084F8C6
:102B6000BDEEC00A10EE100AA4F8920010BD0000DD
:102B7000489400206C950020A49600207047000027
:102B800010B56B4800212DED0C8B01709FED698A0B
:102B9000B1EE043A80ED248AF9EE042A9FED669A9C
:102BA000B0EE492ADFED659AB0EE481AF0EE480A19
:102BB000F0EE691AB0EE080ABC3005F087F89FED18
:102BC00060AAB0EE4A3ADFED5FAAB0EE492AF0EE15
:102BD000691AF0EE6A2AB0EE481ADFED5B8AF0EE71
:102BE000680A9FED5ABA5248B0EE4B0AF03005F031
:102BF0006DF8DFED57BAB0EE6B3A9FED56CAF0EEC6
:102C00004C2ADFED55CAB0EE6C2A9FED54DAB0EED7
:102C1000481AF0EE4D1ADFED52DAB3EE0E0A5148C3
:102C2000F0EE6D0A05F052F84E48B0EE4A3AF0EE7A
:102C30006A2AB0EE492AF0EE691AB0EE481AF0EEB0
:102C4000680AB0EE4B0A343005F040F84548B0EE63
:102C50006B3AF0EE4C2AB0EE6C2AF0EE4D1AB0EE64
:102C6000481AF0EE6D0AB3EE0E0A683005F02EF841
:102C70003C48B0EE4A3AF0EE6A2AB0EE492AF0EE4D
:102C8000691AB0EE481AF0EE680AB0EE4B0A9C30B2
:102C900005F01CF83348B0EE6B3AF0EE4C2AB0EE7B
:102CA0006C2AF0EE4D1AB0EE481AF0EE6D0AB3EE53
:102CB0000E0AD03005F00AF8B0EE4A3AF0EE6A2A71
:102CC000B0EE492AF0EE691AB0EE481AF0EE680A42
:102CD000B0EE4B0A244804F0F9FF2348B0EE6B3AFB
:102CE000F0EE4C2AB0EE6C2AF0EE4D1AB0EE481A17
:102CF000F0EE6D0AB3EE0E0A343004F0E7FF1A4826
:102D0000B6EE083AFEEE082AB7EE082AFFEE081AD9
:102D10009FED161AF0EE480AB0EE680A683004F02B
:102D2000D5FFBDEC0C8BBDE8104000F0C1BF00002A
:102D3000489400200000000000008046000080C68B
:102D40000000FA450000FAC5CDCC4C3D9A99993F58
:102D500000401C4500401CC500409C4500409CC5EF
:102D6000CDCCCC3D6C950020709600209A99193EF0
:102D700010B52D4C2DED028BD4ED1C1A94ED1B1AC1
:102D8000D4ED1D0A9FED298A31EE810A31EE612AC8
:102D900030EE200A32EE202A84ED260A84ED2A2A1B
:102DA00031EEC12AF1EE611A31EEC11A32EE202A5B
:102DB00071EE200A84ED282AB3EE031AC4ED2C0A22
:102DC000F0EE480A78340AF045FABDEEC00AB3EED8
:102DD000031AF0EE480A10EE100AA08494ED0A0AD5
:102DE0000AF038FABDEEC00AB3EE031AF0EE480A54
:102DF00010EE100AA08594ED0C0A0AF02BFABDEE35
:102E0000C00AB3EE031AF0EE480A10EE100AA086CC
:102E100094ED0E0A0AF01EFABDEEC00A10EE100A7A
:102E2000A087BDEC028B10BD48940020E3A59B3D1C
:102E3000044810B5407800F029F9BDE81040FFF7CC
:102E400097BF00004894002010B52DED028B82B092
:102E500001F070FF3D4C3E4A0021237873B11170A0
:102E60000091019134F89E0FADF806002089ADF86D
:102E70000400208AADF80000208B52E000910191FF
:102E8000137813B90123506013705268801A6428B4
:102E90004AD234F9240F9FED2F8A00EE100A2B48F6
:102EA000F0EE480AB8EEC00ABC3004F089FEBDEE70
:102EB000C00AF0EE480A10EE100AADF80600B4F9A8
:102EC000140000EE100A2148B8EEC00ABC3004F02D
:102ED00077FEBDEEC00AF0EE480A10EE100AADF81B
:102EE0000400B4F9280000EE100A1848B8EEC00A31
:102EF000BC3004F065FEBDEEC00AF0EE480A10EEEC
:102F0000100AADF80000B4F93C0000EE100A0F48BA
:102F1000B8EEC00ABC3004F053FEBDEEC00A10EE9D
:102F2000100AADF8020007E0ADF80010ADF804108B
:102F3000ADF80210ADF806106A460121064800F00F
:102F4000D9FD02B0BDEC028B10BD000048940020FA
:102F500068020020000000001836002070470000C2
:102F600070B500F007FF444880ED020AFFF75EFDF0
:102F7000014614224148FDF784FC03F0FDFF3F4D5C
:102F800068613F4804F084FC044600F13C01A861FC
:102F90000D2205F11C00FDF7B9FC94F8490085F8F5
:102FA0002900E06CE86204F128010D2205F13000EF
:102FB000FDF7ACFC94F8350085F83D00A06B286463
:102FC0000D22214605F14400FDF7A0FC607B85F849
:102FD00051002069686504F114010D2205F15800C3
:102FE000FDF794FC94F8210085F86500606AA866F6
:102FF000244804F04DFC044600F15001A8670D225E
:1030000005F17C00FDF782FC94F85D0085F88900ED
:1030100005F18000216EC16095F88900012802D079
:10302000D5F8900014E095ED200ADFED170A30EE98
:10303000600A10EE100A0DF073FB41EC100B022039
:1030400004F074FC51EC100B0CF0C4FDC5F89000BA
:103050000DF066FB41EC100B04F0CEFC51EC100BB4
:103060000CF0B8FD00EE100A85ED240A04F026FCF1
:1030700085ED250A70BD00006802002048940020FC
:10308000183600204036002000C0874370B5C54D7B
:103090002DED068B95ED248A9FEDC3AADFEDC3AA23
:1030A000D5F8944000287CD0C14E01287AD002285F
:1030B00079D120460DF034FB41EC100B07F004FFF2
:1030C000B5F90200B0EE408A00EE100AF0EE608A18
:1030D000B7EE002AB8EEC00AFFEE001AB0EE4A1AA8
:1030E000F0EE6A0A04F008FC10EE100A0DF018FB6E
:1030F00053EC182B0DF042F841EC190B20460DF063
:103100000FFB41EC100B08F0CFF8B5F90400B0EE5E
:10311000408A00EE100AF0EE608AB7EE002AB8EEA0
:10312000C00AFFEE001AB0EE4A1AF0EE6A0A04F086
:10313000E3FB10EE100A0DF0F3FA53EC182B0DF030
:103140001DF853EC192B0CF077FD0CF043FDE866ED
:1031500020460DF0E5FA41EC100B08F0A5F8B5F9A2
:103160000200B0EE408A00EE100AF0EE608AB7EE80
:10317000002AB8EEC00AFFEE001AB0EE4A1AF0EECE
:103180006A0A04F0B9FB10EE100A0DF0C9FA53EC0C
:10319000182B0CF0F3FF41EC190B20460DF0C0FA90
:1031A00002E02DE058E0F9E041EC100B07F08CFE56
:1031B000B5F90400B0EE408A00EE100AF0EE608A25
:1031C000B7EE002AB8EEC00AFFEE001AB0EE4A1AB7
:1031D000F0EE6A0A04F090FB10EE100A0DF0A0FA6F
:1031E00053EC182B0CF0CAFF53EC192B0DF0AEF971
:1031F0000CF0F0FC286796ED020AB1EE400ACBE035
:10320000B5F90200B7EE002A00EE100AFFEE001A30
:10321000B0EE4A1AB8EEC00AF0EE6A0A04F06CFB8F
:1032200085ED1B0AB5F90400B7EE002A00EE100A7E
:10323000FFEE001AB0EE4A1AB8EEC00AF0EE6A0AC3
:1032400004F05AFB85ED1C0ADFED5A0AB0EE480A7D
:10325000594804F0BFFC9FE020460DF061FA41ECB4
:10326000100B07F031FEB5F90200B0EE408A00EE17
:10327000100AF0EE608AB7EE002AB8EEC00AFFEE40
:10328000001AB0EE4A1AF0EE6A0A04F035FB10EEAE
:10329000100A0DF045FA53EC182B0CF06FFF41ECBF
:1032A000190B20460DF03CFA41EC100B07F0FCFF27
:1032B000B5F90400B0EE408A00EE100AF0EE608A24
:1032C000B7EE002AB8EEC00AFFEE001AB0EE4A1AB6
:1032D000F0EE6A0A04F010FB10EE100A0DF020FA6E
:1032E00053EC182B0CF04AFF53EC192B0CF0A4FCF8
:1032F0000CF070FCE86620460DF012FA41EC100B61
:1033000007F0D2FFB5F90200B0EE408A00EE100AD5
:10331000F0EE608AB7EE002AB8EEC00AFFEE001A9F
:10332000B0EE4A1AF0EE6A0A04F0E6FA10EE100A5D
:103330000DF0F6F953EC182B0CF020FF41EC180BB4
:1033400020460DF0EDF941EC100B07F0BDFDB5F98D
:103350000400B0EE409A00EE100AF0EE609AB7EE6C
:10336000002AB8EEC00AFFEE001AB0EE4A1AF0EEDC
:103370006A0A04F0C1FA10EE100A0DF0D1F953EC0C
:10338000192B0CF0FBFE53EC182B0DF0DFF80CF0B2
:1033900021FC286796ED020A85ED1D0ABDEC068B1F
:1033A00070BD00004894002000007A4400007AC4F8
:1033B0006802002000000000D89600200448FFF7B3
:1033C000C3FA0448FFF7C0FA01200AF032FAF5E721
:1033D000B086002050870020014801F003BA0000A9
:1033E000B4390020014801F0FDB90000143A002072
:1033F0002DE9F05FA148A24AA14DC06CA14EA04F9B
:103400000068DFF880C2DFF87882DFF87892DFF8B2
:1034100070A2DFF870B2DFF868E29A4C483D60367F
:103420001837D1140CF1180CA8F1300809F17809FB
:103430000AF1300A0BF1300BAEF1180E90421ED992
:103440008F4A543A21E0B8422ED1202208E050455C
:1034500031D10A4604E04FF4001201E04FF000625F
:10346000134276D0864A90424ED9A04205D0A84257
:1034700003D0B04201D0B8422AD1202141E0814A94
:10348000A832904203D97E4A583A136805E07D4A33
:10349000483290427C4AF8D95368A042D5D0A8421D
:1034A000D3D0B042D1D0CEE76045D2D04045D0D0C5
:1034B0004845CED0CBE75845CDD07045CBD0714AEA
:1034C00090329042C7D06E4A48329042C6D1C2E78D
:1034D000604516D0404514D0484512D0504510D014
:1034E000584509D0704507D066499031884203D0CD
:1034F00063494831884202D14FF4001101E04FF096
:1035000000615F484C3829E05E4AA832904227D9D2
:10351000A04205D0A84203D0B04201D0B84201D1A8
:10352000202119E0604517D0404515D0484513D0FB
:10353000504511D0584509D0704507D051499031B8
:10354000884203D04E494831884203D14FF40011DC
:1035500002E090E04FF000614948503801604EE0D1
:10356000484A4832904225D9A04205D0A84203D00B
:10357000B04201D0B84201D1202118E0604516D0F8
:10358000404514D0484512D0504510D0584509D078
:10359000704507D03B499031884203D038494831C3
:1035A000884202D14FF4001101E04FF0006136482B
:1035B000C16024E0A04205D0A84203D0B04201D0AF
:1035C000B84201D1202118E0604516D0404514D002
:1035D000484512D0504510D0584509D0704507D005
:1035E00028499031884203D025494831884202D188
:1035F0004FF4001101E04FF0006123488160234C3B
:10360000207880070CD5207820F0020020702078E8
:1036100040F004002070012211461D4801F084FB97
:1036200060781C4D80070CD5607820F00200607037
:10363000607840F00400607001221021284601F0FB
:1036400073FBA07880070CD5A07820F00200A07052
:10365000A07840F00400A07001221021284601F05B
:1036600063FB09F08DFF2078400704D50A48016804
:1036700041F001010160BDE8F09F0000BC36002070
:103680005864024010600240006002402C0100209B
:103690000004024000000240103C0140014801F0DB
:1036A000A1B80000F4380020014801F09BB80000E8
:1036B000743A0020014801F095B800005439002008
:1036C00001681823CAB2103AB2FBF3F2054B6FF34C
:1036D0000901032A9B5CC36500D9091D8165084661
:1036E000704700009C0B010810B5014600208B6953
:1036F0008A6A4FF0C07453B1B3F5005F15D072B150
:10370000012A0CD0022A0AD0032A09D104E01AB1F6
:10371000012A06D0022A03D1C96AC90100D50120B5
:1037200010BDC96AA142FAD010BD002AF7D0012A03
:10373000F2D0022AF3D0032AF3D010BD30B50468CA
:10374000256825F480252560046863608368402B24
:10375000036803D099600068C26030BD9A60006859
:10376000C16030BD7047000030B52DED028B83B0D5
:1037700004F040FE5A4D286003F0FEFB6860FFF73E
:1037800055F9A860017B574C012994F8401021F0AD
:103790003C017CD0203184F840104078002894F817
:1037A0005E0020F03C0073D0001D84F85E00696864
:1037B000086891ED028A0CF0B3FF41EC120BB4F8EB
:1037C000270001A9400900EE100AE08CF8EE400A3B
:1037D000C0F38A0000EE100A6846B8EE400ADFED3A
:1037E000428AB0EE681A04F091FF9DED000A618DE7
:1037F000BCEEC00A10EE100A60F38C0161859DEDED
:10380000010AB4F82B10BCEEC00A10EE100A60F3E7
:103810004F11A4F82B1018EE100A0CF081FF41ECA8
:10382000120BB4F8720001A9400900EE100AB4F8B6
:103830007100B0EE681AF8EE400AC0F38A0000EE9C
:10384000100A6846B8EE400A04F018FB9DED000A25
:10385000B4F875109FED261ABCEEC00A10EE100ADF
:1038600060F38C01A4F875109DED010AB4F8761090
:10387000BCEEC00A10EE100A9FED1C0A60F34F1157
:1038800068EE000AA4F8761080EE810A01E01FE0DD
:1038900020E0DFED180A20EE200ABDEEC00A10EE8F
:1038A000100AC4F88300A868807C012814D104F0B1
:1038B000A1FD1149286090F82A0008600AF03EFD39
:1038C00003B03220BDEC028BBDE8304009F0B1BF3F
:1038D000091D60E7203068E703B0BDEC028B30BD06
:1038E000140200208A900020000048420000344367
:1038F000DB0F494000007A441002002010B54FF45D
:103900007A7009F096FF04F075FD154908601549B5
:1039100090F82A0008600AF0FFFE1E2009F089FFD7
:103920000AF0FCFE1E2009F084FF0AF0F9FE1E20BA
:1039300009F07FFF0AF0F6FE1E2009F07AFF0AF078
:10394000F3FE1E2009F075FF0AF0E4FE322009F0B4
:1039500070FF0AF0F3FCBDE81040322009F069BFA7
:10396000140200201002002010B5FFF7FDFEBDE894
:1039700010400BF097B80000084C4FF480750123FD
:10398000064A2946064800F063F800200BF040F98B
:103990006060012009F04DFFF1E70000F000002019
:1039A000403600202DE9F05F9946DDF828B08A46C0
:1039B00020B3BAF1000F45D0B9F1000F42D08168B1
:1039C00004293FD14068040AC5B294423AD1ADB14E
:1039D00000271D4E4FF48078012D06D17780377077
:1039E00041461A487460FCF7CBFF7068844229D1C5
:1039F0003078401C854202D07780377022E0708892
:103A0000082400F10801414502D9C0F580718CB24B
:103A10000E49224608445146FCF733FF7088204483
:103A200080B270803178491C31705946584509D3AD
:103A30000A4606494846FCF724FF77803770012084
:103A4000BDE8F09F0020FBE7E80000205C84002038
:103A50002DE9F04F89B01D4690468A465FEA000B7B
:103A600036D0B8F1000F33D095B3B5F5807F2FD89D
:103A7000E81DC0F3C709002432E0E000082200F18D
:103A80000801A94201D9291ACAB20026641C08EB10
:103A9000000144EA0A27069606A80796FCF7F1FEFD
:103AA0000420CDE902060820019704908DF81460E7
:103AB00002E0012009F0BDFE584600F078FB002826
:103AC000F7D008AB06AA6946584600F011FA18B1BB
:103AD000002009B0BDE8F08F012009F0AAFEE4B291
:103AE0004C45CAD30120F4E7014908707047000033
:103AF000F00000202DE9FC4180461646084600F003
:103B000085F8050010D000246F4607EB44014A1CDD
:103B100036F9140003F05AFB641C042CF5DB6A46EA
:103B200029464046FEF752FFBDE8FC817CB50446BD
:103B300000201346009001904A1E4800032A03D833
:103B40004FF40075801E05E0491F03290DD840F28F
:103B5000FF150A380DEB00014A1C184603F036FB2E
:103B60006A4629462046FEF731FF7CBD012000F061
:103B7000E7BF082000F0E4BF102000F0E1BF2020E4
:103B800000F0DEBF72B6FEE7114800B590ED000A06
:103B90000AF0ACFB0F4981ED060A90ED010A0AF02C
:103BA000A5FB81ED070A90ED000A0AF09FFB08498A
:103BB000C43181ED000A90ED010A0AF097FB81ED16
:103BC000010A90ED020A0AF091FB81ED020A00BDA4
:103BD000B48500202C0100200A49DFED0B1A70EE9D
:103BE000C00A086880EA503080EA404080EA5010FD
:103BF00001EE100A0860B8EE411A21EE211A01EE1A
:103C0000200A7047780200200000802F012803D08E
:103C1000052804D0002070474FF40070704740F230
:103C2000FF10704710B558B1084C491E0BD310F85F
:103C3000013B5340DBB234F8133083EA1222F4E73D
:103C40004FF6FF7010BD104610BD0000E80F0108D0
:103C500010B5054C03E010F8013B5340E25C491EEF
:103C6000F9D2104610BD0000E80E010800F01AF865
:103C70000A4C00F01BF800F014F800F016F800F001
:103C800012F800F00DF800F00FF800200AF0C0FF65
:103C90002060012009F0CDFDEBE700007C02002050
:103CA0007047704770477047704770477047000013
:103CB00010B50BF0B5FD264C264960409FED260A55
:103CC000086084ED000A9FED250A9FED261A84ED19
:103CD000010A9FED230A04F10C0084ED020AB7EEFD
:103CE000080AF0EE040AF6EE001A80EC040A00203E
:103CF000DFED1D1AC4ED071A84ED081AB7EE001A9D
:103D000084ED091AB0EE001A84ED0A1A9FED171A15
:103D100084ED0B1AA063FFF75FFFDFED150A84ED5A
:103D20000C0A80EE201ABCEEC10A84ED0F0AD4ED15
:103D3000060A94ED050AFFF74FFFD4ED020A94ED51
:103D4000011A70EEC10A20EE200A84ED0D0A10BDA2
:103D50000C970020780200200AD7A33C6666E63F55
:103D6000CDCC0C40CDCCCC3D0AD7233C000000008C
:103D70006F12833A70B5514C2DED048B2546A86B1C
:103D8000401CA8639FED4E8AE96B884223D3002034
:103D9000A863D4ED040A94ED030AFFF71DFF85ED37
:103DA0000C0ADFED480A80EE201ABCEEC10A85ED50
:103DB0000F0AD4ED060A94ED050AFFF70DFFD4EDC6
:103DC000020A94ED011A70EEC10A20EE200A85ED78
:103DD0000D0A85ED0B8A95ED0E0AF7EE008AB6EE18
:103DE000009AB8EE401A95ED0F0AB8EE400AC1EEFF
:103DF000000A94ED080AB4EEE00AF1EE10FA08DDCC
:103E000080EE801A94ED090AB0EE688A01EE408ACD
:103E100013E070EEC00A38EEC01A80EE810ADFEDC2
:103E20002A0A20EE200A07F0B3F8B0EE498AF0EE35
:103E3000480A40EE480AB0EE608AF0EE000A38EE1A
:103E4000490A20EE200AD5ED0D0A20EE208AF6EE72
:103E5000000ABEEE000AFFF7BFFE94ED021AD4ED91
:103E6000011A94ED072A71EE610A60EE820A20EED3
:103E7000200A71EE810A60EE890A70EE880A70EEFF
:103E8000800AF4EEE01AF1EE10FA01DDF0EE610ABC
:103E9000B4EEE01AF1EE10FA01D2F0EE410A94ED20
:103EA000001AD5ED0A1A38EEC10A20EE210A01EEF9
:103EB000200A85ED0A0ABDEC048B70BD0C9700202A
:103EC000000000006F12833ADB0F494090F8202079
:103ED000012A07D0022A05D0416A41F480214162BB
:103EE00001207047006842690A4342610020704720
:103EF000F0B590F820500468A468012D05D0022D7B
:103F000003D0416A41F480214DE014F0406F01D1AB
:103F1000E50045D5C4F301640125A5401D608B680B
:103F20004FF4C0759BB1CE6833434E6843EAC60375
:103F3000066805EB0417F3514FF4C273076803EBEF
:103F400004130E69FE50097D012905D009E00E8891
:103F5000CB6843EA4653EBE70168CE5846F48076D7
:103F6000CE501179D2F805304FF4C67641EA0321DC
:103F7000036806EB041699511178D2F801204FF42A
:103F8000C47341EA0221026803EB0413D1500068B4
:103F900005EB0411425842F0010242500020F0BDEE
:103FA000416A41F4001141620120F0BD10B590F862
:103FB0002020012A07D0022A05D0416A41F480213D
:103FC0004162012010BD3B48D0F8002242F00102BE
:103FD000C0F80022D0F8002222F47C52C0F800225F
:103FE000D0F800224B6A42EA0322C0F800220A7D80
:103FF00002F01F0301229A40D0F81C329343C0F80C
:104000001C32CB69B3B9D0F80C329343C0F80C32F0
:104010008C894B6864F31F434C6900EBC404C4F8FB
:1040200040320C890B6864F31F434C6900EBC404F5
:10403000C4F84432CB69012B16D1D0F80C321343AB
:10404000C0F80C320C884B6864F31F434C6900EBDA
:10405000C404C4F840320C89CB6864F31F434C6934
:1040600000EBC404C4F844328B69002BD0F804324E
:104070000ED01343C0F804320B69002BD0F8143271
:1040800008D01343C0F81432096A012904D008E0AB
:104090009343EFE79343F5E7D0F81C121143C0F8C0
:1040A0001C12D0F8001221F00101C0F8001200200B
:1040B00010BD000000640040704770B590F82040CB
:1040C000012C05D0022C03D0416A41F4802128E064
:1040D000046809B32469A40720D04FF4D874056894
:1040E00004EB01142D5915F00405956005682D5950
:1040F0001AD0ED08556005682C5904F00204D4600C
:104100004FF4DA74056804EB01142E5906F00F061B
:10411000082E0CD308250DE0E468DCE7416A41F481
:1041200000114162012070BD6D0D1560E3E72D594E
:1041300005F00F05156105682D59C5F30725956133
:1041400005682C59240C54614FF4DC72046802EBAE
:104150000112A4581C700468A458240A5C700468F6
:10416000A458240C9C700468A258120EDA704FF404
:10417000DE72046802EB0112A4581C710468A45892
:10418000240A5C710468A458240C9C710468A25829
:10419000120EDA71006829B1016941F02001016154
:1041A000002070BDC16841F02001C160F8E70246FF
:1041B000002092F82010012901D002290CD11168A9
:1041C0008A68520100D501208A68120100D5401C7E
:1041D0008968C90000D5401C70472DE9F05F05468D
:1041E000006800244669D0F804908768D0F80CB0C5
:1041F000D0F810A0D0F81880F10748D0F90714D0F3
:1042000001218160B80703D5284600F088FA0CE048
:10421000780702D54FF4006407E0380702D54FF461
:10422000805402E0284600F079FAF80516D529688E
:104230004FF480708860B80503D5284600F071FA05
:104240000CE0780502D544F4005407E0380502D5A7
:1042500044F4804402E0284600F062FAF80316D5E0
:1042600029684FF480308860B80303D5284600F0F1
:104270005AFA0CE0780302D544F4004407E038030E
:1042800002D544F4803402E0284600F04BFA3007AF
:1042900007D55FEACB6004D52968102044F4007488
:1042A000C86070074FF0080707D55FEA0B7004D5A8
:1042B0002868C760284600F0A7F9B00706D5286827
:1042C000C068800702D0284600F0A0F9700607D524
:1042D0005FEACA6004D52968102044F4806408614C
:1042E000B00607D55FEA0A7004D52868076128463A
:1042F00000F0E6F9F00606D528680069800702D0CC
:10430000284600F0DEF9B00308D55FEAC96005D59C
:10431000296810204860284600F0D4F9F00307D53A
:104320005FEA097004D528684760284600F0FCF968
:10433000300446D55FEA497040D5F00504D55FEA00
:10434000C87001D044F00104B00504D55FEA88705C
:1043500001D544F00204700504D55FEA487001D528
:1043600044F00404300529D518F0700F26D008F069
:104370007000402815D006DC102809D020280AD06B
:10438000302816D10AE050280ED0602811D10EE056
:1043900044F008040DE044F010040AE044F0200466
:1043A00007E044F0400404E044F0800401E044F4F9
:1043B00080742868816921F0700181612968042076
:1043C0004860002C05D0686A204368622846FFF7E1
:1043D00073FEBDE8F09F70B5040003D094F8200090
:1043E00010B104E0012070BD204600F081F8206883
:1043F000016841F00101016000F09CFC05460526C2
:1044000004E000F097FC401B0A2811D8206840689F
:10441000C007F6D02068016821F00201016000F0B9
:1044200089FC05460BE000F085FC401B0A2806D9F4
:10443000606A40F40030606284F82060D2E720684F
:1044400040688007EFD4207E0128206801683DD0B5
:1044500021F080010160607E01282068016838D069
:1044600021F040010160A07E01282068016833D05E
:1044700021F020010160E07E0128206801682ED033
:1044800041F010010160207F01282068016829D0D7
:1044900021F008010160607F01282068016824D0B4
:1044A00021F004010160D4E902010843D4E90412B7
:1044B000114308436168491E08432168C861002010
:1044C0006062012084F82000002070BD41F080016E
:1044D000C0E741F04001C5E741F02001CAE721F003
:1044E0001001CFE741F00801D4E741F00401D9E71A
:1044F000F0B587B0044614216846FCF763FA3D49DD
:104500003D4ADFF8ECE00868D4F800C03A4B0324D9
:104510000225092610320027401CF44529D10860E5
:10452000012807D1106840F000701060106800F09A
:1045300000700590186840F00800186018688DE851
:10454000B00000F00800CDE90460694603942B48F0
:1045500000F002FB00220621142000F02DFF1420A1
:1045600000F01CFF00220621152000F025FF152079
:1045700039E0DFF88CE0F44537D1D2F800C04CF0D8
:10458000806CC2F800C0D2F800C001280CF0806C2A
:10459000CDF814C0086007D1106840F000701060BA
:1045A000106800F000700590186840F00200186074
:1045B0001868694600F00200059060208DE8A100AF
:1045C000CDE903460F4800F0C7FA0022062140203B
:1045D00000F0F2FE402000F0E1FE00220621412022
:1045E00000F0EAFE412000F0D9FE07B0F0BD000067
:1045F000006400404800002030380240000C0240B7
:104600000068004000040240704700002DE9F041BE
:1046100004460068244916250126244F8AB04FF429
:104620000078884214D01BE0039810B104280FD101
:1046300005E008AA1E480199FEF79AF908E01D4B0B
:10464000424608A901A80095FFF7ACF900B13E70F9
:1046500008AB01AA00212046FFF72FFD0028E3D078
:1046600015492068884216D00AB0BDE8F081039849
:1046700010B104280FD105E008AA10480199FEF7EF
:1046800077F908E00B4B424608A901A80095FFF70F
:1046900089F900B13E7008AB01AA00212046FFF75E
:1046A0000CFD0028E3D0DFE700640040F4010020A7
:1046B000B0860020988600200068004050870020C7
:1046C00070477047704770B5044690F82000012885
:1046D00004D0606A40F40020606217E0022084F891
:1046E00020002068016821F00101016000F022FB38
:1046F00005460DE000F01EFB401B0A2808D9606A41
:1047000040F400306062052084F82000012070BD74
:1047100020684068C007EDD1606270BD7047704787
:10472000704770477047704770472DE9F041044665
:10473000876D00F0FFFA054694F835000026022840
:1047400006D08020606584F834600120BDE8F081E7
:104750002068016821F0160101602068416921F09C
:1047600080014161206C08B9A06C20B1206801680B
:1047700021F0080101602068016821F00101016059
:104780000CE000F0D7FA401B052807D9202060650F
:10479000032084F8350084F83460D7E72068006887
:1047A000C007EED194F85C103F208840B86001202B
:1047B00084F8350084F834600020C7E790F835109D
:1047C000022903D08021416501207047052180F82E
:1047D00035100068016821F0010101600020704778
:1047E000406D70472DE9F84304464FF00009CDF8BD
:1047F000009063484FF41651A56D0068B0FBF1F7C7
:104800002E6894F85C20082101FA02F030420FD0A3
:104810002068026852070BD5026822F00402026089
:1048200094F85C008140A960606D40F00100606513
:1048300094F85C104FF0010808FA01F0304208D0FB
:1048400021684969090604D5A860606D40F002003E
:10485000606594F85C1004208840304208D02168DC
:104860000968890704D5A860606D40F004006065A0
:1048700094F85C1010208840304218D021680968F4
:10488000090714D5A86020680168490304D50068A9
:10489000000308D5A16C07E00168C90503D40168CD
:1048A00021F008010160216C09B12046884794F885
:1048B0005C1020208840304231D021680968C90648
:1048C0002DD5A86094F8350005282068016806D029
:1048D000490347D5006800031DD4616C1CE021F03A
:1048E000160101602068416921F080014161206C5E
:1048F00008B9A06C20B12068016821F008010160AE
:1049000094F85C103F208840A86084F8358084F8D3
:104910003490216D1FE0E16B09B120468847606D3E
:1049200000282BD0606DC00714D0052084F8350016
:104930002068016821F0010101600098401C00908E
:10494000B84203D820680068C007F6D184F83580E3
:1049500084F83490E16C002910D001B02046BDE805
:10496000F04308470168C905D5D4016821F010015A
:10497000016084F8358084F83490CCE7BDE8F88392
:10498000580000202DE9F041044600F0D3F9054617
:104990005CB1022084F83500002684F83460206879
:1049A000016821F0010101600DE00120BDE8F08106
:1049B00000F0C0F9401B052805D9202060650320C0
:1049C00084F83500F2E720680068C007F0D121685C
:1049D0000A6820480240D4E901031843D4E90335AA
:1049E0002B43184363691843A3691843E3691843C9
:1049F000236A18431043626A042A03D1D4E90B23C3
:104A00001A431043086020684069656A20F0070176
:104A100028460D43012704280CD1A06A0543E06A0B
:104A200040B12046FEF760FE20B14020606584F86A
:104A30003570BAE7206845612046FEF741FE94F8DC
:104A40005C203F2191408160666584F835700020CC
:104A5000ACE700003F8010F02DE9F0410446866D80
:104A600090F83400002501280DD0012084F834008E
:104A700094F835700020012F07D084F83400022507
:104A80002846BDE8F0810220FBE7022784F8357054
:104A900060652046FEF752FE94F85C103F20884087
:104AA000B0602068016841F016010160206C20B1FF
:104AB0002068016841F0080101602068016841F048
:104AC00001010160DCE7000010B51B4C10281AD072
:104AD000202821D008282AD0012813D10AF092FEDC
:104AE00001280FD004F10C0120690AF0EBF9E0680D
:104AF000002807D011494FF080500860BFF34F8F56
:104B0000BFF36F8F10BD607840F001006070A07837
:104B100040F00100A07003E0207840F00100207018
:104B200020790028EED0BDE8104008F029BDE078DB
:104B300040F00100E07010BD2C01002004ED00E009
:104B4000044910B50A68024202D00860FFF7BCFFB2
:104B500010BD0000143C01402DE9F84FDFF89C9196
:104B60000022A9F1040B03274FF00F0C09F1040AEE
:104B7000ABF1040E01250B6895402B40AB426ED182
:104B80000C7904F00304012C01D0022C15D18668A5
:104B9000540007FA04F826EA0806D1F80C8008FA4F
:104BA00004F848EA0608C0F808804468AC430D7968
:104BB000C5F300159540254345600C79E443A407EF
:104BC00008D0C568540007FA04F6B5438E68A640BD
:104BD0002E43C6600C7904F00304022C11D1D408D2
:104BE00000EB8406356A5407E40E0CFA04F825EA53
:104BF0000805D1F8108008FA04F848EA0508C6F854
:104C000020800568540007FA04F6B5430E7906F0D3
:104C10000306A6402E4306604C6814F4403F66D05D
:104C2000374C256845F480452560246822F003054B
:104C300004F480440094334C05EB0408D8F8085879
:104C40009407260F0CFA06F4A5432F4CA04201D17D
:104C5000002424E02D4CA04202D101241FE046E0B4
:104C60002B4CA04201D1022419E02A4CA04201D1D0
:104C7000032414E0284CA04201D104240FE0274C67
:104C8000A04201D105240AE0254CA04201D106240E
:104C900005E0244CA04201D1072400E00824B440E0
:104CA0002C43C8F80848D9F800404D464E689C434C
:104CB000F60200D51C432C60DAF8004055464E68D9
:104CC0009C43B60200D51C432C60DBF800405D46D7
:104CD0004E689C43B60300D51C432C60DEF80040B0
:104CE00075464E689C43F60300D51C432C60521C4D
:104CF000102AFFF43FAFBDE8F88F0000083C0140E8
:104D000044380240003001400000024000040240EC
:104D100000080240000C0240001002400014024053
:104D200000180240001C02400AB18161704709046A
:104D3000FBE7000001488068704700004C0000203D
:104D400070B5040025D094F83D00002520B984F802
:104D50003C50204600F052FA242084F83D002068A0
:104D6000016821F0010101602068016841F40041FF
:104D700001602068016821F40041016000F008FC36
:104D80004D4B6168994201D84C4900E04C4988423A
:104D900001D2012070BD4B492268B0FBF1F1566889
:104DA00026F03F060E43566062689A4206D94FF4D9
:104DB000967251434FF47A72B1FBF2F12268491CAA
:104DC000166A26F03F06314311626168994210D895
:104DD0004900401EB0FBF1F2521CC2F30B02042A40
:104DE00001D2042022E0B0FBF1F0401CC0F30B0024
:104DF0001CE0A268F2B301EBC10303EB0116431EF2
:104E0000B3FBF6F35B1C43F480431B0549D092B31C
:104E100001EBC10202EB0111401EB0FBF1F0401C9E
:104E2000C0F30B0040F4804040F400402168CA69A0
:104E30004CF6FF739A431043C861D4E9071001434D
:104E40002068026822F0C00211430160D4E9030126
:104E500001432068826848F2FF339A43114381601E
:104E6000D4E9051001432068C26822F0FF02114313
:104E7000C16001E00EE016E02068016841F0010128
:104E800001602564202084F83D00256384F83E50AD
:104E9000002070BD01EB4106431EB3FBF6F35B1C23
:104EA000B3E70120C2E701EB4101401EB0FBF1F086
:104EB000401CC0F30B00B7E7A086010080841E00F1
:104EC00000093D0040420F002DE9FF4F83B09A4694
:104ED000DDE9118793460446DDF84090FFF72AFF8D
:104EE000054694F83D00202870D119230122744909
:104EF0002046009501F039FF0028F5D194F83C00D8
:104F0000012863D0012084F83C0020680168C907AB
:104F100003D1016841F0010101602068016821F4BA
:104F200000610160222084F83D00402084F83E00AA
:104F300000262664C4F82490A4F82A80608D208579
:104F40006048E062CDE9007553465A462046049910
:104F500001F00EFE002879D1208DD0B1012821D09A
:104F60000228206824D0416980690090208D0328A0
:104F700066D801282BD0544902283B464FF0000246
:104F8000009557D08846204601F0EFFE00285DD1FD
:104F90003AE02068416981690091016841F400713B
:104FA00001607DE02068016821F480610160F0E724
:104FB000016821F4806101602068016841F40061AA
:104FC0000160206841698069009069E075E02A46C7
:104FD0003946204601F06AFF88BB54E0206801682A
:104FE00041F40071016020680069616A0870606ABC
:104FF000401C6062218D491E2185618D491E61859D
:1050000021680969017042E02068016821F480612B
:10501000016020680069616A0870606A401C606213
:10502000208D401E2085608D401E60853B460022FD
:1050300041460095204601F098FE00B9CEE705E014
:105040002A463946204601F031FF18B1012007B049
:10505000BDE8F08F20680069616A0870606A401CD2
:105060006062208D401E81B22185608D401E60856A
:1050700020684269D243520712D4032903D1016840
:1050800021F48061016020680069616A0870606ACB
:10509000401C6062208D401E2085608D401E608512
:1050A000208D00287FF462AF202084F83D0084F832
:1050B0003E6084F83C600020C9E70220C7E700009A
:1050C000020010000000FFFF040001002DE9FF4F67
:1050D00083B09A46DDE9119793460446DDF8408097
:1050E000FFF728FE054694F83D0020287FD11923BC
:1050F000012240492046009501F037FE002876D174
:1051000094F83C00012872D0012084F83C0020680B
:105110000168C90703D1016841F0010101602068FD
:10512000016821F400610160212084F83D004020E5
:1051300084F83E0000262664C4F82480A4F82A904F
:10514000608D20852C48E062CDE9007553465A46B3
:105150002046049901F08AFD70B930E02A463946AC
:10516000204601F0DDFE58B1206C042804D12068EF
:10517000016841F400710160012007B0BDE8F08FC3
:10518000606A216800780861626A521C6262208D40
:10519000401E80B22085618D491E618521684B6962
:1051A000DB435B070BD468B110780861606A401C70
:1051B0006062208D401E2085608D401E6085208DA0
:1051C0000028CBD12A463946204601F0A3FD00280D
:1051D000CAD154F83D0B016841F4007101602020F0
:1051E00004F81E09E67766770020C6E7FFE702208D
:1051F000C3E70000020010000000FFFFF0B587B019
:10520000044614216846FBF7DDFB1B4920688842F1
:105210002FD11A48016841F004010160016801F0D2
:1052200004010591016841F0010101600068042456
:1052300000F0010005904FF40070122501260327AD
:1052400004948DE8E10069460D48FFF785FCA00154
:1052500004948DE8E10069460A48FFF77DFC0748A1
:105260001030016841F400010160006800F40000A2
:10527000059007B0F0BD0000005C004030380240EF
:105280000008024000000240024881680278114490
:10529000816070474C0000200B4810B5016841F454
:1052A00000710160016841F480610160016841F4AE
:1052B00080710160032000F09FF80F2000F006F8D5
:1052C00000F050F8002010BD003C024030B505460B
:1052D000204887B00024016841F0010101600068A6
:1052E00006A900F001000590684600F031F9039826
:1052F000B0B100F04DF9400017494FF08042B0FBCB
:10530000F1F11648491E026040F2E732C0E9032479
:10531000C0E90114846100F055FD040003D015E0DC
:1053200000F036F9E8E70D4800F0CAFD04000DD1A1
:105330001C2000F033F8102D07D2002229461C2033
:1053400000F03AF80648056000E0012407B0204666
:1053500030BD00004038024040420F00D43A0020E7
:10536000500000200C4882B0016841F48041016087
:10537000006800F4804000900748001F016841F079
:10538000805101600068002200F0805000900F21E1
:10539000901E02B000F010B844380240002809DB2B
:1053A00000F01F02012191404009800000F1E0203F
:1053B000C0F8001170470000F0B40E4B1B68C3F337
:1053C0000223C3F10704042C00D904241D1D072D5A
:1053D00001D2002300E0DB1E012606FA04F56D1E53
:1053E0000D409D409E40761E164045EA0601F0BCE9
:1053F00005F099BB0CED00E0064A00F007011068CB
:105400004FF6FF03184040EA0120034908431060AB
:10541000704700000CED00E00000FA052DE9F047B0
:105420000D46040065D0DFF81491D9F80000EFB202
:1054300000F00700A84207D289F80070D9F80000F0
:1054400000F00700A84254D120683D4E810712D5D4
:10545000400703D5306840F4E05030602078000702
:1054600003D5306840F4604030603068A16820F0B7
:10547000F000084330602078C0072DD030496068C4
:105480000839012812D0022813D0032811D0096846
:10549000890700292DDA316821F0030101433160C9
:1054A000FFF748FC804641F2883A0EE0096889031C
:1054B000EFE709688901ECE7FFF73CFCA0EB080186
:1054C000514502D90320BDE8F0873068616800F0DB
:1054D0000C00B0EB810FEFD1D9F80010484601F075
:1054E0000701A94207D90770006800F00700A84229
:1054F00001D00120E7E72078400705D53068E16852
:1055000020F4E050084330602078000706D530686A
:10551000216920F4604040EAC100306000F058F892
:105520003168084AC1F30311515CC840064908605C
:1055300006480068FFF7CAFE0020C4E7003C0240AE
:1055400008380240A40B0108580000205000002039
:105550000F2202600C4A136803F0030343601368D0
:1055600003F0F0038360136803F4E053C360126830
:105570004FF4E05303EAD20202610448006800F0ED
:10558000070008607047000008380240003C0240F5
:105590000448054900680968044AC1F38221515C46
:1055A000C84070475800002008380240B40B01087A
:1055B0000448054900680968044AC1F34231515C56
:1055C000C84070475800002008380240B40B01085A
:1055D000154810B5006810F00C01144813D0144B96
:1055E00004290FD008290ED10F4C241F216801F087
:1055F0003F022168490207D52068C0F38810A0FB4C
:10560000030106E0184610BD2168C1F38811A1FB13
:1056100000010023FAF7FEFE2168C1F30141491C95
:105620004900B0FBF1F010BD083802400024F4003E
:1056300040787D012DE9F84F040075D02078DFF81F
:1056400038A3C007AAF1040548D00AF10400016894
:10565000C1F38101012908D00068C0F3810002284C
:105660000AD1DAF80000400206D52868800335D553
:1056700060680028E1D031E06068B0F5803F10D06C
:10568000B0F5A02F286810D020F48030286028685A
:1056900020F4802028606068A0B1FFF74BFB06462D
:1056A0000CE0286840F48030F4E740F48020286063
:1056B000F7E7FFF73FFB801B642871D82868800359
:1056C000F7D50BE0FFF736FB064604E0FFF732FBA9
:1056D000801B6428F1D828688003F7D42078DFF88D
:1056E0009C9280074FF0000B3DD5A348001D016838
:1056F00011F00C0F08D00068C0F3810002280AD115
:10570000DAF80000400206D42868800715D5E06862
:10571000012809D111E0E068B8B10120C9F8000002
:10572000FFF708FB064605E022E1FFF703FB801BBD
:105730000228C2D828688007F7D52868216920F098
:10574000F80040EAC10028600DE0C9F800B0FFF79A
:10575000F1FA064604E0FFF7EDFA801B02281FD895
:1057600028688007F7D42078000722D5824F844824
:105770006169703771B101210160FFF7DBFA0646FC
:1057800004E0FFF7D7FA801B022809D838688007A1
:10579000F7D50EE0C0F800B0FFF7CCFA064605E0FA
:1057A00082E0FFF7C7FA801B02287DD8386880079F
:1057B000F7D42078400765D56F484FF000083C309B
:1057C0000068C0000BD46C483C30016841F0805147
:1057D000016000684FF0010800F080500090694FB0
:1057E0003868C0050FD4386840F480703860FFF71F
:1057F000A1FA064604E0FFF79DFA801B022853D861
:105800003868C005F7D55C4FA0686C3701280FD009
:105810000528386810D020F001003860386820F082
:1058200004003860A068B0B1FFF784FA06460EE0C5
:10583000386840F00100F4E740F004003860F7E712
:10584000FFF778FA811B41F28830814263D83868CB
:105850008007F5D50DE0FFF76DFA064606E0FFF785
:1058600069FA811B41F28830814254D83868800738
:10587000F5D4B8F1000F05D03F483C30016821F065
:1058800080510160A069B8B33B49091D0968C1F3A3
:105890008101022946D00228584606D0C9F8600086
:1058A000FFF748FA044639E035E04F46C9F8600092
:1058B000FFF740FA064604E0FFF73CFA801B022897
:1058C00029D828688001F7D4D4E907010843A16AE0
:1058D0002D4A490802EB0141626A41EA82110843FC
:1058E00094F82C1040EA0161CAF8001001203866D3
:1058F000FFF720FA044605E03CE0FFF71BFA001B27
:10590000022808D828688001F7D533E0FFF712FA9B
:10591000001B022802D90320BDE8F88F2868800107
:10592000F4D427E00128F7D0DAF80000E26900F4A7
:10593000800191421CD1226A00F03F01914217D1AF
:1059400047F6C071626A0140B1EB821F10D1A26AB2
:105950004FF0FF3300F4403103EB5202B1EB024F42
:1059600006D194F82C1000F07060B0EB016F01D0FC
:105970000120D1E70020CFE7043802400000474271
:10598000800E4742007000400000FFFF70B5040029
:1059900009D0606A002540B125616561A56294F86F
:1059A000510040B10CE0012070BD6068B0F5827F0D
:1059B000F4D0E561F2E784F85050204600F044F856
:1059C000022084F851002068016821F04001016044
:1059D000A088218900F4827001F404410843A18960
:1059E00001F400610843217C01F002010843217D9C
:1059F00001F001010843218B01F400710843217F6C
:105A000001F03801084394F8201001F080010843A8
:105A1000218D01F40051084321680860A069042128
:105A200001EA104094F8241001F0100108432168A5
:105A300048602068C16921F40061C1616565012089
:105A400084F85100002070BD2DE9F04186B0044675
:105A500014216846FAF7B6FF35492068884264D1B8
:105A600034480025016841F480510160006800F469
:105A7000805005902F481438016841F00201016000
:105A8000016801F002010591016841F00101016026
:105A90000068022600F0010005901820CDE90006FC
:105AA00002AA03274FF0050882E8A00169462248B0
:105AB000FFF752F88020CDE9000602AA694682E885
:105AC000A0011E48FFF748F81E4E1D487F063060B3
:105AD000C6E901754FF48068C6E90358756178120C
