:020000040800F2
:10000000D89E002029030008D5630008A5530008E6
:10001000816100083D100008AD9300080000000059
:10002000000000000000000000000000690200085D
:100030007D1E000800000000C5020008E58A0008D7
:100040004303000843030008430300084303000878
:100050004303000843030008252300084303000866
:10006000430300082B230008312300084303000842
:10007000F11A000843030008430300084303000883
:100080004303000843030008430300084303000838
:10009000411000084D1000084303000837230008F2
:1000A0004303000843030008430300084303000818
:1000B000A58B00084303000843030008430300081E
:1000C00043030008430300084303000843030008F8
:1000D0004303000879930008430300088593000850
:1000E00043030008430300084303000843030008D8
:1000F00043030008430300084303000843030008C8
:1001000043030008430300084303000843030008B7
:1001100043030008430300084303000843030008A7
:1001200043030008FD1A0008091B000843030008E8
:100130004303000843030008430300084303000887
:100140005910000865100008430300084303000825
:10015000B51D0008C11D0008CD1D000899930008B9
:100160004303000843030008430300084303000857
:100170004303000843030008430300080000000095
:10018000430300084303000800F002F800F05CF8A5
:100190000AA090E8000C82448344AAF10107DA45E2
:1001A00001D100F051F8AFF2090EBAE80F0013F0D8
:1001B000010F18BFFB1A43F0010318478CFE000023
:1001C000ACFE00000A444FF0000C10F8013B13F0A5
:1001D000070408BF10F8014B1D1108BF10F8015BA0
:1001E000641E05D010F8016B641E01F8016BF9D193
:1001F00013F0080F1EBF10F8014BAD1C0C1B09D1EA
:100200006D1E58BF01F801CBFAD505E014F8016B5B
:1002100001F8016B6D1EF9D59142D6D370470000ED
:100220000023002400250026103A28BF78C1FBD8FF
:10023000520728BF30C148BF0B6070471FB50FF091
:1002400012F91FBD10B510BD00F052FA1146FFF7AC
:10025000F5FF0CF081F900F070FA03B4FFF7F2FF3C
:1002600003BC00F075FA00002C4B19680868B0E870
:10027000F04F80F30988BFF36F8F4FF0000080F3D9
:10028000118870470000000008480068006880F38B
:1002900008884FF0000080F3148862B661B6BFF39F
:1002A0004F8FBFF36F8F00DF00BF00BF08ED00E08E
:1002B000DFF80C00016841F470010160704700BF75
:1002C00088ED00E0EFF30980BFF36F8F134B1A68DE
:1002D0001EF0100F08BF20ED108A20E9F04F1060CB
:1002E00009B44FF0500080F31188BFF34F8FBFF374
:1002F0006F8F0DF01BFD4FF0000080F3118809BCDB
:1003000019680868B0E8F04F1EF0100F08BFB0EC95
:10031000108A80F30988BFF36F8F70475C0000205C
:10032000EFF30580704700000948804709480047FF
:10033000FEE7FEE7FEE7FEE7FEE7FEE7FEE7FEE795
:10034000FEE7FEE704480549054A064B70470000F2
:10035000958B000889010008D8980020D89E0020BD
:10036000D89A0020D89A002053EA020C00F0698045
:100370002DE9F04B4FF00006002B1FBFB3FA83F5B9
:1003800003FA05F424FA05F65E4012BF1643B2FAEA
:1003900082F502FA05F4C5F120051EBF22FA05FC1C
:1003A00044EA0C04203556EA044C4FEA144418BFC2
:1003B000641C4FF000084FF00009904271EB030CF1
:1003C00039D3002919BFB1FA81F701FA07F6B0FA5B
:1003D00080F700FA07F6C7F120071EBF20FA07FCD6
:1003E00046EA0C062037B6FBF4FCA7EB0507103FE6
:1003F00007F01F0BCBF120060CFA0BFB2CFA06F6CC
:1004000044BFB3460026202FA4BF5E464FF0000B2A
:100410005BEA060C08BF4FF0010B19EB0B09ABFBB5
:10042000027C48EB0608C01B06FB02CC0BFB03CC8E
:1004300071EB0C01C1E70B46024641464846BDE858
:10044000F08B13B54FF000004FF00001AFF30080C8
:10045000BDE81C40704740EA010310B59B070FD16F
:10046000042A0DD310C808C9121F9C42F8D020BA24
:1004700019BA884201D9012010BD4FF0FF3010BDDC
:100480001AB1D30703D0521C07E0002010BD10F8AA
:10049000013B11F8014B1B1B07D110F8013B11F870
:1004A000014B1B1B01D1921EF1D1184610BD40EA31
:1004B0000103024630B59B0710D14FF0013400E034
:1004C00008C208C91D1B9D4315EAC41FF8D013F0CC
:1004D000FF0102F8011B0DD01B0AF8E711F8013BE0
:1004E000002B02F8013B05D011F8013B002B02F86C
:1004F000013BF3D130BD10B5431C02E010F8011BE5
:1005000071B18107FAD14FF0013202C88C1A8C43C5
:1005100014EAC211F9D0C01A0A0603D0C01E10BDD9
:10052000C01A10BD0A0401D0801E10BD0902FCD003
:10053000401E10BD032A40F2308010F0030C00F082
:10054000158011F8013BBCF1020F624498BF11F80D
:1005500001CB00F8013B38BF11F8013BA2F10402C6
:1005600098BF00F801CB38BF00F8013B11F003033E
:1005700000F02580083AC0F0088051F8043B083AA2
:1005800051F804CBA0E80810F5E7121D5CBF51F844
:10059000043B40F8043BAFF30080D20724BF11F8BE
:1005A000013B11F801CB48BF11F8012B24BF00F823
:1005B000013B00F801CB48BF00F8012B704710B594
:1005C000203AC0F00B80B1E81850203AA0E818504B
:1005D000B1E81850A0E81850BFF4F5AF5FEA027C0C
:1005E00024BFB1E81850A0E8185044BF18C918C07B
:1005F000BDE810405FEA827C24BF51F8043B40F81C
:10060000043B08BF7047D20728BF31F8023B48BF00
:1006100011F8012B28BF20F8023B48BF00F8012B3E
:10062000704702F0FF0343EA032242EA024200F06D
:1006300002B84FF000020429C0F0128010F0030C41
:1006400000F01B80CCF1040CBCF1020F18BF00F8C5
:10065000012BA8BF20F8022BA1EB0C0100F00DB874
:100660005FEAC17C24BF00F8012B00F8012B48BFD2
:1006700000F8012B70474FF0000200B51346944676
:100680009646203922BFA0E80C50A0E80C50B1F1EA
:100690002001BFF4F7AF090728BFA0E80C5048BFFE
:1006A0000CC05DF804EB890028BF40F8042B08BF9C
:1006B000704748BF20F8022B11F0804F18BF00F898
:1006C000012B704770477047704710B500F008F86D
:1006D000006810BD10B5044600F002F8046010BDBB
:1006E00000487047789800200048704778980020AC
:1006F0007546FFF7F9FFAE4605006946534620F000
:100700000700854618B020B5FFF71CFEBDE8204065
:100710004FF000064FF000074FF000084FF0000BBD
:1007200021F00701AC46ACE8C009ACE8C009ACE870
:10073000C009ACE8C0098D46704710B50446AFF358
:1007400000802046BDE81040FFF787BD70470000DD
:1007500001491820ABBEFEE72600020008F094BE57
:1007600008F028BF10B510EE100A0EF00BFE41EC99
:10077000100B09F075F851EC100B0EF05DF800EE5F
:10078000100A10BDF0EE400AF5EEC00AF1EE10FAC4
:1007900002DDB0EE600A7047B1EE600AFBE70000D0
:1007A000002803D09FED020A80ED000A7047000088
:1007B00000000000002803D0B3EE060A80ED000A16
:1007C0007047000070B52DED0C8B84B006460C46CA
:1007D00015469FED990AF0EE408A9FED970AB0EE1C
:1007E000409A9FED950AF0EE40BA9FED930AF0EE25
:1007F000409A9FED910AB0EE40AA0EB104B11DB926
:1008000004B0BDEC0C8B70BD8C48FFF7C9FF8C4861
:10081000FFF7D0FF8A48D0ED000A9FED8A1A60EEFC
:10082000810AB0EE600A00F025F9F0EE408A28EE69
:10083000A80AF0EE408A8248D0ED000AB0EE001A15
:1008400060EE810A9FED7F1A60EE810AB0EE600AC9
:1008500000F010F9B0EE409A29EE090AB0EE409A85
:10086000DFED790AB7EE000A00EEA80ADFED770A9D
:1008700000EEC90ADFED760A20EE200A754880ED09
:10088000000A6E4890ED000ADFED730A80EE201A30
:10089000B7EE000A31EE000A20EE000A6D48D0EDF6
:1008A000000A80EE801A6D4880ED001A94ED000A6F
:1008B000B5EEC00AF1EE10FA0DD194ED010AB5EED5
:1008C000C00AF1EE10FA06D194ED020AB5EEC00AA4
:1008D000F1EE10FA46D09FED580AB0EE408A0020A3
:1008E000019002900390D4ED000A60EEA00A94ED0E
:1008F000011AD4ED011A41EE210A94ED021AD4ED49
:10090000021A41EE210AB0EE600A00F0A9F8B0EE3A
:10091000408A94ED000A20EE080A8DED010A94ED5C
:10092000010A20EE080A8DED020A94ED020A20EE7B
:10093000080A8DED030ADDED010AF1EE600AB0EE62
:10094000600AFFF70BFFF0EE409A9DED031AF0EE00
:10095000410A9DED021AB0EE410AFFF701FFB0EE29
:1009600040AA07E09FED340AF0EE409A9FED320A6C
:10097000B0EE40AA95ED000AB5EEC00AF1EE10FA0D
:100980000DD195ED010AB5EEC00AF1EE10FA06D1CF
:1009900095ED020AB5EEC00AF1EE10FA3CD0B0EEC9
:1009A000690A00F067F8B0EE408AB0EE690AFFF716
:1009B000D9FEB0EE40DAB0EE4A0A00F05BF8F0EE95
:1009C00040AAB0EE4A0AFFF7CDFEB0EE40BA28EEDC
:1009D0002A0AD5ED010A20EE200AD5ED000A0DEE17
:1009E000200A68EE0B0A95ED021A00EE810AB0EEBD
:1009F00040CA95ED010A20EE0B0AD5ED020A0AEE77
:100A0000E00AF0EE40CAF0EE6C0AB0EE4C0AFFF7D6
:100A1000A7FEF0EE40BA03E09FED070AF0EE40BA01
:100A2000B0EE4A1AF0EE690AB0EE6B0A30460AF0F0
:100A30003FFD00BFE4E6000000000000E4020020EB
:100A4000E802002035FA8E3CC1BFAD3B9DF8C536AB
:100A50002F7C1C41EC020020506CC24AF0020020A6
:100A600010B509F051F9B7EE001AC1EE000AB0EE68
:100A7000600A10BD10B510EE100A0EF083FC41ECB8
:100A8000100B09F0DDF851EC100B0DF0D5FE00EE67
:100A9000100A10BD2DE9F0412DED028B9AB00546EC
:100AA000B0EE408A0E4617469846002017901890E0
:100AB00019901490159016904DB146B13FB1B8F110
:100AC000000F04D0B5EEC08AF1EE10FA05D1002077
:100AD0001AB0BDEC028BBDE8F08196ED000A8DEDF9
:100AE000170A96ED010A8DED180A96ED020A8DEDB2
:100AF000190A97ED000A8DED140A97ED010A8DEDA4
:100B0000150A97ED020A8DED160A17AA14A92846B0
:100B10000AF020FB402104A8FFF7ADFD0020009063
:100B2000019002900390002417A904A80CF07EFE07
:100B300000BF30E004A800EB041090ED000AD5EDF2
:100B4000000A20EE200A04A800EB0410D0ED010AF0
:100B500095ED011A00EE810A04A800EB0410D0ED17
:100B6000020A95ED021A00EE810A04A800EB0410B7
:100B7000D0ED030A95ED031A00EE810A20EE080A73
:100B8000F0EE000A80EE201A684600EB840080ED4B
:100B9000001A601CC4B2042CCCDB002410E005EB6E
:100BA000840090ED000A684600EB8400D0ED000A56
:100BB00030EE200A05EB840080ED000A601CC4B210
:100BC000042CECDB28460CF005FA012080E700003D
:100BD00000F00EF8054C00F00CF800200CF076FE4A
:100BE00020600A200BF0DBFCF5E700009C020020EF
:100BF000704770472DE9F0412F4C30480025A2780E
:100C0000E27090F820102046A17000794FF4FA7835
:100C1000012704F1140619B112B93178022909D05B
:100C200078B102F071FCE168401A404509D3357093
:100C300025710DE00028F4D102F066FCE060277118
:100C4000EFE7307820B1012822D1607910B325E098
:100C50001B48B0F962000EF05CF841EC100B08F094
:100C60000BFF9FED181B51EC100B53EC112B0EF0EA
:100C70005DFA0CD2E088401C80B2E080142807D3D3
:100C8000E5803770BDE8F041012001F009BBE58047
:100C9000BDE8F08102F038FC2061677102F034FC9D
:100CA0002169401A4045F3D3002001F0F9FA0220EF
:100CB000307065712571EBE7BC020020D8860020FA
:100CC0003897002000000000004CBD400122102198
:100CD000014802F013BC0000000002400022102175
:100CE000014802F00BBC0000000002407047000009
:100CF00001221146014802F001BC0000000402403C
:100D000000220121014802F0F9BB0000000402406A
:100D100030B5437804781B021BB2234300EE103A2F
:100D20001B4CB8EEC00AD4ED000A20EE200A81ED7B
:100D3000000AC37885781B021BB22B4300EE103AE1
:100D4000F8EEC00A94ED000A60EE800AC1ED010AD7
:100D5000437904791B021BB2234300EE903AF8EE6C
:100D6000E00A20EE800ADFED0B0A81ED020A017A2B
:100D7000C3790904807941EA0321014300EE101A86
:100D8000B8EE400A20EE200A82ED000A30BD0000D5
:100D9000F800002000401C4270470BF000BC0BF034
:100DA00089B9000010B542780378120212B21A43D2
:100DB00000EE102A124BB8EEC00AD3ED010A20EE65
:100DC000200A81ED000AC2788478120212B222430E
:100DD00000EE102AF8EEC00A93ED010A60EE800AD8
:100DE000C1ED010A42790079120212B2024300EE0B
:100DF000902AF8EEE00A20EE800A81ED020A10BD8A
:100E0000F800002010B5FFF771FFFFF7C5FF0AF0EB
:100E100099FC08B1802402E00AF000FC04460AF0C4
:100E20005DFE10B144F0400010BD0AF0E9FD204322
:100E300010BD00002DE9FC410546002016460C4679
:100E400000900190FFF74AFF922000F0BDF80622C3
:100E50006946122000F09AF8FFF738FF9DF801006C
:100E60009DF80010000200B2084300EE100A464F41
:100E7000B8EEC00AD7ED000A20EE200A84ED000A81
:100E80009DF803009DF80210000200B2084300EE36
:100E9000100AF8EEC00A97ED000A60EE800AC4ED71
:100EA000010A9DF805009DF80410000200B20843F5
:100EB00000EE900AF8EEE00A20EE800A84ED020AC5
:100EC000FFF71EFF08226946002000F05FF8FFF7D9
:100ED0000FFF9DF800000F2830D19DF803009DF80A
:100EE0000210000200B2084300EE100AD7ED010A1A
:100EF000B8EEC00A20EE200A85ED000A9DF8050034
:100F00009DF80410000200B2084300EE100AF8EE4B
:100F1000C00A97ED010A60EE800AC5ED010A9DF84E
:100F200007009DF80610000200B2084300EE900A88
:100F3000F8EEE00A20EE800A85ED020AFFF7CEFE09
:100F4000A22000F041F802226946222000F01EF89B
:100F5000FFF7BCFE9DF800009DF80110C00040EABC
:100F60005110B0F5806F01DBA0F5006000EE100AB3
:100F7000B4EE001AF8EEC00AB3EE070A00EE810ADA
:100F800086ED000ABDE8FC81F800002070B514462B
:100F90000D4640F0800000F017F806E0552000F004
:100FA00013F8641E05F8010BE4B2002CF6D170BDF5
:100FB00010B50C4640F0800000F006F8552000F017
:100FC00003F8207010BD000001B582B04FF47A70B4
:100FD0000090012301AA02A9024803F09FF99DF89D
:100FE00004000EBDFC36002002784078D20042EAB0
:100FF0005010B0F5806F01DBA0F5006000EE100A24
:10100000B4EE001AF8EEC00AB3EE070A00EE810A49
:1010100081ED000A704710B50C46FFF7D5FF20465A
:10102000BDE81040FFF7D0BF10B50BF003F8BDE8E6
:101030001040014806F0D4B8A4380020FEE70000B4
:10104000014801F0B0BC000058360020014801F012
:10105000AABC000058360020014801F0A4BC0000E2
:1010600080360020014801F09EBC00008036002040
:1010700010B500210C4601EB810200EB82021369DE
:10108000642B02D25B1C136100E05473491CC9B28B
:101090000829F0D310BD0000A1F20121072924D8AE
:1010A000C9B24B1C01EB810120F82130002300EB79
:1010B00081000121036141731188DFED0C0A49BAF7
:1010C00000EE101A4180B8EE400A20EE200ADFED53
:1010D000080A20EE200A80ED010A518849BA0181F0
:1010E000918849BA4181D179017370470000B443B6
:1010F0000000003930B587B005460020009102900D
:101100000821CDE9030114468DF81400284601F0AA
:1011100034FC0028FAD006AB22466946284601F086
:10112000C3FA07B030BD000064200BF038FA074C5A
:1011300007491422A1F11400FFF7FCF900200CF07C
:10114000C5FB206001200BF02AFAF1E7D401002052
:10115000D886002000487047C486002000F092F82E
:1011600064200BF01CFA0A4C00F086FA00F088F8B4
:1011700000F080FA00F0DAF900F00CF800F0E2F983
:1011800000200CF0A3FB206001200BF008FAEBE735
:10119000AC02002010B5384C34F9240F00EE100AD0
:1011A000B4F90200B8EEC01A00EE100AB4F97800E3
:1011B000F8EEC00A00EE100A2F48B8EEC00AF03070
:1011C00005F0CCF9BDEEC00A10EE100AA4F87A00C2
:1011D000B4F9140000EE100AB4F91600B8EEC01A03
:1011E00000EE100AB4F98000F8EEC00A00EE100A12
:1011F0002248B8EEC00A05F0B1F9BDEEC00A10EE03
:10120000100AA4F88200B4F9280000EE100AB4F91C
:101210002A00B8EEC01A00EE100AB4F98800F8EE01
:10122000C00A00EE100A1548B8EEC00A783005F082
:1012300095F9BDEEC00A10EE100AA4F88A00B4F9C0
:101240003C0000EE100AB4F93E00B8EEC01A00EE01
:10125000100AB4F99000F8EEC00A00EE100A074830
:10126000B8EEC00AF03005F079F9BDEEC00A10EE14
:10127000100AA4F8920010BDF49300205C950020A1
:101280007047000010B5694800212DED0C8B0170EE
:101290009FED678AB1EE043A80ED248AF9EE042AC4
:1012A000DFED648AB0EE682A9FED639AB0EE481ACB
:1012B000F0EE480AF0EE491AB0EE080ABC3005F02C
:1012C000C3F90021B7EE007A9FED5CAAF0EE4A6AFE
:1012D000DFED5BAAB0EE6A6A9FED5ABAF0EE4B5AA8
:1012E000DFED59BAB0EE6B5A9FED58CAF0EE4C4A9A
:1012F000DFED57CAF0EE683AB0EE493AB0EE6C4A0C
:10130000F0EE482A9FED53DAF3EE0E1AB0EE481ACB
:10131000B0EE4D2ADFED509AF0EE690ADFED4FDABC
:101320004248B0EE6D0AF03005F056F90021B7EEF4
:10133000007AF0EE4A6AB0EE6A6AF0EE4B5AB0EE0E
:101340006B5AF0EE4C4AB0EE6C4AF0EE683AB0EEF2
:10135000493AF0EE482AB0EE4D2AF3EE0E1AB0EEFE
:10136000481AF0EE690AB0EE6D0A3D4805F034F90E
:101370003B480021B7EE007AF0EE4A6AB0EE6A6AA6
:10138000F0EE4B5AB0EE6B5AF0EE4C4AB0EE6C4AAF
:10139000F0EE683AB0EE493AF0EE482AB0EE4D2A47
:1013A000F3EE0E1AB0EE481AF0EE690AB0EE6D0ACE
:1013B000783005F011F92A480021B7EE007AF0EEF6
:1013C0004A6AB0EE6A6AF0EE4B5AB0EE6B5AF0EE33
:1013D0004C4AB0EE6C4AF0EE683AB0EE493AF0EEA4
:1013E000482AB0EE4D2AF3EE0E1AB0EE481AF0EE8F
:1013F000690AB0EE6D0AF03005F0EEF8B6EE083A84
:10140000FEEE082AB7EE082AFFEE081A9FED151A1D
:10141000F0EE480AB0EE690A134805F015F9BDEC84
:101420000C8BBDE8104001F01FB80000F4930020C1
:101430000000000000008046000080C600401C45FF
:1014400000401CC500409C4500409CC50000FA457A
:101450000000FAC5CDCCCC3DCDCC4C3D9A99993FFE
:101460005C9500209A99193EC496002010B52D4C29
:101470002DED028BD4ED1C1A94ED1B1AD4ED1D0A30
:101480009FED298A31EE810A31EE612A30EE200A81
:1014900032EE202A84ED260A84ED2A2A31EEC12A72
:1014A000F1EE611A31EEC11A32EE202A71EE200AF5
:1014B00084ED282AB3EE031AC4ED2C0AF0EE480A94
:1014C00078340AF075FDBDEEC00AB3EE031AF0EEF3
:1014D000480A10EE100AA08494ED0A0A0AF068FD8A
:1014E000BDEEC00AB3EE031AF0EE480A10EE100A81
:1014F000A08594ED0C0A0AF05BFDBDEEC00AB3EEC8
:10150000031AF0EE480A10EE100AA08694ED0E0AB7
:101510000AF04EFDBDEEC00A10EE100AA087BDEC29
:10152000028B10BDF4930020E3A59B3D044810B549
:10153000407800F037F9BDE81040FFF797BF000092
:10154000F493002070B5474E474D00242DED028BDB
:1015500082B0307888B16878401CC0B268701428B6
:1015600001D31420687001F0CFFF6978142969D283
:1015700000940194297811B104E06C70F3E7012123
:10158000686029706968401A64284AD236F9240FC5
:101590009FED368A00EE100A3248F0EE480AB8EEA7
:1015A000C00ABC3004F086FFBDEEC00AF0EE480A67
:1015B00010EE100AADF80600B6F9140000EE100A9D
:1015C0002848B8EEC00ABC3004F074FFBDEEC00A73
:1015D000F0EE480A10EE100AADF80400B6F9280043
:1015E00000EE100A1F48B8EEC00ABC3004F062FFDB
:1015F000BDEEC00AF0EE480A10EE100AADF8000089
:10160000B6F93C0000EE100A1648B8EEC00ABC302D
:1016100004F050FFBDEEC00A10EE100AADF8020053
:1016200007E0ADF80040ADF80440ADF80240ADF879
:1016300006406A4601210E4800F038FE02B0BDECBB
:10164000028B70BD2C700094019436F89E0FADF89B
:1016500006003089ADF80400308AADF80000308B08
:10166000DCE70000F4930020A0020020000000004E
:10167000583600207047000070B500F057FF44480E
:1016800080ED020AFFF766FD014614224148FEF78D
:1016900051FF04F0A3F83F4D68613F4804F072FD2C
:1016A000044600F13C01A8610D2205F11C00FEF783
:1016B00086FF94F8490085F82900E06CE86204F19F
:1016C00028010D2205F13000FEF779FF94F835006E
:1016D00085F83D00A06B28640D22214605F14400E9
:1016E000FEF76DFF607B85F851002069686504F1A5
:1016F00014010D2205F15800FEF761FF94F8210056
:1017000085F86500606AA866244804F03BFD04463D
:1017100000F15001A8670D2205F17C00FEF74FFF94
:1017200094F85D0085F8890005F18000216EC160A4
:1017300095F88900012802D0D5F8900014E095EDC5
:10174000200ADFED170A30EE600A10EE100A0DF0E5
:1017500019FE41EC100B022004F062FD51EC100B5D
:101760000DF06AF8C5F890000DF00CFE41EC100B7E
:1017700004F0BCFD51EC100B0DF05EF800EE100A09
:1017800085ED240A04F014FD85ED250A70BD0000E6
:10179000A0020020F493002058360020803600205C
:1017A00000C0874370B5C54D2DED068B95ED248A9D
:1017B0009FEDC3AADFEDC3AAD5F8944000287CD0E2
:1017C000C14E01287AD0022879D120460DF0DAFDE9
:1017D00041EC100B08F044F8B5F90200B0EE408A75
:1017E00000EE100AF0EE608AB7EE002AB8EEC00AEA
:1017F000FFEE001AB0EE4A1AF0EE6A0A04F0F6FCA8
:1018000010EE100A0DF0BEFD53EC182B0DF0E8FAA7
:1018100041EC190B20460DF0B5FD41EC100B08F022
:101820000FFAB5F90400B0EE408A00EE100AF0EEAF
:10183000608AB7EE002AB8EEC00AFFEE001AB0EEDA
:101840004A1AF0EE6A0A04F0D1FC10EE100A0DF00C
:1018500099FD53EC182B0DF0C3FA53EC192B0DF036
:101860001DF80CF0E9FFE86620460DF08BFD41EC19
:10187000100B08F0E5F9B5F90200B0EE408A00EE71
:10188000100AF0EE608AB7EE002AB8EEC00AFFEE4A
:10189000001AB0EE4A1AF0EE6A0A04F0A7FC10EE45
:1018A000100A0DF06FFD53EC182B0DF099FA41EC76
:1018B000190B20460DF066FD02E02DE058E0F9E03E
:1018C00041EC100B07F0CCFFB5F90400B0EE408AF4
:1018D00000EE100AF0EE608AB7EE002AB8EEC00AF9
:1018E000FFEE001AB0EE4A1AF0EE6A0A04F07EFC2F
:1018F00010EE100A0DF046FD53EC182B0DF070FAA7
:1019000053EC192B0DF054FC0CF096FF286796ED64
:10191000020AB1EE400ACBE0B5F90200B7EE002AA8
:1019200000EE100AFFEE001AB0EE4A1AB8EEC00A36
:10193000F0EE6A0A04F05AFC85ED1B0AB5F90400C2
:10194000B7EE002A00EE100AFFEE001AB0EE4A1AB7
:10195000B8EEC00AF0EE6A0A04F048FC85ED1C0AF5
:10196000DFED5A0AB0EE480A594804F0ADFD9FE099
:1019700020460DF007FD41EC100B07F071FFB5F9A3
:101980000200B0EE408A00EE100AF0EE608AB7EE78
:10199000002AB8EEC00AFFEE001AB0EE4A1AF0EEC6
:1019A0006A0A04F023FC10EE100A0DF0EBFC53EC75
:1019B000182B0DF015FA41EC190B20460DF0E2FC46
:1019C00041EC100B08F03CF9B5F90400B0EE408A88
:1019D00000EE100AF0EE608AB7EE002AB8EEC00AF8
:1019E000FFEE001AB0EE4A1AF0EE6A0A04F0FEFBAF
:1019F00010EE100A0DF0C6FC53EC182B0DF0F0F9A8
:101A000053EC192B0CF04AFF0CF016FFE866204649
:101A10000DF0B8FC41EC100B08F012F9B5F902001A
:101A2000B0EE408A00EE100AF0EE608AB7EE002AAF
:101A3000B8EEC00AFFEE001AB0EE4A1AF0EE6A0ADB
:101A400004F0D4FB10EE100A0DF09CFC53EC182BA4
:101A50000DF0C6F941EC180B20460DF093FC41EC5B
:101A6000100B07F0FDFEB5F90400B0EE409A00EE51
:101A7000100AF0EE609AB7EE002AB8EEC00AFFEE48
:101A8000001AB0EE4A1AF0EE6A0A04F0AFFB10EE4C
:101A9000100A0DF077FC53EC192B0DF0A1F953EC63
:101AA000182B0DF085FB0CF0C7FE286796ED020A97
:101AB00085ED1D0ABDEC068B70BD0000F49300207F
:101AC00000007A4400007AC4A00200200000000058
:101AD000C49600200448FFF7CBFA0448FFF7C8FA81
:101AE00001200AF05CFDF5E7FC8600209C870020C1
:101AF000014801F061BA0000F4390020014801F00A
:101B00005BBA0000543A00202DE9F05FA148A24AD8
:101B1000A14DC06CA14EA04F0068DFF880C2DFF875
:101B20007882DFF87892DFF870A2DFF870B2DFF821
:101B300068E29A4C483D60361837D1140CF1180C05
:101B4000A8F1300809F178090AF1300A0BF1300BDD
:101B5000AEF1180E90421ED98F4A543A21E0B84295
:101B60002ED1202208E0504531D10A4604E04FF43E
:101B7000001201E04FF00062134276D0864A904294
:101B80004ED9A04205D0A84203D0B04201D0B842FD
:101B90002AD1202141E0814AA832904203D97E4ACD
:101BA000583A136805E07D4A483290427C4AF8D999
:101BB0005368A042D5D0A842D3D0B042D1D0CEE70E
:101BC0006045D2D04045D0D04845CED0CBE758452F
:101BD000CDD07045CBD0714A90329042C7D06E4A7A
:101BE00048329042C6D1C2E7604516D0404514D075
:101BF000484512D0504510D0584509D0704507D0FF
:101C000066499031884203D063494831884202D105
:101C10004FF4001101E04FF000615F484C3829E0BB
:101C20005E4AA832904227D9A04205D0A84203D0EC
:101C3000B04201D0B84201D1202119E0604517D04F
:101C4000404515D0484513D0504511D0584509D0CE
:101C5000704507D051499031884203D04E494831F0
:101C6000884203D14FF4001102E090E04FF0006190
:101C70004948503801604EE0484A4832904225D9E0
:101C8000A04205D0A84203D0B04201D0B84201D151
:101C9000202118E0604516D0404514D0484512D0A8
:101CA000504510D0584509D0704507D03B49903178
:101CB000884203D038494831884202D14FF400119C
:101CC00001E04FF000613648C16024E0A04205D039
:101CD000A84203D0B04201D0B84201D1202118E07F
:101CE000604516D0404514D0484512D0504510D01C
:101CF000584509D0704507D028499031884203D013
:101D000025494831884202D14FF4001101E04FF0DB
:101D1000006123488160234C207880070CD520780F
:101D200020F002002070207840F004002070012292
:101D300011461D4801F0E2FB60781C4D80070CD570
:101D4000607820F002006070607840F004006070FD
:101D500001221021284601F0D1FBA07880070CD584
:101D6000A07820F00200A070A07840F00400A070DD
:101D700001221021284601F0C1FB0AF0B7FA2078B1
:101D8000400704D50A48016841F001010160BDE83F
:101D9000F09F0000FC3600205864024010600240B2
:101DA000006002402C0100200004024000000240BC
:101DB000103C0140014801F0FFB800003439002018
:101DC000014801F0F9B80000B43A0020014801F0E0
:101DD000F3B800009439002001681823CAB2103A01
:101DE000B2FBF3F2054B6FF30901032A9B5CC36559
:101DF00000D9091D8165084670470000F8F7000802
:101E000010B5014600208B698A6A4FF0C07453B147
:101E1000B3F5005F15D072B1012A0CD0022A0AD0A6
:101E2000032A09D104E01AB1012A06D0022A03D1FB
:101E3000C96AC90100D5012010BDC96AA142FAD002
:101E400010BD002AF7D0012AF2D0022AF3D0032ACB
:101E5000F3D010BD30B50468256825F480252560D1
:101E6000046863608368402B036803D0996000684E
:101E7000C26030BD9A600068C16030BD704700002C
:101E800030B52DED028B83B004F032FF5B4D6860FE
:101E9000FFF760F9A8600AF0AFF9E8600AF030F9DE
:101EA000286103F09BFC6861A968554C0A7B012AF4
:101EB00094F8402022F03C021ED0203284F84020CA
:101EC0000A7C012A94F8312022F03C0216D02032FC
:101ED00084F831204978002994F8221021F03C013F
:101EE00000D0091D84F822102969097841B101291F
:101EF0000CD0022910D016E0121DDFE7121DE7E713
:101F000094F84F1021F03C0120310AE094F84F1072
:101F100021F03C01183104E094F84F1021F03C010D
:101F2000091D84F84F103749006891ED078A0DF0BC
:101F300029FA41EC120BB4F8270001A9400900EE80
:101F4000100AE08C9FED301AF8EE400AC0F38A00C8
:101F500000EE100A6846B8EE400A05F055F89DED0F
:101F6000000A618D9FED2A1ABCEEC00A10EE100A1D
:101F700060F38C0161859DED010AB4F82B10BCEE75
:101F8000C00A10EE100A9FED210A60F34F1168EEAF
:101F9000000AA4F82B1080EE810ADFED1E0A20EE65
:101FA000200ADFED1D0ABDEEC00A10EE100AC4F8CB
:101FB0006500E86890ED011AA08AC00900EE100AD9
:101FC0000120B8EE400A03F055FDBCEEC00AB4F89B
:101FD000131010EE100A60F38E11A4F81310A86805
:101FE000807C012806D103B0BDEC028BBDE83040F7
:101FF00000F054B803B0BDEC028B30BD18020020D5
:10200000D6900020D88600200000484200003443CB
:10201000DB0F494000007A44000070C210B54FF455
:102020007A700AF0BCFA04F063FE1A4948601A4953
:1020300090F82A0008600BF0CDF91E200AF0AFFAE4
:102040000BF0CAF91E200AF0AAFA0BF0C7F91E20FD
:102050000AF0A5FA0BF0C4F91E200AF0A0FA0BF062
:10206000C1F91E200AF09BFA0BF0AEF91E200AF00F
:1020700096FA0BF0ABF91E200AF091FA0BF0A8F9D2
:1020800032200AF08CFA0BF00FF8BDE81040322035
:102090000AF085BA180200201402002010B501F0E1
:1020A00033FA1D4C2168411AB1F5FA6F33D3206021
:1020B00004F01EFE1949606090F82A0008600BF0D9
:1020C00089F91E200AF06BFA0BF086F91E200AF03F
:1020D00066FA0BF083F91E200AF061FA0BF080F922
:1020E0001E200AF05CFA0BF07DF91E200AF057FA68
:1020F0000BF06AF90BF06AF91E200AF050FA0BF0A7
:1021000067F932200AF04BFA0AF0CEFFBDE8104022
:1021100032200AF044BA10BD180200201402002038
:1021200010B5FFF7ADFEBDE810400BF019BB000085
:10213000084C4FF480750123064A2946064800F0F2
:1021400063F800200BF0C2FB606001200AF027FA60
:10215000F1E70000F0000020803600202DE9F05F5C
:102160009946DDF828B08A4620B3BAF1000F45D071
:10217000B9F1000F42D0816804293FD14068040AB8
:10218000C5B294423AD1ADB100271D4E4FF48078CC
:10219000012D06D17780377041461A487460FEF7EA
:1021A00048FA7068844229D13078401C854202D0B8
:1021B0007780377022E07088082400F108014145DB
:1021C00002D9C0F580718CB20E49224608445146AE
:1021D000FEF7B0F97088204480B270803178491CD5
:1021E00031705946584509D30A4606494846FEF714
:1021F000A1F9778037700120BDE8F09F0020FBE750
:10220000E80000209C8400202DE9F04F89B01D4695
:1022100090468A465FEA000B36D0B8F1000F33D003
:1022200095B3B5F5807F2FD8E81DC0F3C70900240A
:1022300032E0E000082200F10801A94201D9291A80
:10224000CAB20026641C08EB000144EA0A2706967D
:1022500006A80796FEF76EF90420CDE902060820CD
:10226000019704908DF8146002E001200AF097F9BC
:10227000584600F082FB0028F7D008AB06AA694652
:10228000584600F011FA18B1002009B0BDE8F08FEF
:1022900001200AF084F9E4B24C45CAD30120F4E7E6
:1022A0000149087070470000F00000202DE9FC4152
:1022B00080461646084600F085F8050010D0002438
:1022C0006F4607EB44014A1C36F9140003F0B0FBDB
:1022D000641C042CF5DB6A4629464046FEF70AFFDB
:1022E000BDE8FC817CB504460020134600900190B7
:1022F0004A1E4800032A03D84FF40075801E05E0EB
:10230000491F03290DD840F2FF150A380DEB0001D3
:102310004A1C184603F08CFB6A4629462046FEF705
:10232000E9FE7CBD012000F0F5BF082000F0F2BFFF
:10233000102000F0EFBF202000F0ECBF72B6FEE7E7
:10234000114800B590ED000A0AF086FE0F4981EDB4
:10235000060A90ED010A0AF07FFE81ED070A90ED72
:10236000000A0AF079FE0849C43181ED000A90EDB7
:10237000010A0AF071FE81ED010A90ED020A0AF0ED
:102380006BFE81ED020A00BDF48500202C010020C7
:102390000A49DFED0B1A70EEC00A086880EA503077
:1023A00080EA404080EA501001EE100A0860B8EE62
:1023B000411A21EE211A01EE200A7047B0020020D6
:1023C0000000802F012803D0052804D0002070478A
:1023D0004FF40070704740F2FF10704710B558B1CD
:1023E000084C491E0BD310F8013B5340DBB234F8C4
:1023F000133083EA1222F4E74FF6FF7010BD104647
:1024000010BD000044FC000810B5054C03E010F8B6
:10241000013B5340E25C491EF9D2104610BD00005A
:1024200044FB000800F01AF80A4C00F01BF800F01A
:1024300014F800F016F800F012F800F00DF800F0B3
:102440000FF800200BF042FA20600A200AF0A7F8EB
:10245000EBE70000B40200207047704770477047F8
:10246000704770477047000010B50CF037F8264CE5
:10247000264960409FED260A086084ED000A9FED22
:10248000250A9FED261A84ED010A9FED230A04F127
:102490000C0084ED020AB7EE080AF0EE040AF6EE2C
:1024A000001A80EC040A0020DFED1D1AC4ED071AA3
:1024B00084ED081AB7EE001A84ED091AB0EE001A7E
:1024C00084ED0A1A9FED171A84ED0B1AA063FFF72B
:1024D0005FFFDFED150A84ED0C0A80EE201ABCEEDA
:1024E000C10A84ED0F0AD4ED060A94ED050AFFF740
:1024F0004FFFD4ED020A94ED011A70EEC10A20EEEE
:10250000200A84ED0D0A10BDF8960020B0020020CC
:102510000AD7A33C6666E63FCDCC0C40CDCCCC3D83
:102520000AD7233C000000006F12833A70B5514C6B
:102530002DED048B2546A86B401CA8639FED4E8AA9
:10254000E96B884223D30020A863D4ED040A94EDFC
:10255000030AFFF71DFF85ED0C0ADFED480A80EE48
:10256000201ABCEEC10A85ED0F0AD4ED060A94EDDF
:10257000050AFFF70DFFD4ED020A94ED011A70EE83
:10258000C10A20EE200A85ED0D0A85ED0B8A95ED36
:102590000E0AF7EE008AB6EE009AB8EE401A95EDF4
:1025A0000F0AB8EE400AC1EE000A94ED080AB4EE34
:1025B000E00AF1EE10FA08DD80EE801A94ED090AC7
:1025C000B0EE688A01EE408A13E070EEC00A38EE81
:1025D000C01A80EE810ADFED2A0A20EE200A07F0F9
:1025E000A3F9B0EE498AF0EE480A40EE480AB0EE90
:1025F000608AF0EE000A38EE490A20EE200AD5ED96
:102600000D0A20EE208AF6EE000ABEEE000AFFF761
:10261000BFFE94ED021AD4ED011A94ED072A71EE73
:10262000610A60EE820A20EE200A71EE810A60EEF5
:10263000890A70EE880A70EE800AF4EEE01AF1EE74
:1026400010FA01DDF0EE610AB4EEE01AF1EE10FAD4
:1026500001D2F0EE410A94ED001AD5ED0A1A38EED7
:10266000C10A20EE210A01EE200A85ED0A0ABDEC1E
:10267000048B70BDF8960020000000006F12833AB2
:10268000DB0F494090F82020012A07D0022A05D00C
:10269000416A41F48021416201207047006842692B
:1026A0000A43426100207047F0B590F8205004685A
:1026B000A468012D05D0022D03D0416A41F4802188
:1026C00057E014F0406F01D1E5004FD5C4F3016429
:1026D0000125A5401D608B684FF4C0759BB1CE6885
:1026E00033434E6843EAC603066805EB0417F3510B
:1026F0004FF4C273076803EB04130E69FE50097DA3
:10270000012905D009E00E88CB6843EA4653EBE780
:102710000168CE5846F48076CE501179D379567937
:1027200041EA036193791B0443EA062319434FF4FA
:10273000C676036806EB041699511178D37841EAFE
:102740000361937852781B0443EA022211434FF449
:10275000C473026803EB0413D150006805EB041145
:10276000425842F0010242500020F0BD416A41F45B
:10277000001141620120F0BD10B590F82020012A1F
:1027800007D0022A05D0416A41F48021416201202C
:1027900010BD3B48D0F8002242F00102C0F80022F0
:1027A000D0F8002222F47C52C0F80022D0F8002297
:1027B0004B6A42EA0322C0F800220A7D02F01F039E
:1027C00001229A40D0F81C329343C0F81C32CB69E6
:1027D000B3B9D0F80C329343C0F80C328C894B68F3
:1027E00064F31F434C6900EBC404C4F840320C8905
:1027F0000B6864F31F434C6900EBC404C4F8443213
:10280000CB69012B16D1D0F80C321343C0F80C322F
:102810000C884B6864F31F434C6900EBC404C4F894
:1028200040320C89CB6864F31F434C6900EBC4044D
:10283000C4F844328B69002BD0F804320ED0134315
:10284000C0F804320B69002BD0F8143208D01343BF
:10285000C0F81432096A012904D008E09343EFE775
:102860009343F5E7D0F81C121143C0F81C12D0F8BE
:10287000001221F00101C0F80012002010BD00007C
:1028800000640040704770B590F82040012C05D0DE
:10289000022C03D0416A41F4802128E0046809B386
:1028A0002469A40720D04FF4D874056804EB011400
:1028B0002D5915F00405956005682D591AD0ED08BD
:1028C000556005682C5904F00204D4604FF4DA74A2
:1028D000056804EB01142E5906F00F06082E0CD3E0
:1028E00008250DE0E468DCE7416A41F4001141622B
:1028F000012070BD6D0D1560E3E72D5905F00F0542
:10290000156105682D59C5F30725956105682C5992
:10291000240C54614FF4DC72046802EB0112A458D9
:102920001C700468A458240A5C700468A458240C21
:102930009C700468A258120EDA704FF4DE720468BC
:1029400002EB0112A4581C710468A458240A5C719B
:102950000468A458240C9C710468A258120EDA7101
:10296000006829B1016941F020010161002070BDBA
:10297000C16841F02001C160F8E70246002092F8EA
:102980002010012901D002290CD111688A68520156
:1029900000D501208A68120100D5401C8968C90051
:1029A00000D5401C70472DE9F05F05460068002403
:1029B0004669D0F804908768D0F80CB0D0F810A021
:1029C000D0F81880F10748D0F90714D001218160B0
:1029D000B80703D5284600F08CFA0CE0780702D53A
:1029E0004FF4006407E0380702D54FF4805402E04A
:1029F000284600F07DFAF80516D529684FF4807056
:102A00008860B80503D5284600F075FA0CE0780513
:102A100002D544F4005407E0380502D544F480445C
:102A200002E0284600F066FAF80316D529684FF44C
:102A300080308860B80303D5284600F05EFA0CE0C9
:102A4000780302D544F4004407E0380302D544F487
:102A5000803402E0284600F04FFA300707D55FEADD
:102A6000CB6004D52968102044F40074C860700756
:102A70004FF0080707D55FEA0B7004D52868C760D8
:102A8000284600F0A7F9B00706D52868C068800777
:102A900002D0284600F0A0F9700607D55FEACA60A8
:102AA00004D52968102044F480640861B00607D575
:102AB0005FEA0A7004D528680761284600F0EAF941
:102AC000F00606D528680069800702D0284600F085
:102AD000E2F9B00308D55FEAC96005D5296810207E
:102AE0004860284600F0D8F9F00307D55FEA09707E
:102AF00004D528684760284600F000FA300446D51F
:102B00005FEA497040D5F00504D55FEAC87001D08E
:102B100044F00104B00504D55FEA887001D544F0A3
:102B20000204700504D55FEA487001D544F004043E
:102B3000300529D518F0700F26D008F07000402815
:102B400015D006DC102809D020280AD0302816D14C
:102B50000AE050280ED0602811D10EE044F008049D
:102B60000DE044F010040AE044F0200407E044F0D3
:102B7000400404E044F0800401E044F480742868D8
:102B8000816921F070018161296804204860002C6E
:102B900005D0686A204368622846FFF773FEBDE8E7
:102BA000F09F70B5040003D094F8200010B104E049
:102BB000012070BD204600F081F82068016841F0D6
:102BC0000101016000F0A0FC0546052604E000F0CC
:102BD0009BFC401B0A2811D820684068C007F6D02B
:102BE0002068016821F00201016000F08DFC0546BB
:102BF0000BE000F089FC401B0A2806D9606A40F40B
:102C00000030606284F82060D2E720684068800766
:102C1000EFD4207E0128206801683DD021F080019A
:102C20000160607E01282068016838D021F04001F1
:102C30000160A07E01282068016833D021F02001C6
:102C40000160E07E0128206801682ED041F010016B
:102C50000160207F01282068016829D021F0080147
:102C60000160607F01282068016824D021F0040100
:102C70000160D4E902010843D4E904121143084376
:102C80006168491E08432168C86100206062012014
:102C900084F82000002070BD41F08001C0E741F0C1
:102CA0004001C5E741F02001CAE721F01001CFE75C
:102CB00041F00801D4E741F00401D9E7F0B587B04D
:102CC000044614216846FDF7D6FC3D493D4ADFF82D
:102CD000ECE00868D4F800C03A4B0324022509262A
:102CE00010320027401CF44529D10860012807D183
:102CF000106840F000701060106800F000700590DF
:102D0000186840F00800186018688DE8B00000F0FE
:102D10000800CDE90460694603942B4800F006FBE7
:102D200000220621142000F031FF142000F020FFC3
:102D300000220621152000F029FF152039E0DFF8D8
:102D40008CE0F44537D1D2F800C04CF0806CC2F86A
:102D500000C0D2F800C001280CF0806CCDF814C07F
:102D6000086007D1106840F000701060106800F033
:102D700000700590186840F00200186018686946F5
:102D800000F00200059060208DE8A100CDE9034627
:102D90000F4800F0CBFA00220621402000F0F6FE9A
:102DA000402000F0E5FE00220621412000F0EEFE6A
:102DB000412000F0DDFE07B0F0BD000000640040DF
:102DC0004800002030380240000C024000680040FB
:102DD00000040240704700002DE9F04104460068FD
:102DE000264924250126264F8AB04FF400788842D0
:102DF00018D01FE0039810B1042813D109E008AAE5
:102E000020480199FEF748F908A9019805F030FE1D
:102E100008E01D4B424608A901A80095FFF79EF95E
:102E200000B13E7008AB01AA00212046FFF72BFD40
:102E30000028DFD015492068884216D00AB0BDE8C6
:102E4000F081039810B104280FD105E008AA1048BA
:102E50000199FEF721F908E00B4B424608A901A8A9
:102E60000095FFF77BF900B13E7008AB01AA002185
:102E70002046FFF708FD0028E3D0DFE700640040AC
:102E8000F8010020FC860020D88600200068004061
:102E90009C87002070477047704770B5044690F8D3
:102EA0002000012804D0606A40F40020606217E02E
:102EB000022084F820002068016821F001010160EF
:102EC00000F022FB05460DE000F01EFB401B0A2827
:102ED00008D9606A40F400306062052084F8200060
:102EE000012070BD20684068C007EDD1606270BDF0
:102EF00070477047704770477047704770472DE9BB
:102F0000F0410446876D00F0FFFA054694F835005D
:102F10000026022806D08020606584F834600120F5
:102F2000BDE8F0812068016821F016010160206889
:102F3000416921F080014161206C08B9A06C20B189
:102F40002068016821F0080101602068016821F013
:102F5000010101600CE000F0D7FA401B052807D9F9
:102F600020206065032084F8350084F83460D7E7BA
:102F700020680068C007EED194F85C103F208840BC
:102F8000B860012084F8350084F834600020C7E779
:102F900090F83510022903D0802141650120704747
:102FA000052180F835100068016821F001010160F9
:102FB00000207047406D70472DE9F84304464FF0FC
:102FC0000009CDF8009063484FF41651A56D0068D4
:102FD000B0FBF1F72E6894F85C20082101FA02F0AA
:102FE00030420FD02068026852070BD5026822F0E9
:102FF0000402026094F85C008140A960606D40F0BA
:103000000100606594F85C104FF0010808FA01F0C7
:10301000304208D021684969090604D5A860606D6E
:1030200040F00200606594F85C1004208840304253
:1030300008D021680968890704D5A860606D40F050
:103040000400606594F85C1010208840304218D06D
:1030500021680968090714D5A86020680168490338
:1030600004D50068000308D5A16C07E00168C90514
:1030700003D4016821F008010160216C09B12046E8
:10308000884794F85C1020208840304231D0216875
:103090000968C9062DD5A86094F835000528206870
:1030A000016806D0490347D5006800031DD4616C50
:1030B0001CE021F0160101602068416921F08001C7
:1030C0004161206C08B9A06C20B12068016821F032
:1030D0000801016094F85C103F208840A86084F8E3
:1030E000358084F83490216D1FE0E16B09B12046F2
:1030F0008847606D00282BD0606DC00714D0052074
:1031000084F835002068016821F001010160009811
:10311000401C0090B84203D820680068C007F6D170
:1031200084F8358084F83490E16C002910D001B027
:103130002046BDE8F04308470168C905D5D40168B9
:1031400021F01001016084F8358084F83490CCE7D8
:10315000BDE8F883580000202DE9F041044600F056
:10316000D3F905465CB1022084F83500002684F8C6
:1031700034602068016821F0010101600DE0012048
:10318000BDE8F08100F0C0F9401B052805D92020DA
:103190006065032084F83500F2E720680068C00706
:1031A000F0D121680A6820480240D4E9010318439D
:1031B000D4E903352B43184363691843A3691843C3
:1031C000E3691843236A18431043626A042A03D14F
:1031D000D4E90B231A431043086020684069656AEC
:1031E00020F0070128460D43012704280CD1A06ACE
:1031F0000543E06A40B12046FEF702FE20B14020C0
:10320000606584F83570BAE7206845612046FEF7AE
:10321000E3FD94F85C203F2191408160666584F86D
:1032200035700020ACE700003F8010F02DE9F04140
:103230000446866D90F83400002501280DD0012049
:1032400084F8340094F835700020012F07D084F8FA
:10325000340002252846BDE8F0810220FBE7022762
:1032600084F8357060652046FEF7F4FD94F85C1034
:103270003F208840B0602068016841F0160101607D
:10328000206C20B12068016841F0080101602068CD
:10329000016841F001010160DCE7000010B51B4C42
:1032A00010281AD0202821D008282AD0012813D18C
:1032B0000BF006F901280FD004F10C0120690AF087
:1032C0005FFCE068002807D011494FF0805008608B
:1032D000BFF34F8FBFF36F8F10BD607840F00100D8
:1032E0006070A07840F00100A07003E0207840F00A
:1032F0000100207020790028EED0BDE8104008F0D1
:10330000F5BFE07840F00100E07010BD2C01002016
:1033100004ED00E0044910B50A68024202D00860DA
:10332000FFF7BCFF10BD0000143C01402DE9F84F31
:10333000DFF89C910022A9F1040B03274FF00F0C3A
:1033400009F1040AABF1040E01250B6895402B40EE
:10335000AB426ED10C7904F00304012C01D0022C95
:1033600015D18668540007FA04F826EA0806D1F851
:103370000C8008FA04F848EA0608C0F80880446897
:10338000AC430D79C5F300159540254345600C7994
:10339000E443A40708D0C568540007FA04F6B5430F
:1033A0008E68A6402E43C6600C7904F00304022CFC
:1033B00011D1D40800EB8406356A5407E40E0CFAE8
:1033C00004F825EA0805D1F8108008FA04F848EA5C
:1033D0000508C6F820800568540007FA04F6B543CE
:1033E0000E7906F00306A6402E4306604C6814F4DE
:1033F000403F66D0374C256845F4804525602468F9
:1034000022F0030504F480440094334C05EB0408D7
:10341000D8F808589407260F0CFA06F4A5432F4C49
:10342000A04201D1002424E02D4CA04202D101246D
:103430001FE046E02B4CA04201D1022419E02A4CA7
:10344000A04201D1032414E0284CA04201D104245D
:103450000FE0274CA04201D105240AE0254CA042F0
:1034600001D1062405E0244CA04201D1072400E04C
:103470000824B4402C43C8F80848D9F800404D4609
:103480004E689C43F60200D51C432C60DAF80040DD
:1034900055464E689C43B60200D51C432C60DBF8B1
:1034A00000405D464E689C43B60300D51C432C602B
:1034B000DEF8004075464E689C43F60300D51C4379
:1034C0002C60521C102AFFF43FAFBDE8F88F0000BB
:1034D000083C0140443802400030014000000240F6
:1034E0000004024000080240000C024000100240AC
:1034F0000014024000180240001C02400AB1816121
:1035000070470904FBE7000001488068704700002D
:103510004C00002070B5040025D094F83D00002533
:1035200020B984F83C50204600F052FA242084F858
:103530003D002068016821F00101016020680168F8
:1035400041F4004101602068016821F400410160FC
:1035500000F008FC4D4B6168994201D84C4900E0ED
:103560004C49884201D2012070BD4B492268B0FB12
:10357000F1F1566826F03F060E43566062689A42A3
:1035800006D94FF4967251434FF47A72B1FBF2F1BF
:103590002268491C166A26F03F06314311626168B1
:1035A000994210D84900401EB0FBF1F2521CC2F300
:1035B0000B02042A01D2042022E0B0FBF1F0401CEF
:1035C000C0F30B001CE0A268F2B301EBC10303EBF4
:1035D0000116431EB3FBF6F35B1C43F480431B054B
:1035E00049D092B301EBC10202EB0111401EB0FBC6
:1035F000F1F0401CC0F30B0040F4804040F4004068
:103600002168CA694CF6FF739A431043C861D4E934
:10361000071001432068026822F0C00211430160D4
:10362000D4E9030101432068826848F2FF339A43DA
:1036300011438160D4E9051001432068C26822F07B
:10364000FF021143C16001E00EE016E0206801684E
:1036500041F0010101602564202084F83D002563CC
:1036600084F83E50002070BD01EB4106431EB3FBC1
:10367000F6F35B1CB3E70120C2E701EB4101401EFA
:10368000B0FBF1F0401CC0F30B00B7E7A0860100CF
:1036900080841E0000093D0040420F002DE9FF4FCD
:1036A00083B09A46DDE9118793460446DDF84090E1
:1036B000FFF72AFF054694F83D00202870D1192312
:1036C000012274492046009501F081FF0028F5D1C0
:1036D00094F83C00012863D0012084F83C00206865
:1036E0000168C90703D1016841F001010160206848
:1036F000016821F400610160222084F83D0040202F
:1037000084F83E0000262664C4F82490A4F82A8099
:10371000608D20856048E062CDE9007553465A46C9
:103720002046049901F056FE002879D1208DD0B1B1
:10373000012821D00228206824D0416980690090A6
:10374000208D032866D801282BD0544902283B46F7
:103750004FF00002009557D08846204601F037FF11
:1037600000285DD13AE020684169816900910168D3
:1037700041F4007101607DE02068016821F48061FE
:103780000160F0E7016821F4806101602068016850
:1037900041F400610160206841698069009069E03E
:1037A00075E02A463946204601F0B2FF88BB54E056
:1037B0002068016841F40071016020680069616A55
:1037C0000870606A401C6062218D491E2185618DF0
:1037D000491E618521680969017042E0206801681D
:1037E00021F48061016020680069616A0870606A84
:1037F000401C6062208D401E2085608D401E6085CB
:103800003B46002241460095204601F0E0FE00B90B
:10381000CEE705E02A463946204601F079FF18B187
:10382000012007B0BDE8F08F20680069616A087068
:10383000606A401C6062208D401E81B22185608DCF
:10384000401E608520684269D243520712D4032982
:1038500003D1016821F48061016020680069616A18
:103860000870606A401C6062208D401E2085608D5B
:10387000401E6085208D00287FF462AF202084F8F0
:103880003D0084F83E6084F83C600020C9E70220D7
:10389000C7E70000020010000000FFFF0400010065
:1038A0002DE9FF4F83B09A46DDE911979346044610
:1038B000DDF84080FFF728FE054694F83D002028FB
:1038C0007FD11923012240492046009501F07FFE57
:1038D000002876D194F83C00012872D0012084F8A9
:1038E0003C0020680168C90703D1016841F001016B
:1038F00001602068016821F400610160212084F8E2
:103900003D00402084F83E0000262664C4F8248050
:10391000A4F82A90608D20852C48E062CDE90075DE
:1039200053465A462046049901F0D2FD70B930E062
:103930002A463946204601F025FF58B1206C04285C
:1039400004D12068016841F400710160012007B0D2
:10395000BDE8F08F606A216800780861626A521CD5
:103960006262208D401E80B22085618D491E618576
:1039700021684B69DB435B070BD468B110780861A1
:10398000606A401C6062208D401E2085608D401E54
:103990006085208D0028CBD12A463946204601F08B
:1039A000EBFD0028CAD154F83D0B016841F40071C9
:1039B0000160202004F81E09E67766770020C6E73C
:1039C000FFE70220C3E70000020010000000FFFF35
:1039D000F0B587B0044614216846FCF74CFE1B493D
:1039E000206888422FD11A48016841F00401016023
:1039F000016801F004010591016841F001010160D5
:103A00000068042400F0010005904FF400701225B6
:103A10000126032704948DE8E10069460D48FFF76D
:103A200085FCA00104948DE8E10069460A48FFF78F
:103A30007DFC07481030016841F400010160006816
:103A400000F40000059007B0F0BD0000005C0040ED
:103A500030380240000802400000024002488168FD
:103A600002781144816070474C0000200B4810B56B
:103A7000016841F400710160016841F480610160F6
:103A8000016841F480710160032000F09FF80F206D
:103A900000F006F800F050F8002010BD003C024095
:103AA00030B50546204887B00024016841F0010187
:103AB0000160006806A900F001000590684600F06A
:103AC00031F90398B0B100F04DF9400017494FF0BB
:103AD0008042B0FBF1F11648491E026040F2E73225
:103AE000C0E90324C0E90114846100F055FD04001D
:103AF00003D015E000F036F9E8E70D4800F0CAFD04
:103B000004000DD11C2000F033F8102D07D2002244
:103B100029461C2000F03AF80648056000E0012420
:103B200007B0204630BD00004038024040420F0040
:103B3000143B0020500000200C4882B0016841F482
:103B400080410160006800F4804000900748001F39
:103B5000016841F0805101600068002200F080504F
:103B600000900F21901E02B000F010B844380240BF
:103B7000002809DB00F01F0201219140400980006C
:103B800000F1E020C0F8001170470000F0B40E4BC7
:103B90001B68C3F30223C3F10704042C00D90424D7
:103BA0001D1D072D01D2002300E0DB1E012606FAB1
:103BB00004F56D1E0D409D409E40761E164045EA60
:103BC0000601F0BC05F050BC0CED00E0064A00F028
:103BD000070110684FF6FF03184040EA012003492F
:103BE00008431060704700000CED00E00000FA058B
:103BF0002DE9F0470D46040065D0DFF81491D9F89F
:103C00000000EFB200F00700A84207D289F8007068
:103C1000D9F8000000F00700A84254D120683D4EBA
:103C2000810712D5400703D5306840F4E05030607A
:103C30002078000703D5306840F460403060306879
:103C4000A16820F0F000084330602078C0072DD034
:103C5000304960680839012812D0022813D003289F
:103C600011D00968890700292DDA316821F0030194
:103C700001433160FFF748FC804641F2883A0EE08C
:103C800009688903EFE709688901ECE7FFF73CFC65
:103C9000A0EB0801514502D90320BDE8F087306848
:103CA000616800F00C00B0EB810FEFD1D9F8001083
:103CB000484601F00701A94207D90770006800F0E3
:103CC0000700A84201D00120E7E72078400705D58A
:103CD0003068E16820F4E050084330602078000745
:103CE00006D53068216920F4604040EAC1003060A8
:103CF00000F058F83168084AC1F30311515CC8401C
:103D00000649086006480068FFF7CAFE0020C4E7BD
:103D1000003C02400838024000F80008580000202B
:103D2000500000200F2202600C4A136803F00303C6
:103D30004360136803F0F0038360136803F4E053F7
:103D4000C36012684FF4E05303EAD20202610448F0
:103D5000006800F007000860704700000838024063
:103D6000003C02400448054900680968044AC1F360
:103D70008221515CC840704758000020083802403A
:103D800010F800080448054900680968044AC1F3AE
:103D90004231515CC840704758000020083802404A
:103DA00010F80008154810B5006810F00C01144810
:103DB00013D0144B04290FD008290ED10F4C241F07
:103DC000216801F03F022168490207D52068C0F34D
:103DD0008810A0FB030106E0184610BD2168C1F35E
:103DE0008811A1FB00010023FCF7BEFA2168C1F392
:103DF0000141491C4900B0FBF1F010BD08380240F8
:103E00000024F40040787D012DE9F84F040075D0BE
:103E10002078DFF838A3C007AAF1040548D00AF1DA
:103E200004000168C1F38101012908D00068C0F3D2
:103E3000810002280AD1DAF80000400206D528687D
:103E4000800335D560680028E1D031E06068B0F5C6
:103E5000803F10D0B0F5A02F286810D020F480301B
:103E60002860286820F4802028606068A0B1FFF7EF
:103E70004BFB06460CE0286840F48030F4E740F441
:103E800080202860F7E7FFF73FFB801B642871D88C
:103E900028688003F7D50BE0FFF736FB064604E001
:103EA000FFF732FB801B6428F1D828688003F7D421
:103EB0002078DFF89C9280074FF0000B3DD5A34897
:103EC000001D016811F00C0F08D00068C0F38100DC
:103ED00002280AD1DAF80000400206D428688007D8
:103EE00015D5E068012809D111E0E068B8B10120DA
:103EF000C9F80000FFF708FB064605E022E1FFF7DE
:103F000003FB801B0228C2D828688007F7D52868E1
:103F1000216920F0F80040EAC10028600DE0C9F8EE
:103F200000B0FFF7F1FA064604E0FFF7EDFA801B58
:103F300002281FD828688007F7D42078000722D5E8
:103F4000824F84486169703771B101210160FFF7C8
:103F5000DBFA064604E0FFF7D7FA801B022809D8EF
:103F600038688007F7D50EE0C0F800B0FFF7CCFA4C
:103F7000064605E082E0FFF7C7FA801B02287DD8DD
:103F800038688007F7D42078400765D56F484FF030
:103F900000083C300068C0000BD46C483C3001681D
:103FA00041F08051016000684FF0010800F080503E
:103FB0000090694F3868C0050FD4386840F48070AD
:103FC0003860FFF7A1FA064604E0FFF79DFA801B70
:103FD000022853D83868C005F7D55C4FA0686C3705
:103FE00001280FD00528386810D020F00100386073
:103FF000386820F004003860A068B0B1FFF784FA98
:1040000006460EE0386840F00100F4E740F0040096
:104010003860F7E7FFF778FA811B41F28830814278
:1040200063D838688007F5D50DE0FFF76DFA0646CE
:1040300006E0FFF769FA811B41F28830814254D8CB
:1040400038688007F5D4B8F1000F05D03F483C3000
:10405000016821F080510160A069B8B33B49091D96
:104060000968C1F38101022946D00228584606D0CA
:10407000C9F86000FFF748FA044639E035E04F46DA
:10408000C9F86000FFF740FA064604E0FFF73CFA83
:10409000801B022829D828688001F7D4D4E90701B9
:1040A0000843A16A2D4A490802EB0141626A41EACC
:1040B0008211084394F82C1040EA0161CAF80010FC
:1040C00001203866FFF720FA044605E03CE0FFF7E0
:1040D0001BFA001B022808D828688001F7D533E0B6
:1040E000FFF712FA001B022802D90320BDE8F88F5F
:1040F00028688001F4D427E00128F7D0DAF800001E
:10410000E26900F4800191421CD1226A00F03F0173
:10411000914217D147F6C071626A0140B1EB821F2C
:1041200010D1A26A4FF0FF3300F4403103EB52028A
:10413000B1EB024F06D194F82C1000F07060B0EB98
:10414000016F01D00120D1E70020CFE70438024001
:1041500000004742800E4742007000400000FFFF11
:1041600070B5040009D0606A002540B12561656121
:10417000A56294F8510040B10CE0012070BD606868
:10418000B0F5827FF4D0E561F2E784F85050204624
:1041900000F044F8022084F851002068016821F002
:1041A00040010160A088218900F4827001F404417B
:1041B0000843A18901F400610843217C01F0020158
:1041C0000843217D01F001010843218B01F40071B6
:1041D0000843217F01F03801084394F8201001F0D2
:1041E00080010843218D01F40051084321680860D3
:1041F000A069042101EA104094F8241001F0100194
:104200000843216848602068C16921F40061C161E8
:104210006565012084F85100002070BD2DE9F04152
:1042200086B0044614216846FCF725FA3549206813
:10423000884264D134480025016841F4805101600E
:10424000006800F4805005902F481438016841F050
:1042500002010160016801F002010591016841F06D
:10426000010101600068022600F00100059018209D
:10427000CDE9000602AA03274FF0050882E8A00155
:1042800069462248FFF752F88020CDE9000602AACD
:10429000694682E8A0011E48FFF748F81E4E1D48F7
:1042A0007F063060C6E901754FF48068C6E903589F
:1042B00075617812B561C6E9075030467562FEF740
:1042C0004BFF08B1FEF73AF8E664B463124E1148AA
:1042D00060361830E6E802074020A6E82101C00257
:1042E00046F81459B561C6E907500B48756260304D
:1042F000FEF732FF08B1FEF721F8A664B46306B0FA
:10430000BDE8F08100300140443802400004024022
:104310000000024040640240543700202DE9FF4F66
:1043200081B01F469346044601250E9EFFF7ECF828
:10433000804694F851006168012806D0B1F5827F6B
:104340003CD1A168C9BB042838D10298002870D09C
:10435000BBF1000FFBD0002FF9D094F850000128DA
:104360002CD04FF0010A84F850A094F85100042892
:1043700002D0052084F851004FF00009C4F8549091
:10438000C4F838B0E787A78702992163E786A78634
:10439000C4F84090C4F8449020680168490603D4EA
:1043A000016841F040010160E068B0F5006F6068AD
:1043B00008D0E8B3012F47D07DE0FFE7022005B029
:1043C000BDE8F08F08B1012F37D1206B216800883C
:1043D000C860206B801C2063E08E401EE0862CE0CD
:1043E0002068816889070DD5E18E59B1012D09D169
:1043F000216B0988C160206B801C2063E08E401E09
:10440000E086002520688168C9070BD0E18F49B19B
:10441000C068A16B0880A06B801CA063E08F401E69
:10442000E0870125FFF770F8A0EB0800B04201E03B
:104430000AE064E001D3701C4ED1E08E0028CFD199
:10444000E08F0028CCD13CE0206B21680078087315
:10445000206B401C2063E08E401EE0862BE020682D
:10446000816889070DD5E18E59B1012D09D1216BE4
:1044700009780173206B401C2063E08E401EE086AB
:10448000002520688168C9070BD0E18F49B1C06859
:10449000A16B0870A06B401CA063E08F401EE087FA
:1044A0000125FFF731F8A0EB0800B04202D3701CE1
:1044B00001D011E086B1E08E0028D0D1E08F002835
:1044C000CDD142463146204604F0FAF850B12020C2
:1044D000606584F8509012E084F851A084F8509000
:1044E00003206CE7A06818B92068C1688068009054
:1044F00084F851A084F85090606D0028F1D001201C
:104500005DE770477047000070B590F83C20012AC5
:1045100032D0012580F83C50022280F83D2002680C
:104520005368946823F070060B6833435360134B51
:1045300002689A4214D0B2F1804F11D0104B9A42C7
:104540000ED0104B9A420BD00F4B9A4208D00F4B13
:104550009A4205D00E4B9A4202D00E4B9A4204D199
:10456000496824F080031943916080F83D50002190
:1045700080F83C10084670BD022070BD000001406C
:104580000004004000080040000C0040000401400E
:10459000004001400018004010B5040003D094F81A
:1045A0003D0010B107E0012010BD002084F83C0060
:1045B000204600F01FF8022084F83D00211D2068ED
:1045C00004F026FB012084F8460084F83E0084F8BD
:1045D0003F0084F8400084F8410084F8420084F8E9
:1045E000430084F8440084F8450084F83D0000202E
:1045F00010BD000008B500680649884208D1064889
:10460000016841F400310160006800F4003000905E
:1046100008BD0000004401404438024090F83D10BD
:10462000012901D001207047022180F83D10006867
:104630001149884214D0B0F1804F11D00F498842FF
:104640000ED00F4988420BD00E49884208D00E493F
:10465000884205D00D49884202D00D49884204D1D4
:10466000816801F00701062903D0016841F00101CA
:10467000016000207047000000000140000400407D
:1046800000080040000C00400004014000400140D0
:104690000018004090F83D10012901D0012070471A
:1046A000022180F83D100168CA6842F00102CA6028
:1046B00000681149884214D0B0F1804F11D00F49E1
:1046C00088420ED00E4988420BD00E49884208D04D
:1046D0000D49884205D00D49884202D00C498842D4
:1046E00004D1816801F00701062903D0016841F077
:1046F00001010160002070470000014000040040FB
:1047000000080040000C004000040140004001404F
:104710000018004070B5044690F83C0000250128C0
:1047200017D0012684F83C60022084F83D00206800
:10473000826822F0770222F47F4282600868502863
:1047400038D00DDC20284FD005DC90B3102811D1D3
:104750004AE0022070BD302846D040280AD13BE014
:1047600060282FD070280DD0B0F5805F03D0B0F551
:10477000005F12D0012584F83D60002084F83C00E1
:10478000284670BDCB68D1E90121206804F0B5FA54
:104790002068816841F0770109E0CB68D1E9012107
:1047A000206804F0AAFA2068816841F480418160A1
:1047B000E1E719E0CA684968206804F0A7FB5021C6
:1047C000206806E0CA684968206804F0B0FB6021F0
:1047D000206804F09CFACEE7CA684968206804F0B3
:1047E00095FB40212068F4E7226801461046F0E777
:1047F00070472DE9F04104460068C66805694FF02E
:104800000007A90713D5B10711D5F91E01610120D1
:104810002077206880698007204602D0FFF7E8FFF4
:1048200004E000F0A9F8204600F03BF9277768077C
:1048300016D5700714D521686FF0040008610220B6
:1048400020772068806910F4407F204602D0FFF76F
:10485000CFFF04E000F090F8204600F022F927771F
:10486000280715D5300713D521686FF008000861B7
:10487000042020772068C0698007204602D0FFF717
:10488000B7FF04E000F078F8204600F00AF9277737
:10489000E80616D5F00614D521686FF010000861FF
:1048A000082020772068C06910F4407F204602D09D
:1048B000FFF79EFF04E000F05FF8204600F0F1F8FB
:1048C0002777E80708D0F00706D021686FF00100CD
:1048D0000861204600F04EF9280608D5300606D5B6
:1048E00021686FF0800008612046FFF70AFE680625
:1048F00008D5700606D521686FF040000861204693
:1049000000F03FF9A8060AD5B00608D521686FF077
:10491000200008612046BDE8F041FFF7F3BDBDE887
:10492000F081000010B586B0044614216846FBF7FC
:10493000A2FE0E482168814215D10D48002102686F
:1049400042F020020260006800F020000590402044
:1049500000900220CDE901010320CDE90310694652
:104960000448FEF7E3FC06B010BD0000004401401F
:104970003038024000140240704770B5044690F889
:104980003C0000260D4601280FD0012084F83C0091
:104990006AB1042A1DD0082A2FD00C2A3FD0012644
:1049A000002084F83C00304670BD022070BD2068B5
:1049B00004F0EAF92068816941F00801816120680A
:1049C000816921F004018161206881692A691143AC
:1049D00011E0206804F008FA2068816941F4006160
:1049E00081612068816921F4806181612068816929
:1049F0002A6941EA02218161D2E7206804F02AFA9B
:104A00002068C16941F00801C1612068C16921F0D5
:104A10000401C1612068C1692A69114311E020685D
:104A200004F04CFA2068C16941F40061C16120685A
:104A3000C16921F48061C1612068C1692A6941EAC4
:104A40000221C161ACE710B5040003D094F83D0029
:104A500010B107E0012010BD002084F83C00204682
:104A600000F01EF8022084F83D00211D206804F0AB
:104A7000CFF8012084F8460084F83E0084F83F0017
:104A800084F8400084F8410084F8420084F8430030
:104A900084F8440084F8450084F83D00002010BDEF
:104AA0007047704710B5044649B104290AD0082957
:104AB0000BD094F8410001280AD0012010BD94F8D1
:104AC0003E00F8E794F83F00F5E794F84000F2E77D
:104AD0000220B1B3042938D0082939D084F8410024
:104AE0000122206804F0FCF81B4920681B4A884218
:104AF00001D0904203D1436C43F4004343642068E7
:104B0000884213D0B0F1804F10D0154988420DD0A3
:104B1000144988420AD01449884207D0904205D0EF
:104B20001249884202D01249884204D1816801F0BA
:104B30000701062903D0016841F00101016000204E
:104B400010BDFFE784F83E00CAE784F83F00C7E7DE
:104B500084F84000C4E70000000001400004014068
:104B60000004004000080040000C004000400140EC
:104B7000001800400068B0F1804F01D1FEF76EBF11
:104B800070477047704770B5044620680C3050E895
:104B9000001F21F4907140E80012002AF5D120682E
:104BA000143050E8001F21F0010140E80012002AF3
:104BB000F5D1206B012809D120680C3050E8001F86
:104BC00021F0100140E80012002AF5D12068406968
:104BD0004FF00005400615D52068143050E8001F3E
:104BE00021F0400140E80012002AF5D1E06B48B105
:104BF0000565E06BFEF783F920B1E06BFEF7DAF9AB
:104C0000202806D0E585202084F842002563002076
:104C100070BD10206064032070BD7047F8B5016856
:104C200004460868CA684B6910F00F0F4FF0000582
:104C300059D003F0010602F49077374365D0C107DD
:104C400005D0D10503D5616C41F0010161644107D4
:104C500005D5D90703D0616C41F002016164810779
:104C600005D5D90703D0616C41F0040161640107E7
:104C700007D502F02001314303D0616C41F00801F7
:104C80006164616C00293AD0800604D5900602D593
:104C9000204604F037FA20684069616CC0F3801048
:104CA000090700D460B3204604F0F7F92068406992
:104CB000400621D52068143050E8001F21F0400143
:104CC00040E80012002AF5D1E06BA8B172490165F5
:104CD000E06BFEF75DF9002811D0E06B016D01B0CB
:104CE000BDE8F040084783060FD593060DD5204652
:104CF000BDE8F84004F006BA2046FFF78EFFF8BD85
:104D00002046FFF78AFF6564F8BD266B2023012E3D
:104D10007ED1C6067CD5D6067AD50868486800904C
:104D200048694FF0020640064DD5E26B10684068B6
:104D30004FF480770004000C3AD0A18D814237D91E
:104D4000E085D069B8422DD020680C3050E8001FB3
:104D500021F4807140E80012002AF5D12068143057
:104D600050E8001F21F0010140E80012002AF5D1AF
:104D70002068143050E8001F21F0400140E8001284
:104D8000002AF5D184F84230256320680C3050E8C1
:104D9000001F21F0100140E80012002AF5D1E06B5D
:104DA000FEF7ADF86663A08DE18D401A81B206E092
:104DB000A18D8142A8D1D069B842A5D166632046B1
:104DC000FFF7E0FEF8BDA08DE18D401A81B2E08DC5
:104DD0000028F7D00029F5D020680C3050E8002FCB
:104DE00022F4907240E80027002FF5D1206814309B
:104DF00050E8002F22F0010240E80027002FF5D1F3
:104E000084F84230256320680C3050E8002F00E021
:104E100006E022F0100240E80023002BF3D1CDE79A
:104E200005062BD5150629D594F841002128C9D1AE
:104E3000A068B0F5805F01D12069B0B1206A411C43
:104E40002162216800784860E08C401E0004000C5C
:104E5000E084B7D12068C16821F08001C16020687A
:104E6000C16841F04001C160F8BD206A0088C0F30C
:104E700008004860206A801C2062E5E74006F3D500
:104E80005006F1D5CA68204622F04002CA6084F874
:104E9000413000F0D1F9F8BD538F000870B504001F
:104EA00004D094F84100002510B106E0012070BD47
:104EB00084F84050204600F023F8242084F8410074
:104EC0002068C16821F40051C160204604F07CF9DB
:104ED0002068016921F4904101612068416921F055
:104EE0002A0141612068C16841F40051C1606564D4
:104EF000202084F8410084F842006563002070BDE2
:104F00002DE9F04F87B0044614216846FBF7B3FB48
:104F10009448DFF84C821438D4F800C0914B022139
:104F200003228715002506154FF0070A4FF0006B86
:104F3000C4456BD1D3F800C04CF0100CC3F800C0CE
:104F40001B6803F010030593036843F0020303603A
:104F5000036803F002030593036843F00103036051
:104F60000068894600F0010005908020CDE9000925
:104F70000DF1080C90468CE8200569467A48FEF74A
:104F8000D5F97010CDE900090DF10809694689E8E5
:104F900020057648FEF7CAF9DFF8D8817449404603
:104FA0004FF4803902C0DA46E0E802B5E0E8035683
:104FB00040F8045C80E8A0024046C8F82450FEF7A0
:104FC000CBF808B1FDF7BAF96A4F6948C4F83C80DC
:104FD00060373030C8F83840E7E8020A402061C73F
:104FE000644847F814596030BD61C7E907597D62CC
:104FF000FEF7B2F808B1FDF7A1F9A7630022052179
:105000002520BC63FEF7C2FD252046E0DFF868815D
:10501000C44547D1534B1B1FD3F800C04CF4802C20
:10502000C3F800C01B6803F480230593036843F0B2
:1050300004030360006800F0040005904FF4406032
:105040008DE82300CDE9032A69464C48FEF76EF946
:10505000DFF820814A4908F1C0084046C8F800102E
:10506000C0E901B5C0E90356C8F814504FF48031C7
:10507000C8F81850C8E90771C8F82450FEF76CF852
:1050800008B1FDF75BF9C4F83C8000220F2127200E
:10509000C8F83840FEF77AFD2720FEF769FD07B013
:1050A000BDE8F08FDFF8DC80C445F8D1D3F800C04C
:1050B0004CF0200CC3F800C01B6803F020030593DC
:1050C000036843F040030360006800F0400005906F
:1050D0004FF484408DE823000820CDE90320694681
:1050E0002948FEF723F9DFF8A480214940466039BA
:1050F00002C04FF02069E0E802954FF4003AE0E882
:10510000035640F8045C80E8A0044046C8F82450E8
:10511000FEF722F808B1FDF711F91C4F1448C4F846
:105120003C8060371830C8F83840E7E80209402072
:1051300061C7164847F814596030BD61C7E9075A7E
:105140007D62FEF709F808B1FDF7F8F8A7630022C1
:1051500005214720BC63FEF719FD47209DE70000AD
:1051600000100140443802400004024000000240A8
:1051700088640240343900200048004000080240A2
:10518000286002400014014000180240543A0020F8
:1051900090F84230202B01D00220704721B11AB183
:1051A0000023036304F096B80120704770477047EE
:1051B00037B5044690F84100202801D002203EBDBA
:1051C000019901B3FAB12162A284E28400206064F3
:1051D000212384F84130A56B144BEB63A56B144B72
:1051E0002B64A56B134BEB64A36B18652068134607
:1051F000A56B021D2846FEF719F830B11020606437
:10520000202084F8410001203EBD21686FF040005D
:1052100008602068143050E8001F41F0800140E829
:105220000012002AF5D100203EBD00004F9000087A
:1052300091900008618F000804490068096888425D
:1052400002D1034900200870704700005C3800203C
:1052500094020020704700002DE9F04106F054FF51
:10526000C2880446A2F5777300204C49082B01D868
:10527000087002E00B78FA2B02D20B785B1C0B70E3
:10528000DBB2474D052B03D9A2F578722A8000E0E6
:105290002880A288A2F57773082B01D8487002E015
:1052A0004B78FA2B02D24B785B1C4B70DBB2052B90
:1052B00003D9A2F578726A8000E068802288A2F59E
:1052C0007773082B01D8887002E08B78FA2B02D212
:1052D0008B785B1C8B70DBB2052B03D9A2F578723F
:1052E000AA8000E0A8806288A2F57773082B01D815
:1052F000C87002E0CB78FA2B02D2CB785B1CCB7063
:10530000D9B2052903D9A2F57872EA8000E0E880D5
:1053100060894FF4E0664FF4787733463A46C0210F
:10532000083403F0BDFB2881A08833463A46C021EB
:1053300003F0B6FB6881208833463A46C02103F06B
:10534000AFFBA881E08833463A46C02103F0A8FBB2
:10535000E881208928826089A882208933463A46DC
:10536000C02100F069FBA874608933463A46C02129
:1053700000F062FBA875207E2876607E6876E07E6D
:10538000E876A07EA876607F28774FF44870E8839F
:105390004FF6E0402884BDE8F0810000F0010020D5
:1053A0003C880020FEE701684A69D24352050FD4C9
:1053B0006FF480624A61002140F8301F202242735E
:1053C0008173026942F00402026101730120704797
:1053D000002070472DE9F84F0446006889460B9E6F
:1053E00001689846174641F48061016020680168B1
:1053F00041F48071016000964FF0011B0022594674
:1054000020460A9B00F0E3F84FF4007A40B1206890
:105410000068C00501D5C4F840A00320BDE8F88F9E
:10542000216809F0FE0008613346284920460A9A9F
:1054300000F011F9F0BB20684169806900903246A4
:1054400020460A9900F09EF940B1206C04283AD118
:105450002068016841F40071016034E0FDB2B8F1E8
:10546000010F09D02168380A0861324620460A999E
:1054700000F088F90028E8D120680561324620460E
:105480000A9900F07FF90028DFD12068016841F413
:105490008071016000960022594620460A9B00F068
:1054A00096F80028B3D1216809F0FF0040F0010010
:1054B000086100E007E03346044920460A9A00F0FC
:1054C000CAF80028AAD00120A8E7000002000100C5
:1054D0002DE9F843044600680D46DDE908970168A8
:1054E0009846164641F4807101604B4600224FF009
:1054F00001112046009700F06AF848B12068006862
:10550000C00502D54FF4007020640320BDE8F88385
:10551000216805F0FE0008613B464A4615492046D1
:1055200000F099F888B920684169806900903A468E
:105530004946204600F026F948B1206C042804D1E1
:105540002068016841F4007101600120DEE7F5B2D6
:10555000B8F1010F09D02168300A08613A4649467E
:10556000204600F00FF90028E7D1206805610020EF
:10557000CCE700000200010070B516460D46044657
:105580001EE02046FFF70FFF08B1012070BD681C28
:1055900016D0FDF7B9FF801BA84200D885B9206856
:1055A0004069C04340070BD5002044F8300F20214C
:1055B0006173A073216941F0200121612073E4E748
:1055C00020684069C0434007DBD4002070BD2DE94E
:1055D000F0471E4690460D460446C1F30747DDF8E6
:1055E000209026E0701C24D0FDF78EFFA0EB090070
:1055F000B04200D8EEB92068012F16D0806925EAA4
:1056000000000004000C12D00020404511D1002001
:1056100044F8300F20216173A073216941F020010B
:10562000216120730120BDE8F0874069E7E7012090
:10563000EBE72068012F0AD0806925EA000000040A
:10564000000C06D000204045CCD00020EBE740699C
:10565000F3E70120F7E72DE9F047984616460D4697
:1056600004464FF000094FF0200AC1F3074723E03A
:1056700020684069C043400515D42068016841F4A2
:105680000071016021686FF480604861C4F8309057
:1056900084F83DA084F83E90216C41F0040121641F
:1056A00084F83C9020E0701C06D0FDF72DFFA0EBA5
:1056B0000800B04203D816B1012F1ED020E02068A8
:1056C000012F14D0806925EA00000004000C17D0D7
:1056D00044F8309F84F80DA084F80E90216941F0C1
:1056E0002001216184F80C900120BDE8F087406919
:1056F00025EA00000004000CEAD12068406901E0BE
:105700002068806925EA00000004000CB0D1ECE7B5
:105710002DE9F04116460D46044600274FF02008BB
:1057200029E04069C043C0060DD454F8301B6FF027
:105730001000486144F80D7B04F81D89A777206AA2
:105740002062277714E0FDF7DFFE801BA84200D817
:105750008DB920684069C04340060CD544F8307FBD
:1057600084F80D80A773206940F020002061277322
:105770000120BDE8F08120684169C9434906D0D4C1
:105780000020F6E770B516460D4604461EE020469A
:10579000FFF709FE08B1012070BD681C16D0FDF7A7
:1057A000B3FE801BA84200D885B920684069C04379
:1057B00000060BD5002044F8300F20216173A07340
:1057C000216941F0200121612073E4E720684069EC
:1057D000C0430006DBD4002070BD000000487047C5
:1057E000F48500200EB5072000E0642006F0D7FE07
:1057F000FBF708FB0028F8D102E0642006F0CFFE9A
:1058000006F06CFE0028F8D17F4A101DCDE9010298
:10581000A2F11005291DFBF70DFB2B46A3F1340265
:1058200005F1480AA2F10C01A1F10C00CDF800A08D
:1058300006F0E6FCDFED750A9FED750A754A00215A
:1058400005F1640000F0AAFFA5F13402A2F10C01F9
:1058500001F11800FAF7B6FFA5F14008A5F15806C6
:1058600098ED000AA5F1640786ED000AA5F170091C
:1058700087ED000A89ED000A98ED010A002086ED07
:10588000010A87ED010A89ED010A98ED020A86ED09
:10589000020A87ED020A89ED020A06F0FFFE08F00F
:1058A000CBFD5D4C5D4920611020C8610846FEF7C4
:1058B00057FC08B1FCF742FD574908222831A1F1F5
:1058C000080002F07DFE012020714FF0FF3B594699
:1058D000012007F077FF0128F9D12078400708D58B
:1058E000207820F0040020704B4801992930FBF704
:1058F00059FA607840070AD5607820F0040060709B
:10590000414A291D1032A2F12A00FBF701FAA078C2
:1059100040070CD5A07820F00400A0703E48029902
:105920001630FBF761FB95ED040A06F061FD364B7E
:10593000CDF800A0103BA3F13402A2F10C01A1F1BB
:105940000C0006F05DFC97ED000A9FED351A89ED1D
:10595000000AD6ED000ADFED331AC7ED000A60EE4B
:10596000810A9FED312A284B40EE210A98ED000A6A
:10597000443BA3F1240202F10C0101F1240040EEAA
:10598000020AC6ED000A97ED010A89ED010AD6ED7B
:10599000010AC7ED010A60EE810A40EE210A98ED86
:1059A000010A40EE020AC6ED010A97ED020A89EDEE
:1059B000020AD6ED020AC7ED020A60EE810A40EE45
:1059C000210A98ED020A40EE020A9FED180AC6ED80
:1059D000020AFBF75FF80C4B203B1A1F111FA1F1C5
:1059E000100006F095FBE07810F00100E07007D0A1
:1059F000E07820F00100E070E07840F00200E07014
:105A0000FCF79EFC63E700001C86002000808945AF
:105A100000A08C452CF800082C010020FC3600204A
:105A20005AF8F63F5D896EBFD5A9183B6F12833ACD
:105A3000030A0B701070704710B5884218D3984253
:105A400016D8C839A2F1C804884203DDA04201DAA1
:105A5000012010BDC832A04203DD904201D20220D5
:105A600010BD9042FCD9C8339842F9D2032010BD32
:105A7000002010BD10B504002DED028BB0EE408A61
:105A80009FED1B0ADFED1B8AC1EE001AB0EE480A3B
:105A900000EEA10A0AD0F0EE680A04F079F8B5EE3B
:105AA000C00AF1EE10FA01D230EE280A124970EE67
:105AB000480AF0EEE00A10EE900A88420CDA002C58
:105AC0009FED0E0A38EE400A06D0B5EEC00AF1EEA0
:105AD00010FA04D230EE280ABDEC028B10BD10EE95
